:020000040800F2
:10000000B807002089010008911B0008B9150008F5
:10001000E91A00088F020008731D000800000000A4
:10002000000000000000000000000000951B000818
:100030001503000800000000931B0008971B000830
:10004000A3010008A3010008A3010008A301000800
:10005000A3010008A3010008A3010008A3010008F0
:10006000A3010008A3010008A3010008A3010008E0
:10007000A3010008A3010008910200089D020008E6
:10008000A3010008A3010008A3010008A3010008C0
:10009000A3010008A3010008A3010008A3010008B0
:1000A000A3010008A3010008A3010008A3010008A0
:1000B000A3010008A3010008A3010008A301000890
:1000C000A3010008A3010008A3010008A301000880
:1000D000A3010008A3010008A3010008A301000870
:1000E000A3010008A3010008A301000800F002F822
:1000F00000F03AF80AA090E8000C82448344AAF188
:100100000107DA4501D100F02FF8AFF2090EBAE885
:100110000F0013F0010F18BFFB1A43F0010318473B
:10012000401E0000601E0000103A24BF78C878C14D
:10013000FAD8520724BF30C830C144BF04680C60ED
:10014000704700000023002400250026103A28BF35
:1001500078C1FBD8520728BF30C148BF0B60704739
:100160001FB51FBD10B510BD00F058F81146FFF7C0
:10017000F7FF01F0CFFE00F076F803B4FFF7F2FFCF
:1001800003BC00F07DF8000009488047094800479B
:10019000FEE7FEE7FEE7FEE7FEE7FEE7FEE7FEE737
:1001A000FEE7FEE704480549054A064B7047000094
:1001B000F91B0008ED000008B8010020B807002076
:1001C000B8030020B80300204FF0000200B513462A
:1001D00094469646203922BFA0E80C50A0E80C5067
:1001E000B1F12001BFF4F7AF090728BFA0E80C5018
:1001F00048BF0CC05DF804EB890028BF40F8042B11
:1002000008BF704748BF20F8022B11F0804F18BF7D
:1002100000F8012B7047704770477047754600F033
:100220002BF8AE4605006946534620F00700854688
:1002300018B020B5FFF7B6FFBDE820404FF000062C
:100240004FF000074FF000084FF0000B21F00701BE
:10025000AC46ACE8C009ACE8C009ACE8C009ACE801
:10026000C0098D46704710B50446AFF300802046A4
:10027000BDE81040FFF781BF0048704754010020DF
:1002800001491820ABBEFEE7260002007047FEE7DA
:10029000014800F043B8000084000020014800F04D
:1002A0003DB80000C800002010B5B0B10C4C606033
:1002B000412001F06FFD60B100206070402001F02E
:1002C00069FD40B1002020706178014305D0002015
:1002D00010BD0120F1E70120F5E7012010BD00006D
:1002E000000000200449097819B10146402001F0BE
:1002F00091BD0120704700000000002004494978AA
:1003000019B10146412001F085BD01207047000070
:1003100000000020704772B6FEE700002DE9F05F94
:10032000C16B0C6801680B68D0F840C0042202FA67
:100330000CF2494DDFF824A1494E4A4FDFF828B1AD
:10034000DFF828E122422CD05A072AD50A68920603
:1003500003D40A6822F004020A600168A94201D1AC
:10036000042219E0514501D1402215E0B14202D1E9
:100370004FF4806210E0B94202D14FF480420BE0AA
:10038000594502D14FF4802206E0714502D14FF465
:10039000800201E04FF080622F4908394A60C16A4B
:1003A0003BE04FF0020808FA0CF818EA040F4FF08F
:1003B00000094FF0010235D05FEA837832D50B682F
:1003C0009B0605D40B6823F00A030B6080F82120FC
:1003D0000168A94201D1022219E0514501D1202230
:1003E00015E0B14202D14FF4007210E0B94202D1DF
:1003F0004FF400520BE0594502D14FF4003206E0B1
:10040000714502D14FF4001201E04FF00072124921
:1004100008394A6080F82090816A00291AD0BDE826
:10042000F05F0847082505FA0CF5254212D01B0796
:1004300010D50B6823F00E030B6090F84010C36BCF
:1004400002FA01F15960826380F8212080F820903F
:10045000016BE2E7BDE8F09F080002401C0002408B
:100460003000024044000240580002406C0002404C
:1004700030B528B308C8134914221944B1FBF2F16E
:100480008900C16310498163022141771A6843F6EC
:10049000F0718A43D0E900142143D0E902452C438E
:1004A0002143046921434469214384692143114361
:1004B000196000214163012242770177084630BD6F
:1004C000012030BDF8FFFDBF0000024070B50446BA
:1004D00000F0FEF80546601C02D004480078044491
:1004E00000F0F6F8401BA042FAD370BD20000020B7
:1004F0002DE9F84FDFF8B8910024A9F1040B234649
:100500000F2709F1040AABF1040EC9E00125A5404B
:100510002A40AA427DD1674ED1F804C0ACEB060850
:10052000B44532D014DCBCF1030F3AD009DCBCF185
:10053000000F2AD0BCF1010F1CD0BCF1020F31D149
:100540001DE0BCF1110F17D0BCF1120F2AD119E038
:10055000B8F5881F19D006DCB8F5803F15D0B8F57E
:10056000801F1FD111E0B8F5001F0ED0B8F5041F91
:1005700018D10AE0CB6815E0CB681B1D12E0CB68F0
:1005800008330FE0CB680C330CE08B682BB1012BE8
:100590004FF0080303D0456104E0042302E0056145
:1005A00000E00023FF2A01D8064601E000F104061E
:1005B0004FEA840501D9A5F12005D6F8008007FA95
:1005C00005FC28EA0C0803FA05F548EA0508C6F810
:1005D00000804D68ED0062D5374DAE6946F00106EA
:1005E000AE61AD6924F0030605F001050095334DB9
:1005F00006EB050CDCF80850A607360F07FA06F8DC
:1006000025EA0805DFF8B880404503D14FF000081F
:1006100017E044E0DFF8AC80404502D14FF001081C
:100620000FE0DFF8A480404502D14FF0020808E057
:10063000DFF89880404502D14FF0030801E04FF009
:10064000040808FA06F848EA0508CCF808804D685E
:10065000D9F80060ED024D4601D5164300E09643FF
:100660002E604D68DAF80060AD02554601D516439C
:1006700000E096432E604D68DBF80060AD035D46F8
:1006800001D5164300E096432E604D68DEF8006009
:10069000ED03754601D5164300E096432E60641CB9
:1006A0000D682A46E5407FF431AFBDE8F88F0000C1
:1006B0000804014000001110001002400000014039
:1006C00000080140000C01400010014000140140EE
:1006D00001488068704700002000002070B50400C9
:1006E00025D094F83D00002520B984F83C502046E0
:1006F00000F034FB242084F83D002068016821F0DC
:10070000010101602068016841F400410160206836
:10071000016821F40041016000F0AAFC4D4A6168C3
:10072000914201D84C4900E04C49884201D2012055
:1007300070BD4B492368B0FBF1F15E6826F03F06BF
:100740000E435E606368934206D94FF49673594333
:100750004FF47A73B1FBF3F12368491C1E6A26F04B
:100760003F06314319626168914210D84900401E2A
:10077000B0FBF1F2521CC2F30B02042A01D2042096
:1007800022E0B0FBF1F0401CC0F30B001CE0A268BB
:10079000F2B301EBC10303EB0116431EB3FBF6F307
:1007A0005B1C43F480431B0549D092B301EBC102AB
:1007B00002EB0111401EB0FBF1F0401CC0F30B0036
:1007C00040F4804040F400402168CA694CF6FF7351
:1007D0009A431043C861D4E90710014320680268B6
:1007E00022F0C00211430160D4E9030101432068F3
:1007F000826848F2FF339A4311438160D4E90501CE
:1008000008432168CA6822F0FF021043C86001E073
:100810000EE016E02068016841F0010101602564E6
:10082000202084F83D00256384F83E50002070BDF0
:1008300001EB4106431EB3FBF6F35B1CB3E701205B
:10084000C2E701EB4101401EB0FBF1F0401CC0F3D8
:100850000B00B7E7A086010080841E0000093D0060
:1008600040420F002DE9FF4F81B089460446FFF753
:100870002FFF054694F83D004FF0000820287DD159
:100880001923012250492046009500F0ABFF0028B3
:1008900074D194F83C00012870D0012084F83C0009
:1008A00020680168C90703D1016841F001010160B6
:1008B0002068016821F400610160242084F83D0073
:1008C000002626644148E0624FF0011B2027206883
:1008D000016841F48071016000950022594620466C
:1008E000049B00F07FFF50B120680068C00502D56E
:1008F0004FF400702064032005B0BDE8F08F21683C
:1009000009F0FE000861FFF7E3FE2168054648692B
:100910004969C0F34000C1F380214FF0A00A0FE005
:10092000FFF7D6FE411B0498814200D808B984F82D
:100930003DA0216848694969C0F34000C1F38021A6
:1009400094F83D20A02A02D008B90029E8D084F804
:100950003D7020684169C943890716D4016841F494
:1009600000710160206841698069192301221649DC
:100970002046009500F036FFB8B900E021E084F889
:100980003D7084F83C600020B6E7016841F40071D6
:10099000016021686FF480604861192301220A49CF
:1009A0002046009500F01EFF08B10120A4E703983F
:1009B00008F1010880458AD384F83D7084F83C60D2
:1009C000F3E7022098E70000020010000000FFFF9C
:1009D0002DE9FF4F83B00025DDE910799A46934653
:1009E0000446DDF848800095FFF772FE064694F84D
:1009F0003D0020287CD119230122884920460096F9
:100A000000F0F0FE0028F5D194F83C0001286FD0EA
:100A1000012084F83C0020680168C90703D10168FF
:100A200041F0010101602068016821F4006101606A
:100A3000222084F83D00402084F83E00256467624F
:100A4000A4F82A90608D20857548E062CDE9008683
:100A500053465A462046049900F0C6FD00287CD132
:100A6000208DDFF8C091202768B1012814D002281A
:100A7000206801681ED041F48061016020684169EE
:100A800080690090BCE0206841698169009101683B
:100A900041F400710160B3E02068016821F48061D5
:100AA000016072B62068416981690091016841F472
:100AB00000710AE041F40061016072B6206841698A
:100AC00081690091016821F48061016062B697E05C
:100AD000032865D801280CD0022843464FF00002B5
:100AE0004946204600960BD000F07CFEA8BB0CE0E7
:100AF00091E032464146204600F01AFF68BB72E0A2
:100B000000F070FE48BB72B633E02068016821F443
:100B10008061016072B620680069616A0870606A6D
:100B2000401C6062208D401E2085608D401E6085C7
:100B30003D4846F2A8110068B0FBF1F0C0EBC000E0
:100B400000EB80000090401E009007D020684069B4
:100B5000C04340070DD50098F5E727E044F8305F23
:100B60006773A573206940F02000206162B6257389
:100B70001CE02068016841F4007101602068006990
:100B8000616A0870606A401C6062218D491E21857F
:100B9000618D491E618562B621680969017026E090
:100BA00032464146204600F0C3FE18B1012007B08E
:100BB000BDE8F08F20680069616A0870606A401CB7
:100BC0006062208D401E81B22185608D401E60854F
:100BD00020684269D243520712D4032903D1016825
:100BE00021F48061016020680069616A0870606AB0
:100BF000401C6062208D401E2085608D401E6085F7
:100C0000208D00287FF464AF84F83D7084F83E5056
:100C100084F83C50CBE70220C9E700000200100036
:100C20000000FFFF040001002C0000202DE9FF4F11
:100C300083B09A46DDE9119793460446DDF840807B
:100C4000FFF746FD054694F83D0020287FD1192383
:100C5000012240492046009500F0C4FD002876D1CD
:100C600094F83C00012872D0012084F83C002068F0
:100C70000168C90703D1016841F0010101602068E2
:100C8000016821F400610160212084F83D004020CA
:100C900084F83E0000262664C4F82480A4F82A9034
:100CA000608D20852C48E062CDE9007553465A4698
:100CB0002046049900F016FD70B930E02A46394606
:100CC000204600F06DFE58B1206C042804D1206845
:100CD000016841F400710160012007B0BDE8F08FA8
:100CE000606A216800780861606A401C6062218D3A
:100CF000491E89B22185628D521E62852268536920
:100D0000DB435B070BD469B100781061606A401C5B
:100D10006062208D401E2085608D401E6085208D84
:100D20000028CBD12A463946204600F02FFD002866
:100D3000CAD154F83D0B016841F4007101602020D4
:100D400004F81E09E67766770020C6E7FFE7022071
:100D5000C3E70000020010000000FFFFF0B585B0FF
:100D600000240646009401940294039400682449E8
:100D7000884242D1234DA86940F00800A861A869C3
:100D8000694600F0080004904FF440600090122083
:100D90000190032003901C48FFF7AAFBE86940F488
:100DA0008000E861E8691A4D00F48000049017485B
:100DB000802701C5102091C5154845F810496C6180
:100DC000AC61EC61FFF754FB08B1FFF7A4FA75635F
:100DD0006E620F4D0D4844351430C5E90004C5E975
:100DE00002472C616C61AC612846EC61FFF740FB67
:100DF00008B1FFF790FAB5636E6205B0F0BD000070
:100E00000058004000100240000C01404400024025
:100E10008400002002488168027811448160704794
:100E200020000020074810B5016841F01001016062
:100E3000032000F075F80F2000F006F800F024F809
:100E4000002010BD0020024070B50D4D04464FF447
:100E50007A712878B1FBF0F00A490968B1FBF0F02B
:100E600000F0DCFA48B9102C07D200222146501EAF
:100E700000F036F800206C6070BD012070BD0000ED
:100E8000200000202C0000200C4808B5816941F0AA
:100E900001018161816901F001010091C16941F0A5
:100EA0008051C161C06900F08050009004484168E1
:100EB00021F0E06141F00071416008BD0010024086
:100EC00000000140002809DB00F01F0201219140D1
:100ED0004009800000F1E020C0F8001170470000D8
:100EE000F0B40E4B1B680C46C3F30223C3F1070595
:100EF000042D00D90425191D072901D2002300E083
:100F0000DB1E012606FA05F1491E214099409E404C
:100F1000761E16403143F0BC00F02CBF0CED00E013
:100F2000064900F0070208684FF6FF03184040EA40
:100F30000220034A10430860704700000CED00E0F7
:100F40000000FA052DE9F0470F46050061D0434E39
:100F5000306800F00700B84209D2306820F007007E
:100F600038433060306800F00700B84251D128683B
:100F70003B4C810712D5400703D5606840F4E06020
:100F800060602878000703D5606840F460506060B6
:100F90006068A96820F0F000084360602878C00706
:100FA00028D06868012810D02168022810D089074D
:100FB00000292EDA616821F0030101436160FFF727
:100FC00087FB804641F288390DE021688903EFE70D
:100FD0008901EDE7FFF77CFBA0EB0801494502D949
:100FE0000320BDE8F0876068696800F00C00B0EB92
:100FF000810FEFD1306800F00700B8420BD930689C
:1010000020F0070038433060306800F00700B84235
:1010100001D00120E5E72878400705D56068E96838
:1010200020F4E060084360602878000706D5606817
:10103000296920F4605040EAC100606000F038F88F
:101040006168084AC1F30311515CC8400649086051
:1010500006480068FFF7F8FE0020C2E700200240C3
:1010600000100240481F00082C000020240000202F
:101070000448054900684968044AC1F30221515CEB
:10108000C84070472C00002000100240581F000884
:101090000448054900684968044AC1F3C221515C0B
:1010A000C84070472C00002000100240581F000864
:1010B0000E4A51680E4801F00C03042B11D0082B86
:1010C0000FD10C48C1F38343C903C05C0AD55168F2
:1010D000084AC1F34041921E515C054A5043B0FB9F
:1010E000F1F0704704494843704700000010024087
:1010F00000127A00381F000800093D002DE9F84F62
:10110000040070D02078C04DC00749D06868C0F393
:101110008100012807D06868C0F38100022809D146
:101120006868C00306D52868800339D56068002840
:10113000E7D035E06068B0F5803F0BD010B1B0F576
:10114000A02F11D0286820F480302860286820F46F
:10115000802002E0286840F480302860606890B108
:10116000FFF7B6FA06460AE0286840F480202860B7
:10117000F0E700BFFFF7ACFA801B642873D828683B
:101180008003F7D50CE0FFF7A3FA064605E000BFA1
:10119000FFF79EFA801B6428F0D828688003F7D4F4
:1011A00020789A4E80074FF001094FF0000839D59A
:1011B000686810F00C0F07D06868C0F3810002283F
:1011C00009D16868C00306D42868800714D520694F
:1011D000012808D110E02069B0B1C6F80090FFF7EF
:1011E00077FA074605E00AE1FFF772FAC01B02280A
:1011F000C4D828688007F7D52868616920F0F8000E
:1012000040EAC10028600DE0C6F80080FFF760FAF0
:10121000074604E0FFF75CFAC01B022823D82868C1
:101220008007F7D4207800072CD57948A169D9B177
:10123000C0F80090FFF74CFA074604E0FFF748FAC1
:10124000C01B02280FD8686A8007F7D571484FF491
:10125000FA510068B0FBF1F0009000BF0098411E09
:101260000091FAD20EE080E0C0F80080FFF730FA7B
:10127000074604E0FFF72CFAC01B022875D8686AFD
:101280008007F7D42078400760D5E8690027C000C0
:1012900008D4E86940F08050E861E869012700F06F
:1012A000805000905C480168C90513D401688346EA
:1012B00041F480710160FFF70BFA824606E000BF3F
:1012C000FFF706FAA0EB0A0064284ED8DBF800000E
:1012D000C005F5D5E06801280AD008B1052813D06B
:1012E000286A20F001002862286A20F0040002E049
:1012F000286A40F001002862E06841F2883B98B11A
:10130000FFF7E6F982460BE0286A40F00400286205
:10131000EEE700BFFFF7DCF9A0EB0A0159455AD808
:10132000286A8007F6D50CE0FFF7D2F9824605E07F
:10133000FFF7CEF9A0EB0A0159454CD8286A80077F
:10134000F6D41FB1E86920F08050E861E06988B305
:101350006968C1F38101022944D00228C6F860807F
:1013600004D0FFF7B5F9044638E034E0FFF7B0F9F0
:10137000074604E0FFF7ACF9C01B02282BD8286809
:101380008001F7D4206AB0F5803F05D16868A16874
:1013900020F4003008436860D4E908010843696814
:1013A00021F4741108436860C6F86090FFF790F963
:1013B000044606E025E000BFFFF78AF9001B02287B
:1013C00009D828688001F7D51BE000BFFFF780F936
:1013D000001B022802D90320BDE8F88F286880018D
:1013E000F4D40EE00128F7D06868226A00F4803156
:1013F000914204D1616A00F47010884201D001204A
:10140000EAE70020E8E70000001002400000424246
:10141000800442422C0000200070004010B5401EA5
:10142000B0F1807F01D3012010BD4FF0E024606156
:101430000F21601700F09EFC0020A06107202061B2
:10144000002010BD70B5040004D094F841000025C0
:1014500010B106E0012070BD84F84050204600F035
:1014600023F8242084F841002068C16821F4005149
:10147000C160204600F0E8FB2068016921F490413A
:1014800001612068416921F02A0141612068C16839
:1014900041F40051C1606564202084F8410084F863
:1014A00042006563002070BD30B585B00024009413
:1014B00001940294039400681449884224D114488A
:1014C000816941F480418161816901F48041049125
:1014D000816941F00401816180690E4D00F00400D2
:1014E00004904FF4007000900220019003200390BC
:1014F00069462846FEF7FCFF2815CDE90004694639
:1015000028460294FEF7F4FF05B030BD00380140D4
:1015100000100240000801402DE9F843044690F80D
:101520004100984616460D46202802D00220BDE80C
:10153000F88385B17EB100206064212084F84100E9
:10154000FFF7C6F8A6848146E684A0682027B0F598
:10155000805F02D003E00120E9E7206910B12E4648
:1015600000250EE000260CE08021204600F0C8FB9C
:10157000A8B9C6B116F8010B21684860E08C401E7E
:10158000E084E08C4B464FF00002CDF8008000284C
:10159000EAD14FF04001204600F0B2FB40B184F8A0
:1015A00041700320C3E735F8020BC0F30800E3E7FE
:1015B00084F841700020BAE7FEE701684A69D24327
:1015C00052050FD46FF480624A61002140F8301F49
:1015D000202242738173026942F0040202610173A6
:1015E00001207047002070472DE9F84F044600683D
:1015F00089460B9D01689846174641F48061016059
:101600002068016841F48071016000954FF0011B72
:101610000022594620460A9B00F0E4F84FF4007A75
:1016200040B120680068C00501D5C4F840A003207F
:10163000BDE8F88F216809F0FE0008612B462849B3
:1016400020460A9A00F016F9F0BB206841698069CB
:1016500000902A4620460A9900F0A2F940B1206C79
:1016600004283AD12068016841F40071016034E037
:10167000FEB2B8F1010F09D02168380A08612A4684
:1016800020460A9900F08CF90028E8D1206806610C
:101690002A4620460A9900F083F90028DFD1206805
:1016A000016841F48071016000950022594620468E
:1016B0000A9B00F097F80028B3D1216809F0FF00D9
:1016C00040F00100086100E007E02B460449204695
:1016D0000A9A00F0CFF80028AAD00120A8E700005D
:1016E000020001002DE9F843044600680D46DDE9DB
:1016F000089701689846164641F4807101604B4690
:1017000000224FF001112046009700F06BF848B11D
:1017100020680068C00502D54FF4007020640320E3
:10172000BDE8F883216805F0FE0008613B464A46A3
:101730001549204600F09EF888B920684169806903
:1017400000903A464946204600F02AF948B1206CFC
:10175000042804D12068016841F40071016001206F
:10176000DEE7F5B2B8F1010F09D02168300A08614F
:101770003A464946204600F013F90028E7D1206890
:1017800005610020CCE700000200010070B516469C
:101790000D4604461EE02046FFF70FFF08B101206A
:1017A00070BD681C16D0FEF793FF801BA84200D8BE
:1017B00085B920684069C04340070BD5002044F834
:1017C000300F20216173A073216941F02001216154
:1017D0002073E4E720684069C0434007DBD4002061
:1017E00070BD00002DE9F047984617460D460446A7
:1017F000C1F30746DDF820902AE000BFB8F1FF3FB3
:1018000026D0FEF765FFA0EB0901414502D8B8F1EB
:10181000000F1DD12068012E16D0806925EA000036
:101820000004000C12D00020B84211D1002044F86E
:10183000300F20216173A073216941F020012161E3
:1018400020730120BDE8F0874069E7E70120EBE75E
:101850002068012E0AD0806925EA00000004000CEF
:1018600006D00020B842C9D00020EBE74069F3E77A
:101870000120F7E72DE9F047984616460D46044645
:101880004FF000094FF0200AC1F3074723E020681A
:101890004069C043400515D42068016841F40071D7
:1018A000016021686FF480604861C4F8309084F86A
:1018B0003DA084F83E90216C41F00401216484F83D
:1018C0003C9021E0701C06D0FEF702FFA0EB080060
:1018D000B04203D816B1012F1FD021E02068012F9C
:1018E00015D0806925EA00000004000C18D000BF64
:1018F00044F8309F84F80DA084F80E90216941F0DF
:101900002001216184F80C900120BDE8F087406936
:1019100025EA00000004000CEAD12068406901E0DB
:101920002068806925EA00000004000CAFD1ECE7D4
:101930002DE9F041002590460E460446202728E078
:101940004069C043C0060CD454F8301B6FF010003F
:10195000486144F810596777A577206A2062257797
:1019600014E0FEF7B5FEA0EB0800B04200D886B93F
:1019700020684069C04340060BD544F8305F677368
:10198000A573206940F02000206125730120BDE887
:10199000F08120684169C9434906D1D40020F6E7A7
:1019A00070B516460D4604461EE02046FFF705FEBC
:1019B00008B1012070BD681C16D0FEF789FE801B9F
:1019C000A84200D885B920684069C04300060BD5FD
:1019D000002044F8300F20216173A073216941F089
:1019E000200121612073E4E720684069C0430006BC
:1019F000DBD4002070BD00000D4808B5416941F0FE
:101A0000010141614069002200F00100009011468F
:101A10000E20FFF765FA0E20FFF754FA0022114658
:101A20000F20FFF75DFABDE808400F20FFF74ABA24
:101A3000001002400D4808B5816941F02001816124
:101A4000816901F020010091816941F00801816103
:101A5000816901F008010091816941F0040181610F
:101A6000806900F00400009008BD000000100240F2
:101A70000D4810B50B4901600C49416000214FF43D
:101A800080428160C0E9031241618161C1610162EC
:101A9000FEF724FE002803D0BDE81040FEF73BBC53
:101AA00010BD00000058004030000020A08601005A
:101AB0000C4810B50A4901604FF4E1314160002142
:101AC00081600C22C160C0E904128161C161FFF72D
:101AD000B9FC002803D0BDE81040FEF71CBC10BDC7
:101AE000003801400C010020FEE7000010B5064858
:101AF000FEF7DAFB054CA070012020706070FEF745
:101B0000E7FD6060A06010BD3000002008000020EC
:101B10007CB5FEF7DDFD1C4C0546A0782178084316
:101B20006178084309D0A068281AB0F57A7F04D3F9
:101B30001648A560FEF7B8FBA0706068281A322826
:101B400020D368466560FEF7D9FB607050B90098F5
:101B5000C4F81200BDF80400E082BDF80410412072
:101B600000F0BEF96846FEF7BDFB2070002809D1E1
:101B70000098E060BDF804002082BDF80410402009
:101B800000F0AEF97CBD000008000020300000200D
:101B9000FEE770477047FFF73DB930B58FB0282199
:101BA0006846FEF711FB14210AA8FEF70DFB012180
:101BB0000804CDE900100024029402250491CDE927
:101BC00007504FF4E01009906846FFF797FA08B104
:101BD00072B6FEE70F20CDE90A054FF48060CDE92B
:101BE0000C4002210AA80E94FFF7ACF9002801D09E
:101BF00072B6FEE70FB030BD704701680C3151E896
:101C0000002F22F4907241E80023002BF5D10168E7
:101C1000143151E8002F22F0010241E80023002B8B
:101C2000F5D1016B012909D101680C3151E8002F70
:101C300022F0100241E80023002BF5D1202180F88A
:101C4000421000210163704770B5044600680169C5
:101C5000E26821F44051114301612169A068084301
:101C6000616908432168CA6841F20C639A430243E0
:101C7000CA6020684169A26921F440711143416141
:101C80001E492068884202D1FFF702FA01E0FFF7FF
:101C9000EFF900EBC00101EB0012606864218000E5
:101CA000B2FBF0F3B3FBF1F36FF018067343B2FB32
:101CB000F0F5B2FBF0F605EB8305322303EB0515D7
:101CC000B5FBF1F5B6FBF1F605F0F00505EB0615F1
:101CD000B2FBF0F6B2FBF0F0B0FBF1F06FF01802DF
:101CE000504306EB800003EB0010B0FBF1F02168DD
:101CF00000F00F002844886070BD000000380140EB
:101D00002DE9F843984617460D460446089E24E000
:101D1000701C22D0FEF7DCFCA0EB0800B0421AD801
:101D2000CEB12068C168490717D5802D15D0402D48
:101D300013D00168C94309070FD401680025406822
:101D400000902046FFF759FF0820606484F8405057
:101D50000120BDE8F8830320FBE72068006835EA2E
:101D6000000004D00020B842D2D00020F1E70120CA
:101D7000F9E7FEE70907090E002804DB00F1E0207F
:101D800080F80014704700F00F0000F1E02080F8A8
:101D9000141D704738B5044641001D481423022223
:101DA0004068FEF75FFD002824D14FF40042002177
:101DB000204600F07DF800281CD10220FEF786FBAB
:101DC0006A46FE21204600F059F890B9BDF800009F
:101DD000A0F5A84149390CD16A46FF21204600F000
:101DE0004DF830B9BDF8000040F22621B1EB101FCC
:101DF00001D0012038BD44F226520021204600F0D7
:101E000057F8040002D11420FEF760FB204638BDCD
:101E1000000000207FB50C46014617484068E8B135
:101E2000E4B11425022303AA8DE82C004900012304
:101E30000222FEF7CDFD002811D1BDF80C0040BAFA
:101E4000208000EB8000801CC0F38F00608040B1D8
:101E500042F21071884206D314200AE0012004B037
:101E600070BD052005E0C0EB0010B0FBF1F0401D97
:101E700080B2A0800020F2E7000000207FB5144669
:101E80001425022303AA8DE82C0040000A460146CF
:101E9000064801234068FEF79BFD002803D1BDF8EA
:101EA0000C1049BA218004B070BD00000000002071
:101EB0001FB5130A8DF80C308DF80D201424022361
:101EC00003AA8DE81C0040000A460146034801238E
:101ED0004068FEF7ABFE04B010BD0000000000201B
:101EE0001CB5AA228DF800208DF801008DF8021093
:101EF0000A0A514080F0AA0048408DF803208DF86E
:101F000004001423052269460148FFF705FB1CBDA8
:101F10000C010020FEF786FFFFF73FFEFFF78AFD6A
:101F2000FFF76AFDFFF7A4FDFFF7C2FDFFF7DEFD37
:101F3000FFF7EEFDFCE701020203040506070809AE
:101F40000A0B0C0D0E0F1010000000000000000026
:101F5000010203040607080900000000010203044F
:101F6000801F000800000020300000002801000849
:101F7000B01F00083000002088070000440100085E
:101F8000000000000000000001010000000000004F
:101F90000000000000000000000000000000000041
:101FA00001000000100000000000000000127A0094
:04000005080000ED02
:00000001FF
