:020000040800F2
:10000000D007002089010008E31500082F1400081C
:10001000E11500088F020008391E000800000000EA
:10002000000000000000000000000000451B000868
:100030009102000800000000E5150008471B0008B9
:10004000A3010008A3010008A3010008A301000800
:10005000A3010008A3010008A3010008A3010008F0
:10006000A3010008A3010008A3010008A3010008E0
:10007000A3010008A3010008A3010008A3010008D0
:10008000A3010008A3010008A3010008A3010008C0
:10009000A3010008A3010008A3010008A3010008B0
:1000A000A3010008A3010008A3010008A3010008A0
:1000B000A3010008A3010008A3010008A301000890
:1000C000A3010008A3010008A3010008A301000880
:1000D000A3010008A3010008A30100082D1E0008C9
:1000E000A3010008A3010008A301000800F002F822
:1000F00000F03AF80AA090E8000C82448344AAF188
:100100000107DA4501D100F02FF8AFF2090EBAE885
:100110000F0013F0010F18BFFB1A43F0010318473B
:10012000981D0000B81D0000103A24BF78C878C19F
:10013000FAD8520724BF30C830C144BF04680C60ED
:10014000704700000023002400250026103A28BF35
:1001500078C1FBD8520728BF30C148BF0B60704739
:100160001FB51FBD10B510BD00F058F81146FFF7C0
:10017000F7FF01F072FE00F076F803B4FFF7F2FF2C
:1001800003BC00F07DF8000009488047094800479B
:10019000FEE7FEE7FEE7FEE7FEE7FEE7FEE7FEE737
:1001A000FEE7FEE704480549054A064B7047000094
:1001B000A91B0008ED000008D0010020D007002096
:1001C000D0030020D00300204FF0000200B51346FA
:1001D00094469646203922BFA0E80C50A0E80C5067
:1001E000B1F12001BFF4F7AF090728BFA0E80C5018
:1001F00048BF0CC05DF804EB890028BF40F8042B11
:1002000008BF704748BF20F8022B11F0804F18BF7D
:1002100000F8012B7047704770477047754600F033
:100220002BF8AE4605006946534620F00700854688
:1002300018B020B5FFF7B6FFBDE820404FF000062C
:100240004FF000074FF000084FF0000B21F00701BE
:10025000AC46ACE8C009ACE8C009ACE8C009ACE801
:10026000C0098D46704710B50446AFF300802046A4
:10027000BDE81040FFF781BF004870476C010020C7
:1002800001491820ABBEFEE7260002007047FEE7DA
:10029000704772B6FEE710B590F8211000220229CF
:1002A00005D00421816380F82020012010BD016861
:1002B0000B6823F00E030B6001680B6823F0010349
:1002C0000B6090F84030C46B012101FA03F36360C6
:1002D00080F8211080F82020104610BD10B590F84D
:1002E00021100024022903D00421816301243DE070
:1002F00001680A6822F00E020A6001680A6822F0AA
:1003000001020A601A4A0168914201D1012121E0EB
:10031000174A1432914201D110211BE0144A2832AD
:10032000914201D1891515E0114A3C32914201D127
:1003300089140FE00E4A5032914202D14FF48031BD
:1003400008E00B4A6432914202D14FF4801101E07F
:100350004FF08071064A083A5160012180F821105F
:10036000002180F82010416B01B18847204610BD64
:100370000800024070B5044600F09CF90546601C78
:1003800002D004480078044400F094F9401BA042D5
:10039000FAD370BD380000202DE9F04300233E4F12
:1003A0000F2573E001229A400A406DD023F0030428
:1003B000E619D6F808809C074FEA147C05FA0CF978
:1003C00009EA0804DFF8D480404502D14FF0000864
:1003D00016E0DFF8CC80404502D14FF001080FE075
:1003E000DFF8C080404502D14FF0020808E0DFF896
:1003F000B880404502D14FF0030801E04FF00408F7
:1004000008FA0CF8A04522D1284CD4F800C02CEAF8
:10041000020CC4F800C0241DD4F800C02CEA020C61
:10042000C4F800C0214C0C34D4F800C02CEA020CF3
:10043000C4F800C0241FD4F800C02CEA020CC4F891
:1004400000C0D6F808C02CEA090CC6F808C0FF2A7C
:1004500001D8064601E000F104064FEA830401D901
:10046000A4F12004D6F800C005FA04F82CEA080C20
:100470004FF0040808FA04F84CEA080CC6F800C06B
:10048000C46824EA0204C46003F1010331FA03F2F0
:1004900088D1BDE8F0830000000001400008014061
:1004A000000C014000100140001401400004014014
:1004B0002DE9F84FDFF8B8910024A9F1040B234689
:1004C0000F2709F1040AABF1040EC9E00125A5408C
:1004D0002A40AA427DD1674ED1F804C0ACEB060891
:1004E000B44532D014DCBCF1030F3AD009DCBCF1C6
:1004F000000F2AD0BCF1010F1CD0BCF1020F31D18A
:100500001DE0BCF1110F17D0BCF1120F2AD119E078
:10051000B8F5881F19D006DCB8F5803F15D0B8F5BE
:10052000801F1FD111E0B8F5001F0ED0B8F5041FD1
:1005300018D10AE0CB6815E0CB681B1D12E0CB6830
:1005400008330FE0CB680C330CE08B682BB1012B28
:100550004FF0080303D0456104E0042302E0056185
:1005600000E00023FF2A01D8064601E000F104065E
:100570004FEA840501D9A5F12005D6F8008007FAD5
:1005800005FC28EA0C0803FA05F548EA0508C6F850
:1005900000804D68ED0062D5374DAE6946F001062A
:1005A000AE61AD6924F0030605F001050095334DF9
:1005B00006EB050CDCF80850A607360F07FA06F81C
:1005C00025EA0805DFF8B880404503D14FF0000860
:1005D00017E044E0DFF8AC80404502D14FF001085D
:1005E0000FE0DFF8A480404502D14FF0020808E098
:1005F000DFF89880404502D14FF0030801E04FF04A
:10060000040808FA06F848EA0508CCF808804D689E
:10061000D9F80060ED024D4601D5164300E096433F
:100620002E604D68DAF80060AD02554601D51643DC
:1006300000E096432E604D68DBF80060AD035D4638
:1006400001D5164300E096432E604D68DEF8006049
:10065000ED03754601D5164300E096432E60641CF9
:100660000D682A46E5407FF431AFBDE8F88F000001
:100670000804014000001110001002400000014079
:1006800000080140000C014000100140001401402E
:100690008068084000D001207047C26821EA020348
:1006A0000A4043EA0241016170470AB101617047A3
:1006B0000904FBE70148806870470000380000200B
:1006C0000248816802781144816070473800002038
:1006D000074810B5016841F010010160032000F0E7
:1006E00085F80F2000F006F800F024F8002010BD77
:1006F0000020024070B50D4D04464FF47A71287801
:10070000B1FBF0F00A490968B1FBF0F000F07EFBA4
:1007100048B9102C07D200222146501E00F046F89E
:1007200000206C6070BD012070BD0000380000200A
:10073000440000200C4808B5816941F00101816145
:10074000816901F001010091C16941F08051C161ED
:10075000C06900F0805000900448416821F0E061D9
:1007600041F00071416008BD0010024000000140EE
:1007700000280DDB00F01F0201219140400980009C
:1007800000F1E020C0F88011BFF34F8FBFF36F8FEF
:100790007047002809DB00F01F0201219140400949
:1007A000800000F1E020C0F800117047F0B40E4B5B
:1007B0001B680C46C3F30223C3F10705042D00D9BF
:1007C0000425191D072901D2002300E0DB1E0126A4
:1007D00006FA05F1491E214099409E40761E1640BA
:1007E0003143F0BC01F029BB0CED00E0064900F0FC
:1007F000070208684FF6FF03184040EA0220034A48
:1008000010430860704700000CED00E00000FA059E
:100810002DE9F0470F46050061D0434E306800F0E7
:100820000700B84209D2306820F007003843306032
:10083000306800F00700B84251D128683B4C81076E
:1008400012D5400703D5606840F4E0606060287806
:10085000000703D5606840F4605060606068A96874
:1008600020F0F000084360602878C00728D068684E
:10087000012810D02168022810D0890700292EDA1B
:10088000616821F0030101436160FFF713FF8046B7
:1008900041F288390DE021688903EFE78901EDE72E
:1008A000FFF708FFA0EB0801494502D90320BDE886
:1008B000F0876068696800F00C00B0EB810FEFD141
:1008C000306800F00700B8420BD9306820F007000C
:1008D00038433060306800F00700B84201D0012092
:1008E000E5E72878400705D56068E96820F4E0600E
:1008F000084360602878000706D56068296920F4FD
:10090000605040EAC100606000F038F86168084A51
:10091000C1F30311515CC8400649086006480068ED
:10092000FFF7E8FE0020C2E700200240001002406E
:100930009E1E0008440000203C0000200448054999
:1009400000684968044AC1F30221515CC8407047FD
:100950004400002000100240AE1E00080448054973
:1009600000684968044AC1F3C221515CC84070471D
:100970004400002000100240AE1E00080E4A5168DC
:100980000E4801F00C03042B11D0082B0FD10C489A
:10099000C1F38343C903C05C0AD55168084AC1F357
:1009A0004041921E515C054A5043B0FBF1F0704744
:1009B00004494843704700000010024000127A00CA
:1009C0008E1E000800093D002DE9F84F040070D08C
:1009D0002078C04DC00749D06868C0F38100012865
:1009E00007D06868C0F38100022809D16868C00395
:1009F00006D52868800339D560680028E7D035E03F
:100A00006068B0F5803F0BD010B1B0F5A02F11D0C9
:100A1000286820F480302860286820F4802002E0D4
:100A2000286840F480302860606890B1FFF742FE8B
:100A300006460AE0286840F480202860F0E700BFFE
:100A4000FFF738FE801B642873D828688003F7D529
:100A50000CE0FFF72FFE064605E000BFFFF72AFE79
:100A6000801B6428F0D828688003F7D420789A4E39
:100A700080074FF001094FF0000839D5686810F081
:100A80000C0F07D06868C0F38100022809D168689C
:100A9000C00306D42868800714D52069012808D12E
:100AA00010E02069B0B1C6F80090FFF703FE0746DA
:100AB00005E00AE1FFF7FEFDC01B0228C4D8286844
:100AC0008007F7D52868616920F0F80040EAC10086
:100AD00028600DE0C6F80080FFF7ECFD074604E053
:100AE000FFF7E8FDC01B022823D828688007F7D449
:100AF000207800072CD57948A169D9B1C0F80090B9
:100B0000FFF7D8FD074604E0FFF7D4FDC01B02281D
:100B10000FD8686A8007F7D571484FF4FA5100681A
:100B2000B0FBF1F0009000BF0098411E0091FAD296
:100B30000EE080E0C0F80080FFF7BCFD074604E04F
:100B4000FFF7B8FDC01B022875D8686A8007F7D484
:100B50002078400760D5E8690027C00008D4E8691C
:100B600040F08050E861E869012700F08050009073
:100B70005C480168C90513D40168834641F480715B
:100B80000160FFF797FD824606E000BFFFF792FD88
:100B9000A0EB0A0064284ED8DBF80000C005F5D5AC
:100BA000E06801280AD008B1052813D0286A20F08F
:100BB00001002862286A20F0040002E0286A40F060
:100BC00001002862E06841F2883B98B1FFF772FDAE
:100BD00082460BE0286A40F004002862EEE700BF7E
:100BE000FFF768FDA0EB0A0159455AD8286A80072B
:100BF000F6D50CE0FFF75EFD824605E0FFF75AFDF3
:100C0000A0EB0A0159454CD8286A8007F6D41FB1D9
:100C1000E86920F08050E861E06988B36968C1F351
:100C20008101022944D00228C6F8608004D0FFF771
:100C300041FD044638E034E0FFF73CFD074604E0A0
:100C4000FFF738FDC01B02282BD828688001F7D495
:100C5000206AB0F5803F05D16868A16820F40030B3
:100C600008436860D4E908010843696821F47411F5
:100C700008436860C6F86090FFF71CFD044606E074
:100C800025E000BFFFF716FD001B022809D82868E1
:100C90008001F7D51BE000BFFFF70CFD001B022809
:100CA00002D90320BDE8F88F28688001F4D40EE053
:100CB0000128F7D06868226A00F48031914204D19B
:100CC000616A00F47010884201D00120EAE7002038
:100CD000E8E7000000100240000042428004424267
:100CE000440000200070004070B5040009D0606A24
:100CF000002540B125616561A56294F8510040B1BD
:100D00000CE0012070BD6068B0F5827FF4D0E56131
:100D1000F2E784F85050204600F040F8022084F8B2
:100D200051002068016821F040010160A0882189FC
:100D300000F4827001F404410843A18901F40061C8
:100D40000843217C01F002010843217D01F00101EB
:100D50000843218B01F400710843217F01F0380121
:100D6000084394F8201001F080010843218D01F41C
:100D70000051084321680860A069042101EA10407D
:100D8000216848602068C16921F40061C16165651E
:100D9000012084F85100002070BD000030B585B0FE
:100DA000002400940194029403940068144988423A
:100DB00023D11448816941F480518161816901F432
:100DC00080510491816941F00401816180690E4D77
:100DD00000F004000490A020009002200190032065
:100DE000039069462846FFF763FB4020CDE90004E5
:100DF000694628460294FFF75BFB05B030BD000052
:100E000000300140001002400008014010B5401EB3
:100E1000B0F1807F01D3012010BD4FF0E02460616C
:100E20000F21601701F009F80020A0610720206160
:100E3000002010BD704710B5040015D0242084F8A0
:100E400041002068C16821F40051C160204600F0D3
:100E500089F90020606484F8410084F8420044F875
:100E6000300F6060207410BD012010BD006807497C
:100E700088420AD106484169491C416100218170BC
:100E80000079002801D000F0AFBB70470048004057
:100E900000000020F8B5016804460868CA684B697C
:100EA00010F00F0F4FF0000559D003F0010602F4C7
:100EB0009077374365D0C10705D0D10503D5616C64
:100EC00041F001016164410705D5D90703D0616C88
:100ED00041F002016164810705D5D90703D0616C37
:100EE00041F004016164010707D502F0200131439C
:100EF00003D0616C41F008016164616C00293AD053
:100F0000800604D5900602D5204600F07DFE2068BC
:100F10004069616CC0F38010090700D460B32046BB
:100F200000F04BFE20684069400621D5206814304F
:100F300050E8001F21F0400140E80012002AF5D1DE
:100F4000E06BA8B16D494163E06BFFF7C7F900287A
:100F500011D0E06B416B01B0BDE8F040084783065B
:100F60000FD593060DD52046BDE8F84000F04CBEE5
:100F70002046FFF77BFFF8BD2046FFF777FF65644B
:100F8000F8BD266B2023012E7CD1C6067AD5D60665
:100F900078D508684868009048694FF00206400616
:100FA00040D5E16B086840680004000CE8D0A28DD1
:100FB0008242E5D9E085886920282DD020680C3050
:100FC00050E8001F21F4807140E80012002AF5D19A
:100FD0002068143050E8001F21F0010140E80012A1
:100FE000002AF5D12068143050E8001F21F040019C
:100FF00040E80012002AF5D184F8423025632068C9
:101000000C3050E8001F21F0100140E80012002AC7
:10101000F5D1E06BFFF73FF96663A08DE18D401AD3
:1010200081B22AE0A08DE18D401A81B2E08D0028C6
:10103000A6D00029A4D022680C3252E8000F20F478
:10104000907042E80007002FF5D12068143050E876
:10105000002F22F0010240E80027002FF5D184F88C
:101060004230256320680C3050E8002F22F0100237
:1010700040E80023002BF5D166632046FFF7DAFE37
:10108000F8BDFFE705062BD5150629D594F84100D4
:101090002128F5D1A068B0F5805F01D12069B0B1F9
:1010A000206A411C2162216800784860E08C401E63
:1010B0000004000CE084E3D12068C16821F08001C5
:1010C000C1602068C16841F04001C160D8E7206A72
:1010D0000088C0F308004860206A801C2062E5E7B1
:1010E0004006CDD55006CBD5CA68204622F0400236
:1010F000CA6084F8413000F099F9C1E7AB1B0008E1
:1011000070B5040004D094F84100002510B106E049
:10111000012070BD84F84050204600F04FF8242094
:1011200084F841002068C16821F40051C160204664
:1011300000F0CCFD2068016921F490410161206834
:10114000416921F02A0141612068C16841F40051E0
:10115000C1606564202084F8410084F84200656322
:10116000002070BD10B5104A01681048914209D1A5
:10117000C16921F40031C161BDE810400C210C4867
:10118000FFF70AB90B4A91420DD1C16921F48021C0
:10119000C1614FF440610848FFF7FEF8BDE8104018
:1011A0002720FFF7E5BA10BD0044004000100240C0
:1011B0000008014000480040000C014030B585B0F7
:1011C000002400940194029403942B4D03682B484F
:1011D00002210322AB4222D1C36943F40033C3612D
:1011E000C36903F400330493836943F00403836108
:1011F0008069234D00F0040004900420CDE9000133
:10120000039269462846FFF753F90820CDE9000408
:10121000694628460294FFF74BF905B030BD194DD9
:10122000AB42FAD1C36943F48023C361C36903F4B9
:1012300080230493836943F00803836180690392E8
:1012400000F0080004902815CDE900010E4D694614
:101250002846FFF72DF9E814CDE900046946284631
:101260000294FFF725F9002205212720FFF79EFAB7
:101270002720FFF78EFAD0E700440040001002401C
:101280000008014000480040000C01402DE9F84FE3
:10129000044690F842009A4616460D46202802D091
:1012A0000220BDE8F88FB5B1AEB100206064222104
:1012B00084F842102063FFF7FDF9A6858146E68594
:1012C000A0684FF480582027404501D1206920B103
:1012D0002E46002529E00120E3E7002625E04B46C5
:1012E000002220212046CDF800A000F066FD18B1B4
:1012F00084F842700320D4E726B1A06840451AD094
:1013000038B108E020684068C0F3080025F8020BF7
:1013100008E0206978B12068406800F07F0000BFD5
:1013200006F8010BE08D401EE085E08D0028D6D147
:1013300084F84270B5E720684068F1E790F84230E1
:10134000202B01D00220704721B11AB10023036382
:1013500000F018BD0120704710B5006809498842A7
:101360000FD10948C169491CC161017929B181695D
:10137000491C8161407800F03DFBBDE8104000F061
:1013800033B910BD00480040000000202DE9F843AB
:10139000044690F84100984616460D46202802D093
:1013A0000220BDE8F88385B17EB100206064212071
:1013B00084F84100FFF77EF9A6848146E684A068A0
:1013C0002027B0F5805F02D003E00120E9E7206923
:1013D00010B12E4600250EE000260CE080212046AC
:1013E00000F0EBFCA8B9C6B116F8010B2168486003
:1013F000E08C401EE084E08C4B464FF00002CDF8BC
:1014000000800028EAD14FF04001204600F0D5FCD2
:1014100040B184F841700320C3E735F8020BC0F3F4
:101420000800E3E784F841700020BAE77047FEE760
:101430002DE9F04F85B000243748009401940294C0
:101440000394816941F010018161816901F010010B
:101450000491816941F020018161816901F02001DD
:101460000491816941F004018161816901F0040105
:101470000491816941F0080181618069DFF89C90E5
:1014800000F008004FF40055049000222946484619
:10149000FFF70BF9DFF888A044F203070022394672
:1014A0005046FFF702F9DFF87CB04FF4A85800224D
:1014B00041465846FFF7F9F80095022601250396A4
:1014C000CDE9015469464846FEF7F2FF00970396BE
:1014D000CDE9015469465046FEF7EAFF4BF2F83079
:1014E000CDE90004694650460294FEF7E1FFCDF8CD
:1014F00000800396CDE9015469465846FEF7D8FFAF
:101500004FF40A40CDE90004694658460294FEF7BC
:10151000CFFF05B0BDE8F08F001002400010014081
:10152000000C014000080140104810B50E49016050
:101530004FF48271416000218160C1604FF40072FC
:101540000161C0E905121822C0E9072141628162E8
:101550000A21C162FFF7C8FB002803D0BDE8104094
:10156000FEF797BE10BD000000300140840000204F
:101570000C4810B50A4901604FF4E1314160002187
:1015800081600C22C160C0E904128161C161FFF772
:10159000B7FD002803D0BDE81040FEF77ABE10BDAD
:1015A00000440040DC0000200C4810B50A490160EE
:1015B0004FF4E1314160002181600C22C160C0E93B
:1015C00004128161C161FFF79BFD002803D0BDE8D3
:1015D0001040FEF75EBE10BD004800402401002010
:1015E000FEE7FEE770470000094810B590F842009A
:1015F00022280BD0012207490548FFF79FFE00284B
:1016000004D00448401E016A491C016210BD00005C
:1016100024010020010000202DE9F05F0446057B35
:10162000A17BDFF80CA1407B01F00F0140EA01260D
:101630009AF803C0E7783F494FF000084FF00109DE
:10164000BCF1000F19D0002025FA00F20B1802F0AF
:1016500001021B7A9A4266D1401CC0B20628F3D31D
:101660005FF0000026FA00F2D20702D00A18927B3F
:10167000F2B3401CC0B20C28F4D3BCF1000F0AD066
:10168000C87E381AC2B2012A05D9DAF810301A44D5
:10169000521ECAF81020A2888B4608460A80E188AC
:1016A0004180217A0171617A4171A17A8171E17A77
:1016B000C171284600F00CFA0020594625FA00F2C4
:1016C0000B1802F001021A72401CC0B20628F5D3B2
:1016D0005FF0000026FA00F20B1802F001029A7384
:1016E000401CC0B20C28F5D3A07BC009887600E06E
:1016F00019E0CF76FEF7DEFFCAF828008AF80390DB
:10170000DAF8083051464A465B1CCAF80830B8F18E
:10171000000F0AD0C8624A71BDE8F05F0122510390
:101720000548FEF7C2BFC846A7E7BDE8F09F000026
:101730000000002048000020001001407FB5EFF3BA
:10174000108172B60C4B9A7952B10C4D00206C4648
:101750002E5C2654401CC0B21028F9D3002098718A
:1017600001B962B6002A05D00A231022694604484E
:10177000FFF70CFE7FBD0000000000207400002079
:10178000DC00002010B50F4C0020A070E070A060BD
:10179000E06020616061A061E061206260622070B1
:1017A0006071A07102464FF400510748FEF77DFFBB
:1017B00000F01EF82079002803D0BDE81040FFF7A4
:1017C00013BF10BD000000200010014010B5074AF3
:1017D0000021435C545CA34201D0002010BD491C91
:1017E000C9B20629F5D3012010BD0000861E0008ED
:1017F0002DE9FF41354C0020012620712670344D23
:10180000324631462846FEF750FF01220221284683
:10181000FEF74BFF4FF4165000F0BAF808B1042061
:1018200016E00A20FEF7A6FD40F6B837384600F06D
:10183000BFF860B10025606A401C6062684600F035
:101840007DF838B16846FFF7C1FF38BB04E00320DC
:10185000207036E005202CE01E49002002AA0B5C17
:101860001354401CC0B20628F9D300F057F84FF4C7
:101870009673062202A91848FFF788FDB0B9142014
:10188000FEF778FD384600F093F878B1684600F02E
:1018900055F868B16846FFF799FF48B100F01EF8A7
:1018A00090B1267102202070BDE8FF81062000E083
:1018B000072020703220FEF75DFD6D1CEDB2032D78
:1018C000B9D300F00BF8EFE70820ECE700000020A8
:1018D000000C0140861E00082401002010B50E4CAB
:1018E000002201212046FEF7E0FE002202212046D0
:1018F000FEF7DBFE0A20FEF73DFD40F6B83000F0B3
:1019000057F8002805D04FF4E13000F041F808B155
:10191000002010BD012010BD000C0140064808B594
:10192000006801684168009100E041680168C943AE
:101930008906FAD508BD00002401002038B5044608
:1019400010A000680090FFF7E9FF4FF496752B4652
:10195000032269460C48FFF719FD30B92B460622D1
:1019600021460948FFF792FC08B1002038BD07481E
:101970000022A15C8154521CD2B2062AF9D3012064
:1019800038BD0000C1C1C10024010020300000208A
:1019900010B504460548FFF74EFA08B1012010BD06
:1019A00002484460BDE81040FFF7AABB24010020B4
:1019B0002DE9F0410746FEF77DFE0D4D04464FF43C
:1019C000805631462846FEF763FE012808D10220E2
:1019D000FEF7D0FC31462846FEF75AFE012805D016
:1019E000FEF768FE001BB842EBD30020BDE8F08193
:1019F000000C0140F0B4284A284C01239178C1B171
:101A0000002501291BD06054491CC8B290701028D1
:101A100013D395702146002001F110050E5C2E5461
:101A2000401CC0B21028F9D39371A07801282BD1A3
:101A30000FE0A52801D120709370F0BC70475A28A0
:101A400003D0A528F9D09570F7E760700220907058
:101A5000F3E70020114E0F2503460727F15C4840AD
:101A60005FF000015FEA006C02D587EA400000E009
:101A70004000491CC9B2C0B20829F3D35B1CAB4279
:101A8000ECD3E17B884203D0D068401CD060D4E71F
:101A9000F0BC0248FFF7C0BD000000206400002039
:101AA00010B5094C607900280DD0FEF703FEE16AFD
:101AB000401A642807D300224FF400510348FEF770
:101AC000F4FD0020607110BD0000002000100140F6
:101AD00070B504461748C07800282AD0164D04F087
:101AE0000100297A884204D04FF480411348FEF760
:101AF000D4FD687AC4F34001114E884203D0B11579
:101B00003046FEF7CAFDA87AC4F38001884204D0AB
:101B10004FF480613046FEF7C0FD687BC4F340118E
:101B2000884206D03046BDE870404FF48051FEF741
:101B3000B4BD70BD0000002048000020000C014032
:101B4000000801407047FEF7BBBD30B58FB02821BB
:101B50006846FEF739FB14210AA8FEF735FB012180
:101B60000804CDE900100024029402250491CDE977
:101B700007504FF4E01009906846FEF725FF08B1C2
:101B800072B6FEE70F20CDE90A054FF48060CDE97B
:101B90000C4002210AA80E94FEF73AFE002801D05C
:101BA00072B6FEE70FB030BD704710B5406A002135
:101BB000C185C184FFF75AF910BD01680C3151E8A5
:101BC000002F22F4907241E80023002BF5D1016828
:101BD000143151E8002F22F0010241E80023002BCC
:101BE000F5D1016B012909D101680C3151E8002FB1
:101BF00022F0100241E80023002BF5D1202180F8CB
:101C0000421000210163704708B590F84210222964
:101C100001D0022008BD82684FF480539A4201D15E
:101C2000016921B1816A9A421BD04AB10AE0026877
:101C3000816A5268C2F308020A80816A891C08E03E
:101C4000026972B10268526802F07F020A70816A0A
:101C5000491C8162C18D491E0904090CC18503D04C
:101C60001BE002685268F1E70168CA6822F02002AE
:101C7000CA600168CA6822F48072CA6001684A6951
:101C800022F001024A61202180F8421000214163C4
:101C9000026B012A03D0FFF75FFB002008BD016340
:101CA00001680C3151E8002F22F0100241E80023B6
:101CB000002BF5D101680A68D20602D50A68496886
:101CC0000091818DFFF7B6F8E7E7000070B5044694
:101CD00000680169E26821F4405111430161216902
:101CE000A0680843616908432168CA6841F20C632F
:101CF0009A430243CA6020684169A26921F4407195
:101D0000114341611E492068884202D1FEF726FE38
:101D100001E0FEF713FE00EBC00101EB001260686A
:101D200064218000B2FBF0F3B3FBF1F36FF018060F
:101D30007343B2FBF0F5B2FBF0F605EB83053223FB
:101D400003EB0515B5FBF1F5B6FBF1F605F0F00573
:101D500005EB0615B2FBF0F6B2FBF0F0B0FBF1F0CC
:101D60006FF01802504306EB800003EB0010B0FB4D
:101D7000F1F0216800F00F002844886070BD000079
:101D80000038014081628285C285002141642221A0
:101D900080F84210016921B10168CA6842F480727A
:101DA000CA6001684A6942F001024A610068C1687C
:101DB00041F02001C160002070472DE9F8439846AA
:101DC00017460D460446089E24E0701C22D0FEF7FC
:101DD00071FCA0EB0800B0421AD8CEB12068C168EF
:101DE000490717D5802D15D0402D13D00168C94360
:101DF00009070FD401680025406800902046FFF7CE
:101E0000DCFE0820606484F840500120BDE8F883BF
:101E10000320FBE72068006835EA000004D00020BA
:101E2000B842D2D00020F1E70120F9E70148FFF7DE
:101E300031B8000024010020FEE70907090E002840
:101E400004DB00F1E02080F80014704700F00F0080
:101E500000F1E02080F8141D7047FEF739FCFFF711
:101E600074FEFFF7E5FAFFF75FFBFFF781FBFFF773
:101E70009BFBFFF787FCFFF713FEFFF75FFC0120DA
:101E8000FEF778FAF7E7C000063C064401020203B9
:101E90000405060708090A0B0C0D0E0F10100000B0
:101EA000000000000000010203040607080900000A
:101EB0000000010203040000D81E000800000020FA
:101EC0004800000028010008201F000848000020EA
:101ED0008807000044010008000000000000000026
:101EE00000000000000000000000000000000000F2
:101EF00000000000000000000000000000000000E2
:101F000000000000000000000000000000000000D1
:101F100001000000100000000000000000127A0024
:04000005080000ED02
:00000001FF
