:020000040800F2
:1000000048080020890100083F16000887140008EE
:100010003D1600088F020008F91F000800000000CC
:10002000000000000000000000000000F91C0008B3
:10003000910200080000000041160008FB1C0008A7
:10004000A3010008A3010008A3010008A301000800
:10005000A3010008A3010008A3010008A3010008F0
:10006000A3010008A3010008A3010008A3010008E0
:10007000A3010008A3010008A3010008A3010008D0
:10008000A3010008A3010008A3010008A3010008C0
:10009000A3010008A3010008A3010008A3010008B0
:1000A000A3010008A3010008A3010008A3010008A0
:1000B000A3010008A3010008A3010008A301000890
:1000C000A3010008A3010008A3010008B919000852
:1000D000A3010008A3010008E11F0008ED1F0008AC
:1000E000A3010008A3010008A301000800F002F822
:1000F00000F03AF80AA090E8000C82448344AAF188
:100100000107DA4501D100F02FF8AFF2090EBAE885
:100110000F0013F0010F18BFFB1A43F0010318473B
:100120004C1F00006C1F0000103A24BF78C878C133
:10013000FAD8520724BF30C830C144BF04680C60ED
:10014000704700000023002400250026103A28BF35
:1001500078C1FBD8520728BF30C148BF0B60704739
:100160001FB51FBD10B510BD00F058F81146FFF7C0
:10017000F7FF01F052FF00F076F803B4FFF7F2FF4B
:1001800003BC00F07DF8000009488047094800479B
:10019000FEE7FEE7FEE7FEE7FEE7FEE7FEE7FEE737
:1001A000FEE7FEE704480549054A064B7047000094
:1001B0005D1D0008ED0000084802002048080020EE
:1001C00048040020480400204FF0000200B5134608
:1001D00094469646203922BFA0E80C50A0E80C5067
:1001E000B1F12001BFF4F7AF090728BFA0E80C5018
:1001F00048BF0CC05DF804EB890028BF40F8042B11
:1002000008BF704748BF20F8022B11F0804F18BF7D
:1002100000F8012B7047704770477047754600F033
:100220002BF8AE4605006946534620F00700854688
:1002300018B020B5FFF7B6FFBDE820404FF000062C
:100240004FF000074FF000084FF0000B21F00701BE
:10025000AC46ACE8C009ACE8C009ACE8C009ACE801
:10026000C0098D46704710B50446AFF300802046A4
:10027000BDE81040FFF781BF00487047E80100204B
:1002800001491820ABBEFEE7260002007047FEE7DA
:10029000704772B6FEE710B590F8211000220229CF
:1002A00005D00421816380F82020012010BD016861
:1002B0000B6823F00E030B6001680B6823F0010349
:1002C0000B6090F84030C46B012101FA03F36360C6
:1002D00080F8211080F82020104610BD10B590F84D
:1002E00021100024022903D00421816301243DE070
:1002F00001680A6822F00E020A6001680A6822F0AA
:1003000001020A601A4A0168914201D1012121E0EB
:10031000174A1432914201D110211BE0144A2832AD
:10032000914201D1891515E0114A3C32914201D127
:1003300089140FE00E4A5032914202D14FF48031BD
:1003400008E00B4A6432914202D14FF4801101E07F
:100350004FF08071064A083A5160012180F821105F
:10036000002180F82010416B01B18847204610BD64
:100370000800024070B5044600F00CF90546601C08
:1003800002D004480078044400F004F9401BA04265
:10039000FAD370BD440000202DE9F84FDFF8B89182
:1003A0000024A9F1040B23460F2709F1040AABF13D
:1003B000040EC9E00125A5402A40AA427DD1674E1E
:1003C000D1F804C0ACEB0608B44532D014DCBCF163
:1003D000030F3AD009DCBCF1000F2AD0BCF1010FA9
:1003E0001CD0BCF1020F31D11DE0BCF1110F17D0B0
:1003F000BCF1120F2AD119E0B8F5881F19D006DC1C
:10040000B8F5803F15D0B8F5801F1FD111E0B8F5C1
:10041000001F0ED0B8F5041F18D10AE0CB6815E014
:10042000CB681B1D12E0CB6808330FE0CB680C33A0
:100430000CE08B682BB1012B4FF0080303D0456112
:1004400004E0042302E0056100E00023FF2A01D854
:10045000064601E000F104064FEA840501D9A5F142
:100460002005D6F8008007FA05FC28EA0C0803FAF4
:1004700005F548EA0508C6F800804D68ED0062D52C
:10048000374DAE6946F00106AE61AD6924F0030652
:1004900005F001050095334D06EB050CDCF808501E
:1004A000A607360F07FA06F825EA0805DFF8B88030
:1004B000404503D14FF0000817E044E0DFF8AC807E
:1004C000404502D14FF001080FE0DFF8A48040451D
:1004D00002D14FF0020808E0DFF89880404502D1D1
:1004E0004FF0030801E04FF0040808FA06F848EA64
:1004F0000508CCF808804D68D9F80060ED024D463B
:1005000001D5164300E096432E604D68DAF800608E
:10051000AD02554601D5164300E096432E604D6866
:10052000DBF80060AD035D4601D5164300E096435D
:100530002E604D68DEF80060ED03754601D5164368
:1005400000E096432E60641C0D682A46E5407FF467
:1005500031AFBDE8F88F0000080401400000111021
:10056000001002400000014000080140000C014062
:100570000010014000140140C26821EA02030A4051
:1005800043EA0241016170470AB101617047090401
:10059000FBE700000148806870470000440000202D
:1005A000024881680278114481607047440000204D
:1005B000074810B5016841F010010160032000F008
:1005C00075F80F2000F006F800F024F8002010BDA8
:1005D0000020024070B50D4D04464FF47A71287822
:1005E000B1FBF0F00A490968B1FBF0F000F0C3FC80
:1005F00048B9102C07D200222146501E00F036F8D0
:1006000000206C6070BD012070BD0000440000201F
:10061000500000200C4808B5816941F0010181615A
:10062000816901F001010091C16941F08051C1610E
:10063000C06900F0805000900448416821F0E061FA
:1006400041F00071416008BD00100240000001400F
:10065000002809DB00F01F020121914040098000C1
:1006600000F1E020C0F8001170470000F0B40E4B1C
:100670001B680C46C3F30223C3F10705042D00D900
:100680000425191D072901D2002300E0DB1E0126E5
:1006900006FA05F1491E214099409E40761E1640FB
:1006A0003143F0BC01F0A9BC0CED00E0064900F0BC
:1006B000070208684FF6FF03184040EA0220034A89
:1006C00010430860704700000CED00E00000FA05E0
:1006D0002DE9F0470F46050061D0434E306800F029
:1006E0000700B84209D2306820F007003843306074
:1006F000306800F00700B84251D128683B4C8107B0
:1007000012D5400703D5606840F4E0606060287847
:10071000000703D5606840F4605060606068A968B5
:1007200020F0F000084360602878C00728D068688F
:10073000012810D02168022810D0890700292EDA5C
:10074000616821F0030101436160FFF723FF8046E8
:1007500041F288390DE021688903EFE78901EDE76F
:10076000FFF718FFA0EB0801494502D90320BDE8B7
:10077000F0876068696800F00C00B0EB810FEFD182
:10078000306800F00700B8420BD9306820F007004D
:1007900038433060306800F00700B84201D00120D3
:1007A000E5E72878400705D56068E96820F4E0604F
:1007B000084360602878000706D56068296920F43E
:1007C000605040EAC100606000F038F86168084A93
:1007D000C1F30311515CC84006490860064800682F
:1007E000FFF7F8FE0020C2E70020024000100240A0
:1007F000542000085000002048000020044805490B
:1008000000684968044AC1F30221515CC84070473E
:1008100050000020001002406420000804480549F0
:1008200000684968044AC1F3C221515CC84070475E
:100830005000002000100240642000080E4A516859
:100840000E4801F00C03042B11D0082B0FD10C48DB
:10085000C1F38343C903C05C0AD55168084AC1F398
:100860004041921E515C054A5043B0FBF1F0704785
:1008700004494843704700000010024000127A000B
:100880004420000800093D002DE9F84F040070D015
:100890002078C04DC00749D06868C0F381000128A6
:1008A00007D06868C0F38100022809D16868C003D6
:1008B00006D52868800339D560680028E7D035E080
:1008C0006068B0F5803F0BD010B1B0F5A02F11D00B
:1008D000286820F480302860286820F4802002E016
:1008E000286840F480302860606890B1FFF752FEBD
:1008F00006460AE0286840F480202860F0E700BF40
:10090000FFF748FE801B642873D828688003F7D55A
:100910000CE0FFF73FFE064605E000BFFFF73AFE9A
:10092000801B6428F0D828688003F7D420789A4E7A
:1009300080074FF001094FF0000839D5686810F0C2
:100940000C0F07D06868C0F38100022809D16868DD
:10095000C00306D42868800714D52069012808D16F
:1009600010E02069B0B1C6F80090FFF713FE07460B
:1009700005E00AE1FFF70EFEC01B0228C4D8286874
:100980008007F7D52868616920F0F80040EAC100C7
:1009900028600DE0C6F80080FFF7FCFD074604E084
:1009A000FFF7F8FDC01B022823D828688007F7D47A
:1009B000207800072CD57948A169D9B1C0F80090FA
:1009C000FFF7E8FD074604E0FFF7E4FDC01B02283F
:1009D0000FD8686A8007F7D571484FF4FA5100685C
:1009E000B0FBF1F0009000BF0098411E0091FAD2D8
:1009F0000EE080E0C0F80080FFF7CCFD074604E081
:100A0000FFF7C8FDC01B022875D8686A8007F7D4B5
:100A10002078400760D5E8690027C00008D4E8695D
:100A200040F08050E861E869012700F080500090B4
:100A30005C480168C90513D40168834641F480719C
:100A40000160FFF7A7FD824606E000BFFFF7A2FDA9
:100A5000A0EB0A0064284ED8DBF80000C005F5D5ED
:100A6000E06801280AD008B1052813D0286A20F0D0
:100A700001002862286A20F0040002E0286A40F0A1
:100A800001002862E06841F2883B98B1FFF782FDDF
:100A900082460BE0286A40F004002862EEE700BFBF
:100AA000FFF778FDA0EB0A0159455AD8286A80075C
:100AB000F6D50CE0FFF76EFD824605E0FFF76AFD14
:100AC000A0EB0A0159454CD8286A8007F6D41FB11B
:100AD000E86920F08050E861E06988B36968C1F393
:100AE0008101022944D00228C6F8608004D0FFF7B3
:100AF00051FD044638E034E0FFF74CFD074604E0C2
:100B0000FFF748FDC01B02282BD828688001F7D4C6
:100B1000206AB0F5803F05D16868A16820F40030F4
:100B200008436860D4E908010843696821F4741136
:100B300008436860C6F86090FFF72CFD044606E0A5
:100B400025E000BFFFF726FD001B022809D8286812
:100B50008001F7D51BE000BFFFF71CFD001B02283A
:100B600002D90320BDE8F88F28688001F4D40EE094
:100B70000128F7D06868226A00F48031914204D1DC
:100B8000616A00F47010884201D00120EAE7002079
:100B9000E8E70000001002400000424280044242A8
:100BA000500000200070004000680549884205D1CF
:100BB0000448816B491C816300F044BD704700000C
:100BC000003001400000002090F851007047000004
:100BD00038B50446006842688168C9434B0606D5AB
:100BE000CB0704D1D3435B0601D4216C05E08B070E
:100BF00008D4D3431B0605D4616C01B02046BDE880
:100C0000304008478B0601D54B0646D4D3439B069C
:100C100043D44B060AD494F85130032B3ED0636D75
:100C200043F004036365C36883680093890609D4AD
:100C3000616D41F00101616581680091016821F0F9
:100C400040010160606D002827D02068416821F0D4
:100C5000E0014160012084F85100900722D0206813
:100C6000416821F003014160104DE06C40B14563E3
:100C7000E06CFFF733FB18B1606D40F04000606539
:100C8000A06C002809D04563A06CFFF727FB002863
:100C900003D0606D40F04000606538BDC168806879
:100CA000009038BD2046FFF77FFF38BD611B00086C
:100CB00070B5040009D0606A002540B12561656106
:100CC000A56294F8510040B10CE0012070BD60684D
:100CD000B0F5827FF4D0E561F2E784F85050204609
:100CE00000F040F8022084F851002068016821F0EB
:100CF00040010160A088218900F4827001F4044160
:100D00000843A18901F400610843217C01F002013C
:100D10000843217D01F001010843218B01F400719A
:100D20000843217F01F03801084394F8201001F0B6
:100D300080010843218D01F40051084321680860B7
:100D4000A069042101EA1040216848602068C16957
:100D500021F40061C1616565012084F85100002023
:100D600070BD000010B586B0002100910191029184
:100D7000039100681749884229D11748816941F4D5
:100D800080518161816901F480510491816941F050
:100D9000040181618069114C00F004000490A020DE
:100DA000009069462046FFF7F7FA402000900220A5
:100DB00001900320039069462046FFF7EDFA0022D8
:100DC00005212320FFF752FC2320FFF741FC06B04A
:100DD00010BD00000030014000100240000801403A
:100DE00030B4134690F85120012A27D18468042298
:100DF0001CB94568B5F5827F17D0E1B1DBB190F839
:100E00005050012D1AD0012580F8505080F8512003
:100E10000022426581638387C38702638286C2861C
:100E20004264C16861B116490BE080F8512030BCC2
:100E30000A4600F051B8012030BC70470220FBE7A1
:100E400010490164B4F5004F09D101680B6823F023
:100E500040030B6001680B6823F480430B6001685A
:100E60000B685B0603D40B6843F040030B6080F80B
:100E700050200068416841F0600141600020DBE7DC
:100E8000011C0008211C000870B500680F49884249
:100E90001AD10F4C6079182803D91838C0B200F065
:100EA000FFFB0B4A00200B4B3C326179155C401C68
:100EB0005D54491CC0B261710828F6D300F0A2FC51
:100EC000BDE8704000F0BEBB70BD000000300140C6
:100ED00000000020DE00002030B590F85140456849
:100EE000012C06D0B5F5827F24D1856815BB042C72
:100EF00020D1E9B1E2B1DBB190F85040012C19D01A
:100F0000012480F8504090F85140042C02D0052470
:100F100080F851400024446501638386C386826360
:100F20008387C387C16839B10E4901640E4906E061
:100F3000012030BD022030BD0C4901640C494164E0
:100F400001680A68520603D40A6842F040020A6047
:100F500080F850400068416841F0E00141600020A5
:100F600030BD0000C5190008251A0008F519000851
:100F7000551A0008704710B5401EB0F1807F01D3AC
:100F8000012010BD4FF0E02460610F21601701F0D7
:100F900034F80020A06107202061002010BD7047B8
:100FA00000680649884207D10548C168491CC160EC
:100FB0000021417000F05EBB704700000048004017
:100FC00000000020F8B5016804460868CA684B694B
:100FD00010F00F0F4FF0000559D003F0010602F496
:100FE0009077374365D0C10705D0D10503D5616C33
:100FF00041F001016164410705D5D90703D0616C57
:1010000041F002016164810705D5D90703D0616C05
:1010100041F004016164010707D502F0200131436A
:1010200003D0616C41F008016164616C00293AD021
:10103000800604D5900602D5204600F0BFFE206849
:101040004069616CC0F38010090700D460B320468A
:1010500000F08DFE20684069400621D520681430DC
:1010600050E8001F21F0400140E80012002AF5D1AD
:10107000E06BA8B16D494163E06BFFF72FF90028E1
:1010800011D0E06B416B01B0BDE8F040084783062A
:101090000FD593060DD52046BDE8F84000F08EBE72
:1010A0002046FFF77DFFF8BD2046FFF779FF656416
:1010B000F8BD266B2023012E7CD1C6067AD5D60634
:1010C00078D508684868009048694FF002064006E5
:1010D00040D5E16B086840680004000CE8D0A28DA0
:1010E0008242E5D9E085886920282DD020680C301F
:1010F00050E8001F21F4807140E80012002AF5D169
:101100002068143050E8001F21F0010140E800126F
:10111000002AF5D12068143050E8001F21F040016A
:1011200040E80012002AF5D184F842302563206897
:101130000C3050E8001F21F0100140E80012002A96
:10114000F5D1E06BFFF7A7F86663A08DE18D401A3B
:1011500081B22AE0A08DE18D401A81B2E08D002895
:10116000A6D00029A4D022680C3252E8000F20F447
:10117000907042E80007002FF5D12068143050E845
:10118000002F22F0010240E80027002FF5D184F85B
:101190004230256320680C3050E8002F22F0100206
:1011A00040E80023002BF5D166632046FFF7F7FEE9
:1011B000F8BDFFE705062BD5150629D594F84100A3
:1011C0002128F5D1A068B0F5805F01D12069B0B1C8
:1011D000206A411C2162216800784860E08C401E32
:1011E0000004000CE084E3D12068C16821F0800194
:1011F000C1602068C16841F04001C160D8E7206A41
:101200000088C0F308004860206A801C2062E5E77F
:101210004006CDD55006CBD5CA68204622F0400204
:10122000CA6084F8413000F02DF9C1E75F1D000865
:1012300070B5040004D094F84100002510B106E018
:10124000012070BD84F84050204600F023F824208F
:1012500084F841002068C16821F40051C160204633
:1012600000F00EFE2068016921F4904101612068C0
:10127000416921F02A0141612068C16841F40051AF
:10128000C1606564202084F8410084F842006563F1
:10129000002070BD30B585B0002400940194029404
:1012A00003942E4D03682E4802210322AB4227D11E
:1012B000C36943F40033C361C36903F40033049387
:1012C000836943F0040383618069264D00F00400C4
:1012D00004900420CDE90001039269462846FFF7F7
:1012E0005BF80820CDE90004694628460294FFF720
:1012F00053F8002205212620FFF7B8F9262029E01F
:10130000194DAB4228D1C36943F48023C361C3693B
:1013100003F480230493836943F0080383618069A5
:10132000039200F0080004902815CDE900010F4D4C
:1013300069462846FFF730F8E814CDE9000469460D
:1013400028460294FFF728F8002205212720FFF7FE
:101350008DF92720FFF77CF905B030BD004400402F
:10136000001002400008014000480040000C01400D
:1013700090F84230202B01D00220704721B11AB1E1
:101380000023036300F0D8BD0120704710B500684A
:10139000114988421ED1114C6069401C606120696E
:1013A000401C2061207800F0F7F92278E188481C81
:1013B00080B2802800D300202389984203D1206A7C
:1013C000401C206202E0064B5A54E080BDE8104009
:1013D00000F050B910BD000000480040000000209F
:1013E000540000202DE9F843044690F84100984647
:1013F00016460D46202802D00220BDE8F88385B1AC
:101400007EB100206064212084F84100FFF7C2F81B
:10141000A6848146E684A0682027B0F5805F02D0CC
:1014200003E00120E9E7206910B12E4600250EE017
:1014300000260CE08021204600F099FDA8B9C6B135
:1014400016F8010B21684860E08C401EE084E08CB7
:101450004B464FF00002CDF800800028EAD14FF053
:101460004001204600F083FD40B184F84170032024
:10147000C3E735F8020BC0F30800E3E784F84170D6
:101480000020BAE77047FEE72DE9F04786B0002458
:101490003A480094019402940394816941F0100148
:1014A0008161816901F010010491816941F020019D
:1014B0008161816901F020010491816941F0040199
:1014C0008161816901F004010491816941F00801A1
:1014D00081618069DFF8A88000F008004FF40055B2
:1014E0000490002229464046FFF74EF8DFF894901A
:1014F00000224EF2AB014846FFF746F801224FF4B6
:1015000040714846FFF740F8DFF87CA04FF4F857E9
:10151000002239465046FFF737F80095022601258C
:101520000396CDE9015469464046FEF735FF4EF279
:10153000AB30CDE90005CDE9024669464846FEF7E5
:101540002BFF41F25000CDE9000469464846029461
:10155000FEF722FF00970396CDE9015469465046F5
:10156000FEF71AFFE803CDE90004694650460294ED
:10157000FEF712FF06B0BDE8F08700000010024041
:1015800000100140000C0140000801400E4810B559
:101590000C490160002141608160C1604FF400721C
:1015A0000161C0E90512C1610162416281620A21E3
:1015B000C162FFF77DFB002803D0BDE81040FEF7B5
:1015C00068BE10BD00300140000100200C4810B57D
:1015D0000A4901604FF4E1314160002181600C2231
:1015E000C160C0E904128161C161FFF721FE0028DA
:1015F00003D0BDE81040FEF74CBE10BD00440040D3
:10160000580100200C4810B50A4901604FF4E1313F
:101610004160002181600C22C160C0E90412816137
:10162000C161FFF705FE002803D0BDE81040FEF7BA
:1016300030BE10BD00480040A0010020FEE7FEE7DC
:101640007047000010B50948FFF7BEFA04280BD018
:10165000082207490548FFF7C3FB002804D00448C7
:101660003C38816B491C816310BD000000010020E3
:101670003C000020084810B590F8420022280AD00B
:10168000012206490448FFF773FE002803D00348EF
:101690008169491C816110BDA0010020000000206B
:1016A0000A4910B54A79904202D30020487110BD12
:1016B000121AD2B24A710021054B04E00C181C5DCD
:1016C0005C54491CC9B29142F8D310BD00000020FF
:1016D000DE00002070B5134E88B00025F0883489F4
:1016E0006946114A08E0135D4B556D1C641CA4B299
:1016F000EDB2802C00D30024844201D0202DF2D3FF
:10170000002D08D00A232A460848FFF76BFE20B1B7
:10171000F069401CF06108B070BD3481706A2844E3
:101720007062F8E7000000205400002058010020FB
:10173000164910B50020C860086148618861C86119
:10174000086248628862C862086348638863C88028
:10175000088148708870C8700871487100224FF481
:1017600000510B48FEF710FF0A4C002201212046D1
:10177000FEF70AFF002202212046FEF705FFFFF7D1
:1017800079FFBDE81040FFF75DBF000000000020BA
:1017900000100140000C0140184930B44B78184A41
:1017A0000124BBB10025012B1AD0D0545B1CD8B248
:1017B00048700A2812D34D70886A401C8862507A9B
:1017C00000F02702C878A8B188788A7030BC5040F1
:1017D00000F0C4B8A52801D110704C7030BC70471F
:1017E0005A2803D0A528F9D04D70F7E75070022091
:1017F0004870F3E78A70CC70F0E70000000000202A
:10180000D40000202DE9F05F3B4C3C4D00264FF00A
:1018100001096179022915D3002007E02B5CA52B73
:1018200003D12B185B785A2B03D0D0B2421C8A42CA
:10183000F4D38A420DD3C8B2284410F8010CA5286D
:1018400002D06671BDE8F09FA520287084F805904D
:10185000F8E708B1FFF724FF60790828F2D3DFF832
:101860009CA09AF80000A52832D19AF801005A28C5
:101870002ED19AF8020001282AD19AF803000228F2
:1018800026D19AF80400012822D19AF806B05FEA1E
:101890001B101DD10AF102034FF0050C014607276A
:1018A0005A5C50405FF000025FEA006802D587EAA8
:1018B000400000E04000521CD2B2C0B2082AF3D36C
:1018C000491CC9B26145EBD39AF80710884204D08D
:1018D000606B401C606301200AE00BF00F0120796F
:1018E0002171484000F00CF8206B401C2063082058
:1018F000FFF7D6FE8DE7000000000020DE0000208C
:1019000070B50546134E144CC00706D0082130466A
:10191000FEF732FEE06A401CE062A80706D52021EF
:101920003046FEF729FEE06A401CE062680706D5F3
:1019300080213046FEF720FEE06A401CE062280766
:1019400007D54FF440713046FEF716FEE06A401CA2
:10195000E06270BD000C01400000002070B505463B
:10196000134E144CC00706D008213046FEF704FE83
:10197000E06A401CE062A80706D520213046FEF749
:10198000FBFDE06A401CE062680706D58021304616
:10199000FEF7F2FDE06A401CE062A80607D54FF4AE
:1019A00040713046FEF7E8FDE06A401CE06270BD21
:1019B000000C0140000000200148FFF709B90000B9
:1019C000000100200168C968826B1180816B891C4D
:1019D0008163C18F491EC187C18F002909D1016868
:1019E0004A6822F040024A60C18E002901D100F00D
:1019F00049B870470168097B826B1170816B491C83
:101A00008163C18F491EC187C18F002909D1016837
:101A10004A6822F060024A60C18E002901D100F0BC
:101A200031B87047016B02680988D160016B891C6D
:101A30000163C18E491EC186C18E002909D101688A
:101A40004A6822F080024A60C18F002901D100F06B
:101A500019B87047016B026809781173016B491C52
:101A60000163C18E491EC186C18E002909D101685A
:101A70004A6822F080024A60C18F002901D100F03B
:101A800001B8704738B50446214845F6C051006892
:101A9000B0FBF1F0642148430090FEF77BFD024665
:101AA0002068416821F020014160009888B1401E03
:101AB0000090206880688007F7D56421204600F0F8
:101AC00085F818B1606D40F020006065A06828B10D
:101AD00008E0606D40F020006065EEE72068C168B6
:101AE00080680090616D012029B184F85100204682
:101AF000FFF75AF838BD94F8511084F851000429C2
:101B0000204602D0FFF736FA38BDFFF7BDF938BDE1
:101B10005000002038B504460068416821F060019B
:101B20004160FEF737FD02466421204600F020F8B0
:101B300018B1606D40F020006065A06818B9206899
:101B4000C16880680090012084F85100606D002811
:101B5000204602D0FFF728F838BDFFF795F938BDC9
:101B600010B5406A0021C187C186FFF71DF810BD7E
:101B7000F8B5044640684FF48273984217D1A068C4
:101B80004FF48065B0F5004F01D0A8420FD1206816
:101B9000066826F0400606606068984207D1A06893
:101BA000A84204D100920B460022012103E00092DA
:101BB0000B4600228021204600F042F8002804D085
:101BC000606D40F0200060650320F8BDF8B5154653
:101BD0000E460B46009204460122022100F030F826
:101BE00040B93346002280212046009500F028F8B5
:101BF000002804D0606D40F0200060650320F8BD2F
:101C00000168C968826B1180816B891C8163C18FF7
:101C1000491EC187C18F002901D1FFF77BBF7047E3
:101C20000168097B826B1170816B491C8163C18FD4
:101C3000491EC187C18F002901D1FFF76BBF7047D3
:101C40002DE9F8431E46914688460446089DFEF756
:101C5000A1FC401B351AFEF79DFC0746254800688D
:101C6000C0F3CB30684338E0701C37D0FEF792FCED
:101C7000C01BA84203D215B1009860B32CE02068C5
:101C8000416821F0E00141606068B0F5827F0BD1CE
:101C9000A068B0F5004F02D0B0F5806F04D1206885
:101CA000016821F040010160A06AB0F5005F09D130
:101CB0002068016821F4005101602068016841F446
:101CC00000510160012084F85100002084F8500088
:101CD0000320BDE8F8830025401E0090206881683D
:101CE00038EA010004D000214945BDD10020F0E7C9
:101CF0000121F9E7500000207047FEF751BC30B5D4
:101D00008FB028216846FEF75FFA14210AA8FEF773
:101D10005BFA01210804CDE9001000240294022599
:101D20000491CDE907504FF4E01009906846FEF7A2
:101D3000ABFD08B172B6FEE70F20CDE90A054FF4FE
:101D40008060CDE90C4002210AA80E94FEF7C0FC89
:101D5000002801D072B6FEE70FB030BD704710B555
:101D6000406A0021C185C184FFF71AF910BD0168DE
:101D70000C3151E8002F22F4907241E80023002B2F
:101D8000F5D10168143151E8002F22F0010241E839
:101D90000023002BF5D1016B012909D101680C3119
:101DA00051E8002F22F0100241E80023002BF5D16A
:101DB000202180F8421000210163704708B590F897
:101DC0004210222901D0022008BD82684FF48053BE
:101DD0009A4201D1016921B1816A9A421BD04AB16C
:101DE0000AE00268816A5268C2F308020A80816AC6
:101DF000891C08E0026972B10268526802F07F0231
:101E00000A70816A491C8162C18D491E0904090C4E
:101E1000C18503D01BE002685268F1E70168CA6817
:101E200022F02002CA600168CA6822F48072CA6087
:101E300001684A6922F001024A61202180F84210BB
:101E400000214163026B012A03D0FFF79FFA0020B3
:101E500008BD016301680C3151E8002F22F0100227
:101E600041E80023002BF5D101680A68D20602D5AB
:101E70000A6849680091818DFFF791F8E7E7000053
:101E800070B5044600680169E26821F440511143CD
:101E900001612169A0680843616908432168CA6833
:101EA00041F20C639A430243CA6020684169A26907
:101EB00021F44071114341611E492068884202D1DA
:101EC000FEF7ACFC01E0FEF799FC00EBC00101EB72
:101ED0000012606864218000B2FBF0F3B3FBF1F301
:101EE0006FF018067343B2FBF0F5B2FBF0F605EBAA
:101EF0008305322303EB0515B5FBF1F5B6FBF1F6CF
:101F000005F0F00505EB0615B2FBF0F6B2FBF0F0BC
:101F1000B0FBF1F06FF01802504306EB800003EBCA
:101F20000010B0FBF1F0216800F00F002844886039
:101F300070BD00000038014081628285C2850021A9
:101F40004164222180F84210016921B10168CA6808
:101F500042F48072CA6001684A6942F001024A6133
:101F60000068C16841F02001C160002070472DE980
:101F7000F843984617460D460446089E24E0701C18
:101F800022D0FEF707FBA0EB0800B0421AD8CEB172
:101F90002068C168490717D5802D15D0402D13D072
:101FA0000168C94309070FD4016800254068009003
:101FB0002046FFF7DCFE0820606484F840500120D2
:101FC000BDE8F8830320FBE72068006835EA0000DD
:101FD00004D00020B842D2D00020F1E70120F9E778
:101FE0000148FEF7EFBF0000580100200148FEF74E
:101FF000E9BF0000A0010020FEE70907090E002844
:1020000004DB00F1E02080F80014704700F00F00BE
:1020100000F1E02080F8141D7047FEF7C9FAFFF7C1
:102020006EFEFFF731FAFFF7B1FAFFF7CFFAFFF7CD
:10203000E9FAFFF77DFBFFF74DFB0120FEF79AF968
:10204000F9E7010202030405060708090A0B0C0D53
:102050000E0F101000000000000000000102030439
:102060000607080900000000010203048C20000894
:10207000000000205400000028010008E0200008B3
:1020800054000020F4070000440100080000000094
:102090000000000000000000000000000000000040
:1020A0000000000000000000000000000000000030
:1020B0000000000000000000000000000000000020
:1020C0000000000000000000000000000000000010
:1020D00001000000100000000000000000127A0063
:04000005080000ED02
:00000001FF
