:020000040800F2
:100000000808002089010008FB1500083B140008BF
:10001000F91500088F020008ED1B00080000000021
:10002000000000000000000000000000F9180008B7
:100030009102000800000000FD150008FB180008F0
:10004000A3010008A3010008A3010008A301000800
:10005000A3010008A3010008A3010008A3010008F0
:10006000A3010008A3010008A3010008A3010008E0
:10007000A3010008A3010008A3010008A3010008D0
:10008000A3010008A3010008A3010008A3010008C0
:10009000A3010008A3010008A3010008A3010008B0
:1000A000A3010008A3010008A3010008A3010008A0
:1000B000A3010008A3010008A3010008A301000890
:1000C000A3010008A3010008A3010008A301000880
:1000D000A3010008A3010008A3010008E11B000818
:1000E000A3010008A3010008A301000800F002F822
:1000F00000F03AF80AA090E8000C82448344AAF188
:100100000107DA4501D100F02FF8AFF2090EBAE885
:100110000F0013F0010F18BFFB1A43F0010318473B
:10012000481B0000681B0000103A24BF78C878C143
:10013000FAD8520724BF30C830C144BF04680C60ED
:10014000704700000023002400250026103A28BF35
:1001500078C1FBD8520728BF30C148BF0B60704739
:100160001FB51FBD10B510BD00F058F81146FFF7C0
:10017000F7FF01F04CFD00F076F803B4FFF7F2FF53
:1001800003BC00F07DF8000009488047094800479B
:10019000FEE7FEE7FEE7FEE7FEE7FEE7FEE7FEE737
:1001A000FEE7FEE704480549054A064B7047000094
:1001B0005D190008ED000008080200200808002072
:1001C00008040020080400204FF0000200B5134688
:1001D00094469646203922BFA0E80C50A0E80C5067
:1001E000B1F12001BFF4F7AF090728BFA0E80C5018
:1001F00048BF0CC05DF804EB890028BF40F8042B11
:1002000008BF704748BF20F8022B11F0804F18BF7D
:1002100000F8012B7047704770477047754600F033
:100220002BF8AE4605006946534620F00700854688
:1002300018B020B5FFF7B6FFBDE820404FF000062C
:100240004FF000074FF000084FF0000B21F00701BE
:10025000AC46ACE8C009ACE8C009ACE8C009ACE801
:10026000C0098D46704710B50446AFF300802046A4
:10027000BDE81040FFF781BF00487047A80100208B
:1002800001491820ABBEFEE7260002007047FEE7DA
:10029000704772B6FEE710B590F8211000220229CF
:1002A00005D00421816380F82020012010BD016861
:1002B0000B6823F00E030B6001680B6823F0010349
:1002C0000B6090F84030C46B012101FA03F36360C6
:1002D00080F8211080F82020104610BD10B590F84D
:1002E00021100024022903D00421816301243DE070
:1002F00001680A6822F00E020A6001680A6822F0AA
:1003000001020A601A4A0168914201D1012121E0EB
:10031000174A1432914201D110211BE0144A2832AD
:10032000914201D1891515E0114A3C32914201D127
:1003300089140FE00E4A5032914202D14FF48031BD
:1003400008E00B4A6432914202D14FF4801101E07F
:100350004FF08071064A083A5160012180F821105F
:10036000002180F82010416B01B18847204610BD64
:100370000800024070B5044600F094F90546601C80
:1003800002D004480078044400F08CF9401BA042DD
:10039000FAD370BD300000202DE9F04300233E4F1A
:1003A0000F2573E001229A400A406DD023F0030428
:1003B000E619D6F808809C074FEA147C05FA0CF978
:1003C00009EA0804DFF8D480404502D14FF0000864
:1003D00016E0DFF8CC80404502D14FF001080FE075
:1003E000DFF8C080404502D14FF0020808E0DFF896
:1003F000B880404502D14FF0030801E04FF00408F7
:1004000008FA0CF8A04522D1284CD4F800C02CEAF8
:10041000020CC4F800C0241DD4F800C02CEA020C61
:10042000C4F800C0214C0C34D4F800C02CEA020CF3
:10043000C4F800C0241FD4F800C02CEA020CC4F891
:1004400000C0D6F808C02CEA090CC6F808C0FF2A7C
:1004500001D8064601E000F104064FEA830401D901
:10046000A4F12004D6F800C005FA04F82CEA080C20
:100470004FF0040808FA04F84CEA080CC6F800C06B
:10048000C46824EA0204C46003F1010331FA03F2F0
:1004900088D1BDE8F0830000000001400008014061
:1004A000000C014000100140001401400004014014
:1004B0002DE9F84FDFF8B8910024A9F1040B234689
:1004C0000F2709F1040AABF1040EC9E00125A5408C
:1004D0002A40AA427DD1674ED1F804C0ACEB060891
:1004E000B44532D014DCBCF1030F3AD009DCBCF1C6
:1004F000000F2AD0BCF1010F1CD0BCF1020F31D18A
:100500001DE0BCF1110F17D0BCF1120F2AD119E078
:10051000B8F5881F19D006DCB8F5803F15D0B8F5BE
:10052000801F1FD111E0B8F5001F0ED0B8F5041FD1
:1005300018D10AE0CB6815E0CB681B1D12E0CB6830
:1005400008330FE0CB680C330CE08B682BB1012B28
:100550004FF0080303D0456104E0042302E0056185
:1005600000E00023FF2A01D8064601E000F104065E
:100570004FEA840501D9A5F12005D6F8008007FAD5
:1005800005FC28EA0C0803FA05F548EA0508C6F850
:1005900000804D68ED0062D5374DAE6946F001062A
:1005A000AE61AD6924F0030605F001050095334DF9
:1005B00006EB050CDCF80850A607360F07FA06F81C
:1005C00025EA0805DFF8B880404503D14FF0000860
:1005D00017E044E0DFF8AC80404502D14FF001085D
:1005E0000FE0DFF8A480404502D14FF0020808E098
:1005F000DFF89880404502D14FF0030801E04FF04A
:10060000040808FA06F848EA0508CCF808804D689E
:10061000D9F80060ED024D4601D5164300E096433F
:100620002E604D68DAF80060AD02554601D51643DC
:1006300000E096432E604D68DBF80060AD035D4638
:1006400001D5164300E096432E604D68DEF8006049
:10065000ED03754601D5164300E096432E60641CF9
:100660000D682A46E5407FF431AFBDE8F88F000001
:100670000804014000001110001002400000014079
:1006800000080140000C014000100140001401402E
:100690008068084000D0012070470AB101617047AE
:1006A0000904FBE701488068704700003000002023
:1006B0000248816802781144816070473000002050
:1006C000074810B5016841F010010160032000F0F7
:1006D00085F80F2000F006F800F024F8002010BD87
:1006E0000020024070B50D4D04464FF47A71287811
:1006F000B1FBF0F00A490968B1FBF0F000F07EFBB5
:1007000048B9102C07D200222146501E00F046F8AE
:1007100000206C6070BD012070BD00003000002022
:100720003C0000200C4808B5816941F0010181615D
:10073000816901F001010091C16941F08051C161FD
:10074000C06900F0805000900448416821F0E061E9
:1007500041F00071416008BD0010024000000140FE
:1007600000280DDB00F01F020121914040098000AC
:1007700000F1E020C0F88011BFF34F8FBFF36F8FFF
:100780007047002809DB00F01F0201219140400959
:10079000800000F1E020C0F800117047F0B40E4B6B
:1007A0001B680C46C3F30223C3F10705042D00D9CF
:1007B0000425191D072901D2002300E0DB1E0126B4
:1007C00006FA05F1491E214099409E40761E1640CA
:1007D0003143F0BC01F00BBA0CED00E0064900F02B
:1007E000070208684FF6FF03184040EA0220034A58
:1007F00010430860704700000CED00E00000FA05AF
:100800002DE9F0470F46050061D0434E306800F0F7
:100810000700B84209D2306820F007003843306042
:10082000306800F00700B84251D128683B4C81077E
:1008300012D5400703D5606840F4E0606060287816
:10084000000703D5606840F4605060606068A96884
:1008500020F0F000084360602878C00728D068685E
:10086000012810D02168022810D0890700292EDA2B
:10087000616821F0030101436160FFF713FF8046C7
:1008800041F288390DE021688903EFE78901EDE73E
:10089000FFF708FFA0EB0801494502D90320BDE896
:1008A000F0876068696800F00C00B0EB810FEFD151
:1008B000306800F00700B8420BD9306820F007001C
:1008C00038433060306800F00700B84201D00120A2
:1008D000E5E72878400705D56068E96820F4E0601E
:1008E000084360602878000706D56068296920F40D
:1008F000605040EAC100606000F038F86168084A62
:10090000C1F30311515CC8400649086006480068FD
:10091000FFF7E8FE0020C2E700200240001002407E
:100920004E1C00083C00002034000020044805490B
:1009300000684968044AC1F30221515CC84070470D
:100940003C000020001002405E1C000804480549DD
:1009500000684968044AC1F3C221515CC84070472D
:100960003C000020001002405E1C00080E4A516846
:100970000E4801F00C03042B11D0082B0FD10C48AA
:10098000C1F38343C903C05C0AD55168084AC1F367
:100990004041921E515C054A5043B0FBF1F0704754
:1009A00004494843704700000010024000127A00DA
:1009B0003E1C000800093D002DE9F84F040070D0EE
:1009C0002078C04DC00749D06868C0F38100012875
:1009D00007D06868C0F38100022809D16868C003A5
:1009E00006D52868800339D560680028E7D035E04F
:1009F0006068B0F5803F0BD010B1B0F5A02F11D0DA
:100A0000286820F480302860286820F4802002E0E4
:100A1000286840F480302860606890B1FFF742FE9B
:100A200006460AE0286840F480202860F0E700BF0E
:100A3000FFF738FE801B642873D828688003F7D539
:100A40000CE0FFF72FFE064605E000BFFFF72AFE89
:100A5000801B6428F0D828688003F7D420789A4E49
:100A600080074FF001094FF0000839D5686810F091
:100A70000C0F07D06868C0F38100022809D16868AC
:100A8000C00306D42868800714D52069012808D13E
:100A900010E02069B0B1C6F80090FFF703FE0746EA
:100AA00005E00AE1FFF7FEFDC01B0228C4D8286854
:100AB0008007F7D52868616920F0F80040EAC10096
:100AC00028600DE0C6F80080FFF7ECFD074604E063
:100AD000FFF7E8FDC01B022823D828688007F7D459
:100AE000207800072CD57948A169D9B1C0F80090C9
:100AF000FFF7D8FD074604E0FFF7D4FDC01B02282E
:100B00000FD8686A8007F7D571484FF4FA5100682A
:100B1000B0FBF1F0009000BF0098411E0091FAD2A6
:100B20000EE080E0C0F80080FFF7BCFD074604E05F
:100B3000FFF7B8FDC01B022875D8686A8007F7D494
:100B40002078400760D5E8690027C00008D4E8692C
:100B500040F08050E861E869012700F08050009083
:100B60005C480168C90513D40168834641F480716B
:100B70000160FFF797FD824606E000BFFFF792FD98
:100B8000A0EB0A0064284ED8DBF80000C005F5D5BC
:100B9000E06801280AD008B1052813D0286A20F09F
:100BA00001002862286A20F0040002E0286A40F070
:100BB00001002862E06841F2883B98B1FFF772FDBE
:100BC00082460BE0286A40F004002862EEE700BF8E
:100BD000FFF768FDA0EB0A0159455AD8286A80073B
:100BE000F6D50CE0FFF75EFD824605E0FFF75AFD03
:100BF000A0EB0A0159454CD8286A8007F6D41FB1EA
:100C0000E86920F08050E861E06988B36968C1F361
:100C10008101022944D00228C6F8608004D0FFF781
:100C200041FD044638E034E0FFF73CFD074604E0B0
:100C3000FFF738FDC01B02282BD828688001F7D4A5
:100C4000206AB0F5803F05D16868A16820F40030C3
:100C500008436860D4E908010843696821F4741105
:100C600008436860C6F86090FFF71CFD044606E084
:100C700025E000BFFFF716FD001B022809D82868F1
:100C80008001F7D51BE000BFFFF70CFD001B022819
:100C900002D90320BDE8F88F28688001F4D40EE063
:100CA0000128F7D06868226A00F48031914204D1AB
:100CB000616A00F47010884201D00120EAE7002048
:100CC000E8E7000000100240000042428004424277
:100CD0003C0000200070004070B5040009D0606A3C
:100CE000002540B125616561A56294F8510040B1CD
:100CF0000CE0012070BD6068B0F5827FF4D0E56142
:100D0000F2E784F85050204600F040F8022084F8C2
:100D100051002068016821F040010160A08821890C
:100D200000F4827001F404410843A18901F40061D8
:100D30000843217C01F002010843217D01F00101FB
:100D40000843218B01F400710843217F01F0380131
:100D5000084394F8201001F080010843218D01F42C
:100D60000051084321680860A069042101EA10408D
:100D7000216848602068C16921F40061C16165652E
:100D8000012084F85100002070BD000030B585B00E
:100D9000002400940194029403940068144988424A
:100DA00023D11448816941F480518161816901F442
:100DB00080510491816941F00401816180690E4D87
:100DC00000F004000490A020009002200190032075
:100DD000039069462846FFF76BFB4020CDE90004ED
:100DE000694628460294FFF763FB05B030BD00005A
:100DF00000300140001002400008014010B5401EC4
:100E0000B0F1807F01D3012010BD4FF0E02460617C
:100E10000F21601700F0EBFE0020A0610720206189
:100E2000002010BD704710B5040015D0242084F8B0
:100E300041002068C16821F40051C160204600F0E3
:100E400087F90020606484F8410084F8420044F887
:100E5000300F6060207410BD012010BD006806498D
:100E6000884208D105488168491C81608078002843
:100E700001D000F0C5BB70470048004000000020D2
:100E8000F8B5016804460868CA684B6910F00F0F8E
:100E90004FF0000559D003F0010602F49077374374
:100EA00065D0C10705D0D10503D5616C41F00101C2
:100EB0006164410705D5D90703D0616C41F0020197
:100EC0006164810705D5D90703D0616C41F0040145
:100ED0006164010707D502F02001314303D0616C42
:100EE00041F008016164616C00293AD0800604D5A4
:100EF000900602D5204600F061FD20684069616CD3
:100F0000C0F38010090700D460B3204600F02FFD25
:100F100020684069400621D52068143050E8001F41
:100F200021F0400140E80012002AF5D1E06BA8B1A1
:100F30006D494163E06BFFF7D1F9002811D0E06BF8
:100F4000416B01B0BDE8F040084783060FD593061A
:100F50000DD52046BDE8F84000F030BD2046FFF733
:100F60007DFFF8BD2046FFF779FF6564F8BD266B6D
:100F70002023012E7CD1C6067AD5D60678D50868FE
:100F80004868009048694FF00206400640D5E16B82
:100F9000086840680004000CE8D0A28D8242E5D9C0
:100FA000E085886920282DD020680C3050E8001F8B
:100FB00021F4807140E80012002AF5D12068143035
:100FC00050E8001F21F0010140E80012002AF5D18D
:100FD0002068143050E8001F21F0400140E8001262
:100FE000002AF5D184F84230256320680C3050E89F
:100FF000001F21F0100140E80012002AF5D1E06B3B
:10100000FFF749F96663A08DE18D401A81B22AE0AD
:10101000A08DE18D401A81B2E08D0028A6D0002974
:10102000A4D022680C3252E8000F20F4907042E8FD
:101030000007002FF5D12068143050E8002F22F06F
:10104000010240E80027002FF5D184F842302563E3
:1010500020680C3050E8002F22F0100240E80023F6
:10106000002BF5D166632046FFF7DCFEF8BDFFE7F5
:1010700005062BD5150629D594F841002128F5D170
:10108000A068B0F5805F01D12069B0B1206A411C31
:101090002162216800784860E08C401E0004000C4A
:1010A000E084E3D12068C16821F08001C16020683C
:1010B000C16841F04001C160D8E7206A0088C0F3F0
:1010C00008004860206A801C2062E5E74006CDD514
:1010D0005006CBD5CA68204622F04002CA6084F888
:1010E000413000F0A9F9C1E75F19000870B50400AC
:1010F00004D094F84100002510B106E0012070BD35
:1011000084F84050204600F04FF8242084F8410035
:101110002068C16821F40051C160204600F0B0FC95
:101120002068016921F4904101612068416921F042
:101130002A0141612068C16841F40051C1606564C1
:10114000202084F8410084F842006563002070BDCF
:1011500010B5104A01681048914209D1C16921F4C3
:101160000031C161BDE810400C210C48FFF714B9F3
:101170000B4A91420DD1C16921F48021C1614FF424
:1011800040610848FFF708F9BDE810402720FFF745
:10119000E7BA10BD004400400010024000080140C2
:1011A00000480040000C014030B585B00024009498
:1011B0000194029403942B4D03682B4802210322CF
:1011C000AB4222D1C36943F40033C361C36903F462
:1011D00000330493836943F0040383618069234DE2
:1011E00000F0040004900420CDE900010392694658
:1011F0002846FFF75DF90820CDE900046946284636
:101200000294FFF755F905B030BD194DAB42FAD144
:10121000C36943F48023C361C36903F48023049347
:10122000836943F0080383618069039200F008003A
:1012300004902815CDE900010E4D69462846FFF7B8
:1012400037F9E814CDE90004694628460294FFF70F
:101250002FF9002205212720FFF7A0FA2720FFF70A
:1012600090FAD0E70044004000100240000801401E
:1012700000480040000C01402DE9F84F044690F86A
:1012800042009A4616460D46202802D00220BDE8AC
:10129000F88FB5B1AEB100206064222184F842100D
:1012A0002063FFF7FFF9A6858146E685A0684FF425
:1012B00080582027404501D1206920B12E460025C5
:1012C00029E00120E3E7002625E04B46002220210B
:1012D0002046CDF800A000F04AFC18B184F8427016
:1012E0000320D4E726B1A06840451AD038B108E001
:1012F00020684068C0F3080025F8020B08E0206968
:1013000078B12068406800F07F0000BF06F8010B4C
:10131000E08D401EE085E08D0028D6D184F8427033
:10132000B5E720684068F1E790F84230202B01D003
:101330000220704721B11AB10023036300F0FCBB07
:101340000120704730B40068104988421CD1104811
:101350000169491C0161817899B1C168491CC1606A
:1013600043788288511C89B2802900D30021C48827
:10137000A14203D1C169491CC16102E0054CA354DB
:10138000818030BC00F03CB930BC70470048004060
:1013900000000020400000202DE9F843044690F8AA
:1013A0004100984616460D46202802D00220BDE88E
:1013B000F88385B17EB100206064212084F841006B
:1013C000FFF770F9A6848146E684A0682027B0F56F
:1013D000805F02D003E00120E9E7206910B12E46CA
:1013E00000250EE000260CE08021204600F0BFFB27
:1013F000A8B9C6B116F8010B21684860E08C401E00
:10140000E084E08C4B464FF00002CDF800800028CD
:10141000EAD14FF04001204600F0A9FB40B184F82A
:1014200041700320C3E735F8020BC0F30800E3E77F
:1014300084F841700020BAE77047FEE72DE9F047D5
:1014400086B000243A480094019402940394816980
:1014500041F010018161816901F0100104918169FD
:1014600041F020018161816901F0200104918169CD
:1014700041F004018161816901F0040104918169F5
:1014800041F0080181618069DFF8A88000F0080060
:101490004FF400550490002229464046FFF7FDF81E
:1014A000DFF8949000224EF2AB014846FFF7F5F8C2
:1014B00001224FF440714846FFF7EFF8DFF87CA0B7
:1014C0004FF4F857002239465046FFF7E6F80095EA
:1014D000022601250396CDE9015469464046FEF7F0
:1014E000E7FF4EF2AB30CDE90005CDE90246694693
:1014F0004846FEF7DDFF41F25000CDE900046946A1
:1015000048460294FEF7D4FF00970396CDE90154B4
:1015100069465046FEF7CCFFE803CDE90004694672
:1015200050460294FEF7C4FF06B0BDE8F087000005
:101530000010024000100140000C01400008014072
:10154000104810B50E4901604FF4827141600021CE
:101550008160C1604FF400720161C0E90512182278
:10156000C0E90721416281620A21C162FFF7B4FB31
:10157000002803D0BDE81040FEF78BBE10BD000070
:1015800000300140C00000200C4810B50A4901603D
:101590004FF4E1314160002181600C22C160C0E95B
:1015A00004128161C161FFF7A1FD002803D0BDE8ED
:1015B0001040FEF76EBE10BD004400401801002030
:1015C0000C4810B50A4901604FF4E1314160002137
:1015D00081600C22C160C0E904128161C161FFF722
:1015E00085FD002803D0BDE81040FEF752BE10BDB7
:1015F0000048004060010020FEE7FEE77047000061
:10160000094810B590F8420022280BD00122074962
:101610000548FFF789FE002804D00448401E4169B0
:10162000491C416110BD0000600100200100002044
:1016300070B5134E88B00025B088F4886946114A09
:1016400008E0135D4B556D1C641CA4B2EDB2802CF8
:1016500000D30024844201D0202DF2D3002D08D0E5
:101660000A232A460848FFF797FE20B1B069401CBC
:10167000B06108B070BDF480306A28443062F8E789
:1016800000000020400000201801002010B50E4C82
:101690000020A060E06020616061A061E0612062E4
:1016A00060622070A080E08002464FF4005107483D
:1016B000FEF7F3FF00F01EF8A078002803D0BDE885
:1016C0001040FFF79DBF10BD00000020001001403A
:1016D00010B5074A0021435C545CA34201D00020AE
:1016E00010BD491CC9B20629F5D3012010BD000068
:1016F000361C00082DE9FF41354C00200126A07062
:101700002670344D324631462846FEF7C6FF012288
:1017100002212846FEF7C1FF4FF4165000F0BAF838
:1017200008B1042016E00A20FEF724FE40F6B83780
:10173000384600F0BFF860B10025606A401C606266
:10174000684600F07DF838B16846FFF7C1FF38BB46
:1017500004E00320207036E005202CE01E49002024
:1017600002AA0B5C1354401CC0B20628F9D300F047
:1017700057F84FF49673062202A91848FFF70CFE9B
:10178000B0B91420FEF7F6FD384600F093F878B1B2
:10179000684600F055F868B16846FFF799FF48B110
:1017A00000F01EF890B1A67002202070BDE8FF8105
:1017B000062000E0072020703220FEF7DBFD6D1CC4
:1017C000EDB2032DB9D300F00BF8EFE70820ECE7FA
:1017D00000000020000C0140361C000860010020C1
:1017E00010B50E4C002201212046FEF756FF0022C4
:1017F00002212046FEF751FF0A20FEF7BBFD40F60E
:10180000B83000F057F8002805D04FF4E13000F070
:1018100041F808B1002010BD012010BD000C0140AE
:10182000064808B5006801684168009100E0416819
:101830000168C9438906FAD508BD0000600100208F
:1018400038B5044610A000680090FFF7E9FF4FF498
:1018500096752B46032269460C48FFF79DFD30B96B
:101860002B46062221460948FFF706FD08B1002055
:1018700038BD07480022A15C8154521CD2B2062A0E
:10188000F9D3012038BD0000C1C1C10060010020B2
:101890002800002010B504460548FFF7C4FA08B137
:1018A000012010BD02484460BDE81040FFF71EBC97
:1018B000600100202DE9F0410746FEF7F3FE0D4DD3
:1018C00004464FF4805631462846FEF7E1FE0128D3
:1018D00008D10220FEF74EFD31462846FEF7D8FE1D
:1018E000012805D0FEF7DEFE001BB842EBD3002036
:1018F000BDE8F081000C01407047FEF7D9BE30B55D
:101900008FB028216846FEF75FFC14210AA8FEF775
:101910005BFC01210804CDE900100024029402259B
:101920000491CDE907504FF4E01009906846FFF7A5
:1019300043F808B172B6FEE70F20CDE90A054FF46F
:101940008060CDE90C4002210AA80E94FEF758FFF2
:10195000002801D072B6FEE70FB030BD704710B559
:10196000406A0021C185C184FFF778FA10BD016883
:101970000C3151E8002F22F4907241E80023002B33
:10198000F5D10168143151E8002F22F0010241E83D
:101990000023002BF5D1016B012909D101680C311D
:1019A00051E8002F22F0100241E80023002BF5D16E
:1019B000202180F8421000210163704708B590F89B
:1019C0004210222901D0022008BD82684FF48053C2
:1019D0009A4201D1016921B1816A9A421BD04AB170
:1019E0000AE00268816A5268C2F308020A80816ACA
:1019F000891C08E0026972B10268526802F07F0235
:101A00000A70816A491C8162C18D491E0904090C52
:101A1000C18503D01BE002685268F1E70168CA681B
:101A200022F02002CA600168CA6822F48072CA608B
:101A300001684A6922F001024A61202180F84210BF
:101A400000214163026B012A03D0FFF77BFC0020D9
:101A500008BD016301680C3151E8002F22F010022B
:101A600041E80023002BF5D101680A68D20602D5AF
:101A70000A6849680091818DFFF7D4F9E7E7000013
:101A800070B5044600680169E26821F440511143D1
:101A900001612169A0680843616908432168CA6837
:101AA00041F20C639A430243CA6020684169A2690B
:101AB00021F44071114341611E492068884202D1DE
:101AC000FEF744FF01E0FEF731FF00EBC00101EB40
:101AD0000012606864218000B2FBF0F3B3FBF1F305
:101AE0006FF018067343B2FBF0F5B2FBF0F605EBAE
:101AF0008305322303EB0515B5FBF1F5B6FBF1F6D3
:101B000005F0F00505EB0615B2FBF0F6B2FBF0F0C0
:101B1000B0FBF1F06FF01802504306EB800003EBCE
:101B20000010B0FBF1F0216800F00F00284488603D
:101B300070BD00000038014081628285C2850021AD
:101B40004164222180F84210016921B10168CA680C
:101B500042F48072CA6001684A6942F001024A6137
:101B60000068C16841F02001C160002070472DE984
:101B7000F843984617460D460446089E24E0701C1C
:101B800022D0FEF78FFDA0EB0800B0421AD8CEB1EC
:101B90002068C168490717D5802D15D0402D13D076
:101BA0000168C94309070FD4016800254068009007
:101BB0002046FFF7DCFE0820606484F840500120D6
:101BC000BDE8F8830320FBE72068006835EA0000E1
:101BD00004D00020B842D2D00020F1E70120F9E77C
:101BE0000148FFF74DB9000060010020FEE709073A
:101BF000090E002804DB00F1E02080F80014704793
:101C000000F00F0000F1E02080F8141D7047FEF78F
:101C100057FDFFF774FEFFF711FCFFF791FCFFF78C
:101C2000B3FCFFF7CDFCFFF731FDFFF701FD01200D
:101C3000FEF7A0FBF9E7C000063C064401020203E0
:101C40000405060708090A0B0C0D0E0F1010000002
:101C5000000000000000010203040607080900005C
:101C60000000010203040000881C0008000000209E
:101C70004000000028010008C81C000840000020A7
:101C8000C807000044010008000000000000000038
:101C90000000000000000000000000000000000044
:101CA0000000000000000000000000000000000034
:101CB0000000000000000000010000001000000013
:081CC0000000000000127A0090
:04000005080000ED02
:00000001FF
