:020000040800F2
:1000000050CC01246D03000861BA0008719100080A
:1000100059BA000889140008A91501080000000059
:1000200000000000000000000000000071E2000875
:10003000A92D00080000000071BF0008B1EE000803
:100040008B0300088B0300088B0300088B03000858
:100050008B0300088B0300088B0300088B03000848
:100060008B0300088B0300088B0300089924000809
:10007000A9240008B9240008C9240008D9240008CC
:10008000E9240008F92400088B030008E92D000882
:10009000F92D00088B0300088B0300088B03000870
:1000A0008B0300088B0300088B0300088B030008F8
:1000B0008B0300088B0300088B0300088B030008E8
:1000C0008B0300088B0300088B0300088B030008D8
:1000D0008B030008F90E01088B0300088B0300084E
:1000E0008B0300088B030008000000008B0300084E
:1000F0008B0300088B0300088B0300080925000808
:100100008B0300088B0300088B0300088B03000897
:10011000F9F100088B03000871F000088B03000858
:100120001925000829250008392500084925000857
:100130008B0300088B0300088B0300088B03000867
:1001400000000000000000000000000000000000AF
:100150008B0300088B0300088B030008090F0108BC
:100160008B0300088B0300088B0300088B03000837
:100170008B0300088B0300088B03000800000000BD
:100180008B0300088B03000809F2000819F200082D
:100190008B0300088B0300088B0300088B03000807
:1001A0008B0300088B0300088B030008000000008D
:1001B0008B0300088B0300088B0300088B030008E7
:1001C0008B0300088B030008000000000000000003
:1001D00000000000000000008B0300080000000089
:1001E000000000000000000000000000000000000F
:1001F00000000000000000008B0300088B030008D3
:100200008B0300088B030008000000008B0300082C
:100210008B0300088B0300088B0300088B03000886
:100220008B030008000000008B03000800000000A2
:100230008B0300088B030008000000008B030008FC
:100240008B0300088B0300088B0300088B03000856
:100250008B0300088B0300088B0300088B03000846
:100260008B0300088B0300088B0300088B03000836
:100270008B0300088B0300088B03000800000000BC
:100280008B0300088B0300088B0300088B03000816
:10029000000000008B0300088B0300080000000032
:1002A000000000008B0300088B03000829F20008FF
:1002B0008B0300088B0300088B0300088B030008E6
:1002C0008B0300088B0300088B03000800F002F882
:1002D00000F03CF80AA090E8000C82448344AAF1A4
:1002E0000107DA4501D100F031F8AFF2090EBAE8A2
:1002F0000F0013F0010F18BFFB1A43F0010318475A
:100300000C4D01002C4D0100103A24BF78C878C173
:10031000FAD8520724BF30C830C144BF04680C600B
:10032000704700000023002400250026103A28BF53
:1003300078C1FBD8520728BF30C148BF0B60704757
:100340001FB514F0BBFC1FBD10B510BD00F0C2F905
:100350001146FFF7F5FF11F003FD00F0E0F903B4DB
:10036000FFF7F2FF03BC00F0E3F900000A48804702
:100370000A4880470A480047FEE7FEE7FEE7FEE737
:10038000FEE7FEE7FEE7FEE7FEE7FEE70548064973
:10039000064A074B70470000B92D000899EF000886
:1003A000CD02000850BA012450CC012450BC0124D5
:1003B00050BC012453EA020C00F069802DE9F04B97
:1003C0004FF00006002B1FBFB3FA83F503FA05F4C4
:1003D00024FA05F65E4012BF1643B2FA82F502FA1D
:1003E00005F4C5F120051EBF22FA05FC44EA0C0401
:1003F000203556EA044C4FEA144418BF641C4FF0F1
:1004000000084FF00009904271EB030C39D300292A
:1004100019BFB1FA81F701FA07F6B0FA80F700FACE
:1004200007F6C7F120071EBF20FA07FC46EA0C06B4
:100430002037B6FBF4FCA7EB0507103F07F01F0BB6
:10044000CBF120062CFA06F60CFA0BFB44BFB346A0
:100450000026202FA4BF5E464FF0000B5BEA060C7F
:1004600008BF4FF0010B19EB0B0948EB0608ABFB7B
:10047000027C06FB02CC0BFB03CCC01B71EB0C0116
:10048000C1E70B46024641464846BDE8F08B13B52E
:10049000084318BF4FF0FF300146AFF30080BDE8BE
:1004A0001C40704753EA020C23D010B54C1084EA6C
:1004B000530404D54042C1F1000138BF491E1B421C
:1004C00004D55242C3F1000338BF5B1EFFF772FF31
:1004D00014F0804F04D04042C1F1000138BF491EE2
:1004E00014F0004F04D05242C3F1000338BF5B1E2A
:1004F00010BD13B540424FF0000070EB0104B8BFCF
:10050000012001F0004100281CBF6FF000414FF0B6
:10051000FF30AFF300801CBD032A40F2308010F0A2
:10052000030C00F0158011F8013BBCF1020F62448E
:1005300098BF11F801CB00F8013B38BF11F8013B1F
:10054000A2F1040298BF00F801CB38BF00F8013BCC
:1005500011F0030300F02580083AC0F0088051F83C
:10056000043B083A51F804CBA0E80810F5E7121D47
:100570005CBF51F8043B40F8043BAFF30080D20766
:1005800024BF11F8013B11F801CB48BF11F8012B32
:1005900024BF00F8013B00F801CB48BF00F8012B55
:1005A000704710B5203AC0F00B80B1E81850A0E8B1
:1005B0001850B1E81850A0E81850203ABFF4F5AF31
:1005C0005FEA027C24BFB1E81850A0E8185044BF8D
:1005D00018C918C0BDE810405FEA827C24BF51F8FA
:1005E000043B40F8043B08BF7047D20728BF31F8EE
:1005F000023B48BF11F8012B28BF20F8023B48BF3F
:1006000000F8012B704702F0FF0343EA032242EA9D
:10061000024200F024B84FF000020429C0F012801A
:1006200010F0030C00F01B80CCF1040CBCF1020FA5
:1006300018BF00F8012BA8BF20F8022BA1EB0C017A
:1006400000F00DB85FEAC17C24BF00F8012B00F870
:10065000012B48BF00F8012B70474FF0000200B596
:10066000134694469646203922BFA0E80C50A0E8D5
:100670000C50B1F12001BFF4F7AF090728BFA0E883
:100680000C5048BF0CC05DF804EB890028BF40F84F
:10069000042B08BF704748BF20F8022B11F0804F91
:1006A00018BF00F8012B704770477047704710B5AE
:1006B00000F008F8006810BD10B5044600F002F81C
:1006C000046010BD00487047700000240048704767
:1006D000700000247546FFF7F9FFAE460500694635
:1006E000534620F00700854618B020B5FFF74EFEB0
:1006F000BDE820404FF000064FF000074FF0000823
:100700004FF0000BAC46ACE8C009ACE8C009ACE85F
:10071000C009ACE8C00921F007018D46704710B54B
:100720000446AFF300802046BDE81040FFF717BE37
:1007300001491820ABBEFEE726000200704700000A
:10074000B0B52DED028B8EB00C2805D901200EB06E
:10075000BDEC028BB0BD00BF04460C284FF0010079
:10076000F5D800FA04F141F61B721142EFD0A4F162
:10077000090002281AD801AD284608F0D5FF002844
:100780004FF0010044D09DF83410002940D09DF86E
:10079000320000284FF001003AD09DF810100429D3
:1007A00036D1092C1ED19FED1F8A2AE0082C07D0D4
:1007B0000C2C0DD10BF0C0FB00F04EFA28E000BF6E
:1007C00040F2BC40C2F20040017B81F001010173A4
:1007D00040F21000C2F20040047000200EB0BDECE8
:1007E000028BB0BD9DF8360000280FA018BF24353D
:1007F0000A2C08BF043095ED000A90ED001A31EE86
:10080000008A012008F068FFB0EE480A09F018FCE1
:1008100040F2BC41C2F2004108700EB0BDEC028B48
:10082000B0BD00BF000000000000B4C20000B44230
:1008300070B510F0C5FB40F2BC45C2F2004548B1AE
:10084000697B41B90021A97340F210010122C2F273
:1008500000414A706873E87BC0B105F085FAE97B16
:1008600004464A1E062A00F21A81DFE802F03B0520
:10087000454F65056F0000BF10F0F2FB002800F047
:100880000D810120E8810020287070BD40F2100425
:10089000EFF31080C2F2004472B600284FF0FF0060
:1008A0002678207000D162B6FF2E08BF70BD10F010
:1008B00087FB68B1082E11D8DFE806F0065A106EE3
:1008C00088101010980000BFA87B012856D1BEE008
:1008D000082E53D1287B80F0010028730120287056
:1008E00070BD00BF10F0BCFB002800F0D7800020D6
:1008F000E881287070BD00BF10F0B2FB002800F046
:10090000CD8010F071FB80B90420C0E010F004FB32
:10091000022800F0C38048B99FED7E0AF0EE400A3D
:1009200010F0D2FD002800F0B180012028700020D6
:10093000E87310F01DFEB1E010F092FB002800F00B
:10094000AD800220E8810020287070BD10F088FB87
:10095000002800F0A38040F21001287CC2F2004180
:1009600080F00100487000202870E87370BD00BF5F
:10097000A87B002804BF287B002865D0287A01289E
:10098000ACD1012EAAD8E87980F00100E8710020EE
:1009900028720120287070BDA87B01289ED140F2EA
:1009A000DC109FED612AC2F2004090ED000A90ED4C
:1009B000011A30EE020A9FED5D2A71EE020A10F074
:1009C00083FD002840F0A480032099E0A87B022842
:1009D0007FF484AF9FED520ADFED520A10F074FDF0
:1009E000002840F0958006208AE000BFA87B002800
:1009F0007FF470AF287B002876D040F2DC11B8EE8F
:100A0000080AC2F2004191ED002AB4EE402AF1EE4C
:100A100010FAFFF65FAFB0EE081AB4EE412AF1EE1D
:100A200010FA3FF757AF91ED012AB4EE402AF1EEEC
:100A300010FAFFF64FAFB4EE412AF1EE10FA3FF78D
:100A400049AF9FED360A51E06078002896D0287AA9
:100A5000012801D100202872012E2DD0002E41D175
:100A600040F2DC109FED342AC2F2004090ED000A03
:100A700090ED011A30EE020A9FED302A71EE020A63
:100A800010F022FD002843D1012039E00520E87351
:100A900005F06AF941F288310844A861E97BC1B3E5
:100AA000A869201A35D4032028700020E873BDE817
:100AB000704010F05DBD00BF40F2DC109FED1C2ABD
:100AC000C2F2004090ED000A90ED011A30EE020AE9
:100AD0009FED182A71EE020A10F0F6FCC0B9022050
:100AE0000EE000BF012013E09FED0B0AF0EE400A7C
:100AF000287480F00100607010F0E6FC40B9072017
:100B0000E87305F031F941F288310844A86100200A
:100B1000287070BD0000B4420000000000003442A4
:100B200000003343000031430000354300003743E9
:100B30000000064300000443000006C3000004C395
:100B4000002818BF0120A9B140F2BC41C2F2004107
:100B5000CA78BAB10A79824208BF70470A7B087125
:100B600082F00100087340F210000821C2F2004038
:100B70000170704740F2BC400021C2F20040C170D9
:100B8000704700BF08710120C87070470000000066
:100B900040F2BC42002818BF0120C2F200420029E6
:100BA000507018BF012191707047000000000000D4
:100BB000B0B50D46044605F0D7F8EDB140F2BC459E
:100BC000C2F20045A97A002904F03F011CD06A7ADC
:100BD000EB7AE972012A21EA030406D16969411A14
:100BE000B1F5C87F16D900216972E1061BD568618D
:100BF0000120687217E000BF40F2BC400021C2F241
:100C00000040A0F80910B0BDE9724FF48070A5F85B
:100C10000900B0BDE00606D5002068720BF08CF923
:100C200000F01AF8287020070AD4A00658BFB0BDFB
:100C3000052007A1085CBDE8B040FFF781BD00BFFB
:100C4000032003A1085CBDE8B040FFF779BD00BFF9
:100C5000FFFFFF0AFF0B0000B0B508F005FDB8B1BB
:100C600040F26021EFF31080C2F2004172B600281A
:100C70004FF006020A704FF00100487000D162B6D2
:100C80000620012101240DF06BFF2046B0BD00BFFE
:100C900005F06AF840F26024C2F20044C4E906009C
:100CA000FF20A070012008F017FD0020002500F0B3
:100CB0005BFE012001F0F8F9EFF3108072B64FF0FF
:100CC00007012170657000B962B607200021002479
:100CD0000DF046FF2046B0BD10B50020002401F005
:100CE000E3F9002000F040FE05F03EF840F26021FC
:100CF0000122C2F200414860EFF3108072B60A7020
:100D00004C7028B101200021BDE810400DF028BF33
:100D100062B601200021BDE810400DF021BF0000A7
:100D200010B50446002000F01FFE40F26021EFF3F2
:100D30001080C2F2004172B64FF006020A704C7089
:100D400000B962B6062021460DF00AFF0020BDE87A
:100D5000104001F0A9B9000080B582B0B6EE002ABB
:100D6000BEEE003AB5EE400A0020F1EE10FAF5EEC4
:100D7000400A4FF0320C33FE024AF1EE10FAB5EEA3
:100D8000401A33FE025AF1EE10FAB8BFB0EE432A11
:100D900034EE400ACDF800C035EE603A32EE011A6A
:100DA000BDEEC00ABDEEC32ABDEEC11A10EE101A88
:100DB00012EE102A11EE103A00F0EEFDF0B100F044
:100DC000D7FC01281AD1002000F0CEFD40F26021AE
:100DD000EFF31080C2F2004172B600284FF0060215
:100DE0000A704FF00400487000D162B6062004215A
:100DF00002B0BDE880400DF0B3BE00BF02B080BDC0
:100E000080B582B084460020002200233221009168
:100E1000614600F0C1FD08B300F0AAFC01281DD115
:100E2000002000F0A1FD40F26021EFF31080C2F23B
:100E3000004172B600284FF006020A704FF004001D
:100E4000487000D162B6062004210DF089FE002012
:100E500002B0BDE8804001F027B900BF02B080BDFC
:100E6000F0B581B02DED0E8B90B004F07DFF40F217
:100E700060260446C2F200467168401A0A2805D26C
:100E800010B0BDEC0E8B01B0F0BD00BF746000F07F
:100E90006FFC002800F0B2803778022F40F0CA8043
:100EA00001A80DF061FA002800F0EA809DF810001A
:100EB000002800F0E5800398201AFA2800F2E0806C
:100EC0009DED050A10EE100A00F0FF40B0F1FF4F53
:100ED00000F0D6809DED061A11EE100A00F0FF40DA
:100EE000B0F1FF4F00F0CC80089800F0FF40B0F167
:100EF000FF4F00F0C580B0EEC02A9FEDBA0AB4EEF5
:100F0000402AF1EE10FA00F3BB80B0EEC11AB4EE45
:100F1000401AF1EE10FA00F3B380EFF3108072B6CE
:100F200096ED029A96ED03BA96ED04AA00B962B660
:100F30009DED080A9FEDACDA9FEDAC8A30EE0D0A0C
:100F4000F0EE480A13F07AFC9DED061A30EE082AFE
:100F50003BEE41CA9DED051A39EE41BAB5EE400AA5
:100F6000F1EE10FA2CEE0C1A9FEDA1EAB8BFB0EE2C
:100F7000420AABEE0B1A30EE0E0A8DED080AB1EE06
:100F8000C19AB4EE499AF1EE10FA80F159829DEDC2
:100F9000080AF0EE480A3AEE400A30EE0D0A13F065
:100FA0004DFC30EE081AB5EE400AF1EE10FAB8BF6B
:100FB000B0EE410A30EE0EAA9FEDC90AB4EE409A97
:100FC000F1EE10FAB0EECADA00F38E819FEDC50A99
:100FD000B4EE40DAF1EE10FA00F38681002000242E
:100FE00000F0C2FCEFF3108072B600284FF005014C
:100FF0003170747040F00F8262B60CE20020002461
:1010000000F0B2FC307801283FF43AAFEFF31080E3
:1010100072B64FF001013170747000B962B60120F0
:10102000002110B0BDEC0E8B01B0BDE8F0400DF01A
:1010300097BD00BFF81E01283AD801AD28460DF033
:1010400063F920B10398201AFB28C0F07D800324A7
:101050000020032F08BF022400F086FCEFF310806D
:1010600072B64FF006013170747000B962B6062096
:1010700021460DF075FD10B0BDEC0E8B01B0F0BD3A
:10108000002000F071FCEFF3108072B600284FF0E2
:10109000060131704FF00100707000D162B6062079
:1010A00001210DF05DFD10B0BDEC0E8B01B0F0BD67
:1010B000012F3FF4E5AE072F3CD140F29031EFF322
:1010C0001080C2F2004172B68A68019291F80CC099
:1010D0008DF83CC04F7B8DF83B70CB89ADF8383034
:1010E0000B680D9391F804E08DF830E04D798DF8A0
:1010F0002F50C988ADF82C1000B962B6002F18BF68
:10110000002D4FD1002000F02FFCEFF3108072B6BD
:101110004FF006013170717000B962B606200621E9
:101120000DF01EFD002000F0BFFF10B0BDEC0E8BD7
:1011300001B0F0BD002010B0BDEC0E8B01B0BDE8D9
:10114000F04000F011BC00BF05F10D00032F08BFF7
:1011500005F10C0005F11C01027805F1200004BF27
:1011600005F1100105F1140042B191ED001A11EEE4
:10117000101A01F0FF41B1F1FF4F3BD103240020D1
:10118000032F08BF022400F0EFFBEFF3108072B6CC
:101190004FF006013170747000B962B60620214626
:1011A0007FE700BFA01AB0F5967F9CBFE01AB0F5AC
:1011B000967FA7D8B06941F28931201A88426FD34F
:1011C000002000F0D1FBEFF3108072B600284FF042
:1011D000060131704FF00700707000D162B6062032
:1011E00007219DE70000C842DB0F4940DB0FC940E3
:1011F000DB0F49C090ED000A10EE100A00F0FF402E
:10120000B0F1FF4FBAD0B0EEC12A9FED973AB4EEDD
:10121000432AF1EE10FAB1DCB0EEC02AB4EE432A54
:10122000F1EE10FAAADCEFF3108072B696ED053AF3
:1012300000B962B631EE431A9FED8C3AB0EEC14A66
:10124000B4EE434AF1EE10FA05DCB4EE432AF1EEB7
:1012500010FA40F3BF809FED872A21EE028A9FEDAE
:10126000841A20EE019A28EE081AA9EE091AB1EEA6
:10127000C10AB4EE400AF1EE10FA80F1E9809FED68
:101280007E1AB7EE003A81EE002AB4EE410AF1EE82
:1012900010FA32FE031A29EE010A68EE010A85E00F
:1012A000BCF1000F18BF4FF0010CBEF1000F18BFCA
:1012B0004FF0010EB1784CEA4E00884240F0808039
:1012C000F1690028A4EB010500F09280632D79D923
:1012D000022800F0A380012840F0AA800D209FE0A2
:1012E000CDCC4C3D0AD7A33D9DED080A13F0FEF985
:1012F000B0EE408A9DED080A13F0F8FA2CEE009A41
:101300009DED080AA8EE0B9A13F0F0FAB0EE408AB1
:101310009DED080A13F0EAF920EE4C0AA8EE0B0A3C
:101320009FED58BA29EE0B8A28EE081A20EE0B9A88
:10133000A9EE091AB1EEC10AB4EE400AF1EE10FAB4
:1013400080F18C808BEE001AB7EE002AB4EE4B0AC7
:10135000F1EE10FA31FE021A29EE010A68EE010AD6
:101360009FED471AB4EE41DAF1EE10FA1EDDB2EE4F
:10137000001ABAEE042A2AEE011A81FE021AB2EE0F
:10138000042A81FE421AB1EE002AB0EEC13AB4EE50
:10139000423AF1EE10FA0BDAB9EE003AB5EE401A25
:1013A000F1EE10FA22FE031A02E000BF9FED331A9D
:1013B000FFF7D2FC10B0BDEC0E8B01B0F0BD00BF4A
:1013C000B070F461002000F0CFFA10B0BDEC0E8BCD
:1013D00001B0F0BD0020002400F0C6FAEFF3108049
:1013E00072B64FF0050131707470A0B962B612E0A8
:1013F0000020002400F0B8FA962DFFF441AD002043
:1014000000F052FEEFF3108072B64FF0050131701C
:10141000747000B962B60520002142E66FF00C003E
:10142000FFF7EEFC10B0BDEC0E8B01B0F0BD00BFBD
:101430000820FFF775FC10B0BDEC0E8B01B0F0BDBD
:10144000B0EE410A13F01AFBB0EE409A9FE500BFE0
:10145000B0EE410A13F012FB11E700BFB0EE410AF3
:1014600013F00CFB6EE700BF0000C8428FC2F53CD2
:10147000000096C300009643000096420000000062
:101480000AD7A33D00001643FEE70000000000005D
:101490002DE9F04F81B02DED048B8EB0054601A8EB
:1014A000984614460E4608F03FF900284FF0000019
:1014B0004ED09DF8321000294FF0000149D09DF820
:1014C000340000284FF0000042D09DF8101004298D
:1014D0004FF000013DD19DED010A9FEDA21A20EED3
:1014E000018AB0EE480A13F001F9B0EE409AB0EE6E
:1014F000480A13F0FBF901EE106A02EE105AB8EE3A
:10150000C11AB8EEC22A20EE413A29EE411AA9EEDC
:10151000423AA0EE021ABEEE000AB6EE002AB5EE7E
:10152000403AF1EE10FAB5EE401A22FE004AF1EE12
:1015300010FA22FE000A33EE042A31EE000ABDEE54
:10154000C21ABDEEC00A11EE101A10EE100A00E029
:10155000002100EE104A9FED841A0B18081AB8EE0D
:10156000C00A20EE010ABDEEC00A10EE102A13EBED
:10157000020B00EB02075C46A0EB020A3846A3EB25
:10158000020948BFCBF10004002F48BF7842A042B7
:1015900088BF04465046BAF1000F48BFCAF10000A8
:1015A000A04288BF04464846B9F1000F48BFC9F1C0
:1015B0000000A04288BF0446B4F57A6F4AD90020E3
:1015C0004FF47A62B0EB54064FF0000360F100056F
:1015D00030462946BBF1FF3FC4BF60080021CBFB6A
:1015E000020122464FF47A6BFEF75CFF3246294631
:1015F000B7F1FF3F4FF00003C4BF62080021C7FBF3
:101600000B2183464FF47A6710462246FEF74AFFC5
:1016100032462946BAF1FF3F4FF00003C4BF6208CB
:101620000021CAFB072107464FF47A6A104622467A
:10163000FEF738FFB9F1FF3F4FF00003C4BF0025AC
:1016400066082246C9FB0A65824630462946FEF7EF
:1016500029FF81464FEA98004A285AD84FEAEB7092
:10166000ABFB081200FB08226FF095006FF09504A9
:10167000B2F1FF3F4FEAE273C8BF9620401843EB38
:1016800002014FF496720023FEF70CFFF917A7FB37
:10169000082301FB08316FF095038346B1F1FF3F4A
:1016A0004FEAE176C8BF96239F184FF496727141B6
:1016B00000233846FEF7F6FE4FEAEA71AAFB08233C
:1016C00001FB08316FF095030746B1F1FF3F4FEA88
:1016D000E175C8BF96239E184FF4967269410023A6
:1016E0003046FEF7DFFE4FEAE971A9FB082301FB54
:1016F00008318246B1F1FF3F4FEAE173C8BF96243B
:10170000A6184FF49672594100233046FEF7CAFEE0
:10171000814648F654545946C2F20044204610F01F
:1017200097F928B10EB0BDEC048B01B0BDE8F08F85
:1017300004F12C00394610F08BF90028F2D104F1A5
:101740005800514610F084F90028EBD104F18400D0
:10175000494610F07DF90EB0BDEC048B01B0BDE838
:10176000F08F00BF35FA8EBC9A99D9400000000076
:1017700040F2EC10C2F200404079704700000000D7
:1017800003280FD840F2EC12C2F2004252784AB15C
:1017900048F654522C23C2F2004210FB032010F0F2
:1017A0007FB800BF002070472DE9F04740F2EC16EB
:1017B000C2F20046707818B10020BDE8F08700BF83
:1017C00006F1200549F2A431C2F2004128460FF08B
:1017D000EFFE00281CBF0120BDE8F08748F65454F6
:1017E00044F69067C2F20044C0F60107204629463D
:1017F0003A4610F071F8D0B904F12C0A07F1100242
:101800005046294610F068F888B904F1580807F1E5
:1018100020024046294610F05FF840B904F18409DF
:1018200007F130024846294610F056F830B12846F4
:1018300010F026F80120BDE8F08700BF00253570C4
:1018400004F092FAC6E9040000F57A70B061F57010
:1018500001203571A6F80100204610F0C5F8504669
:1018600010F0C2F8404610F0BFF8484610F0BCF83F
:101870002846BDE8F08700002DE9F04F81B004460E
:101880000268D0F804A015465046002A48BF5542C9
:10189000BAF1000FD4F8089048BFCAF10000A8427E
:1018A00088BF05464846B9F1000FD4F80C8048BF00
:1018B000C9F10000A84288BF05464046B8F1000FB4
:1018C00048BFC8F10000A84288BF0546B5F57A6F49
:1018D00044D900204FF47A6BB0EB55064FF000036B
:1018E00060F1000730463946B2F1FF3FC4BF6808D7
:1018F0000021C2FB0B012A46FEF7D4FD32463946D1
:10190000BAF1FF3F4FF00003C4BF6A080021206016
:10191000CAFB0B2110462A46FEF7C4FD3246394663
:10192000B9F1FF3F4FF00003C4BF6A0800216060B7
:10193000C9FB0B2110462A46FEF7B4FDB8F1FF3F64
:101940004FF00003C4BF00276E08A0602A46C8FB02
:101950000B6730463946FEF7A5FDE06001B0BDE8F3
:10196000F08F000000000000022812D800EB800079
:1019700040F2EC11C2F20041EFF3108201EB800063
:1019800072B6002A4FF0000180F8481018BF704767
:1019900062B67047000000002DE9F047DDF82080B6
:1019A0004FF0010CB8F1000F3FD002283DD840F2B3
:1019B000EC19C2F2004999F80160B6B3EFF3108A4E
:1019C00072B699F8054058B164B1BAF1000F1CBF66
:1019D0000220BDE8F08762B60220BDE8F08700BFB4
:1019E000012CF2D18FB200EB800095B29EB209EBD0
:1019F000800427876587A68704F0B6F9206445EA46
:101A00000700C4F8448030434FF0010084F84800D8
:101A10001CBF002089F80600BAF1000F1CBF00208F
:101A2000BDE8F08762B64FF0000C6046BDE8F08775
:101A30002DE9F04F91B040F2EC1BC2F2004B9BF845
:101A40000100012840F0538204F08EF90BF12006CA
:101A5000054630460FF024FE48F654594FF0000872
:101A6000C2F2004904AF09F12C0A09F1840409F11A
:101A70005800039005E000BFB8F11F0F08F10108FE
:101A800022D2304639460FF0D7FD02281CD000285C
:101A9000F2D1484639462A460FF052FF0028EBD1D2
:101AA000504639462A460FF04BFF0028E4D10398F0
:101AB00039462A460FF044FF0028DDD1204639463A
:101AC0002A460FF03DFFD7E7484629460FF0E8FFCA
:101AD000504629460FF0E4FF039829460FF0E0FF37
:101AE000204629460FF0DCFF99F8240040F2120846
:101AF000C2F2004838B199F8500000281CBF99F88C
:101B00007C00002812D1DBF8140000283CD0281AF1
:101B1000B0F57A7FC0F0AC809BF8020001286BD151
:101B2000DBF81800281A40F19C80A1E099F8A80081
:101B30000028E8D00020CBF814004FF48070ABF8F8
:101B400002009BF80400002800F0928004A807F02F
:101B5000EBFD002800F08C809DF81C00042840F06C
:101B600087809DF84000002800F082809DF83F00AB
:101B7000002800F07D809DF83E00002800F078806D
:101B800000208BF8040073E09BF80300CBF814509E
:101B900001286DD1EFF3108072B64FF001064FF0BF
:101BA0000001ABF80A10ABF80C104FF0FF02ABF8D5
:101BB0000E1088F800208BF848108BF85C108BF81A
:101BC00070108BF8046000B962B6002148460FF02F
:101BD0003FFF002150460FF03BFF002103980FF01C
:101BE00037FF002120460FF033FF04208BF8000060
:101BF0008BF802603CE000BFEFF3108072B64FF04C
:101C000001074FF00001ABF80A10ABF80C104FF0D1
:101C1000FF02ABF80E1088F800208BF848108BF804
:101C20005C108BF870108BF8047000B962B600215C
:101C300048460FF00DFF002150460FF009FF00212C
:101C400003980FF005FF002120460FF001FF04204C
:101C50008BF8000028468BF80270CBF81850281A31
:101C600006D430460FF05CFD05F5FA70CBF818008D
:101C7000EFF3108372B6FF2088F800009BF8700025
:101C8000029470B1DBE91A01281A884204D90020B5
:101C90008BF8700006E000BF98F90000B0F1FF3F3C
:101CA0001EDD0020002400219BF85C602EB3DBE9E0
:101CB0001567AE1BBE4203D900278BF85C701CE091
:101CC00098F90070B7F1FF3F17DCBBF84C10BBF878
:101CD0005040BBF84E00012788F800700DE000BFAF
:101CE000BBF86010BBF86440BBF86200022688F8BD
:101CF00000609BF85C60002ED9D19BF84870BFB1A2
:101D0000DBE91076EF1BB74204D900278BF8487047
:101D10000EE000BF98F90070B7F1FF3F08DCBBF898
:101D20003810BBF83C40BBF83A00002788F8007038
:101D3000ABF80A10ABF80C00ABF80E409BF806703D
:101D4000002F51D0012703B962B641EA00032343B3
:101D500018BF012305D02246002C18BF01228BF8A2
:101D600007209BF800603FB3042E029C00F0AC807B
:101D700048F654560020C2F200460021CDE9060084
:101D8000CDE9040030460FF063FE80B906F12C0067
:101D900000210FF05DFE50B906F1580000210FF050
:101DA00057FE20B906F1840000210FF051FE0420F7
:101DB0008BF800008DE000BF042E1DD8DFE806F090
:101DC00004223E4A600000BF002B029C5BD1002031
:101DD0000021002207F0D0F90246002000214FF434
:101DE0009673FFF755FB6FE09BF80470002F18BF48
:101DF0000127002BA9D1A7E701208BF806000420BA
:101E00005FE000BF002B45D00FB2DBF81C200FFABB
:101E100080F8AE1A22B23846414607F0ADF9B6F561
:101E2000967F024604D34FF4967602208BF800008A
:101E3000384641463346FFF72BFB44E053B30EB21E
:101E400007B2304622B2394607F096F902464FF4FF
:101E500096730FE0002B4DD00EB2012207B28BF823
:101E6000002022B230463946CBF81C5007F084F9E6
:101E70000246002330463946FFF70AFB23E000BF45
:101E8000002B029C46D0CBF81C5001208BF80000A0
:101E90001AE000BF9BF80700CBF81C508BF8080035
:101EA000D9F81400CBF82800D9F84000CBF82C0062
:101EB000D9F86C00CBF83000D9F89800CBF8340092
:101EC00003208BF80000029CDBF81000281A0A2877
:101ED0000DD34846CBF810500FF086FD50460FF05A
:101EE00083FD03980FF080FD20460FF07DFD11B0BB
:101EF000BDE8F08FDBF81C00281AC8280ED39BF829
:101F0000080000268BF8006068B107F0ADFB0026E2
:101F100009E000BF00208BF80000D5E7002800F0A2
:101F2000AD80C0F1C806DBF828000027C117DBF838
:101F30002C40A6FB002306FB013107FB00116FF0CC
:101F40006300B1F1FF3FC8BF6420DBE90C8301935C
:101F5000CB1780184FF0C80259410023FEF7A2FAB0
:101F6000E117A6FB042306FB01316FF0630307FBB7
:101F700004113C46B1F1FF3FC8BF642304909F1891
:101F80004FEAE1725141C82200233846FEF78AFA2F
:101F90004FEAE871A6FB082306FB01316FF06303EB
:101FA00004FB0811B1F1FF3FC8BF642305909F18DF
:101FB0004FEAE1725141C82200233846FEF772FA17
:101FC000019FF917A6FB072306FB013104FB07114C
:101FD0006FF06307B1F1FF3F4FEAE173C8BF6427B9
:101FE0000690BF184FF0C802594100233846FEF74B
:101FF00059FA07909BF80800029CE8B900200021DC
:10200000002207F0B9F800EE100A9FED251A04AF80
:10201000B8EEC00A8ECF20EE010ABDEEC00A10EE67
:10202000100A0144049111180591191A381A0790E1
:1020300004A80691FFF720FC48F654560499C2F212
:10204000004630460FF004FD00287FF43DAF0599AF
:1020500006F12C000FF0FCFC00287FF435AF069948
:1020600006F158000FF0F4FC00287FF42DAF07991B
:1020700006F184000FF0ECFC26E700BFDBF834002B
:102080000790DBF830000690DBF82C000590DBF8B9
:10209000280004909BF80800029C0028CCD1ADE7F2
:1020A0009A99D94000000000012818D840F2EC129B
:1020B000EFF31081C2F2004272B6507130B10020CD
:1020C00082F85C0002F1700002E000BF02F14800FB
:1020D00000294FF00001017018BF704762B67047C9
:1020E00040F22031C2F20041CA6832B1824218BFC8
:1020F0007047002008720120C8717047000000007E
:102100002DE9F04170B140F220370546C2F2004798
:10211000387801280AD1F868441B18BF01242046EA
:10212000BDE8F0810120BDE8F08100BFFD60002422
:10213000C7F82240FF20C7F82640252187F82A400B
:102140004FF00108BC837E1CFC833C84B87007F10F
:102150002B003C61FC703C717C71BC71FC71A7F878
:102160000940FC72A7F800803C727C61BC61FEF7FC
:1021700052FA01222846314606F06AFE00281CBFAA
:1021800087F8078004462046BDE8F0810000000083
:102190002DE9F0418AB040F22035C2F20045E868EE
:1021A000002800F0D080E97979B10024EC7105F0C5
:1021B00087FDE868A5F80940EC7220B1691C01228E
:1021C00006F046FE08B10120E871EFF3108072B608
:1021D000E97869B1B5F81CC00027B5F81EE02B8C72
:1021E000EF702E793EB195F8028000272F7104E040
:1021F0002E79002EF7D14FF0FF086F79002F1CBF0A
:1022000000226A7100B962B651B10FFA8CF1012057
:102210000FFA8EF24FF4FA741BB20094FFF7BCFB76
:1022200016B14046FEF78CFA0FB10AF019FAE868C9
:1022300007F0B6FEE86800F0A3FC03F095FDA9697D
:102240000446401A322856D306A80AF0D9F90028C5
:1022500051D09DED060A9FED411A20EE010A9DED39
:10226000082A9DED073A22EE012A23EE011A9DF875
:102270002400BDEEC00A8DF80A00BDEEC22A45F664
:10228000A556ADF8086010EE101ABDEEC10A12EEA8
:10229000102ACDF80B1080EA010710EE100A87EA29
:1022A00011278DF8132087EA1147CDF80F0087EA30
:1022B00011674740130A87EA10218DF8143081EA2C
:1022C0001041022381EA10605040160C80EA12206F
:1022D0008DF8156080EA1240110E8DF8161080EA14
:1022E00012608DF81700E86802A9102206F018FEA7
:1022F000002808BFAC61287AB8B905F12B0402AAFE
:1023000006AB252120460BF0C7FF70B1069869691E
:1023100088420AD001202872BDF80820E8682146CA
:1023200006F09EFE90B10020287203F01DFDA979F1
:1023300049B12969401AB0F5FA7F04D90020A87183
:102340000120FFF711FB0AB0BDE8F0810698686133
:1023500003F00AFDA9790029EBD1F4E700007A44E3
:10236000F0B581B040F22034C2F20044E1680029A7
:1023700000F08180814240F07E80E27A6178022A1A
:102380000AD0012A42D0002A69D1A5296BD1A52102
:1023900084F82210012265E0627A94F80AC0A51838
:1023A0000132D3B26272634585F822105BD394F890
:1023B00023105B2942D05A2948D194F824C094F8BC
:1023C0002A7094F8253094F826E094F8271083EAD0
:1023D0000C0282EA0E0594F8282085EA010694F89A
:1023E000295056406E40B74239D14CEA0320A083B1
:1023F0004EEA0120E08342EA0520208403F0B4FC89
:1024000020610120E070A11DE06826E0A1F15A02E0
:10241000042A0FD8012303FA02F212F0130F09D095
:10242000032384F8231002225A29627208BF092369
:10243000A37217E0A52916D011E000BF94F824106C
:102440000C290CD8A170211D07E000BF5E2906D120
:1024500094F82410012902D1611D01220A70002282
:10246000A4F80920E27220B1611C012206F0F0FC00
:1024700008B10120E07101B0F0BD000000000000D3
:1024800040F22031C2F20041CA681AB1824204BF50
:10249000002008727047000049F2B420C2F20040E8
:1024A00001F05EB90000000049F22C30C2F2004099
:1024B00001F056B90000000049F2C410C2F2004019
:1024C00001F04EB90000000049F23C20C2F2004089
:1024D00001F046B90000000048F67C60C2F20040FE
:1024E00001F03EB90000000048F60460C2F200406E
:1024F00001F036B90000000048F6F460C2F2004076
:1025000001F02EB90000000048F66C70C2F20040E5
:1025100001F026B90000000049F2D400C2F20040E8
:1025200001F01EB90000000049F24C10C2F2004058
:1025300001F016B90000000048F6E470C2F2004055
:1025400001F00EB90000000049F25C00C2F2004048
:1025500001F006B90000000040F20F42D0F800C0C0
:10256000C4F20202944511DC6F22C4F202029445C7
:1025700022DC3F22C4F20202944539DC1022C4F26C
:10258000020294455AD0282254E000BF40F26F4224
:10259000C4F2020294451BDC40F23F42C4F2020244
:1025A00094452DDC40F21042C4F20202944545D01D
:1025B00040F228423EE000BF9F22C4F2020294454E
:1025C00028DC7022C4F20202944537D0882231E020
:1025D00040F29F42C4F20202944523DC40F2704272
:1025E000C4F20202944529D040F2884222E000BFA2
:1025F0004022C4F20202944520D058221AE000BFC3
:1026000040F24042C4F20202944517D040F25842D0
:1026100010E000BFA022C4F2020294450ED0B822FE
:1026200008E000BF40F2B842C4F20202944505D06F
:1026300040F2A042C4F20202944519D16FF00F0299
:102640004AF6AB2352FA8CF2CAF6AA23A2FB033154
:102650000AA35F2AC1F302115B5C40F2FF312CEA4E
:102660000101C36588BF043181650846704700BF1A
:102670002CF0FF0181650846704700BF0006101668
:10268000000610160000000070B540F26F44D0F84C
:1026900000C0C4F20204D0F858E0A4451ADC9F251B
:1026A000C4F20205AC4533DC5725C4F20205AC4543
:1026B0005ADC1025C4F20205AC4500F098802825AC
:1026C000C4F20205AC4500F092804025C4F2020538
:1026D0008AE000BF45F22F45C5F60205AC452DDC6A
:1026E00040F2B745C4F20205AC454BDC40F2704500
:1026F000C4F20205AC457AD040F28845C4F2020526
:10270000AC4574D040F2A045C4F202056CE000BFB5
:1027100040F22745C4F20205AC4543DCA025C4F2D3
:102720000205AC4563D0B825C4F20205AC455ED0C5
:1027300040F21045C4F2020556E000BF45F26B4579
:10274000C5F60205AC453FDC45F23045C5F602054D
:10275000AC454CD045F24445C5F60205AC4546D0E3
:1027600045F258453EE000BF5825C4F20205AC458D
:102770003DD07025C4F20205AC4538D08825C4F29E
:10278000020531E040F2B845C4F20205AC452ED056
:1027900045F20845C5F60205AC4528D045F21C4572
:1027A00020E000BF40F22845C4F20205AC451ED02F
:1027B00040F24045C4F20205AC4518D040F25845FD
:1027C000C4F2020510E000BF45F26C45C5F60205F3
:1027D000AC450CD045F29445C5F60205AC4506D093
:1027E00045F28045C5F60205AC4540F0CF80456E08
:1027F000C66E002E866E6E601CBFD0E91C566E60E1
:10280000A44515DC9F24C4F20204A4452CDC572403
:10281000C4F20204A44551DC1024C4F20204A4450D
:102820007AD02824C4F20204A44575D040246FE075
:1028300045F22F44C5F60204A44529DC40F2B74412
:10284000C4F20204A44545DC40F27044C4F2020420
:10285000A44561D040F28844C4F20204A4455BD090
:1028600040F2A04454E000BF40F22744C4F2020406
:10287000A4453FDCA024C4F20204A4454CD0B824F3
:10288000C4F20204A44547D040F2104440E000BF27
:1028900045F26B44C5F60204A44553DC45F23044CE
:1028A000C5F60204A4455FD045F24444C5F60204CF
:1028B000A44559D045F2584452E000BF5824C4F210
:1028C0000204A44528D07024C4F20204A44523D0F5
:1028D00088241DE040F2B844C4F20204A4451BD091
:1028E00045F20844C5F60204A4453DD045F21C4417
:1028F00036E000BF40F22844C4F20204A4450BD0E5
:1029000040F24044C4F20204A44505D040F25844C9
:10291000C4F20204A44539D18468C06D00F01F00E0
:102920003F2505FA00F0CEF80800DCF80000402C46
:1029300020F48020CCF80000CCF8043021D1CCF871
:10294000082021E045F26C44C5F60204A4450BD0F2
:1029500045F28044C5F60204A44505D045F29444EE
:10296000C5F60204A44511D1C46D806804F01F04AB
:102970000125402805FA04F4CEF80440CCF80430D0
:10298000DDD0CCF808101146CCF80C1070BD00005A
:1029900040F27031C2F200414A681AB1824204BF6B
:1029A0000120C8737047000070B568B140F27035FF
:1029B000C2F200452978012908D169680C1A18BFAC
:1029C0000124204670BD00BF012070BD05F1080143
:1029D000012268600024EC730126AC73AC822C6188
:1029E000AC75EC7585F824402C6285F8254085F897
:1029F0002640AC83AC61AC77EC7785F82C40AC62B8
:102A000085F82D4085F82E402E7006F021FA00281A
:102A10001CBFEE730124204670BD000000000000C2
:102A2000B0B540F27034C2F200446068002842D071
:102A3000E17B59B10021E173A17304F10801012286
:102A4000012506F005FA002818BFE57303F08CF99C
:102A5000A17D31B12169411AB1F5FA7F01D9002177
:102A6000A17594F8251061B1216A411AB1F5FA7F78
:102A700007D9002184F8251084F82410012184F856
:102A80002610A17F31B1A169411AB1F5FA7F01D9B0
:102A90000021A17794F82D1069B1A16A401AB0F510
:102AA000FA7F98BFB0BD002084F82D0084F82C0078
:102AB000012084F82E00B0BDF0B581B040F2703432
:102AC000C2F200446168002958D0814256D1A27BED
:102AD000217A8AB322445172A17B0131A173CAB217
:102AE000052A42D3A67A06F0FE0040283AD1607A41
:102AF000277BE57A627B80EA0601694079408A4259
:102B000030D1AA2805D0AB282CD145EA07200128CE
:102B100028D803F029F9617AAA2915D1B6F1400124
:102B200045EA072218BF012104EBC1018A8208612E
:102B300001208875C87515E001F0FE02AA2A14D19B
:102B4000617201200FE000BFB6F1400118BF012102
:102B500004EBC10181F824500862012081F82500AE
:102B600081F826000020A073606828B104F10801F4
:102B7000012206F06DF908B10120E07301B0F0BD4B
:102B8000B0B58EB0002800F0EE8040F27035EFF363
:102B90001081C2F2004572B6044628690B90A88ADB
:102BA000ADF82800AA7D8DF82620EA7D8DF8252035
:102BB0002B6A059395F824308DF8103095F8253060
:102BC0008DF80F3095F826308DF80E3095F82730B7
:102BD0008DF80D30AB690893AB8BADF81C30AB7F33
:102BE0008DF81A30EB7F8DF81930AB6A029395F8A7
:102BF0002C308DF8043095F82D308DF8033095F891
:102C00002E308DF8023095F82F308DF8013001B953
:102C100062B65AB344F2AA01ADF833108DF835000C
:102C2000010A80EA10208DF8361080F0EA008DF855
:102C300037000DF1330105221423204606F070F908
:102C4000A0B9EFF3108072B629690B9A91420BD1AB
:102C5000A98ABDF82820914206D1A97D9DF8262099
:102C6000914201D10021E97500B962B69DF81900C1
:102C700068B3BDF81C0044F2AA11ADF83310052268
:102C80008DF83500010A80EA10208DF8361080F0AA
:102C9000EB008DF837000DF133011423204606F0C8
:102CA0003FF9A0B9EFF3108072B6A969089A914272
:102CB0000BD1A98BBDF81C20914206D1A97F9DF8AC
:102CC0001A20914201D10021E97700B962B69DF83E
:102CD000020070B39DF8040044F2AB11ADF833105C
:102CE00000218DF8350080F0EA008DF836100DF1E6
:102CF00033018DF8370005221423204606F010F921
:102D0000B8B9EFF3108072B6A96A029A91420ED157
:102D100095F82C109DF80420914208D195F82D10BB
:102D20009DF80320914202D1002185F82E1000B9B0
:102D300062B69DF80E00B0B19DF8100044F2AB01F0
:102D4000ADF8331000218DF8350080F0EB008DF8E0
:102D500036100DF133018DF837000522142320467B
:102D600006F0DEF810B10EB0B0BD00BFEFF310807A
:102D700072B6296A059A91420ED195F824109DF8F1
:102D80001020914208D195F825109DF80F2091420E
:102D900002D1002185F826100028E4D162B60EB0D9
:102DA000B0BD0000000000007047000000000000FF
:102DB00072B600BFFEE7000044F60400C5F602004C
:102DC000816841F0020181600168890409D40168C9
:102DD00089045CBF01685FEA814102D4016889040B
:102DE000F2D570470000000049F2A430C2F2004062
:102DF00002F09AB80000000049F24440C2F20040DC
:102E000002F092B80000000040F21830C2F2004018
:102E10000078012806D14AF63C20C2F200400AF0B0
:102E200033BA00BF0020704740F21830C2F20040B1
:102E300001784AF63C20C2F20040002908BF08464B
:102E4000704700000000000049F24442C2F2004214
:102E5000904218BF704740F21830C2F2004000782C
:102E6000012805D14AF63C20C2F200400AF018BA07
:102E7000704700000000000049F24442C2F20042E4
:102E8000904218BF704740F21830C2F200400078FC
:102E9000012805D14AF63C20C2F200400AF010BADF
:102EA000704700000000000010B540F21834C2F274
:102EB0000044217811B1002010BD00BFA0B10278FC
:102EC0004AF63C2049F24441C2F20040C2F20041BD
:102ED0000AF042FA00284FF0010018BF10BD207020
:102EE00000200021616010BD012010BD0000000025
:102EF000B0B540F21835C2F200452878012818BF55
:102F0000B0BD02F031FF04464AF63C20C2F2004058
:102F10000AF0BAF958B16868201A08D404F16400BC
:102F200068604AF63C20C2F200400AF099FA4AF67C
:102F30003C20C2F20040BDE8B0400AF05DBA00009B
:102F400010B540F21834C2F200442078012818BFAE
:102F500010BD4AF63C20C2F200400AF0F9FA002007
:102F6000207010BD000000002DE9F041044602F081
:102F7000FBFE3CB3054694F83500022826D12768AD
:102F800040F20F46C4F2020640F26F483868B7427A
:102F900020F0010038606FF00E00C4F202081DDC62
:102FA0006F21C4F202018F422ADC3F21C4F20201E8
:102FB0008F4241DC1021C4F202018F4263D02821EC
:102FC0005CE000BF0120BDE8F08100BF80206065AB
:102FD0000120002184F83410BDE8F08147451BDC56
:102FE00040F23F41C4F202018F422DDC40F2104119
:102FF000C4F202018F4246D040F228413EE000BFB9
:103000009F21C4F202018F4228DC7021C4F2020128
:103010008F4238D0882131E040F29F41C4F2020152
:103020008F4223DC40F27041C4F202018F422AD069
:1030300040F2884122E000BF4021C4F202018F42E9
:1030400021D058211AE000BF40F24041C4F20201F1
:103050008F4218D040F2584110E000BFA021C4F2C6
:1030600002018F420FD0B82108E000BF40F2B84102
:10307000C4F202018F4206D040F2A041C4F2020124
:103080008F42394607D13946386820F01E0041F892
:10309000140B6FF080000A68474500EA02000860E0
:1030A0001ADC9F20C4F20200874233DC5720C4F2AE
:1030B000020087425ADC1020C4F20200874200F06E
:1030C00097802820C4F20200874200F091804020BF
:1030D000C4F202008AE000BF45F22F40C5F60200AC
:1030E00087422DDC40F2B740C4F2020087424BDC3D
:1030F00040F27040C4F20200874279D040F288402A
:10310000C4F20200874273D040F2A040C4F2020031
:103110006CE000BF40F22740C4F20200874243DC6B
:10312000A020C4F20200874262D0B820C4F202009C
:1031300087425DD040F21040C4F2020056E000BF6A
:1031400045F26B40C5F6020087423FDC45F2304055
:10315000C5F6020087424BD045F24440C5F6020056
:10316000874245D045F258403EE000BF5820C4F2A7
:10317000020087423CD07020C4F20200874237D060
:103180008820C4F2020031E040F2B840C4F20200EC
:1031900087422DD045F20840C5F60200874227D06D
:1031A00045F21C4020E000BF40F22840C4F202007B
:1031B00087421DD040F24040C4F20200874217D03F
:1031C00040F25840C4F2020010E000BF45F26C40EB
:1031D000C5F6020087420BD045F29440C5F60200C6
:1031E000874205D045F28040C5F60200874205D1EE
:1031F000206E016821F48071016000BF3868C0074B
:1032000010D002F0B1FD401B0628F7D320206065E6
:10321000032084F835000120002184F83410BDE833
:10322000F08100BF2068B04210DC6F21C4F20201BF
:1032300088421DDC3F21C4F20201884234DC1021A7
:10324000C4F20201884255D028214FE040451BDCE2
:1032500040F23F41C4F2020188422DDC40F21041AD
:10326000C4F20201884245D040F228413EE000BF4E
:103270009F21C4F20201884228DC7021C4F20201BD
:10328000884237D0882131E040F29F41C4F20201E8
:10329000884223DC40F27041C4F20201884229D006
:1032A00040F2884122E000BF4021C4F2020188427E
:1032B00020D058211AE000BF40F24041C4F2020180
:1032C000884217D040F2584110E000BFA021C4F25C
:1032D000020188420ED0B82108E000BF40F2B84198
:1032E000C4F20201884205D040F2A041C4F20201BA
:1032F00088425BD1D4E9161202F01F023F2303FA81
:1033000002F28A6040455BDC9F21C4F202018842E0
:1033100014DC5721C4F20201884227DC1021C4F2D8
:103320000201884200F0A2802821C4F202018842F2
:1033300000F09C804021C4F2020195E040F2274158
:10334000C4F2020188421FDCA021C4F202018842BB
:1033500000F08C80B821C4F20201884200F086801F
:1033600040F21041C4F202017EE000BF5821C4F2D5
:10337000020188427AD07021C4F20201884275D0DD
:103380008821C4F202016FE040F22841C4F2020138
:1033900088426BD040F24041C4F20201884265D0BD
:1033A00040F25841C4F202015EE000BFD4E91612B7
:1033B00002F01F02012303FA02F24A604045A3DD36
:1033C00045F22F41C5F60201884217DC40F2B741B1
:1033D000C4F20201884227DC40F27041C4F20201CB
:1033E000884243D040F28841C4F2020188423DD075
:1033F00040F2A041C4F2020136E000BF45F26B4149
:10340000C5F6020188421FDC45F23041C5F60201D3
:1034100088422BD045F24441C5F60201884225D0AE
:1034200045F258411EE000BF40F2B841C4F202012B
:1034300088421BD045F20841C5F60201884215D0EA
:1034400045F21C410EE000BF45F26C41C5F6020199
:1034500088420BD045F29441C5F60201884205D05E
:1034600045F28041C5F6020188420BD1616EA26E21
:10347000E06E4A6030B1016821F480710160D4E9E6
:103480001C014160012084F835000020002184F8EF
:103490003410BDE8F081000080B5D8B190F8351047
:1034A000022919D140F20F420168C4F2020291428E
:1034B00016DC6F23C4F20203994227DC3F23C4F2D7
:1034C000020399423EDC1023C4F2020399425FD00A
:1034D000282359E0012080BD80214165012080BD65
:1034E00040F26F43C4F2020399421BDC40F23F43B7
:1034F000C4F2020399422DDC40F21043C4F20203ED
:10350000994245D040F228433EE000BF9F23C4F2D9
:103510000203994228DC7023C4F20203994237D097
:10352000882331E040F29F43C4F20203994223DC36
:1035300040F27043C4F20203994229D040F288431A
:1035400022E000BF4023C4F20203994220D0582356
:103550001AE000BF40F24043C4F20203994217D080
:1035600040F2584310E000BFA023C4F20203994286
:103570000ED0B82308E000BF40F2B843C4F2020303
:10358000994205D040F2A043C4F20203994275D19A
:1035900091424FF0040280F8352011DC6F20C4F214
:1035A0000200814222DC3F20C4F20200814239DC69
:1035B0001020C4F20200814259D0282054E000BFFC
:1035C00040F26F40C4F2020081421BDC40F23F40F7
:1035D000C4F2020081422DDC40F21040C4F202002D
:1035E000814244D040F228403EE000BF9F20C4F218
:1035F0000200814228DC7020C4F20200814236D0F1
:10360000882031E040F29F40C4F20200814223DC76
:1036100040F27040C4F20200814228D040F288405B
:1036200022E000BF4020C4F2020081421FD0582097
:103630001AE000BF40F24040C4F20200814216D0BE
:1036400040F2584010E000BFA020C4F202008142C6
:103650000DD0B82008E000BF40F2B840C4F202002C
:10366000814204D040F2A040C4F2020081420868C6
:1036700020F001000860002080BD00BF0A6822F031
:1036800001020A6045F25742C5F6020291420A68F9
:1036900022F00E020A600FDC45F22F42C5F602024C
:1036A000914219DC45F20842C5F60202914229D046
:1036B00045F21C4222E000BF45F27F42C5F60202FD
:1036C000914213DC45F25842C5F60202914219D0EC
:1036D00045F26C4212E000BF45F23042C5F60202EC
:1036E00091420FD045F2444208E000BF45F29442B7
:1036F000C5F60202914205D045F28042C5F60202AB
:1037000091421AD1D0E9181CD0E916E30A6822F4D4
:1037100080720A6003F01F01012202FA01F1CEF863
:103720000410816ECCF80410C16E31B10A6822F425
:1037300080720A60D0E91C124A60012180F83510BD
:10374000026D002180F834100AB19047002108462C
:1037500080BD000000000000406D704700000000C8
:103760002DE9F04782B00021019140F208010446A2
:10377000C2F2004148F2B512C1F64E32A56D096899
:1037800040F26F490068C4F20209A1FB02184845E3
:103790002E68296816DC9F21C4F2020188422DDCC4
:1037A0005721C4F20201884252DC1021C4F2020106
:1037B00088427CD02821C4F20201884277D040217F
:1037C00070E000BF45F22F42C5F60202904229DCAC
:1037D00040F2B742C4F20202904245DC40F270412E
:1037E000C4F20201884262D040F28841C4F2020170
:1037F00088425CD040F2A04154E000BF40F2274133
:10380000C4F2020188423FDCA021C4F202018842D6
:103810004DD0B821C4F20201884248D040F2104194
:1038200040E000BF45F26B42C5F60202904275DCF3
:1038300045F23042C5F60202904200F0828045F225
:103840004442C5F6020290427BD045F2584273E0F2
:103850005821C4F20201884229D07021C4F2020129
:10386000884224D088211DE040F2B842C4F202020E
:1038700090421CD045F20842C5F60202904260D048
:1038800045F21C4258E000BF40F22841C4F2020158
:1038900088420CD040F24041C4F20201884206D076
:1038A00040F25841C4F20201884240F05A83E16D6F
:1038B000082201F01F0140F20F4A8A40C4F2020AB6
:1038C000324200F0E68050454FF0040312DC6F27CF
:1038D000C4F20207B8426FDC3F27C4F20207B842C5
:1038E00000F3A4801027C4F20207B84200F0C5809C
:1038F0002827BDE048456BDC40F23F47C4F2020791
:10390000B84200F39B8040F21047C4F20207B8426D
:1039100000F0B38040F22847AAE000BF45F26C42B5
:10392000C5F6020290420CD045F28042C5F6020272
:10393000904206D045F29442C5F60202904240F011
:1039400010830268E36D03F01F0304279F400F42BA
:1039500018BF12F0040621D102279F400F4218BF62
:1039600012F002064CD1D940090740F1FA8212F058
:10397000080100F0F682016821F00E0101600120CB
:1039800000FA03F16960606584F835000020E16C9D
:1039900084F83400002940F0DC82E2E211046F6018
:1039A00026D4910603D4016821F004010160216C42
:1039B000002940F0CE82D4E29F27C4F20207B84229
:1039C00046DC7027C4F20207B84256D088274FE081
:1039D00040F29F47C4F20207B84241DC40F2704710
:1039E000C4F20207B84248D040F2884740E000BF26
:1039F000D00300F1B382216C002940F0AA82B0E22A
:103A000011046F6000F1B482910609D4016821F0BD
:103A10000A010160012084F83500002084F8340098
:103A2000E16B002940F095829BE200BF4027C4F281
:103A30000207B84221D058271AE000BF40F24047A1
:103A4000C4F20207B84218D040F2584710E000BF55
:103A5000A027C4F20207B8420FD0B82708E000BF81
:103A600040F2A047C4F20207B84206D040F2B8477D
:103A7000C4F20207B84218BF082307681F4208D0E3
:103A8000036823F004030360AA60626D42F0010240
:103A9000626501228A4032426FD0504510DC6F23AC
:103AA000C4F2020398421DDC3F23C4F20203984291
:103AB00034DC1023C4F20203984256D028234FE08E
:103AC00048451BDC40F23F43C4F2020398422DDC20
:103AD00040F21043C4F20203984246D040F2284319
:103AE0003EE000BF9F23C4F20203984228DC70230B
:103AF000C4F20203984238D0882331E040F29F4359
:103B0000C4F20203984223DC40F27043C4F2020381
:103B100098422AD040F2884322E000BF4023C4F2FA
:103B20000203984221D058231AE000BF40F24043DC
:103B3000C4F20203984218D040F2584310E000BF8C
:103B4000A023C4F2020398420FD0B82308E000BFBC
:103B500040F2A043C4F20203984206D040F2B843B8
:103B6000C4F20203984240F0098243691B0604D55F
:103B7000AA60626D42F00202626504228A4032420B
:103B80006FD0504510DC6F23C4F2020398421DDC55
:103B90003F23C4F20203984234DC1023C4F2020330
:103BA000984256D028234FE048451BDC40F23F4363
:103BB000C4F2020398422DDC40F21043C4F2020327
:103BC000984246D040F228433EE000BF9F23C4F213
:103BD0000203984228DC7023C4F20203984238D0D2
:103BE000882331E040F29F43C4F20203984223DC71
:103BF00040F27043C4F2020398422AD040F2884354
:103C000022E000BF4023C4F20203984221D058238F
:103C10001AE000BF40F24043C4F20203984218D0B9
:103C200040F2584310E000BFA023C4F202039842C0
:103C30000FD0B82308E000BF40F2A043C4F2020353
:103C4000984206D040F2B843C4F20203984240F0D2
:103C50009D8103689B0704D5AA60626D42F004024F
:103C60006265102202FA01F1314200F08180504574
:103C70004FF0080210DC6F23C4F2020398421DDCEF
:103C80003F23C4F20203984234DC1023C4F202033F
:103C9000984256D028234FE048451BDC40F23F4372
:103CA000C4F2020398422DDC40F21043C4F2020336
:103CB000984246D040F228433EE000BF9F23C4F222
:103CC0000203984228DC7023C4F20203984238D0E1
:103CD000882331E040F29F43C4F20203984223DC80
:103CE00040F27043C4F2020398422AD040F2884363
:103CF00022E000BF4023C4F20203984221D058239F
:103D00001AE000BF40F24043C4F20203984218D0C8
:103D100040F2584310E000BFA023C4F202039842CF
:103D20000FD0B82308E000BF40F2A043C4F2020362
:103D3000984206D040F2B843C4F20203984218BF3A
:103D400004220368134213D0A96001684903016883
:103D500008D4C90508D4016821F008010160216C6C
:103D600021B905E008034FD4216C09B120468847EA
:103D7000E06D00F01F01202000FA01F2324200F055
:103D8000AB8020681023504510DC6F27C4F2020777
:103D9000B8421DDC3F27C4F20207B84238DC1027C6
:103DA000C4F20207B8425AD0282753E048451BDC2A
:103DB00040F23F47C4F20207B84231DC40F21047FC
:103DC000C4F20207B8424AD040F2284742E000BF9E
:103DD0009F27C4F20207B8422CDC7027C4F2020706
:103DE000B8423CD0882735E040F29F47C4F2020732
:103DF000B84227DC40F27047C4F20207B8422ED026
:103E000040F2884726E000BFA16C0029AED1AFE7A1
:103E10004027C4F20207B84221D058271AE000BF59
:103E200040F24047C4F20207B84218D040F2584767
:103E300010E000BFA027C4F20207B8420FD0B82795
:103E400008E000BF40F2A047C4F20207B84206D023
:103E500040F2B847C4F20207B84218BF022307680D
:103E60001F4239D0AA6094F83520042A02681BD179
:103E700022F016020260426922F080024261226C46
:103E80000AB9A26C1AB1026822F0080202603F204F
:103E90008840A860012084F83500216D00200029A9
:103EA00084F8340055D15CE0510301680ED4C90593
:103EB0000ED4016821F010010160012084F8350062
:103EC000002084F83400E16B21B905E008034BD4ED
:103ED000E16B09B120468847606D002841D0606DD4
:103EE000C00734D0042084F8350020684FEA9821B8
:103EF000026822F001020260019A013201928A42B4
:103F00001AD80268D20717D0019A013201928A4268
:103F100012D80268D2070FD0019A013201928A4268
:103F20000AD80268D20707D0019A013201928A4268
:103F300002D80268D207DFD10068C0074FF0030043
:103F400008BF012084F83500002084F83400E16CBB
:103F500039B1204602B0BDE8F0470847A16C0029FE
:103F6000F7D102B0BDE8F087616C0029B2D1B3E7A8
:103F7000D0030DD4616C0029EBD1F2E70268042272
:103F80008A4032427FF4FDAD6BE600BF026868E60E
:103F9000E16B0029DDD1E4E72DE9F041044601F0B1
:103FA000E3FEFCB140F26F4805462068C4F2020807
:103FB00040451BDC9F21C4F20201884232DC5721BC
:103FC000C4F20201884259DC1021C4F20201884285
:103FD00000F083802821C4F20201884200F07D8035
:103FE000402175E00120BDE8F08100BF45F22F417E
:103FF000C5F60201884229DC40F2B741C4F2020151
:10400000884247DC40F27041C4F20201884264D029
:1040100040F28841C4F2020188425ED040F2A041E1
:1040200056E000BF40F22741C4F20201884241DC61
:10403000A021C4F2020188424FD0B821C4F202018B
:1040400088424AD040F2104142E000BF45F26B4145
:10405000C5F60201884200F3BB8045F23041C5F647
:104060000201884200F0C78045F24441C5F60201D2
:10407000884200F0C08045F25841B7E05821C4F2B0
:104080000201884229D07021C4F20201884224D062
:1040900088211DE040F2B841C4F2020188421CD0E0
:1040A00045F20841C5F60201884200F0A48045F2BD
:1040B0001C419BE040F22841C4F2020188420CD02E
:1040C00040F24041C4F20201884206D040F2584119
:1040D000C4F20201884240F06982022184F835105E
:1040E000002184F83410016821F0010101600168A9
:1040F000C90708D001F038FE401B052860D82068A9
:104100000168C907F6D148F23F0204F108060168C8
:10411000CFF610621140D4F818C06CCE1143194389
:10412000E3692943256A0E43616A46EA0C060429BD
:1041300043EA060343EA050303D1D4E90B6533439D
:104140002B43666843F4801526F00302A6F1290E7E
:10415000742AA6F14F0208BF2B46A6F13F07473E3F
:10416000042A38BF2B46022E38BF2B46042F38BFF7
:104170002B46BEF1060F38BF2B4604290360426967
:1041800022F0070241EA020140F0F280D4E90A532A
:10419000002B41EA050100F0EB80BCF5005F00F068
:1041A000CD80BCF1000F40F0D580022D00F0D5800D
:1041B000012D00F0C980002D00F0CF80D8E000BFB5
:1041C00020206065032084F835000120BDE8F081DF
:1041D00045F26C41C5F6020188420CD045F280419F
:1041E000C5F60201884206D045F29441C5F60201A7
:1041F000884240F0DB81022184F83510002184F8E8
:1042000034100168A268A2F18003E768B3FA83F36F
:10421000402A4FEA53134FEA83336FF3101108BF5C
:104220001023226941EAD70167691943A36941EA6A
:10423000D201E26941EAD70141EAD3014CF6CD430C
:1042400041EAD2014AF6F832CAF2FD72276A024404
:10425000CCF6CC43A2FB032341EA171101606FF0B7
:10426000030000EA9300E0652046FEF775F9E16D72
:10427000012201F01F0102FA01F14160206840456E
:1042800040F3858045F22F41C5F60201884217DCD4
:1042900040F2B741C4F20201884229DC40F2704189
:1042A000C4F20201884200F0BC8040F28841C4F2AE
:1042B0000201884200F0B58040F2A041ACE000BFAE
:1042C00045F26B41C5F60201884223DC45F23041DC
:1042D000C5F60201884200F0A48045F24441C5F6CB
:1042E0000201884200F09D8045F2584122E000BF63
:1042F00040F2B841C4F20201884200F0928045F2D7
:104300000841C5F60201884200F08B8045F21C414D
:1043100010E000BF45F26C41C5F60201884200F092
:10432000808045F29441C5F60201884200F0798010
:1043300045F28041C5F6020170E000BF032D17D899
:10434000DFE805F00E0B0E02A3F1C072B2FA82F2A2
:10435000520904E0032D03D30AD1C3F300623AB13A
:1043600040206065012084F83500BDE8F08100BF81
:1043700041612046FEF7F0F8E16D3F2201F01F0198
:1043800002FA01F18160206840453FF77BAF9F2131
:10439000C4F20201884211DC5721C4F202018842B2
:1043A00020DC1021C4F2020188423AD02821C4F254
:1043B0000201884235D040212EE000BF40F2274163
:1043C000C4F20201884219DCA021C4F20201884231
:1043D00027D0B821C4F20201884222D040F2104115
:1043E0001AE000BF5821C4F20201884219D070219E
:1043F000C4F20201884214D088210DE040F2284125
:10440000C4F2020188420CD040F24041C4F20201E1
:10441000884206D040F25841C4F20201884240F07E
:10442000E98045F2574C45F6FC01C5F6020CC5F68D
:104430000201604512DC45F22F42C5F602029042AD
:1044400020DC45F20842C5F60202904234D045F223
:104450001C42C5F6020290422ED075E045F27F4222
:10446000C5F6020290421BDC45F25842C5F6020234
:10447000904221D045F26C42C5F6020290421BD018
:1044800062E000BF45F23042C5F60202904213D00E
:1044900045F24442C5F6020290420DD054E000BFFE
:1044A00045F29442C5F60202904205D045F28042A0
:1044B000C5F60202904247D16FF007024CF6CD4399
:1044C00052FA80F2CCF6CC43A2FB0323A1F1FC0507
:1044D000A1F17C061B0905EB830503F01F02A3680D
:1044E0002566802B4FF0010303FA02F26666A2668E
:1044F00004D100206060286072601DE06768FBB234
:10450000013F072F2B60726016D85E1E082E19D24D
:10451000604501F1440239DC45F22F47C5F6020738
:10452000B84245DC45F20847C5F60207B84255D007
:1045300045F21C474EE000BF00206067C4E91B0045
:1045400058E000BFE06E50E06FF00F024AF6AB2378
:1045500052FA80F2CAF6AA23A2FB032740F20F43C5
:10456000C4F2020308253A09984203F1AA06134649
:1045700088BF05EB171340F60005B042C4F20205F0
:1045800005F1800628BF1346A5E700BF45F27F4727
:10459000C5F60207B84215DC45F25847C5F60207D2
:1045A000B8421BD045F26C4714E000BF402008E63B
:1045B00045F23047C5F60207B8420FD045F24447EE
:1045C00008E000BF45F28047C5F60207B84205D0B3
:1045D00045F29447C5F60207B84213D101EB8300B8
:1045E0000121E066B1402267616700210160D4E9E2
:1045F0001C01416000206065012184F83510BDE890
:10460000F08100BF40F60000C4F2020000F1FC019E
:1046100000F5A072E2E70000B0B500283CD00546E6
:1046200090F83400012801D10220B0BD012085F8A6
:10463000340095F83500012828D1022085F835008E
:10464000002068652868046824F001040460284696
:10465000FEF71AF840F20F422868C4F2020240F254
:104660006F419042C4F2020118DC6F23C4F20203CE
:10467000984225DC3F23C4F2020398423CDC10231D
:10468000C4F2020398425ED0282357E04FF4006042
:104690006865002085F834000120B0BD88421BDC2D
:1046A00040F23F43C4F2020398422DDC40F2104333
:1046B000C4F20203984246D040F228433EE000BFD5
:1046C0009F23C4F20203984228DC7023C4F2020341
:1046D000984238D0882331E040F29F43C4F202036D
:1046E000984223DC40F27043C4F2020398422AD07D
:1046F00040F2884322E000BF4023C4F20203984204
:1047000021D058231AE000BF40F24043C4F2020314
:10471000984218D040F2584310E000BFA023C4F2E2
:10472000020398420FD0B82308E000BF40F2B8431C
:10473000C4F20203984206D040F2A043C4F202033E
:10474000984240F02F8103680B2464F34403036014
:104750002B6C1BB10823046823430360884219DCD7
:104760009F23C4F20203984232DC5723C4F20203AF
:10477000984259DC1023C4F20203984200F096805C
:104780002823C4F20203984200F090804023C4F230
:10479000020389E045F22F43C5F6020398422DDC5F
:1047A00040F2B743C4F2020398424BDC40F270433C
:1047B000C4F20203984279D040F28843C4F2020363
:1047C000984273D040F2A043C4F202036CE000BFF1
:1047D00040F22743C4F20203984243DCA023C4F210
:1047E0000203984262D0B823C4F2020398425DD01B
:1047F00040F21043C4F2020356E000BF45F26B439F
:10480000C5F6020398423FDC45F23043C5F6020389
:1048100098424BD045F24443C5F60203984245D036
:1048200045F258433EE000BF5823C4F202039842C9
:104830003CD07023C4F20203984237D08823C4F2DC
:10484000020331E040F2B843C4F2020398422DD093
:1048500045F20843C5F60203984227D045F21C43AF
:1048600020E000BF40F22843C4F2020398421DD06A
:1048700040F24043C4F20203984217D040F258433A
:10488000C4F2020310E000BF45F26C43C5F6020318
:1048900098420BD045F29443C5F60203984205D0E6
:1048A00045F28043C5F60203984274D12B6E1C6812
:1048B000E40303D51C6844F480741C60EB6E1BB1E8
:1048C0001D6845F480751D60904211DC6F21C4F2B3
:1048D000020188421EDC3F21C4F20201884235DC1D
:1048E0001021C4F20201884255D0282150E000BFB7
:1048F00088421BDC40F23F41C4F2020188422DDCB9
:1049000040F21041C4F20201884244D040F22841F2
:104910003EE000BF9F21C4F20201884228DC7021E2
:10492000C4F20201884236D0882131E040F29F4132
:10493000C4F20201884223DC40F27041C4F2020159
:10494000884228D040F2884122E000BF4021C4F2D2
:10495000020188421FD058211AE000BF40F24041B6
:10496000C4F20201884216D040F2584110E000BF64
:10497000A021C4F2020188420DD0B82108E000BF96
:1049800040F2B841C4F20201884204D040F2A04192
:10499000C4F202018842016841F001010160002077
:1049A000B0BD00BF0368052464F3430303602B6CB0
:1049B000002B3FF4D3AE0423CDE60000000000003E
:1049C000B0B5044601F0D0F940F200010546C2F24C
:1049D0000041621C097818BF0C4400BF01F0C4F903
:1049E000401BA042FAD3B0BD90F89830013B012B98
:1049F0000ED80068836D0B4212D0836D0B408B4242
:104A000016D1C36D43F00203C3658B0514D418E0BF
:104A100000F19C01012002220B681A430A607047D2
:104A2000C36D43F00103C3658B0505D409E000BFE6
:104A30000323C3658B0504D5D0F8E0301343C0F8D9
:104A4000E0304B0504D5D0F8E4301A43C0F8E42038
:104A50004FF6FF72436DC3F6CF720A401A434265A8
:104A60008A0F4AF614010020C4F200010B681A43B1
:104A70000A607047000000002DE9F04390F898307C
:104A8000022B19D10668D6F8C03013F07C5F1DD018
:104A9000D6F8C4309B0223D4D6F8C4304D68002D1C
:104AA0000D69C3F3044C8B6824D00C682B4323435B
:104AB00043F0804E22E000BFD0F89C1041F0080186
:104AC000C0F89C100120BDE8F08300BFD0F89C1016
:104AD00041F02001C0F89C100120BDE8F08300BF28
:104AE000D0F89C1041F40071C0F89C100120BDE882
:104AF000F08300BF0C682B4343EA844E836ED0F8EA
:104B00008450D1E907970CFB03F48B6949EA0767E6
:104B1000D1F81480D1F80C901F4305EB840347EAC9
:104B2000080745F824E047EA09475F60CF6887B186
:104B300044F6F465083303320024C0F6010500BFD3
:104B4000171957F8037C1F51CF680434EF5DBC423E
:104B5000F6D3012101FA0CF1C6F8D010C0F8941078
:104B60000020BDE8F0830000704700000000000056
:104B700080B590F89820013A012A0BD80A68002ADB
:104B8000CA680FD00B69072A43EA427E18D18B69A5
:104B90001BE000BFD0F89C1041F00201C0F89C104F
:104BA000012080BD072A19D10A69D1F81CC012045E
:104BB0008B6942EA0C221A4342F0605218E000BFAF
:104BC000D1F808C04B6943EA8C73006F496800EB69
:104BD000C10240F831E00020536080BD8B68D1F8FD
:104BE00010C09B0743EAC2624B6942EA0C421A4377
:104BF0004968C06E40F82120002080BD0000000000
:104C000090F898C0BCF1010F0ED19200006842EA02
:104C10000111DDF800C041EA430141EA0C01C0F88E
:104C200080100020704700BFD0F89C1041F00401B4
:104C3000C0F89C100120704790F89830012B0DD1DE
:104C40004029006812D1D0F8A01021F0004141EABB
:104C5000C271C0F8A0100020704700BFD0F89C10AF
:104C600041F00401C0F89C1001207047D0F8B0104A
:104C700021F0004141EAC271C0F8B0100020704735
:104C80007047000000000000FEF7DEB800000000E2
:104C90000068426C02F007000860C2F3022048601E
:104CA000C2F3803302F018008860C2F34010C8607D
:104CB000C2F380100861C2F3C0104861C2F3C02083
:104CC0008861C2F30030C861C2F34030C1E9080313
:104CD000C2F3064200208A62704700000000000014
:104CE000B422402908BFA4220068805800F07F0049
:104CF00070470000000000002DE9F04390F8987024
:104D0000022F27D140292FD10668D6F8A07017F4BA
:104D1000FE0F00F0C780D6F8A4707F0600F0D480A4
:104D2000D6F8A470D6F8A450ED01C7F3052E0AD525
:104D3000D6F8A070B7F1FF3F05DC0EF10107D6F8F9
:104D4000A06007EA164E00F1740400F14405F44631
:104D50003CE000BFD0F89C1041F00801C0F89C1066
:104D60000120BDE8F08300BF412925D10668D6F8AF
:104D7000B07017F4FE0F00F09580D6F8B4707F067F
:104D800000F0A280D6F8B470D6F8B450ED01C7F3A5
:104D9000052E0AD5D6F8B070B7F1FF3F05DC0EF14D
:104DA0000107D6F8B06007EA164E00F1780400F16A
:104DB0004C05F4460AE000BF076D8F4272D900F13E
:104DC0007C0400F154054FF0000C8E462D682468D9
:104DD0000EFB05F504EB850E54F8257017F080479F
:104DE000576054F8257027F0604608BFC7F38A461D
:104DF000166054F8257007F00057976054F8254066
:104E000004F000441461BEF80440D461BEF80640CA
:104E100014F00F04D460DEF8044004F480145461EC
:104E2000DEF8044004F4001494619EF8074004F096
:104E30007F041462DEF804404FEAD474546228D030
:104E400044F6F4680024C0F601080EEB0406651C65
:104E5000377A1F55D76818F80770BD4219D21F1945
:104E6000757A7D70D56818F80590A51C4D453FBF33
:104E7000B57ABD70D56818F805903CBFE51C4D4566
:104E800007D2F57A0434FD70D56818F80550AC42A5
:104E9000DBD3402910D10068C0F8A8C00020BDE8CD
:104EA000F08300BFD0F89C1041F02001C0F89C10A6
:104EB0000120BDE8F08300BF41290FD10068C0F890
:104EC000B8C00020BDE8F083D0F89C1041F4807198
:104ED000C0F89C100120BDE8F08300BF1F2909D84D
:104EE0000068012202FA01F1C0F898100020BDE824
:104EF000F08300BF006801F01F01012202FA01F1F6
:104F0000C0F89C100020BDE8F08300000000000005
:104F10000068D0F8C40000F03F00704700000000B7
:104F200070470000000000002DE9F04F89B00446F2
:104F30004AF61000C4F2000001684AF61400C4F2F8
:104F400000000268206802EA0108056DD0F854905C
:104F5000036D0293436D0193036D0493436D0393BB
:104F6000036D0893436D0793036D0693436D05939B
:104F7000D0F854A0D0F850B05FEACA530ED51BF455
:104F800080710BD04FF4807101654AF6100100204A
:104F9000C4F2000108602046FFF7C2FF05EA0906D7
:104FA0004AF610095FEA4A50C4F200094FEA8877CE
:104FB00011D51BF480600ED02068D0F8DC10D0F83A
:104FC000E42011404FF4806202650020C9F800001F
:104FD000204600F0B5FDDDE9011000EA010506F408
:104FE000704657B120680021016508F00300C9F838
:104FF000000020463946FFF7B7FDDDE9031000EA5F
:10500000010705F00F0546B120683146066500200E
:10501000C9F80000204600F09BFD07F0F00645B1FE
:105020002068294605650020C9F80000204600F0E8
:1050300087FB46B12068314606650020C9F80000AC
:10504000204600F081FB5FEA0A500CD51BF400609B
:1050500009D020684FF4006101650020C9F8000004
:10506000204600F079FD5FEA8A5011D51BF40070EC
:105070000ED02068D0F8D810D0F8E02011404FF4BE
:10508000007202650020C9F80000204600F05CFDB7
:105090005FEA0A300CD51BF4002009D020684FF4D9
:1050A000002101650020C9F80000204600F044FB03
:1050B0005FEACA300CD51BF4803009D020684FF469
:1050C000803101650020C9F80000204600F034FD61
:1050D0005FEA4A30DDE9051000EA01050CD51BF452
:1050E000802009D020684FF4802101650020C9F894
:1050F0000000204600F01CFD5FEA8A30DDE9071061
:1051000000EA010005F060710FD51BF400320CD0ED
:1051100022684FF4003313650022C9F80020D4F848
:105120009C2042F08002C4F89C2000F0715539B1F7
:10513000206801650020C9F800002046FFF7A4FDA3
:10514000206845B105650021C9F80010D4F89C100D
:105150002943C4F89C10A9F5016188420AD0D4F80B
:105160009C00002868D0204609B0BDE8F04FFFF74A
:1051700087BD00BF606881688907F0D0016A426A14
:10518000036A476A114003EA070202F03005D0F8CB
:105190002080D0F82490D0F820B0D0F824A0026A63
:1051A000089211F00F01426A0792466A026A06925B
:1051B00003D00162204600F0AFFC08EA09072DB1D8
:1051C000606829460562204600F0AEFC70060BEAD6
:1051D0000A0607F4C0750ED5069810F040000AD0F4
:1051E00060684023C16BC26B090C02F03F0203628E
:1051F000204600F095FCDDE9071000EA010706F4FF
:10520000FC462DB1606829460562204600F080FC0E
:1052100007F4F02036B161680E62D4F89C10314377
:10522000C4F89C1000289AD061680862D4F89C10D9
:105230000843C4F89C0092E709B0BDE8F08F000075
:105240002DE9F04F85B0A8B34AF200080446C4F235
:1052500000080068404531D094F89810A9B38169DE
:1052600021F01001816100F07FFD05462068816911
:10527000090705D500F078FD401B0B28F6D310E098
:10528000816941F00101816100F06EFD054600BFBA
:1052900020688169C90721D100F066FD401B0B28F9
:1052A000F6D30120D4F89C100843C4F89C000320D6
:1052B00084F89800012005B0BDE8F08F08F58071F2
:1052C000616094F898100029C9D1002084F89900F1
:1052D000204600F0B5F92068C1E700BF816941F0C0
:1052E00002018161217C826922F04002012918BFFC
:1052F00040328261617C826922F48042012908BFC8
:1053000002F580428261A17C826922F480520129E7
:1053100018BF02F580528261816921F44073D4E99B
:1053200002120B438361836923F0A4038361036941
:1053300023F0100303619AB1012A0DD0022A09D08B
:105340008369032A43F080038361036943F01002F9
:10535000026105D1202200E0042283691A438261A0
:10536000D4E90572E369561E6FF0FF02256A02EB6D
:105370000323B1F5407F43EA4663A5F1010646EAFF
:10538000030640F20003CFF6FF7303EB074746EA3C
:105390000701C16110D1D4E90B65D4E90917013FB8
:1053A00002EB06226FF00F063A4306EB05173A436D
:1053B00003EB01411143C160236E2BB1616ED0F844
:1053C000C0201143C0F8C010E16DCDE90313D942EC
:1053D00044F6EC51C0F6010109D0D0F8C820A36E04
:1053E00022F0070251F823301A43C0F8C820D4F83D
:1053F00040A0BAF1000F09D0D0F8BC20636C22F0B5
:10540000070251F823301A43C0F8BC20A76C57B1EB
:10541000D0F8BC20E36C22F0700251F8233042EA4D
:105420000312C0F8BC20D4F850C0BCF1000F0AD061
:10543000D0F8BC20636D22F4E06251F8231042EAF8
:105440000121C0F8BC10404504D161688A6822F08F
:1054500003028A600021C4F89410C4F89C10012152
:1054600084F898104FF6FC72D0F88410D4F83C9071
:1054700021EA0203656CD4E90D120292019543EA18
:105480008103C0F88430D0F8843023F47F0343EAEA
:105490000243C0F884305318D0F888606FF38F0649
:1054A00046EA8306C0F88860D0F8886003EB4903B9
:1054B00026F4FE0646EA0946C0F88860D0F8A060E7
:1054C0006FF38F0646EA8306C0F8A060D0F8A060AC
:1054D00005FB0A3326F4FE0646EA0A46C0F8A06039
:1054E000D0F8B0606FF38F0646EA8306C0F8B0606C
:1054F000D0F8B06026F4FE0646EA0746C0F8B06071
:10550000E66CD0F8AC506FF38F0506FB07337E4393
:1055100045EA8305C0F8AC50D4F8548008FB0C353C
:10552000D0F8F0306FF38F0308FB0CFC43EA8503DF
:10553000C0F8F030D0F8F0E0A36D2EF47C1242EA0F
:105540000342C0F8F02005EB4302D0F8C0506FF3DF
:105550008F0545EA8202C0F8C020D0F8C020DDF8EF
:105560000CB022F47C1242EA0B42C0F8C020019A2F
:10557000D0F8C05025F07C5502FB0AFE4AF200022A
:10558000C4F20002DDF810A002EB8101029A01F5DD
:10559000406145EA0A6501EB8207C0F8C05007EB9D
:1055A000C902A56E02EB8E00626700EB86060BFB5C
:1055B00005F2276706EB8C07C4E91E060AFB05F017
:1055C00007EBC30303EB8202C4F884304DF2FC33D3
:1055D000E16602EB8000C4F200039842C4F88070D8
:1055E000C4F88820C4F8900002D920205AE600BFF1
:1055F000814221D20A46002042F8040BD4F89030B0
:105600009A4215D2486001F10802D4F890309A42CB
:105610003FBF0020886001F10C02D4F8903038BF01
:105620009A4205D2C8601031D4F890209142E1D35B
:1056300005B0BDE8F08F00BF002005B0BDE8F08FD9
:1056400010B586B04AF200420068C4F200020021A0
:1056500090420591CDE90311CDE901112ED04AF216
:105660000001C4F20001884263D140F24C5144F27F
:10567000E040C2F20041C5F602000A68002A02F1C9
:1056800001020A6008D1C16841F48071C160C1683B
:1056900001F48071009100990168132441F0010127
:1056A0000160006800F00100009000984FF4C050C5
:1056B00001900020C5F6020029E000BF40F24C51E5
:1056C00044F2E040C2F20041C5F602000A68002A36
:1056D00002F101020A6008D1C16841F48071C16021
:1056E000C16801F48071009100990168142441F0AF
:1056F00002010160006800F00200009000984FF481
:10570000405001900020C5F6020000F580600221A3
:1057100002910021CDE903110921059101A900F0B1
:105720001FFA05210022204600F036FC204600F03A
:1057300023FC06B010BD0000704700000000000010
:10574000FDF79ABB00000000704700000000000059
:1057500090F8981001290DD1022180F89810016865
:105760008A6922F001028A610021C0F89C10084673
:10577000704700BFD0F89C1041F00401C0F89C10A5
:10578000012070470000000090F8981002292BD1EA
:10579000016851F8182F42F001020A600A68D20726
:1057A00006D10A68D20704BF0A685FEAC27223D032
:1057B0000A6822F010020A600A68120707D50A6810
:1057C000120744BF0A685FEA027200F1CF800A68DC
:1057D00042F002020A600021C0F89410012280F811
:1057E00098200846704700BFD0F89C1041F008018F
:1057F000C0F89C10012070470A68D20704BF0A68ED
:105800005FEAC272D4D10A68D20704BF0A685FEAAD
:10581000C272CDD10A68D20704BF0A685FEAC272B9
:10582000C6D10A68D20704BF0A685FEAC272BFD154
:105830000A68D20704BF0A685FEAC272B8D10A6870
:10584000D20704BF0A685FEAC272B1D10A68D20700
:1058500004BF0A685FEAC272AAD10A68D20704BF0D
:105860000A685FEAC272A3D10A68D20704BF0A6855
:105870005FEAC2729CD10A68D20704BF0A685FEA75
:10588000C27295D10A68D20704BF0A685FEAC27281
:105890008ED10A68D20704BF0A685FEAC2727FF439
:1058A00087AF0A68D20704BF0A685FEAC2727FF452
:1058B0007FAF0A68D20704BF0A685FEAC2727FF44A
:1058C00077AF0A68D20704BF0A685FEAC2727FF442
:1058D0006FAF0A68D20704BF0A685FEAC2727FF43A
:1058E00067AF0A68D20704BF0A685FEAC2727FF432
:1058F0005FAF0A68D20704BF0A685FEAC2727FF42A
:1059000057AF0A68D20704BF0A685FEAC2727FF421
:105910004FAF0A68D20704BF0A685FEAC2727FF419
:1059200047AF0A68D20704BF0A685FEAC2727FF411
:105930003FAF0A68D20704BF0A685FEAC2727FF409
:1059400037AF0A68D20704BF0A685FEAC2727FF401
:105950002FAF0A68D20704BF0A685FEAC2727FF4F9
:1059600027AF0A68D20700F0C58021E70A6812074E
:1059700044BF0A685FEA02727FF529AF0A6812071E
:1059800044BF0A685FEA02727FF521AF0A68120716
:1059900044BF0A685FEA02727FF519AF0A6812070E
:1059A00044BF0A685FEA02727FF511AF0A68120706
:1059B00044BF0A685FEA02727FF509AF0A681207FE
:1059C00044BF0A685FEA02727FF501AF0A681207F6
:1059D00044BF0A685FEA02727FF5F9AE0A681207EF
:1059E00044BF0A685FEA02727FF5F1AE0A681207E7
:1059F00044BF0A685FEA02727FF5E9AE0A681207DF
:105A000044BF0A685FEA02727FF5E1AE0A681207D6
:105A100044BF0A685FEA02727FF5D9AE0A681207CE
:105A200044BF0A685FEA02727FF5D1AE0A681207C6
:105A300044BF0A685FEA02727FF5C9AE0A681207BE
:105A400044BF0A685FEA02727FF5C1AE0A681207B6
:105A500044BF0A685FEA02727FF5B9AE0A681207AE
:105A600044BF0A685FEA02727FF5B1AE0A681207A6
:105A700044BF0A685FEA02727FF5A9AE0A6812079E
:105A800044BF0A685FEA02727FF5A1AE0A68120796
:105A900044BF0A685FEA02727FF599AE0A6812078E
:105AA00044BF0A685FEA02727FF591AE0A68120786
:105AB00044BF0A685FEA02727FF589AE0A6812077E
:105AC00044BF0A685FEA02727FF581AE0A68120776
:105AD00044BF0A685FEA02727FF579AE0A6812076E
