:020000040800F2
:10000000084B01246D030008E1C50008719E00083B
:10001000D9C50008B10E0008E91A01080000000067
:1000200000000000000000000000000081E1000866
:100030000129000800000000F1C50008B1E7000830
:100040008B0300088B0300088B0300088B03000858
:100050008B0300088B0300088B0300088B03000848
:100060008B0300088B0300088B030008A120000805
:10007000B1200008C1200008D1200008E1200008BC
:10008000F1200008012100088B03000869390008ED
:10009000793900088B0300088B0300088B030008E4
:1000A0008B0300088B0300088B0300088B030008F8
:1000B0008B0300088B0300088B0300088B030008E8
:1000C0008B0300088B0300088B0300088B030008D8
:1000D0008B030008F90701088B0300088B03000855
:1000E0008B0300088B030008000000008B0300084E
:1000F0008B0300088B0300088B0300081121000804
:100100008B0300088B0300088B0300088B03000897
:10011000F9EA00088B03000871E900088B03000866
:100120002121000831210008412100085121000847
:100130008B0300088B0300088B0300088B03000867
:1001400000000000000000000000000000000000AF
:100150008B0300088B0300088B03000809080108C3
:100160008B0300088B0300088B0300088B03000837
:100170008B0300088B0300088B03000800000000BD
:100180008B0300088B03000809EB000819EB00083B
:100190008B0300088B0300088B0300088B03000807
:1001A0008B0300088B0300088B030008000000008D
:1001B0008B0300088B0300088B0300088B030008E7
:1001C0008B0300088B030008000000000000000003
:1001D00000000000000000008B0300080000000089
:1001E000000000000000000000000000000000000F
:1001F00000000000000000008B0300088B030008D3
:100200008B0300088B030008000000008B0300082C
:100210008B0300088B0300088B0300088B03000886
:100220008B030008000000008B03000800000000A2
:100230008B0300088B030008000000008B030008FC
:100240008B0300088B0300088B0300088B03000856
:100250008B0300088B0300088B0300088B03000846
:100260008B0300088B0300088B0300088B03000836
:100270008B0300088B0300088B03000800000000BC
:100280008B0300088B0300088B0300088B03000816
:10029000000000008B0300088B0300080000000032
:1002A000000000008B0300088B03000829EB000806
:1002B0008B0300088B0300088B03000889390008B2
:1002C0008B0300088B0300088B03000800F002F882
:1002D00000F03CF80AA090E8000C82448344AAF1A4
:1002E0000107DA4501D100F031F8AFF2090EBAE8A2
:1002F0000F0013F0010F18BFFB1A43F0010318475A
:10030000BC4E0100DC4E0100103A24BF78C878C111
:10031000FAD8520724BF30C830C144BF04680C600B
:10032000704700000023002400250026103A28BF53
:1003300078C1FBD8520728BF30C148BF0B60704757
:100340001FB514F0E4FD1FBD10B510BD00F0C2F9DB
:100350001146FFF7F5FF12F00FF800F0E0F903B4D3
:10036000FFF7F2FF03BC00F0E3F900000A48804702
:100370000A4880470A480047FEE7FEE7FEE7FEE737
:10038000FEE7FEE7FEE7FEE7FEE7FEE70548064973
:10039000064A074B704700003939000899E8000801
:1003A000CD02000808390124084B0124083B012430
:1003B000083B012453EA020C00F069802DE9F04B60
:1003C0004FF00006002B1FBFB3FA83F503FA05F4C4
:1003D00024FA05F65E4012BF1643B2FA82F502FA1D
:1003E00005F4C5F120051EBF22FA05FC44EA0C0401
:1003F000203556EA044C4FEA144418BF641C4FF0F1
:1004000000084FF00009904271EB030C39D300292A
:1004100019BFB1FA81F701FA07F6B0FA80F700FACE
:1004200007F6C7F120071EBF20FA07FC46EA0C06B4
:100430002037B6FBF4FCA7EB0507103F07F01F0BB6
:10044000CBF120062CFA06F60CFA0BFB44BFB346A0
:100450000026202FA4BF5E464FF0000B5BEA060C7F
:1004600008BF4FF0010B19EB0B0948EB0608ABFB7B
:10047000027C06FB02CC0BFB03CCC01B71EB0C0116
:10048000C1E70B46024641464846BDE8F08B13B52E
:10049000084318BF4FF0FF300146AFF30080BDE8BE
:1004A0001C40704753EA020C23D010B54C1084EA6C
:1004B000530404D54042C1F1000138BF491E1B421C
:1004C00004D55242C3F1000338BF5B1EFFF772FF31
:1004D00014F0804F04D04042C1F1000138BF491EE2
:1004E00014F0004F04D05242C3F1000338BF5B1E2A
:1004F00010BD13B540424FF0000070EB0104B8BFCF
:10050000012001F0004100281CBF6FF000414FF0B6
:10051000FF30AFF300801CBD032A40F2308010F0A2
:10052000030C00F0158011F8013BBCF1020F62448E
:1005300098BF11F801CB00F8013B38BF11F8013B1F
:10054000A2F1040298BF00F801CB38BF00F8013BCC
:1005500011F0030300F08480083AC0F0088051F8DD
:10056000043B083A51F804CBA0E80810F5E7121D47
:100570005CBF51F8043B40F8043BAFF30080D20766
:1005800024BF11F8013B11F801CB48BF11F8012B32
:1005900024BF00F8013B00F801CB48BF00F8012B55
:1005A000704702F0FF0343EA032242EA024200F0EE
:1005B00024B84FF000020429C0F0128010F0030CA0
:1005C00000F01B80CCF1040CBCF1020F18BF00F846
:1005D000012BA8BF20F8022BA1EB0C0100F00DB8F5
:1005E0005FEAC17C24BF00F8012B00F8012B48BF53
:1005F00000F8012B70474FF0000200B513469446F7
:100600009646203922BFA0E80C50A0E80C50B1F16A
:100610002001BFF4F7AF090728BFA0E80C5048BF7E
:100620000CC05DF804EB890028BF40F8042B08BF1C
:10063000704748BF20F8022B11F0804F18BF00F818
:10064000012B704770477047704710B500F03AF8BB
:10065000006810BD10B5044600F034F8046010BD09
:1006600010B5203AC0F00B80B1E81850A0E818503F
:10067000B1E81850A0E81850203ABFF4F5AF5FEA8F
:10068000027C24BFB1E81850A0E8185044BF18C934
:1006900018C0BDE810405FEA827C24BF51F8043BDB
:1006A00040F8043B08BF7047D20728BF31F8023B2F
:1006B00048BF11F8012B28BF20F8023B48BF00F8C3
:1006C000012B7047004870477000002400487047B5
:1006D000700000247546FFF7F9FFAE460500694635
:1006E000534620F00700854618B020B5FFF74EFEB0
:1006F000BDE820404FF000064FF000074FF0000823
:100700004FF0000BAC46ACE8C009ACE8C009ACE85F
:10071000C009ACE8C00921F007018D46704710B54B
:100720000446AFF300802046BDE81040FFF717BE37
:1007300001491820ABBEFEE726000200704700000A
:10074000082801D90120704707D140F29831C2F240
:100750000041CA7A82F00102CA7240F21001C2F26C
:10076000004108700020704770B584B010F0F8F9AF
:1007700040F29835C2F2004518B1297B11B9002129
:10078000E9812873687B08B306F07AF9697B04462F
:100790004A1E0A2A00F2F681DFE812F00C006C0013
:1007A000B000BC00CE00DC00EA00F6000C01140131
:1007B0001C0100BF10F0E8F9002800F0E2810020E1
:1007C000E8732870A5F80D0004B070BD40F2100465
:1007D000EFF31080C2F2004472B600284FF0FF0021
:1007E0002678207002D0FF2E04D199E262B6FF2E47
:1007F00000F09682072E29D0022E09D110F080F940
:1008000050B39FEDD00A10F077FA287004B070BD95
:1008100010F0A6F900B3082E00F28282DFE816F08D
:100820000C00FC000A0010012C013C0156011600CE
:10083000700100BFE5E700BFA87B012840F0F5800C
:10084000E87B012800F0FA81EFE000BF0FF0E4FF41
:10085000287004B070BD00BFEFF3108072B621782D
:10086000FF2908BF2670002840F05A8262B604B003
:1008700070BD00BF684610F047F8002800F0818185
:1008800095ED050AB5EE400AF1EE10FA12D19DED94
:10089000001A95ED062AB4EE421AF1EE10FA09DBC1
:1008A0009DED011A95ED072AB4EE421AF1EE10FA09
:1008B00080F234810020D5ED0A0AF5EE400AF1EE0F
:1008C00010FA40F039819DED021A95ED082AB4EE38
:1008D000421AF1EE10FAC0F22F819DED031A95ED48
:1008E000092AB4EE421AF1EE10FAC0F22581002076
:1008F000F0EE080AC4F24000A8621EE110F0E8FA27
:10090000002800F03E8110F0A7FA0028287049D195
:10091000042078E010F078F8022800F032810028F6
:100920006AD19FEDA00AF0EE400A11F039F8287064
:10093000C0BB052067E000BF10F0CAFA002800F035
:100940002081002028704FF40070A5F80D0004B03D
:1009500070BD00BF10F0BCFA002800F0128100202A
:1009600028704FF48070A5F80D0004B070BD00BF72
:100970000FF066FF002800F0048110F039FA2870AB
:1009800080B908203FE000BF10F03EF8022800F0D8
:10099000F88088BB9FEDD90AF0EE400A10F088FE7F
:1009A000287078B30020687304B0BDE8704011F07F
:1009B0008FB800BF0FF044FF002800F0E280022053
:1009C00006E000BF0FF03CFF002800F0DA800120B5
:1009D000E8730CE010F0D8F8002800F0D28040F264
:1009E0001001287CC2F2004180F001004870002014
:1009F0002870687304B070BD28700020687311F00F
:100A000067F8BEE00920687306F03AF841F28831D1
:100A10000844E862B5E000BFA87B30B9E87B002855
:100A200004BFE87A002800F00581287A012870D1F7
:100A3000E87980F00100E8710020287269E000BFC9
:100A4000A87B012865D140F2EC109FEDC12AC2F2CB
:100A5000004090ED000A90ED011A30EE020A9FED81
:100A6000BD2A71EE020A10F09BFF0028287040F0AA
:100A70005781032057E100BFA87B022849D19FED91
:100A8000B20ADFEDB20A10F08BFF0028287040F0A8
:100A90004781062047E100BFE87B012839D140F2B9
:100AA000EC109FEDA81AC2F2004090ED020A90ED02
:100AB000032A30EE010A72EE010A10F0F9FD002857
:100AC000287040F02D8107202DE100BFE87B02282F
:100AD0001FD140F2EC109FED9A1AC2F2004090ED47
:100AE000020A90ED032A30EE010A72EE010A10F0BC
:100AF000DFFD0028287040F013810A2013E100BFB9
:100B0000A87BE97AEA7B10434ED0084680F00100CA
:100B1000E8720120287004B070BD00BFB1EE000A79
:100B20004FF0814068610120D5ED0A0AF5EE400AD8
:100B3000F1EE10FA3FF4C7AE30B110F051FE18B12B
:100B4000012027E00000B44310F01EF8C8B1B1EE58
:100B5000000A95ED051AB4EE401AF1EE10FA10D124
:100B6000B0EE080A95ED0A1AB4EE401AF1EE10FA4A
:100B700007D10120E873002028704FF48070A5F899
:100B80000D00697B002900F0CB80E86A201A00F193
:100B9000C780032028700020687310F099FF04B00C
:100BA00070BD00BF0000B442002900F0A98040F2EF
:100BB000EC12B8EE080AC2F20042012092ED002ABF
:100BC000B4EE402AF1EE10FAA0DBB0EE081AB4EE53
:100BD000412AF1EE10FA99DC92ED012AB4EE402A96
:100BE000F1EE10FA92DBB4EE412AF1EE10FA3FF783
:100BF0008DAF92ED022AB4EE402AF1EE10FAFFF624
:100C000085AFB4EE412AF1EE10FA3FF77FAF92EDD7
:100C1000032AB4EE402AF1EE10FAFFF677AFB4EEF5
:100C2000412AF1EE10FA3FF771AF601C9FED430AC5
:100C3000297469E0607800283FF4F7AE287A01282B
:100C400001D100202872012E22D0002E68D140F25E
:100C5000EC109FED453AC2F2004090ED000A90ED95
:100C6000011A30EE030A9FED413A90ED022A71EE2F
:100C7000030A9FED3F3A90ED034A32EE031A74EEF9
:100C8000031A10F0F5FD0028287049D101204AE030
:100C900040F2EC119FED302AC2F200410020686161
:100CA00091ED000A91ED011A30EE023A91ED024AFF
:100CB00085ED063A9FED293A30EE030A9FED283A7A
:100CC00071EE030A9FED273A91ED037A31EE025A55
:100CD00034EE031AA86277EE031A85ED075A34EE54
:100CE000026A37EE022A85ED086A85ED092A10F0BE
:100CF000BFFD2870A0B9022015E000BF0000E6C2C9
:100D000005F110009FED0C0AF0EE400AB0EE401A1B
:100D1000F0EE401A0021017010F0AAFD287008B111
:100D200004B070BD0B20687305F0AAFE41F2883153
:100D30000844E86204B070BD0000000000003442C6
:100D4000000086C2000032C300003343000031437C
:100D5000000035430000374300004C4200000643CA
:100D60000000044300000543000006C3000004C364
:100D7000000005C300000000002818BF0120A9B131
:100D800040F29831C2F20041CA78BAB10A7982427F
:100D900008BF7047CA7A087182F00100C87240F239
:100DA00010000821C2F200400170704740F29830F4
:100DB0000021C2F20040C170704700BF08710120DD
:100DC000C870704700000000002818BF0120B9B1AA
:100DD00040F29831C2F200414A79CAB18A7982421E
:100DE00008BF7047CA79887182F00100C87101227A
:100DF0000A7240F21001C2F200410870704700BF51
:100E000040F298300021C2F200404171704700BFAB
:100E1000887101204871704740F29832002818BF4D
:100E20000120C2F200420029507018BF01219170C8
:100E30007047000000000000D1B140F29831C2F2CA
:100E400000414A7A002A00F03F0219D0887A8A725B
:100E500022EA0000C30717D1810717D4410717D42E
:100E6000010717D4C00658BF7047042013E000BF25
:100E700040F298300021C2F200404172704700BF3A
:100E80008A72012048727047002004E0012002E0CD
:100E9000022000E0032004A1085C40F21001C2F22D
:100EA00000410870704700BF0304020506FF000000
:100EB000FEE700000000000070B582B000285DD0A1
:100EC000044690F82F00002858D094F82C100029E0
:100ED0004AD0481ED4F824C001F0030E03284FF076
:100EE00000024FF0000355D2BEF1000F3CD003EBDF
:100EF00003100CEB800191F82000A0F1090212F11F
:100F0000080F09D354F8202032B100201077C2E92D
:100F10000300908582F84200BEF1010F24D091F8C1
:100F20006400A0F1090212F1080F09D354F820203F
:100F300032B100201077C2E90300908582F84200A8
:100F4000BEF1020F10D091F8A800A0F1090111F133
:100F5000080F09D354F8200030B100210177C0E90F
:100F60000311818580F8421094F82D0050B160681B
:100F700000285BD0808D010A5AE000BF0125284679
:100F800002B070BD002594F82E00002840F0858046
:100F9000BBE000BF01F0FC050CF1A801002304E058
:100FA000043301F588719D429ED011F8880CA0F1A0
:100FB000090616F1080F08D354F8200028B1C0E93B
:100FC00003220277828580F8422011F8440CA0F1B8
:100FD000090616F1080F08D354F8200028B1C0E91B
:100FE00003220277828580F842200878A0F1090662
:100FF00016F1080F08D354F8200028B1C0E90322E5
:101000000277828580F8422091F84400A0F1090619
:1010100016F1080FC4D354F820000028C0D0C0E94E
:1010200003220277828580F84220B9E70020002160
:10103000A2688DF800108DF801001AB1908D010A98
:1010400002E000BF00200021E2688DF802108DF858
:1010500003001AB1908D010A02E000BF00200021B8
:1010600022698DF804108DF805001AB1908D010ADF
:1010700002E000BF002000218DF806106A468DF8BE
:10108000070020684FF400710DF04EFB0546002864
:1010900018BF012594F82E00B8B3606910B1808D97
:1010A000010A01E000200021A2698DF800108DF8EE
:1010B00001001AB1908D010A02E000BF002000215A
:1010C000E2698DF802108DF803001AB1908D010AC3
:1010D00002E000BF00200021226A8DF804108DF884
:1010E00005001AB1908D010A02E000BF0020002126
:1010F0008DF806106A468DF80700206840F2FF114F
:101100000DF012FB002818BF012505F0B9FCA06204
:10111000284602B070BD0000844600284FF0000051
:1011200021D0A1F1090313F1080F1CD34FF00000E7
:10113000CAB15CF82110002908BF7047D1F82AC055
:10114000D1E90E3013604B6BD060C2E9013CB1F8BD
:101150004000108291F84200D074411EB1FA81F132
:1011600048099074012070472DE9F04F81B0044682
:1011700000284FF0010012D08A4681B10A9DA5F1E6
:10118000090010F1080F4FF0010008D31F4633B1DA
:101190009346002A1CBF9AF81812002902D101B008
:1011A000BDE8F08F201D2C21FFF725FA05EB051077
:1011B0004FEA800858464146FFF71DFA48F20009F9
:1011C0004FF0000E07F108029FED570A9FED571AE6
:1011D000C4F23B599FED562A0027C4F800A084F8BA
:1011E0002C50C4E909BE12F8083C581EC1B20729A8
:1011F00000F2968012F8075CFF2D02D0012D40F01E
:101200008F8012ED013A0120B4EE403AF1EE10FA6F
:10121000C5DCB4EE413AF1EE10FAC0DB92ED003AD3
:101220000120B4EE403AF1EE10FAB8DCB4EE413AE7
:10123000F1EE10FAB3DB92ED014A0120B4EE404A20
:10124000F1EE10FAABDCB4EE414AF1EE10FAA6DB97
:1012500092ED025A0120B4EE405AF1EE10FA9EDCF3
:10126000B4EE415AF1EE10FA99DBB5EE403AF1EEE8
:1012700010FAA4BFB5EE404AF1EE10FA8FDBB5EEDE
:10128000405A0120F1EE10FAFFF689AFB4EE423A6F
:10129000F1EE10FA3FF783AFB4EE424AF1EE10FAE6
:1012A000DCBFB4EE425AF1EE10FA3FF778AF04EB30
:1012B000810050F8046F9EBB0BEB070604EB910115
:1012C00086F8203086F8215092E828104BF8073035
:1012D0004437C6E9015CC6E9059952F8043CB845B3
:1012E00002F11402336386F842E006604FF0010019
:1012F00081F82D007FF477AF42F271115046C0F6AD
:10130000010122460DF028F800284FF001007FF47B
:1013100046AF84F82F00002001B0BDE8F08F00BF79
:10132000012001B0BDE8F08FFFFF7F7FFFFF7FFF4F
:1013300000401C46000000002DE9F04182B000286A
:1013400000F03581804690F82F00002800F02F81B2
:10135000D8F82800081A0228C0F0298198F82C2013
:10136000C8F82810002A00F0AD8002EB0212D8F86D
:101370002400920000239FED8F0A4FF0010C9FED97
:101380008E1A00249FED8F2A9FED8C3A9FED8E4A96
:101390009FED8B5A0519B5F9286095ED096AB8EEED
:1013A000C66A07EE106A95F9216066EE010A06EE3C
:1013B000106AB8EEC77A95F84060B8EEC66A87EE54
:1013C000007AC0EE800A67EE061A20EE867AC5ED36
:1013D0000D1A85ED0E7A2EB3EE6B00278E1B152E9F
:1013E00038BF0127142E85F841701DD895F842703A
:1013F000012F19D1D5ED0C0A30EEC77AB4EE437A3D
:10140000F1EE10FA04DDB4EE457AF1EE10FA0BDBE2
:101410002F7F1FB3D5ED040A77EE600AC0EE840A71
:1014200020E000BF85F84130EB60B0EE426A2B61EE
:101430002B7795ED067A4434F1EE470AB4EE476A0D
:10144000F1EE10FAC6FE200A37FE206AA242BDEE77
:10145000C66A16EE107AAF859CD133E0F0EE420AF0
:1014600085F81CC0D5ED011A85ED047A67EE211AC6
:10147000D5ED032AE1EE842AD5ED051AF1EE613AA5
:10148000C2FEA33AF4EE612AD5ED002AF1EE10FA7D
:1014900071FEA31AC5ED031AE2EE871AD5ED022AF2
:1014A000E2EEA01AD5ED060AF1EE602AC1FEA22AEC
:1014B000F4EE601AF1EE10FA70FEA20A20EE866ACF
:1014C000B7E700BF98F82D00B8B3D8F8040018B1FA
:1014D000808D010A02E000BF00200021D8F808201A
:1014E0008DF800108DF8010012B1908D010A01E015
:1014F00000200021D8F80C208DF802108DF8030090
:1015000012B1908D010A01E000200021D8F81020CE
:101510008DF804108DF8050012B1908D010A01E0DC
:10152000002000218DF806106A468DF80700D8F8D3
:1015300000004FF400710DF0F7F898F82E00B0B3EA
:10154000D8F8140010B1808D010A01E000200021BC
:10155000D8F818208DF800108DF8010012B1908D88
:10156000010A01E000200021D8F81C208DF80210AB
:101570008DF8030012B1908D010A01E000200021D6
:10158000D8F820208DF804108DF8050012B1908D48
:10159000010A01E0002000218DF806106A468DF84E
:1015A0000700D8F8000040F2FF110DF0BDF802B0BE
:1015B000BDE8F081000010420000343DCDCC4CBEAF
:1015C000CDCC4C3E000000006F12033B0000000039
:1015D000024600284FF001001DD0A1F1090313F1CC
:1015E000080F18D352F82110B1B19FED0C1A012049
:1015F000B4EE410AF1EE10FA0DDC9FED091AB4EEDB
:10160000410AF1EE10FAB8BF7047012081F842009C
:10161000002081ED0C0A704701207047FFFF7F7F9B
:10162000FFFF7FFF0000000070B5002854D090F845
:101630002F10002950D090F82C1000294CD04A1EB1
:10164000D0F824C001F0030E032A4FF000034FF03E
:10165000000243D2BEF1000F3ED002EB02110CEBB0
:10166000810191F82020A2F1090313F1080F09D399
:1016700050F8222032B100231377C2E90333938557
:1016800082F84230BEF1010F26D091F86420A2F119
:10169000090313F1080F09D350F8222032B10023B7
:1016A0001377C2E90333938582F84230BEF1020F0B
:1016B00012D091F8A810A1F1090212F1080F0BD372
:1016C00050F82100002808BF70BD00210177C0E953
:1016D0000311818580F8421070BD00BF01F0FC014C
:1016E0000CF1A804002204E0043204F5887491424D
:1016F000B0D014F8885CA5F1090616F1080F08D3DC
:1017000050F825502DB1C5E903332B77AB8585F80B
:10171000423014F8445CA5F1090616F1080F08D30D
:1017200050F825502DB1C5E903332B77AB8585F8EB
:1017300042302578A5F1090616F1080F08D350F8B4
:1017400025502DB1C5E903332B77AB8585F84230A1
:1017500094F84450A5F1090616F1080FC4D350F8C7
:101760002550002DC0D0C5E903332B77AB8585F814
:101770004230B9E7000000002DE9F04F81B000EEE3
:10178000102A9FED7F1A0D18401A9846B8EEC00A2D
:1017900020EE010ABDEEC00A10EE102A15EB020B76
:1017A00000EB02065F46A0EB020A3046A5EB0209F9
:1017B00048BFCBF10007002E48BF7042B84288BF37
:1017C00007465046BAF1000F48BFCAF10000B842C0
:1017D00088BF07464846B9F1000F48BFC9F100006D
:1017E000B84288BF0746B7F57A6F4AD900204FF450
:1017F0007A62B0EB57054FF0000360F10004284611
:101800002146BBF1FF3FC4BF78080021CBFB02019A
:101810003A464FF47A6BFEF745FE2A462146B6F16A
:10182000FF3F4FF00003C4BF7A080021C6FB0B2125
:1018300083464FF47A6610463A46FEF733FE2A4650
:101840002146BAF1FF3F4FF00003C4BF7A080021E0
:10185000CAFB062106464FF47A6A10463A46FEF75E
:1018600021FEB9F1FF3F4FF00003C4BF00247D0803
:101870003A46C9FB0A54824628462146FEF712FE24
:1018800081464FEA98004A285AD84FEAEB70ABFBE2
:10189000081200FB08226FF095006FF09504B2F17A
:1018A000FF3F4FEAE273C8BF9620401843EB0201A6
:1018B0004FF496720023FEF7F5FDF117A6FB0823FF
:1018C00001FB08316FF095038346B1F1FF3F4FEA0A
:1018D000E176C8BF96239F184FF49672714100239A
:1018E0003846FEF7DFFD4FEAEA71AAFB082301FB49
:1018F00008316FF095030646B1F1FF3F4FEAE175FD
:10190000C8BF96239F184FF496726941002338464A
:10191000FEF7C8FD4FEAE971A9FB082301FB083176
:101920008246B1F1FF3F4FEAE173C8BF9624A71882
:101930004FF49672594100233846FEF7B3FD8146B5
:1019400040F200445946C2F20044204610F0E0FA4A
:1019500058B904F12C00314610F0DAFA28B904F134
:101960005800514610F0D4FA10B101B0BDE8F08F24
:1019700004F18400494601B0BDE8F04F10F0C8BA48
:101980009A99D940000000002DE9F04740F20C265A
:10199000C2F20046707818B10020BDE8F08700BFA1
:1019A00006F1140440F61851C2F20041204610F02E
:1019B0009FF800281CBF0120BDE8F08740F20045D9
:1019C00044F6CC77C2F20045C0F60107284621460E
:1019D0003A4610F0E1F9D0B905F12C0A07F11002EE
:1019E0005046214610F0D8F988B905F1580807F19A
:1019F00020024046214610F0CFF940B905F1840994
:101A000007F130024846214610F0C6F930B12046B1
:101A100010F0B2F90120BDE8F08700BF0024347057
:101A200005F02EF8F06001207070284610F03CFAA6
:101A3000504610F039FA404610F036FA484610F099
:101A400033FA2046BDE8F0872DE9F04F87B040F229
:101A50000C2BC2F2004B9BF80100012840F02281C0
:101A600005F00EF80BF114060546304610F0B8F8F4
:101A700040F200444FF00008C2F2004403AF04F10A
:101A80002C0A04F1580904F18400029005E000BF1B
:101A9000B8F11F0F08F1010822D23046394610F084
:101AA0006BF802281CD00028F2D1204639462A467D
:101AB00010F0A6F90028EBD1504639462A4610F01E
:101AC0009FF90028E4D1484639462A4610F098F993
:101AD0000028DDD1029839462A4610F091F9D7E75F
:101AE0002046294610F03CFA5046294610F038FAB4
:101AF0004846294610F034FA0298294610F030FA88
:101B0000EFF3108372B6BBF80420BBF80610BBF8E5
:101B100008009BF8026003B962B642EA010303437E
:101B200018BF01239BF8007036B3042F00F0A78084
:101B300040F200460020C2F200460021CDE9050037
:101B4000CDE90300304610F0E3F980B906F12C002E
:101B5000002110F0DDF950B906F15800002110F015
:101B6000D7F920B906F18400002110F0D1F9042042
:101B70008BF8000088E000BF042F13D8DFE807F0DF
:101B80000418323E580000BF002B52D10020002123
:101B9000002208F071F90246002000214FF49673EC
:101BA0003DE000BF01208BF80200042065E000BF8B
:101BB000002B43D017B2DBF810300FFA81F8EE1A81
:101BC00002B23846414608F057F9B6F5967F02460C
:101BD00004D34FF4967602208BF800003846414635
:101BE00033461CE053B316B20FB202B23046394648
:101BF00008F042F902464FF496730EE083B316B232
:101C0000CBF810500FB2012302B2304639468BF8A0
:101C1000003008F031F90246002330463946FFF71C
:101C2000ABFDDBF80C00281A0A283BD32CE000BFE0
:101C300013B3CBF8105001201FE000BFCBF81050B9
:101C40006069CBF81C00206CCBF82000E06ECBF86C
:101C50002400D4F89800CBF8280003200DE000BF42
:101C6000DBF81000281AC82820D308F011FB002642
:101C70008BF800601EE000BF00208BF80000DBF84E
:101C80000C00281A0A280DD32046CBF80C5010F06F
:101C90000BF9504610F008F9484610F005F9029883
:101CA00010F002F907B0BDE8F08F00BF00286BD03C
:101CB000C0F1C806DBF81C004FF00008C117DBF8C4
:101CC0002070A6FB002306FB013108FB00116FF01A
:101CD0006300B1F1FF3FC8BF6420DBF824300093FC
:101CE000DBF828300193CB1780185941C822002314
:101CF000FEF7D8FBF917A6FB072306FB01316FF0AF
:101D0000630308FB0711B1F1FF3FC8BF64230390D1
:101D10009F184FEAE1725141C82200233846FEF76E
:101D2000C1FB009FF917A6FB072306FB01316FF0EB
:101D3000630308FB0711B1F1FF3FC8BF64230490A0
:101D40009F184FEAE1725141C82200233846FEF73E
:101D5000A9FB019FF917A6FB072306FB013108FB2E
:101D600007116FF06307B1F1FF3F4FEAE173C8BF9E
:101D700064270590BF184FF0C80259410023384628
:101D8000FEF790FB06900BE0DBF828000690DBF8EE
:101D900024000590DBF820000490DBF81C00039081
:101DA00003A800F02DF8DBF80C00281A0A28FFF42D
:101DB00079AF69E70000000040F20C2CC2F2004C41
:101DC0009CF80130012B19D189B283B2EFF3108056
:101DD00092B272B6ACF804300B43ACF8061053EA7A
:101DE0000201ACF808201CBF00218CF8021000286A
:101DF0001CBF0020704762B600207047012070476A
:101E0000B0B540F200450446C2F2004501682846DC
:101E100010F07EF868B9616805F12C0010F078F8D0
:101E2000002818BFB0BDA16805F1580010F070F887
:101E300000B1B0BDE16805F18400BDE8B04010F02C
:101E400067B800000000000040F20C20C2F2004021
:101E5000417801290ED1EFF3108172B600294FF0BD
:101E6000000282804FF00101C2800281817018BFA0
:101E7000704762B67047000040F2A421C2F20041F0
:101E8000CA681AB1824204BF0120887170470000FD
:101E900070B568B140F2A425C2F200452978012945
:101EA00008D1E9680C1A18BF0124204670BD00BF94
:101EB000012070BDE8600024C5F81A40FF21C5F874
:101EC0001E40012285F822400126AC82EC822C8340
:101ED000A970691C2C61EC702C716C71AC71A5F847
:101EE00007406C722E8007F037FE00281CBFAE71D1
:101EF0000446204670BD000070B540F2A425C2F231
:101F00000045E868002847D0A97979B10024AC7170
:101F100006F062FDE868A5F807406C7220B1691C04
:101F2000012207F019FE08B10120A871EFF3108318
:101F300072B6E87890B3B5F814C00026B5F816E08C
:101F40002A8BEE702E7966B3AC780021297103B923
:101F500062B630B10FFA8CF00FFA8EF112B2FFF7C1
:101F60002BFF16B12046FEF7EBFBE86808F098FD62
:101F7000E86800F009FC04F083FD6979002908BFD6
:101F800070BD2969401AB0F5FA7F05D90020687143
:101F9000BDE87040FFF758BF70BD00BF2E79002E1E
:101FA000D2D1FF24002BD4D1D2E7000000000000E2
:101FB000F0B581B040F2A424C2F20044E1680029E7
:101FC0006BD0814269D1617A627802290AD00129F5
:101FD0003ED0002955D1A52A57D1A521A1760121AE
:101FE00052E000BFE17994F808C065180131CBB226
:101FF000E1716345AA7648D3E17E5B293AD05A293C
:102000003FD194F81CC094F82270637F94F81EE0CE
:10201000E17F83EA0C0282EA0E0594F8202085EA2B
:10202000010694F8215056406E40B74229D14CEA3F
:102030000320A0824EEA0120E08242EA05202083AC
:1020400004F01EFD20610120E070611DE06816E0D3
:1020500002F0FE015A2909D10323E27602215A2A0D
:10206000E17108BF092323720EE000BFA52A08D141
:102070000BE000BF217F082903D8A170211D012298
:102080000A700021A4F80710617220B1611C0122BE
:1020900007F062FD08B10120A07101B0F0BD0000A1
:1020A00040F62840C2F2004002F0B2B90000000041
:1020B00040F6A040C2F2004002F0AAB900000000C1
:1020C00040F63830C2F2004002F0A2B90000000031
:1020D00040F6B030C2F2004002F09AB900000000B1
:1020E00040F2F070C2F2004002F092B9000000002D
:1020F00040F27870C2F2004002F08AB9000000009D
:1021000040F66800C2F2004002F082B90000000010
:1021100040F6E000C2F2004002F07AB90000000090
:1021200040F64820C2F2004002F072B90000000000
:1021300040F6C020C2F2004002F06AB90000000080
:1021400040F65810C2F2004002F062B900000000F0
:1021500040F6D010C2F2004002F05AB90000000070
:1021600040F20F42D0F800C0C4F20202944511DCE4
:102170006F22C4F20202944522DC3F22C4F2020222
:10218000944539DC1022C4F2020294455AD0282228
:1021900054E000BF40F26F42C4F2020294451BDCDF
:1021A00040F23F42C4F2020294452DDC40F210425C
:1021B000C4F20202944545D040F228423EE000BFFE
:1021C0009F22C4F20202944528DC7022C4F202026B
:1021D000944537D0882231E040F29F42C4F2020297
:1021E000944523DC40F27042C4F20202944529D0A7
:1021F00040F2884222E000BF4022C4F2020294452D
:1022000020D058221AE000BF40F24042C4F202023D
:10221000944517D040F2584210E000BFA022C4F20B
:10222000020294450ED0B82208E000BF40F2B84246
:10223000C4F20202944505D040F2A042C4F2020268
:10224000944519D16FF00F024AF6AB2352FA8CF283
:10225000CAF6AA23A2FB03310AA35F2AC1F3021123
:102260005B5C40F2FF312CEA0101C36588BF043199
:1022700081650846704700BF2CF0FF018165084664
:10228000704700BF00061016000610160000000080
:1022900070B540F26F44D0F800C0C4F20204D0F828
:1022A00058E0A4451ADC9F25C4F20205AC4533DC96
:1022B0005725C4F20205AC455ADC1025C4F20205CC
:1022C000AC4500F098802825C4F20205AC4500F02A
:1022D00092804025C4F202058AE000BF45F22F45F6
:1022E000C5F60205AC452DDC40F2B745C4F2020547
:1022F000AC454BDC40F27045C4F20205AC457AD0E7
:1023000040F28845C4F20205AC4574D040F2A045C5
:10231000C4F202056CE000BF40F22745C4F202059A
:10232000AC4543DCA025C4F20205AC4563D0B8251A
:10233000C4F20205AC455ED040F21045C4F202057D
:1023400056E000BF45F26B45C5F60205AC453FDCE3
:1023500045F23045C5F60205AC454CD045F2444542
:10236000C5F60205AC4546D045F258453EE000BFF3
:102370005825C4F20205AC453DD07025C4F20205D3
:10238000AC4538D08825C4F2020531E040F2B845AA
:10239000C4F20205AC452ED045F20845C5F602054B
:1023A000AC4528D045F21C4520E000BF40F228454E
:1023B000C4F20205AC451ED040F24045C4F202050D
:1023C000AC4518D040F25845C4F2020510E000BFF9
:1023D00045F26C45C5F60205AC450CD045F2944576
:1023E000C5F60205AC4506D045F28045C5F60205A6
:1023F000AC4540F0CF80456EC66E002E866E6E6096
:102400001CBFD0E91C566E60A44515DC9F24C4F2A5
:102410000204A4452CDC5724C4F20204A44551DC78
:102420001024C4F20204A4457AD02824C4F2020481
:10243000A44575D040246FE045F22F44C5F6020450
:10244000A44529DC40F2B744C4F20204A44545DCAB
:1024500040F27044C4F20204A44561D040F28844C2
:10246000C4F20204A4455BD040F2A04454E000BF93
:1024700040F22744C4F20204A4453FDCA024C4F285
:102480000204A4454CD0B824C4F20204A44547D0A9
:1024900040F2104440E000BF45F26B44C5F6020430
:1024A000A44553DC45F23044C5F60204A4455FD090
:1024B00045F24444C5F60204A44559D045F25844B7
:1024C00052E000BF5824C4F20204A44528D070246E
:1024D000C4F20204A44523D088241DE040F2B8448D
:1024E000C4F20204A4451BD045F20844C5F6020418
:1024F000A4453DD045F21C4436E000BF40F22844DC
:10250000C4F20204A4450BD040F24044C4F20204D9
:10251000A44505D040F25844C4F20204A44539D180
:102520008468C06D00F01F003F2505FA00F0CEF86A
:102530000800DCF80000402C20F48020CCF80000DB
:10254000CCF8043021D1CCF8082021E045F26C44CD
:10255000C5F60204A4450BD045F28044C5F602043A
:10256000A44505D045F29444C5F60204A44511D112
:10257000C46D806804F01F040125402805FA04F4A6
:10258000CEF80440CCF80430DDD0CCF80810114669
:10259000CCF80C1070BD000040F2C821C2F200411E
:1025A0004A681AB1824204BF0120C8737047000014
:1025B00070B568B140F2C825C2F2004529780129FA
:1025C00008D169680C1A18BF0124204670BD00BFED
:1025D000012070BD05F10801012268600024EC7340
:1025E0000126AC73AC822C61AC75EC7585F8244087
:1025F0002C6285F8254085F82640AC83AC61AC7729
:10260000EC7785F82C40AC6285F82D4085F82E409B
:102610002E7007F0A1FA00281CBFEE73012420469B
:1026200070BD000000000000B0B540F2C824C2F246
:1026300000446068002842D0E17B59B10021E17379
:10264000A17304F108010122012507F085FA002891
:1026500018BFE57304F014FAA17D31B12169411A64
:10266000B1F5FA7F01D90021A17594F8251061B167
:10267000216A411AB1F5FA7F07D9002184F82510A3
:1026800084F82410012184F82610A17F31B1A169BA
:10269000411AB1F5FA7F01D90021A17794F82D10E4
:1026A00069B1A16A401AB0F5FA7F98BFB0BD0020A9
:1026B00084F82D0084F82C00012084F82E00B0BD91
:1026C000F0B581B040F2C824C2F20044616800292C
:1026D00058D0814256D1A27B217A8AB322445172CA
:1026E000A17B0131A173CAB2052A42D3A67A06F0B2
:1026F000FE0040283AD1607A277BE57A627B80EA47
:102700000601694079408A4230D1AA2805D0AB2819
:102710002CD145EA0720012828D804F0B1F9617AC4
:10272000AA2915D1B6F1400145EA072218BF0121B7
:1027300004EBC1018A82086101208875C87515E023
:1027400001F0FE02AA2A14D1617201200FE000BF3D
:10275000B6F1400118BF012104EBC10181F82450FA
:102760000862012081F8250081F826000020A0736E
:10277000606828B104F10801012207F0EDF908B101
:102780000120E07301B0F0BD70B58EB0002800F0FC
:10279000B18040F2C822EFF3108CC2F2004272B650
:1027A0000646002410690B90908ABCF1000FADF82A
:1027B0002800907D8DF82600D07D8DF82500116AC7
:1027C000059192F824108DF8101092F825108DF8CC
:1027D0000F1092F826108DF80E1092F827108DF831
:1027E0000910D47582F8264091690891938BADF851
:1027F0001C30917F8DF81A10D17F8DF81910956AD1
:10280000CDF80A5092F82C508DF8085092F82D50BF
:102810008DF8075092F82E508DF8065092F82F50F0
:102820008DF80550D47782F82E4065D0B9B144F2C6
:10283000AA10ADF83300180A8DF8360083EA132089
:102840008DF8353080F0EB008DF837000DF1330155
:1028500005221423304607F0E7F99DF82500B8B1AA
:10286000BDF8280044F2AA01ADF8331005228DF816
:102870003500010A80EA10208DF8361080F0EA0059
:102880008DF837000DF133011423304607F0CCF9F1
:102890009DF80600A8B19DF8080044F2AB11ADF810
:1028A000331000218DF8350080F0EA008DF83610E5
:1028B0000DF133018DF8370005221423304607F05F
:1028C000B3F99DF80E00A8B19DF8100044F2AB01D9
:1028D000ADF8331000218DF8350080F0EB008DF855
:1028E00036100DF133018DF83700052214233046E0
:1028F00007F09AF90EB070BD62B6002997D1AEE725
:1029000070470000000000002DE9F04184B038B3AA
:10291000804690F8C50218B398F8C40200B3434249
:1029200008F1B4000027032630F8B05C8D421DD0BA
:102930009D19022D14D030F8584C8C4218D0012D1E
:102940000ED004888C4217D055B1B0F858508D4243
:1029500014D0043600F5B0709D190437032DE3D16F
:102960000125284604B0BDE8F08100BFB03808E07A
:1029700047F00107583804E0771E02E047F00307EC
:102980005830582107FB018303F15501B2B193F888
:10299000560000284FF00100087005D15820002192
:1029A00007FB008080F854105820002507FB0080AA
:1029B0008564284604B0BDE8F08100BF01AE002266
:1029C0000A70314600F050FD054658B9BDF80410B4
:1029D000D8F80000F21C0BF0A7FE0546022818BF2D
:1029E000032548B1582007FB008080F84550284651
:1029F00004B0BDE8F08100BF5820002507FB00842B
:102A000084F8455084F8545004F03AF86430A064D7
:102A1000284604B0BDE8F0812DE9F04387B078B3D3
:102A2000994690464FF000025BB3054690F8C50208
:102A300038B395F8C40248B3434205F1B400002707
:102A4000032630F8B02C8A4226D09A19022A1DD0CB
:102A500030F8584C8C4221D0012A17D004888C427F
:102A600020D09AB1B0F858208A421DD0043600F523
:102A7000B0709A190437032A4FF00002E1D100E048
:102A80000022104607B0BDE8F08300BF00221046C8
:102A900007B0BDE8F08300BFB03808E047F0010799
:102AA000583804E0771E02E047F00307583001A9C8
:102AB0000026C9E90066C9E90266C9E90466C9E9F0
:102AC000066600F06DFE89F81900A8B358209DED48
:102AD000010A07FB00509FED211A80EE010A9FEDCD
:102AE000201A9DED022A9DED033A04AA90F94400B4
:102AF00020EE010A22EE011A9FED1A2A04EE100AB6
:102B000023EE022A07CAC9F80C00A8EB0100B8EEB0
:102B1000C44AC9F81010332820EE040A21EE041A22
:102B200089ED000A22EE040A89ED011A89ED020AF4
:102B300038BF0126C9F81420582089F81A6007FB0D
:102B400000500122B0F85510A9F81B1090F845006C
:102B500089F81800104607B0BDE8F08335FA8E3CBE
:102B6000E4380E3F6666E63FF0B581B040B30446F8
:102B700090F8C50220B394F8C40208B34FF6F86386
:102B8000404204F586720325CFF6FF73D75A8F4271
:102B90001AD04619022E13D032F8B07C8F4215D0CD
:102BA000012E0DD032F8587C8F4211D046B11788D3
:102BB0008F420ED0043502F5B0724719032FE5D1CC
:102BC000012001B0F0BD00BF033D02E0023D00E086
:102BD000013D582005FB00473E4616F8570F78B1D7
:102BE00003F04EFF396D401AC8280FD3582005FB5B
:102BF000004100203070032081F8450001B0F0BD95
:102C000097F8580030B1002001B0F0BD022001B0AB
:102C1000F0BD00BF582005FB004090F8450001B012
:102C2000F0BD0000000000002DE9F04F81B08146AA
:102C300000284FF0010000F0A5808A46002900F02E
:102C4000A180A3F109001F4610F1080F4FF0010009
:102C5000C0F098809346002A00F094809AF81812E9
:102C6000002900F08F800BF1700400229FEDB50A5F
:102C70009FEDB51AC2EBC2000BEB80035879FF2819
:102C800002D0012840F0828093ED022A0120B4EEA8
:102C9000402AF1EE10FA75DCB4EE412AF1EE10FA9A
:102CA00070DB93ED032A0120B4EE402AF1EE10FA16
:102CB00068DCB4EE412AF1EE10FA63DB93ED042AEE
:102CC0000120B4EE402AF1EE10FA5BDCB4EE412AAA
:102CD000F1EE10FA56DB93ED052A0120B4EE402AFE
:102CE000F1EE10FA4EDCB4EE412AF1EE10FA49DBB7
:102CF00093ED062A0120B4EE402AF1EE10FA41DCF1
:102D0000B4EE412AF1EE10FA3CDB21461046451C98
:102D1000BD421DD21D8831F8546CB54236D0861C98
:102D2000BE4215D21E8831F8385CAE422ED0C61C89
:102D3000BE420DD21E8831F81C5CAE4226D0043053
:102D4000B84205D21E880D887031AE42DFD11DE039
:102D500001321C34BA427FF48DAF09F104084FF4FC
:102D600031714046FDF747FCBBF800109BF804307A
:102D7000BBF802204046C9F800A089F8C47200F0F0
:102D80002BFD38B101B0BDE8F08F00BF012001B0CC
:102D9000BDE8F08F0BF1080609F1300C012F4FCE82
:102DA0008CE84F009BF8050089F844000ED142F2F0
:102DB00001215046C0F601014A460BF0CDFA002829
:102DC00000F0B880032001B0BDE8F08FBBF81C1004
:102DD0009BF82030BBF81E2009F15C0000F0FCFCE1
:102DE0000028CFD10BF1240609F1880C022F4FCE19
:102DF0008CE84F009BF8210089F89C00D7D0BBF8E5
:102E000038109BF83C30BBF83A2009F1B40000F0D0
:102E1000E3FC0028B6D10BF1400609F1E00C032FCA
:102E20004FCE8CE84F009BF83D0089F8F400BED0EF
:102E3000BBF854109BF85830BBF8562009F5867043
:102E400000F0CAFC00289DD10BF15C0609F59C7CC2
:102E5000042F4FCE8CE84F009BF8590089F84C01A5
:102E6000A5D0BBF870109BF87430BBF8722009F540
:102E7000B27000F0B1FC00287FF484AF0BF178064B
:102E800009F5C87C052F4FCE8CE84F009BF87500E4
:102E900089F8A4018BD0BBF88C109BF89030BBF85C
:102EA0008E2009F5DE7000F097FC00287FF46AAFF1
:102EB0000BF1940609F5F47C062F4FCE8CE84F00F9
:102EC0009BF8910089F8FC013FF471AFBBF8A810A2
:102ED0009BF8AC30BBF8AA2009F5057000F07CFC2B
:102EE00000287FF44FAF0BF1B00609F5107C072FD7
:102EF0004FCE8CE84F009BF8AD0089F854023FF4A8
:102F000056AFBBF8C4109BF8C830BBF8C62009F513
:102F10001B7000F061FC00287FF434AF0BF1CC078C
:102F200009F5267C8FCF8CE88F009BF8C90089F8C3
:102F3000AC023CE7012089F8C502002001B0BDE8E1
:102F4000F08F00BFFFFF7F7FFFFF7FFF00000000CB
:102F50002DE9F04F81B02DED068B8AB0002800F0EE
:102F6000C980044690F8C502002800F0C38094F898
:102F7000C402002800F0BE8007A80D4600F1030B34
:102F800004F158064FF0000A07AF9FED5D8A0DF17E
:102F900008089FED5C9A4FF000099FED5BAA481C62
:102FA000009001F1640001900AE000BF06F8130CE4
:102FB00094F8C40209F101095836814580F09A80DD
:102FC00016F8031C16F8020C002949D056F8101CFC
:102FD0000028A5EB010067D00028E9D4307800284C
:102FE000E6D016F9140C16ED0A1A16ED092A16ED9C
:102FF000083A00EE100A56F81C0C56F8181C3A460F
:10300000CDE90501B8EEC00AA6F15400414621EE13
:10301000001A22EE002A23EE000A21EE081A22EE00
:10302000092A20EE0A0A8DED032A21EE091A8DEDF8
:10303000040A8DED021A00F057FA0028B6D1BDF847
:103040001C1020685A460BF06FFB0146022818BF7F
:1030500003200029AAD1009806F813AC46E000BF6F
:1030600018B916F8040C0028A2D056F8100C281A2B
:103070009ED4A6F15400394600F0F6F9002895D107
:10308000BDF81C1020685A460BF04EFB0146022882
:1030900018BF032000297FF489AF002006F8130C25
:1030A0004FF0000A1FE000BF00283FF581AFA6F1F6
:1030B0005400394600F0F8F900287FF477AFBDF8E6
:1030C0001C1020685A460BF02FFB0146022818BF3F
:1030D000032000297FF46AAF16F8040C06F813AC3D
:1030E000FF2802D0013006F8040C019846F8100CB5
:1030F0005EE700BF0AB0BDEC068B01B0BDE8F08F03
:1031000035FA8E3C6666E63FE4380E3F000000006C
:1031100070B588B0002879D01446002A4FF001031A
:1031200075D090F8C522002A71D094ED000A9FED69
:10313000605AB4EE450A0123F1EE10FA67DC9FED08
:103140005D6AB4EE460AF1EE10FA60DB94ED011A06
:103150000123B4EE451AF1EE10FA58DCB4EE461A2B
:10316000F1EE10FA53DB94ED022A0123B4EE452A66
:10317000F1EE10FA4BDCB4EE462AF1EE10FA46DB23
:1031800094ED033A0123B4EE453AF1EE10FA3EDC39
:10319000B4EE463AF1EE10FA39DB94ED044A01231D
:1031A000B4EE454AF1EE10FA31DCB4EE464AF1EEE7
:1031B00010FA2CDB90F8C42262B3C2F1000E00F1C9
:1031C000B40C002203253CF8B03C8B4226D00EEB19
:1031D0000503022B1ED03CF8586C8E4222D0012BE6
:1031E00018D0BCF800608E4222D09BB1BCF8583099
:1031F0008B421FD004350CF5B07C0EEB0503043276
:10320000032B4FF00103DED101E000BF012318467C
:1032100008B070BD0123184608B070BDACF1B00C09
:103220000CE000BF42F00102ACF1580C06E000BF18
:103230006A1E03E042F003020CF1580C58219FED86
:103240001E6A02FB0105694605AA8DED033A8DED64
:10325000044A95F9440005EE100A6046B8EEC55AD6
:1032600020EE050A21EE051A22EE052A9FED145ADA
:1032700020EE060A9FED116A21EE061A8DED011A65
:1032800020EE060A8DED000A22EE050A8DED020AF7
:1032900000F02AF903460028B9D105F1300C94E872
:1032A0004F008CE84F000023AB64184608B070BD97
:1032B000FFFF7F7FFFFF7FFF35FA8E3C6666E63FAC
:1032C000E4380E3F000000002DE9F04383B038B32E
:1032D000044690F8C50218B394F8C40200B3424201
:1032E00004F1B4000027032330F8B06C8E421DD0E7
:1032F000D618022E14D030F8585C8D4218D0012E0A
:103300000ED005888D4217D056B1B0F858608E4265
:1033100014D0043300F5B070D6180437032EE3D16F
:103320000125284603B0BDE8F08300BFB03808E0AF
:1033300047F00107583804E05F1E02E047F003073A
:103340005830582107FB014191F8562042B991F8B5
:10335000551029B9582107FB014616F8571F29B106
:103360000225284603B0BDE8F08300BFE846414689
:1033700000F0F6F90546F0B95820002507FB004992
:10338000C9F83050D9F82C00C9F84C0003F078FB8C
:10339000BDF80010C9F8500001203070206808F115
:1033A000030289F858500BF0BFF90146022818BFF4
:1033B000032110B10D4600203070582007FB00405B
:1033C00080F84550284603B0BDE8F08300000000B7
:1033D00080B5002845D090F8C422002A41D0511E63
:1033E00002F0030C03294FF000011AD302F0FC0293
:1033F0000346C2F1000E0022043A83F85510996486
:10340000964583F8AD10C3F8A01083F80511C3F8F2
:10341000F81083F85D11C3F8501103F5B073EBD1C8
:103420005142BCF1000F1CD04FF0580E002201FB9E
:103430000E03BCF1010F83F855209A6411D04B1C88
:10344000BCF1020F03FB0E0383F855209A6408BFFA
:1034500080BD0231582201FB0200002180F8551086
:10346000816480BD00000000024600284FF001008A
:1034700018BF002900D1704713880020B0EBD32F6C
:1034800002D00120704700BF886048600860128841
:103490000A8008228A704FF0FF32C1F80320C1F879
:1034A0000620FD228A727047024600284FF0010074
:1034B00018BF002900D1704713880020B0EBD32F2C
:1034C00002D00120704700BF886048600860128801
:1034D0000A8008228A704FF0FF32C1F80320C1F839
:1034E0000620FC228A727047B0B5034600284FF0D0
:1034F000010018BF002901D1B0BD00BF91ED000A45
:103500009FED901AB4EE410A0120F1EE10FAF3DCBF
:103510009FED8D2AB4EE420AF1EE10FAECDB93ED4A
:10352000023AB1EE434AB4EE440AF1EE10FAE3DB9C
:10353000B4EE430AF1EE10FADEDC91ED010A01204F
:10354000B4EE410AF1EE10FAD6DCB4EE420AF1EE26
:1035500010FAD1DB93ED033AB1EE434AB4EE440ADC
:10356000F1EE10FAC8DBB4EE430AF1EE10FAC3DC58
:1035700091ED020A0120B4EE410AF1EE10FABBDC33
:10358000B4EE420AF1EE10FAB6DB93ED043AB1EE76
:10359000434AB4EE440AF1EE10FAADDBB4EE430A4E
:1035A000F1EE10FAA8DC91ED033A0120B4EE413AB5
:1035B000F1EE10FAA0DCB4EE423AF1EE10FAA4BF3C
:1035C000B5EE403AF1EE10FA96DB9FED600AB4EEEC
:1035D000403AF1EE10FAC8BFB0BD002A4FF001002A
:1035E0003FF48AAF91ED043AB4EE413AF1EE10FAAD
:1035F0003FF782AFB4EE423AF1EE10FAA4BFB5EE57
:10360000403AF1EE10FAFFF677AFB1EE041AB4EEDD
:10361000413AF1EE10FA3FF76FAFB3F800C0002067
:10362000B0EBDC2F02D00120B0BD00BF9060506035
:10363000106093ED022A91ED004AB1EE423A91ED0D
:10364000016A84FE425AD1ED020AB4EE443A93ED87
:10365000034AF1EE10FA86FE447A33FE053AB1EEE3
:10366000445A32EE033AB4EE465A9FED396AF1EE0F
:1036700010FA23EE063A93ED046A35FE075A32EE4D
:10368000022AB1EE467A34EE055A83EE022A9FED05
:10369000313A34EE044A25EE035AC0FEC61AB4EE9F
:1036A000607AD1ED040AF1EE10FA85EE044A37FE95
:1036B000215A91ED037A87FE407ADFED271AC0FE8A
:1036C000C10A198836EE055A118087FE217A082131
:1036D000C0FEA10A917025EE035A27EE037A36EE5A
:1036E000066A20EE833A87EE000A85EE065A83EEDC
:1036F000011ABCEEC22ABCEEC44ABCEEC00ABCEE43
:10370000C53A12EE101ABCEEC11A14EE103A10EEC1
:1037100010EA117113EE10CA0D0A11EE104A1909C0
:103720005171190141EA1E21917121091172210182
:10373000D57082F807E041EA1C21517282F80AC074
:10374000B0BD00BFFFFF7F7FFFFF7FFF0000FA4398
:1037500000FF7F4700F07F450000000000000000F0
:10376000024600284FF0010018BF002900D1704721
:1037700013880020B0EBD32F02D00120704700BF88
:1037800088604860086012880A8008228A704FF0BA
:10379000FF32C1F80320C1F80620FE228A7270476A
:1037A000024600284FF0000018BF002900D17047E2
:1037B000B0B502F1140E906AD2E908459EE80850AF
:1037C00081E80850C1E903450028486118BF01207D
:1037D000BDE8B04070470000F0B581B00F2B054642
:1037E0004FF001001CD8DDB10F46114316460022F0
:1037F000B2EBD12F14D1281D28211C46FCF7FBFE6B
:1038000000200021C4F24810A8600020C4F2F0118A
:10381000C4F220102F80C5E9031000206E802C71A7
:1038200001B0F0BD0000000080B54FF0000C002892
:1038300018BF002A02D1604680BD00BF082BFAD114
:1038400043888B426CD192F800C003790CF00F01D1
:10385000994265D1B2F80110137992F803E090ED26
:10386000021A31EE012A90ED045A09BA9FED2D7A21
:10387000090C75EE050A4FFA8CFC00EE101A4FEA9F
:103880000E1192F805E041EA131103F00F03B8EEB0
:10389000400A03EE101A4EEA03215FFA8CFE06EE90
:1038A000101A22EE000A90ED032AB8EE433A4FEACE
:1038B0001E1132EE024AB1F10F03B8EE466A80EEF5
:1038C000070A24EE033A20EE864A30EE410A9FEDC5
:1038D000161A83EE013A80ED050A84EE011A33EEE2
:1038E000420A80ED060A31EE450A80ED070A18BF4C
:1038F0004FEA1E1380F8221003EADC1180F823102F
:1039000091794FF0010C80F820100299D279416230
:1039100080F82120826A511C8162604680BD00BF10
:10392000002080BD00FF7F4700F07F4500000000C1
:1039300072B600BFFEE7000044F60400C5F60200C0
:10394000816841F0020181600168890409D401683D
:1039500089045CBF01685FEA814102D4016889047F
:10396000F2D570470000000040F61850C2F2004047
:1039700002F032B90000000040F6B850C2F2004038
:1039800002F02AB90000000040F65860C2F2004080
:1039900002F022B90000000010B540F29C24C2F2EF
:1039A00000442078012815D142F2D870C2F20040BC
:1039B00009F03AFC10B1012010BD00BF20780128A9
:1039C00008D142F6EC10C2F20040BDE810400AF007
:1039D00017BD00BF002010BD40F29C20C2F2004085
:1039E000017842F2D870C2F20040002908BF0846B0
:1039F000704700000000000040F29C20C2F200402E
:103A0000017842F6EC10C2F20040002908BF0846D7
:103A1000704700000000000040F6B852C2F20042B9
:103A200090420DD040F65862C2F20042904218BF58
:103A3000704742F6EC10C2F200400AF0EDBC00BF45
:103A400042F2D870C2F2004009F0FABB0000000058
:103A500040F6B852C2F2004290420DD040F6586291
:103A6000C2F20042904218BF704742F6EC10C2F218
:103A700000400AF0E1BC00BF42F2D870C2F2004040
:103A800009F0EEBB00000000B0B540F29C25C2F288
:103A90000045297811B10020B0BD00BF044678B1BF
:103AA000606868B1207A58B1227842F2D87040F646
:103AB000B851C2F20040C2F2004109F01DFC08B149
:103AC0000120B0BD237A42F6EC1040F658616268DE
:103AD000C2F20040C2F200410AF0FAFC40B142F2E8
:103AE000D870C2F2004009F003FD0120B0BD00BF54
:103AF0000020686001212970B0BD000000000000B6
:103B000040F29C20C2F200400078012806D142F227
:103B1000D870C2F2004009F087BB00BF0020704798
:103B2000B0B540F29C25C2F200452878012818BFA4
:103B3000B0BD02F0A5FF2978012934D1044642F234
:103B4000D870C2F2004009F06FFB08B36868201A11
:103B500029D404F16400686042F2D870C2F20040D7
:103B600009F062FB28B142F2D870C2F2004009F0BD
:103B700047FC42F6EC10C2F200400AF041FC90B162
:103B800042F6EC10C2F200400AF09AFD0BE000BFD2
:103B90002878012807D142F6EC10C2F200400AF062
:103BA0002FFC0028D2D142F2D870C2F2004009F0B6
:103BB000F3FB42F6EC10C2F20040BDE8B0400AF060
:103BC00037BD00000000000040F29C20C2F200401F
:103BD0000078012806D142F6EC10C2F200400AF04B
:103BE0000FBC00BF0020704710B540F29C24C2F209
:103BF00000442078012818BF10BD42F2D870C2F2EC
:103C0000004009F075FC42F6EC10C2F200400AF0E8
:103C1000BFFD0020207010BD2DE9F041044602F0E8
:103C20002FFF3CB3054694F83500022826D12768BB
:103C300040F20F46C4F2020640F26F483868B742BD
:103C400020F0010038606FF00E00C4F202081DDCA5
:103C50006F21C4F202018F422ADC3F21C4F202012B
:103C60008F4241DC1021C4F202018F4263D028212F
:103C70005CE000BF0120BDE8F08100BF80206065EE
:103C80000120002184F83410BDE8F08147451BDC99
:103C900040F23F41C4F202018F422DDC40F210415C
:103CA000C4F202018F4246D040F228413EE000BFFC
:103CB0009F21C4F202018F4228DC7021C4F202016C
:103CC0008F4238D0882131E040F29F41C4F2020196
:103CD0008F4223DC40F27041C4F202018F422AD0AD
:103CE00040F2884122E000BF4021C4F202018F422D
:103CF00021D058211AE000BF40F24041C4F2020135
:103D00008F4218D040F2584110E000BFA021C4F209
:103D100002018F420FD0B82108E000BF40F2B84145
:103D2000C4F202018F4206D040F2A041C4F2020167
:103D30008F42394607D13946386820F01E0041F8D5
:103D4000140B6FF080000A68474500EA0200086023
:103D50001ADC9F20C4F20200874233DC5720C4F2F1
:103D6000020087425ADC1020C4F20200874200F0B1
:103D700097802820C4F20200874200F09180402002
:103D8000C4F202008AE000BF45F22F40C5F60200EF
:103D900087422DDC40F2B740C4F2020087424BDC80
:103DA00040F27040C4F20200874279D040F288406D
:103DB000C4F20200874273D040F2A040C4F2020075
:103DC0006CE000BF40F22740C4F20200874243DCAF
:103DD000A020C4F20200874262D0B820C4F20200E0
:103DE00087425DD040F21040C4F2020056E000BFAE
:103DF00045F26B40C5F6020087423FDC45F2304099
:103E0000C5F6020087424BD045F24440C5F6020099
:103E1000874245D045F258403EE000BF5820C4F2EA
:103E2000020087423CD07020C4F20200874237D0A3
:103E30008820C4F2020031E040F2B840C4F202002F
:103E400087422DD045F20840C5F60200874227D0B0
:103E500045F21C4020E000BF40F22840C4F20200BE
:103E600087421DD040F24040C4F20200874217D082
:103E700040F25840C4F2020010E000BF45F26C402E
:103E8000C5F6020087420BD045F29440C5F6020009
:103E9000874205D045F28040C5F60200874205D131
:103EA000206E016821F48071016000BF3868C0078E
:103EB00010D002F0E5FD401B0628F7D320206065F6
:103EC000032084F835000120002184F83410BDE877
:103ED000F08100BF2068B04210DC6F21C4F2020103
:103EE00088421DDC3F21C4F20201884234DC1021EB
:103EF000C4F20201884255D028214FE040451BDC26
:103F000040F23F41C4F2020188422DDC40F21041F0
:103F1000C4F20201884245D040F228413EE000BF91
:103F20009F21C4F20201884228DC7021C4F2020100
:103F3000884237D0882131E040F29F41C4F202012B
:103F4000884223DC40F27041C4F20201884229D049
:103F500040F2884122E000BF4021C4F202018842C1
:103F600020D058211AE000BF40F24041C4F20201C3
:103F7000884217D040F2584110E000BFA021C4F29F
:103F8000020188420ED0B82108E000BF40F2B841DB
:103F9000C4F20201884205D040F2A041C4F20201FD
:103FA00088425BD1D4E9161202F01F023F2303FAC4
:103FB00002F28A6040455BDC9F21C4F20201884224
:103FC00014DC5721C4F20201884227DC1021C4F21C
:103FD0000201884200F0A2802821C4F20201884236
:103FE00000F09C804021C4F2020195E040F227419C
:103FF000C4F2020188421FDCA021C4F202018842FF
:1040000000F08C80B821C4F20201884200F0868062
:1040100040F21041C4F202017EE000BF5821C4F218
:10402000020188427AD07021C4F20201884275D020
:104030008821C4F202016FE040F22841C4F202017B
:1040400088426BD040F24041C4F20201884265D000
:1040500040F25841C4F202015EE000BFD4E91612FA
:1040600002F01F02012303FA02F24A604045A3DD79
:1040700045F22F41C5F60201884217DC40F2B741F4
:10408000C4F20201884227DC40F27041C4F202010E
:10409000884243D040F28841C4F2020188423DD0B8
:1040A00040F2A041C4F2020136E000BF45F26B418C
:1040B000C5F6020188421FDC45F23041C5F6020117
:1040C00088422BD045F24441C5F60201884225D0F2
:1040D00045F258411EE000BF40F2B841C4F202016F
:1040E00088421BD045F20841C5F60201884215D02E
:1040F00045F21C410EE000BF45F26C41C5F60201DD
:1041000088420BD045F29441C5F60201884205D0A1
:1041100045F28041C5F6020188420BD1616EA26E64
:10412000E06E4A6030B1016821F480710160D4E929
:104130001C014160012084F835000020002184F832
:104140003410BDE8F081000080B5D8B190F835108A
:10415000022919D140F20F420168C4F202029142D1
:1041600016DC6F23C4F20203994227DC3F23C4F21A
:10417000020399423EDC1023C4F2020399425FD04D
:10418000282359E0012080BD80214165012080BDA8
:1041900040F26F43C4F2020399421BDC40F23F43FA
:1041A000C4F2020399422DDC40F21043C4F2020330
:1041B000994245D040F228433EE000BF9F23C4F21D
:1041C0000203994228DC7023C4F20203994237D0DB
:1041D000882331E040F29F43C4F20203994223DC7A
:1041E00040F27043C4F20203994229D040F288435E
:1041F00022E000BF4023C4F20203994220D058239A
:104200001AE000BF40F24043C4F20203994217D0C3
:1042100040F2584310E000BFA023C4F202039942C9
:104220000ED0B82308E000BF40F2B843C4F2020346
:10423000994205D040F2A043C4F20203994275D1DD
:1042400091424FF0040280F8352011DC6F20C4F257
:104250000200814222DC3F20C4F20200814239DCAC
:104260001020C4F20200814259D0282054E000BF3F
:1042700040F26F40C4F2020081421BDC40F23F403A
:10428000C4F2020081422DDC40F21040C4F2020070
:10429000814244D040F228403EE000BF9F20C4F25B
:1042A0000200814228DC7020C4F20200814236D034
:1042B000882031E040F29F40C4F20200814223DCBA
:1042C00040F27040C4F20200814228D040F288409F
:1042D00022E000BF4020C4F2020081421FD05820DB
:1042E0001AE000BF40F24040C4F20200814216D002
:1042F00040F2584010E000BFA020C4F2020081420A
:104300000DD0B82008E000BF40F2B840C4F202006F
:10431000814204D040F2A040C4F202008142086809
:1043200020F001000860002080BD00BF0A6822F074
:1043300001020A6045F25742C5F6020291420A683C
:1043400022F00E020A600FDC45F22F42C5F602028F
:10435000914219DC45F20842C5F60202914229D089
:1043600045F21C4222E000BF45F27F42C5F6020240
:10437000914213DC45F25842C5F60202914219D02F
:1043800045F26C4212E000BF45F23042C5F602022F
:1043900091420FD045F2444208E000BF45F29442FA
:1043A000C5F60202914205D045F28042C5F60202EE
:1043B00091421AD1D0E9181CD0E916E30A6822F418
:1043C00080720A6003F01F01012202FA01F1CEF8A7
:1043D0000410816ECCF80410C16E31B10A6822F469
:1043E00080720A60D0E91C124A60012180F8351001
:1043F000026D002180F834100AB190470021084670
:1044000080BD000000000000406D7047000000000B
:104410002DE9F04782B00021019140F208010446E5
:10442000C2F2004148F2B512C1F64E32A56D0968DC
:1044300040F26F490068C4F20209A1FB0218484526
:104440002E68296816DC9F21C4F2020188422DDC07
:104450005721C4F20201884252DC1021C4F2020149
:1044600088427CD02821C4F20201884277D04021C2
:1044700070E000BF45F22F42C5F60202904229DCEF
:1044800040F2B742C4F20202904245DC40F2704171
:10449000C4F20201884262D040F28841C4F20201B3
:1044A00088425CD040F2A04154E000BF40F2274176
:1044B000C4F2020188423FDCA021C4F2020188421A
:1044C0004DD0B821C4F20201884248D040F21041D8
:1044D00040E000BF45F26B42C5F60202904275DC37
:1044E00045F23042C5F60202904200F0828045F269
:1044F0004442C5F6020290427BD045F2584273E036
:104500005821C4F20201884229D07021C4F202016C
:10451000884224D088211DE040F2B842C4F2020251
:1045200090421CD045F20842C5F60202904260D08B
:1045300045F21C4258E000BF40F22841C4F202019B
:1045400088420CD040F24041C4F20201884206D0B9
:1045500040F25841C4F20201884240F05A83E16DB2
:10456000082201F01F0140F20F4A8A40C4F2020AF9
:10457000324200F0E68050454FF0040312DC6F2712
:10458000C4F20207B8426FDC3F27C4F20207B84208
:1045900000F3A4801027C4F20207B84200F0C580DF
:1045A0002827BDE048456BDC40F23F47C4F20207D4
:1045B000B84200F39B8040F21047C4F20207B842B1
:1045C00000F0B38040F22847AAE000BF45F26C42F9
:1045D000C5F6020290420CD045F28042C5F60202B6
:1045E000904206D045F29442C5F60202904240F055
:1045F00010830268E36D03F01F0304279F400F42FE
:1046000018BF12F0040621D102279F400F4218BFA5
:1046100012F002064CD1D940090740F1FA8212F09B
:10462000080100F0F682016821F00E01016001200E
:1046300000FA03F16960606584F835000020E16CE0
:1046400084F83400002940F0DC82E2E211046F605B
:1046500026D4910603D4016821F004010160216C85
:10466000002940F0CE82D4E29F27C4F20207B8426C
:1046700046DC7027C4F20207B84256D088274FE0C4
:1046800040F29F47C4F20207B84241DC40F2704753
:10469000C4F20207B84248D040F2884740E000BF69
:1046A000D00300F1B382216C002940F0AA82B0E26D
:1046B00011046F6000F1B482910609D4016821F001
:1046C0000A010160012084F83500002084F83400DC
:1046D000E16B002940F095829BE200BF4027C4F2C5
:1046E0000207B84221D058271AE000BF40F24047E5
:1046F000C4F20207B84218D040F2584710E000BF99
:10470000A027C4F20207B8420FD0B82708E000BFC4
:1047100040F2A047C4F20207B84206D040F2B847C0
:10472000C4F20207B84218BF082307681F4208D026
:10473000036823F004030360AA60626D42F0010283
:10474000626501228A4032426FD0504510DC6F23EF
:10475000C4F2020398421DDC3F23C4F202039842D4
:1047600034DC1023C4F20203984256D028234FE0D1
:1047700048451BDC40F23F43C4F2020398422DDC63
:1047800040F21043C4F20203984246D040F228435C
:104790003EE000BF9F23C4F20203984228DC70234E
:1047A000C4F20203984238D0882331E040F29F439C
:1047B000C4F20203984223DC40F27043C4F20203C5
:1047C00098422AD040F2884322E000BF4023C4F23E
:1047D0000203984221D058231AE000BF40F2404320
:1047E000C4F20203984218D040F2584310E000BFD0
:1047F000A023C4F2020398420FD0B82308E000BF00
:1048000040F2A043C4F20203984206D040F2B843FB
:10481000C4F20203984240F0098243691B0604D5A2
:10482000AA60626D42F00202626504228A4032424E
:104830006FD0504510DC6F23C4F2020398421DDC98
:104840003F23C4F20203984234DC1023C4F2020373
:10485000984256D028234FE048451BDC40F23F43A6
:10486000C4F2020398422DDC40F21043C4F202036A
:10487000984246D040F228433EE000BF9F23C4F256
:104880000203984228DC7023C4F20203984238D015
:10489000882331E040F29F43C4F20203984223DCB4
:1048A00040F27043C4F2020398422AD040F2884397
:1048B00022E000BF4023C4F20203984221D05823D3
:1048C0001AE000BF40F24043C4F20203984218D0FD
:1048D00040F2584310E000BFA023C4F20203984204
:1048E0000FD0B82308E000BF40F2A043C4F2020397
:1048F000984206D040F2B843C4F20203984240F016
:104900009D8103689B0704D5AA60626D42F0040292
:104910006265102202FA01F1314200F081805045B7
:104920004FF0080210DC6F23C4F2020398421DDC32
:104930003F23C4F20203984234DC1023C4F2020382
:10494000984256D028234FE048451BDC40F23F43B5
:10495000C4F2020398422DDC40F21043C4F2020379
:10496000984246D040F228433EE000BF9F23C4F265
:104970000203984228DC7023C4F20203984238D024
:10498000882331E040F29F43C4F20203984223DCC3
:1049900040F27043C4F2020398422AD040F28843A6
:1049A00022E000BF4023C4F20203984221D05823E2
:1049B0001AE000BF40F24043C4F20203984218D00C
:1049C00040F2584310E000BFA023C4F20203984213
:1049D0000FD0B82308E000BF40F2A043C4F20203A6
:1049E000984206D040F2B843C4F20203984218BF7E
:1049F00004220368134213D0A960016849030168C7
:104A000008D4C90508D4016821F008010160216CAF
:104A100021B905E008034FD4216C09B1204688472D
:104A2000E06D00F01F01202000FA01F2324200F098
:104A3000AB8020681023504510DC6F27C4F20207BA
:104A4000B8421DDC3F27C4F20207B84238DC102709
:104A5000C4F20207B8425AD0282753E048451BDC6D
:104A600040F23F47C4F20207B84231DC40F210473F
:104A7000C4F20207B8424AD040F2284742E000BFE1
:104A80009F27C4F20207B8422CDC7027C4F2020749
:104A9000B8423CD0882735E040F29F47C4F2020775
:104AA000B84227DC40F27047C4F20207B8422ED069
:104AB00040F2884726E000BFA16C0029AED1AFE7E5
:104AC0004027C4F20207B84221D058271AE000BF9D
:104AD00040F24047C4F20207B84218D040F25847AB
:104AE00010E000BFA027C4F20207B8420FD0B827D9
:104AF00008E000BF40F2A047C4F20207B84206D067
:104B000040F2B847C4F20207B84218BF0223076850
:104B10001F4239D0AA6094F83520042A02681BD1BC
:104B200022F016020260426922F080024261226C89
:104B30000AB9A26C1AB1026822F0080202603F2092
:104B40008840A860012084F83500216D00200029EC
:104B500084F8340055D15CE0510301680ED4C905D6
:104B60000ED4016821F010010160012084F83500A5
:104B7000002084F83400E16B21B905E008034BD430
:104B8000E16B09B120468847606D002841D0606D17
:104B9000C00734D0042084F8350020684FEA9821FB
:104BA000026822F001020260019A013201928A42F7
:104BB0001AD80268D20717D0019A013201928A42AC
:104BC00012D80268D2070FD0019A013201928A42AC
:104BD0000AD80268D20707D0019A013201928A42AC
:104BE00002D80268D207DFD10068C0074FF0030087
:104BF00008BF012084F83500002084F83400E16CFF
:104C000039B1204602B0BDE8F0470847A16C002941
:104C1000F7D102B0BDE8F087616C0029B2D1B3E7EB
:104C2000D0030DD4616C0029EBD1F2E702680422B5
:104C30008A4032427FF4FDAD6BE600BF026868E651
:104C4000E16B0029DDD1E4E72DE9F041044601F0F4
:104C500017FFFCB140F26F4805462068C4F2020815
:104C600040451BDC9F21C4F20201884232DC5721FF
:104C7000C4F20201884259DC1021C4F202018842C8
:104C800000F083802821C4F20201884200F07D8078
:104C9000402175E00120BDE8F08100BF45F22F41C1
:104CA000C5F60201884229DC40F2B741C4F2020194
:104CB000884247DC40F27041C4F20201884264D06D
:104CC00040F28841C4F2020188425ED040F2A04125
:104CD00056E000BF40F22741C4F20201884241DCA5
:104CE000A021C4F2020188424FD0B821C4F20201CF
:104CF00088424AD040F2104142E000BF45F26B4189
:104D0000C5F60201884200F3BB8045F23041C5F68A
:104D10000201884200F0C78045F24441C5F6020115
:104D2000884200F0C08045F25841B7E05821C4F2F3
:104D30000201884229D07021C4F20201884224D0A5
:104D400088211DE040F2B841C4F2020188421CD023
:104D500045F20841C5F60201884200F0A48045F200
:104D60001C419BE040F22841C4F2020188420CD071
:104D700040F24041C4F20201884206D040F258415C
:104D8000C4F20201884240F06982022184F83510A1
:104D9000002184F83410016821F0010101600168EC
:104DA000C90708D001F06CFE401B052860D82068B8
:104DB0000168C907F6D148F23F0204F1080601680C
:104DC000CFF610621140D4F818C06CCE11431943CD
:104DD000E3692943256A0E43616A46EA0C06042901
:104DE00043EA060343EA050303D1D4E90B653343E1
:104DF0002B43666843F4801526F00302A6F1290EC2
:104E0000742AA6F14F0208BF2B46A6F13F07473E82
:104E1000042A38BF2B46022E38BF2B46042F38BF3A
:104E20002B46BEF1060F38BF2B46042903604269AA
:104E300022F0070241EA020140F0F280D4E90A536D
:104E4000002B41EA050100F0EB80BCF5005F00F0AB
:104E5000CD80BCF1000F40F0D580022D00F0D58050
:104E6000012D00F0C980002D00F0CF80D8E000BFF8
:104E700020206065032084F835000120BDE8F08122
:104E800045F26C41C5F6020188420CD045F28041E2
:104E9000C5F60201884206D045F29441C5F60201EA
:104EA000884240F0DB81022184F83510002184F82B
:104EB00034100168A268A2F18003E768B3FA83F3B3
:104EC000402A4FEA53134FEA83336FF3101108BFA0
:104ED0001023226941EAD70167691943A36941EAAE
:104EE000D201E26941EAD70141EAD3014CF6CD4350
:104EF00041EAD2014AF6F832CAF2FD72276A024448
:104F0000CCF6CC43A2FB032341EA171101606FF0FA
:104F1000030000EA9300E0652046FDF721F9E16D0A
:104F2000012201F01F0102FA01F1416020684045B1
:104F300040F3858045F22F41C5F60201884217DC17
:104F400040F2B741C4F20201884229DC40F27041CC
:104F5000C4F20201884200F0BC8040F28841C4F2F1
:104F60000201884200F0B58040F2A041ACE000BFF1
:104F700045F26B41C5F60201884223DC45F230411F
:104F8000C5F60201884200F0A48045F24441C5F60E
:104F90000201884200F09D8045F2584122E000BFA6
:104FA00040F2B841C4F20201884200F0928045F21A
:104FB0000841C5F60201884200F08B8045F21C4191
:104FC00010E000BF45F26C41C5F60201884200F0D6
:104FD000808045F29441C5F60201884200F0798054
:104FE00045F28041C5F6020170E000BF032D17D8DD
:104FF000DFE805F00E0B0E02A3F1C072B2FA82F2E6
:10500000520904E0032D03D30AD1C3F300623AB17D
:1050100040206065012084F83500BDE8F08100BFC4
:1050200041612046FDF79CF8E16D3F2201F01F0130
:1050300002FA01F18160206840453FF77BAF9F2174
:10504000C4F20201884211DC5721C4F202018842F5
:1050500020DC1021C4F2020188423AD02821C4F297
:105060000201884235D040212EE000BF40F22741A6
:10507000C4F20201884219DCA021C4F20201884274
:1050800027D0B821C4F20201884222D040F2104158
:105090001AE000BF5821C4F20201884219D07021E1
:1050A000C4F20201884214D088210DE040F2284168
:1050B000C4F2020188420CD040F24041C4F2020125
:1050C000884206D040F25841C4F20201884240F0C2
:1050D000E98045F2574C45F6FC01C5F6020CC5F6D1
:1050E0000201604512DC45F22F42C5F602029042F1
:1050F00020DC45F20842C5F60202904234D045F267
:105100001C42C5F6020290422ED075E045F27F4265
:10511000C5F6020290421BDC45F25842C5F6020277
:10512000904221D045F26C42C5F6020290421BD05B
:1051300062E000BF45F23042C5F60202904213D051
:1051400045F24442C5F6020290420DD054E000BF41
:1051500045F29442C5F60202904205D045F28042E3
:10516000C5F60202904247D16FF007024CF6CD43DC
:1051700052FA80F2CCF6CC43A2FB0323A1F1FC054A
:10518000A1F17C061B0905EB830503F01F02A36850
:105190002566802B4FF0010303FA02F26666A266D1
:1051A00004D100206060286072601DE06768FBB277
:1051B000013F072F2B60726016D85E1E082E19D291
:1051C000604501F1440239DC45F22F47C5F602077C
:1051D000B84245DC45F20847C5F60207B84255D04B
:1051E00045F21C474EE000BF00206067C4E91B0089
:1051F00058E000BFE06E50E06FF00F024AF6AB23BC
:1052000052FA80F2CAF6AA23A2FB032740F20F4308
:10521000C4F2020308253A09984203F1AA0613468C
:1052200088BF05EB171340F60005B042C4F2020533
:1052300005F1800628BF1346A5E700BF45F27F476A
:10524000C5F60207B84215DC45F25847C5F6020715
:10525000B8421BD045F26C4714E000BF402008E67E
:1052600045F23047C5F60207B8420FD045F2444731
:1052700008E000BF45F28047C5F60207B84205D0F6
:1052800045F29447C5F60207B84213D101EB8300FB
:105290000121E066B1402267616700210160D4E925
:1052A0001C01416000206065012184F83510BDE8D3
:1052B000F08100BF40F60000C4F2020000F1FC01E2
:1052C00000F5A072E2E70000B0B500283CD005462A
:1052D00090F83400012801D10220B0BD012085F8EA
:1052E000340095F83500012828D1022085F83500D2
:1052F000002068652868046824F0010404602846DA
:10530000FCF7C6FF40F20F422868C4F2020240F2E6
:105310006F419042C4F2020118DC6F23C4F2020311
:10532000984225DC3F23C4F2020398423CDC102360
:10533000C4F2020398425ED0282357E04FF4006085
:105340006865002085F834000120B0BD88421BDC70
:1053500040F23F43C4F2020398422DDC40F2104376
:10536000C4F20203984246D040F228433EE000BF18
:105370009F23C4F20203984228DC7023C4F2020384
:10538000984238D0882331E040F29F43C4F20203B0
:10539000984223DC40F27043C4F2020398422AD0C0
:1053A00040F2884322E000BF4023C4F20203984247
:1053B00021D058231AE000BF40F24043C4F2020358
:1053C000984218D040F2584310E000BFA023C4F226
:1053D000020398420FD0B82308E000BF40F2B84360
:1053E000C4F20203984206D040F2A043C4F2020382
:1053F000984240F02F8103680B2464F34403036058
:105400002B6C1BB10823046823430360884219DC1A
:105410009F23C4F20203984232DC5723C4F20203F2
:10542000984259DC1023C4F20203984200F096809F
:105430002823C4F20203984200F090804023C4F273
:10544000020389E045F22F43C5F6020398422DDCA2
:1054500040F2B743C4F2020398424BDC40F270437F
:10546000C4F20203984279D040F28843C4F20203A6
:10547000984273D040F2A043C4F202036CE000BF34
:1054800040F22743C4F20203984243DCA023C4F253
:105490000203984262D0B823C4F2020398425DD05E
:1054A00040F21043C4F2020356E000BF45F26B43E2
:1054B000C5F6020398423FDC45F23043C5F60203CD
:1054C00098424BD045F24443C5F60203984245D07A
:1054D00045F258433EE000BF5823C4F2020398420D
:1054E0003CD07023C4F20203984237D08823C4F220
:1054F000020331E040F2B843C4F2020398422DD0D7
:1055000045F20843C5F60203984227D045F21C43F2
:1055100020E000BF40F22843C4F2020398421DD0AD
:1055200040F24043C4F20203984217D040F258437D
:10553000C4F2020310E000BF45F26C43C5F602035B
:1055400098420BD045F29443C5F60203984205D029
:1055500045F28043C5F60203984274D12B6E1C6855
:10556000E40303D51C6844F480741C60EB6E1BB12B
:105570001D6845F480751D60904211DC6F21C4F2F6
:10558000020188421EDC3F21C4F20201884235DC60
:105590001021C4F20201884255D0282150E000BFFA
:1055A00088421BDC40F23F41C4F2020188422DDCFC
:1055B00040F21041C4F20201884244D040F2284136
:1055C0003EE000BF9F21C4F20201884228DC702126
:1055D000C4F20201884236D0882131E040F29F4176
:1055E000C4F20201884223DC40F27041C4F202019D
:1055F000884228D040F2884122E000BF4021C4F216
:10560000020188421FD058211AE000BF40F24041F9
:10561000C4F20201884216D040F2584110E000BFA7
:10562000A021C4F2020188420DD0B82108E000BFD9
:1056300040F2B841C4F20201884204D040F2A041D5
:10564000C4F202018842016841F0010101600020BA
:10565000B0BD00BF0368052464F3430303602B6CF3
:10566000002B3FF4D3AE0423CDE600000000000081
:10567000B0B5044601F004FA40F200010546C2F25A
:105680000041621C097818BF0C4400BF01F0F8F912
:10569000401BA042FAD3B0BD90F89830013B012BDB
:1056A0000ED80068836D0B4212D0836D0B408B4285
:1056B00016D1C36D43F00203C3658B0514D418E003
:1056C00000F19C01012002220B681A430A60704716
:1056D000C36D43F00103C3658B0505D409E000BF2A
:1056E0000323C3658B0504D5D0F8E0301343C0F81D
:1056F000E0304B0504D5D0F8E4301A43C0F8E4207C
:105700004FF6FF72436DC3F6CF720A401A434265EB
:105710008A0F4AF614010020C4F200010B681A43F4
:105720000A607047000000002DE9F04390F89830BF
:10573000022B19D10668D6F8C03013F07C5F1DD05B
:10574000D6F8C4309B0223D4D6F8C4304D68002D5F
:105750000D69C3F3044C8B6824D00C682B4323439E
:1057600043F0804E22E000BFD0F89C1041F00801C9
:10577000C0F89C100120BDE8F08300BFD0F89C1059
:1057800041F02001C0F89C100120BDE8F08300BF6B
:10579000D0F89C1041F40071C0F89C100120BDE8C5
:1057A000F08300BF0C682B4343EA844E836ED0F82D
:1057B0008450D1E907970CFB03F48B6949EA07672A
:1057C000D1F81480D1F80C901F4305EB840347EA0D
:1057D000080745F824E047EA09475F60CF6887B1CA
:1057E00045F23005083303320024C0F6010500BF3E
:1057F000171957F8037C1F51CF680434EF5DBC4282
:10580000F6D3012101FA0CF1C6F8D010C0F89410BB
:105810000020BDE8F0830000704700000000000099
:1058200080B590F89820013A012A0BD80A68002A1E
:10583000CA680FD00B69072A43EA427E18D18B69E8
:105840001BE000BFD0F89C1041F00201C0F89C1092
:10585000012080BD072A19D10A69D1F81CC01204A1
:105860008B6942EA0C221A4342F0605218E000BFF2
:10587000D1F808C04B6943EA8C73006F496800EBAC
:10588000C10240F831E00020536080BD8B68D1F840
:1058900010C09B0743EAC2624B6942EA0C421A43BA
:1058A0004968C06E40F82120002080BD0000000043
:1058B00090F898C0BCF1010F0ED19200006842EA46
:1058C0000111DDF800C041EA430141EA0C01C0F8D2
:1058D00080100020704700BFD0F89C1041F00401F8
:1058E000C0F89C100120704790F89830012B0DD122
:1058F0004029006812D1D0F8A01021F0004141EAFF
:10590000C271C0F8A0100020704700BFD0F89C10F2
:1059100041F00401C0F89C1001207047D0F8B0108D
:1059200021F0004141EAC271C0F8B0100020704778
:105930007047000000000000FEF76EB80000000095
:105940000068426C02F007000860C2F30220486061
:10595000C2F3803302F018008860C2F34010C860C0
:10596000C2F380100861C2F3C0104861C2F3C020C6
:105970008861C2F30030C861C2F34030C1E9080356
:10598000C2F3064200208A62704700000000000057
:10599000B422402908BFA4220068805800F07F008C
:1059A00070470000000000002DE9F04390F8987067
:1059B000022F27D140292FD10668D6F8A07017F4FE
:1059C000FE0F00F0C780D6F8A4707F0600F0D480E8
:1059D000D6F8A470D6F8A450ED01C7F3052E0AD569
:1059E000D6F8A070B7F1FF3F05DC0EF10107D6F83D
:1059F000A06007EA164E00F1740400F14405F44675
:105A00003CE000BFD0F89C1041F00801C0F89C10A9
:105A10000120BDE8F08300BF412925D10668D6F8F2
:105A2000B07017F4FE0F00F09580D6F8B4707F06C2
:105A300000F0A280D6F8B470D6F8B450ED01C7F3E8
:105A4000052E0AD5D6F8B070B7F1FF3F05DC0EF190
:105A50000107D6F8B06007EA164E00F1780400F1AD
:105A60004C05F4460AE000BF076D8F4272D900F181
:105A70007C0400F154054FF0000C8E462D6824681C
:105A80000EFB05F504EB850E54F8257017F08047E2
:105A9000576054F8257027F0604608BFC7F38A4660
:105AA000166054F8257007F00057976054F82540A9
:105AB00004F000441461BEF80440D461BEF806400E
:105AC00014F00F04D460DEF8044004F48014546130
:105AD000DEF8044004F4001494619EF8074004F0DA
