:020000040800F2
:1000000038530020290200080D2D00089928000807
:10001000412C0008AD0500088145000800000000E3
:100020000000000000000000000000002140000867
:10003000E105000800000000112D000861400008E3
:10004000430200084302000843020008430200087C
:10005000430200084302000843020008430200086C
:10006000430200084302000843020008430200085C
:10007000430200084302000843020008430200084C
:10008000430200084302000843020008430200083C
:10009000430200084302000843020008430200082C
:1000A000430200084302000843020008430200081C
:1000B000430200084302000843020008430200080C
:1000C00043020008430200084302000843020008FC
:1000D0004302000869450008430200084302000883
:1000E00043020008430200084302000843020008DC
:1000F00043020008430200084302000843020008CC
:1001000043020008430200084302000843020008BB
:1001100043020008430200084302000843020008AB
:100120004302000843020008B1050008BD050008AD
:10013000C905000843020008430200084302000802
:10014000430200084302000843020008430200087B
:100150004302000843020008D50500087545000861
:10016000430200084302000843020008430200085B
:100170004302000843020008430200080000000098
:10018000430200084302000800F002F800F03CF8C7
:100190000AA090E8000C82448344AAF10107DA45E2
:1001A00001D100F031F8AFF2090EBAE80F0013F0F8
:1001B000010F18BFFB1A43F0010318473C6300000E
:1001C0005C630000103A24BF78C878C1FAD852079F
:1001D00024BF30C830C144BF04680C6070470000C1
:1001E0000023002400250026103A28BF78C1FBD840
:1001F000520728BF30C148BF0B6070471FB506F0DB
:100200002BF91FBD10B510BD00F04FF91146FFF7D7
:10021000F5FF04F0B7F900F06DF903B4FFF7F2FF52
:1002200003BC00F075F90000094880470948004701
:10023000FEE7FEE7FEE7FEE7FEE7FEE7FEE7FEE796
:10024000FEE7FEE704480549054A064B70470000F3
:100250003141000889010008384D00203853002042
:10026000384F0020384F002053EA020C00F069801C
:100270002DE9F04B4FF00006002B1FBFB3FA83F5BA
:1002800003FA05F424FA05F65E4012BF1643B2FAEB
:1002900082F502FA05F4C5F120051EBF22FA05FC1D
:1002A00044EA0C04203556EA044C4FEA144418BFC3
:1002B000641C4FF000084FF00009904271EB030CF2
:1002C00039D3002919BFB1FA81F701FA07F6B0FA5C
:1002D00080F700FA07F6C7F120071EBF20FA07FCD7
:1002E00046EA0C062037B6FBF4FCA7EB0507103FE7
:1002F00007F01F0BCBF120062CFA06F60CFA0BFBCD
:1003000044BFB3460026202FA4BF5E464FF0000B2B
:100310005BEA060C08BF4FF0010B19EB0B0948EB29
:100320000608ABFB027C06FB02CC0BFB03CCC01B1C
:1003300071EB0C01C1E70B46024641464846BDE859
:10034000F08B13B5084318BF4FF0FF300146AFF3F1
:100350000080BDE81C407047032A40F2308010F056
:10036000030C00F0158011F8013BBCF1020F624450
:1003700098BF11F801CB00F8013B38BF11F8013BE1
:10038000A2F1040298BF00F801CB38BF00F8013B8E
:1003900011F0030300F05780083AC0F0088051F8CC
:1003A000043B083A51F804CBA0E80810F5E7121D09
:1003B0005CBF51F8043B40F8043BAFF30080D20728
:1003C00024BF11F8013B11F801CB48BF11F8012BF4
:1003D00024BF00F8013B00F801CB48BF00F8012B17
:1003E000704702F0FF0343EA032242EA024200F0B0
:1003F00002B84FF0000200B51346944696462039E5
:1004000022BFA0E80C50A0E80C50B1F12001BFF4CD
:10041000F7AF090728BFA0E80C5048BF0CC05DF833
:1004200004EB890028BF40F8042B08BF704748BF81
:1004300020F8022B11F0804F18BF00F8012B7047F5
:1004400070477047704710B5203AC0F00B80B1E894
:100450001850A0E81850B1E81850A0E81850203AF9
:10046000BFF4F5AF5FEA027C24BFB1E81850A0E802
:10047000185044BF18C918C0BDE810405FEA827C1C
:1004800024BF51F8043B40F8043B08BF7047D20733
:1004900028BF31F8023B48BF11F8012B28BF20F8D4
:1004A000023B48BF00F8012B7047754600F02CF85E
:1004B000AE4605006946534620F00700854618B051
:1004C00020B5FFF7BFFEBDE820404FF000064FF01B
:1004D00000074FF000084FF0000BAC46ACE8C00935
:1004E000ACE8C009ACE8C009ACE8C00921F00701DC
:1004F0008D46704710B50446AFF300802046BDE836
:100500001040FFF78ABE000000487047100000202E
:1005100001491820ABBEFEE726000200704700002C
:100520000146806B036C026C13F0500F08D0D206AA
:1005300048BF00F0FFB8806BC26C0846104700BF90
:1005400042F40071016401688A6812F0405F01D0D2
:1005500000F0ECB8027E002AFAD1CA6A12F4700FD9
:1005600002D08A685205F3D44A6822F020024A6019
:10057000016C21F480710164016CC90448BF00F072
:10058000D5B8016C41F00101016400F0CFB8000062
:10059000806B40210164416C41F00401416400F032
:1005A000C9B80000806B00F0C3B80000FEE700008F
:1005B00040F29C30C2F2000000F098BB40F23C30A8
:1005C000C2F2000000F092BB40F2DC20C2F2000058
:1005D00000F08CBB40F2FC30C2F2000000F086BBA1
:1005E0007047000072B600BFFEE7000070B581B032
:1005F0000022009290F83C20012A03D102210846F3
:1006000001B070BDD1F800E00122BEF10A0F80F800
:100610003C200BD31FFA8EF25200066812FA8EF2BB
:10062000A2F11E0306F10C0205E000BF06680EEB06
:100630004E0306F110024FF0070C15680CFA03F494
:10064000A54315608D68146805FA03F3234313600E
:100650004968062906D801EB8101053906F1340203
:100660000AE000BF0C2901EB810187BF413906F187
:100670002C02233906F130021F2314688B4024EA30
:10068000030342F2043C1360C4F2010C1FFA8EF320
:10069000146803FA01F1ACF5417321439E421160E5
:1006A0003ED1BEF1120F07D1DCF8001041F48001F9
:1006B000CCF8001034E000BF2EF0010110292FD13A
:1006C000DCF80010BEF1100F41F40001CCF800106E
:1006D00026D140F20801C2F2000109684DF683629A
:1006E000C4F21B32A1FB0212910C01EB8101490003
:1006F00000910099A1B1009901390091009979B157
:10070000009901390091009951B100990139009186
:10071000009929B100990139009100990029EAD185
:10072000002180F83C10084601B070BD7047000001
:100730007047000070470000002804BF0120704788
:1007400010B50446006C00283ED0206CC00645D48D
:10075000206C41F202118843023042F204312064DD
:10076000C4F20101086820F4403008600A6894E887
:1007700009101A43D4F810E00A604168012321F4FB
:10078000807141604168C0F6007341EA0E2141600A
:10079000416821F040714160416841EA0C014160CB
:1007A000816821F400618160E168826811438160A1
:1007B000A16A8268994222F070628260826813D1D5
:1007C00022F0405119E000BF204600F065F80020FB
:1007D000606484F83C00206CC006B9D5012000217B
:1007E00084F83C1010BD00BF11438160816821F086
:1007F00040518160E16A826811438160816821F023
:10080000020181608168227E94F8203041EA420131
:100810008160416883B141F40061416041684EF2FA
:10082000000221F460414160616ACFF6FF724368C3
:1008300002EB4131194301E021F400614160C16ADA
:1008400040F2000C21F47001C162E2696169CFF6E7
:10085000F07CC36A0CEB02521A43C262826822F433
:100860000072826094F83020836843EA42228260FA
:10087000826822F480628260826842EA812181601B
:1008800000206064216C012262F3010121640021D7
:1008900084F83C1010BD00002DE9F04186B00446FC
:1008A000006842F20011C4F2010100268842CDE93D
:1008B0000466CDE90266019644D042F20001C4F21A
:1008C0000101884240F09E80002643F630000096E9
:1008D000C4F20200416941F480714161416901F44F
:1008E0008071009100990096016841F0010101605A
:1008F000006801A900F0010000900098C02001905C
:100900000320CDE902060020C4F2020000F0CAFC78
:1009100046F25840C4F2020040F2DC251830C2F220
:1009200000054FF48061C5E9000605F110004FF4A1
:1009300000624FF400534FF4807CC5E902660EC09C
:1009400051E000BF43F630000096C4F20200416956
:1009500040F2000841F4007141614169C4F20208AB
:1009600001F40071009100990096016801AD41F019
:10097000040101600168032701F00401009100995E
:100980000096016841F0020101600068294600F00C
:100990000200009000980C20019008F50060CDE95D
:1009A000027600F07FFC08F580602946CDE90177EA
:1009B000039600F077FC40F23C3546F25840C2F214
:1009C0000005C4F202004FF480624FF400634FF45C
:1009D00000574FF4807C4FF0007185E84300C5E973
:1009E0000362C5E905374FF4003028622846C5F890
:1009F0001CC06E6200F05AFA002818BFFFF7F2FD23
:100A0000A563AC6306B0BDE8F0810000B0B582B06C
:100A100004460020019094F83C00012802D10220F5
:100A200002B0B0BD94460A460120216884F83C001B
:100A30008868C00729D188684DF6836540F00100B9
:100A4000886040F20800C2F200000068C4F21B3562
:100A5000A0FB0505A80C00EB400001900198A0B197
:100A6000019801380190019878B1019801380190FE
:100A7000019850B1019801380190019828B101986E
:100A80000138019001980028EAD18868C00503D593
:100A9000886820F4807088608D68206CED0709D12B
:100AA00040F010002064606C40F0010060640020A1
:100AB00072E000BF40F20175A84300F58070206429
:100AC0004868400504D5206C012565F30D3020648D
:100AD000256C0020ED044FF0000544BF656C25F047
:100AE0000605656484F83C00A06B40F2215540F295
:100AF000A553C0F60005C0F60003C0E90F5340F24D
:100B00009153C0F60003C3646FF022030B604B687F
:100B100042F2080543F080634B608B68C4F2010524
:100B200043F480738B604C31634600F071FAD5F862
:100B3000FC222168D2060DD0A5F1080291422BD1EA
:100B4000296811F0405F27D1296841F08041296070
:100B500002B0B0BD42F20002C4F20102914217D0CD
:100B600042F20022C4F2010291420DD042F2001280
:100B7000C4F2010291420FD1D5F8FC22D20607D06F
:100B800005F5FC72914207D1D5F8FC22D20603D4B8
:100B90008A6812F0405F01D002B0B0BD8A6842F0AE
:100BA00080428A6002B0B0BD70B5866D044600F028
:100BB00063FC94F8351002292ED105462068216C7B
:100BC000026822F016020260426922F0800242614D
:100BD00009B9A16C19B1016821F00801016001682F
:100BE00021F0010101600068C00708D000F044FC5A
:100BF000401B052818D820680068C007F6D1E06DB2
:100C00003F2101FA00F0B060012084F83500002097
:100C1000002184F8341070BD80206065012000211F
:100C200084F8341070BD00BF20206065032084F874
:100C30003500002184F8341070BD000090F83510A4
:100C4000022909D1052180F835100068016821F0DA
:100C5000010101600020704780214165012070473B
:100C6000B0B5002840D090F83510022904BF02200A
:100C7000B0BD02686FF00F034AF6AB21D2F800C096
:100C800053FA82F5CAF6AA21A5FB011E2CF0010138
:100C9000116000212123116051609160D1601161C8
:100CA000536146F28A434FEA1E1CC0F6000313F854
:100CB0000C3040F2FF34A2435F2D4FF03F0588BF58
:100CC0000432C0E9162305FA03F3C0E90F11C0E9A5
:100CD0001111C0E913119360416580F8351080F857
:100CE00034100846B0BD00BF0120B0BDF0B581B0E2
:100CF00004460020009040F20800C2F200000268A2
:100D0000D4E9166048F2B51337680821C1F64E33AE
:100D100081403942A2FB03250CD0226813685B078F
:100D200008D5136823F004031360B160616D41F0CE
:100D30000101616501218140394208D02268526970
:100D4000120604D5B160616D41F0020161650421B4
:100D50008140394208D022681268920704D5B160F8
:100D6000616D41F00401616510218140394217D065
:100D700020680268120713D5B16002680168520347
:100D800008D4C90508D4016821F008010160216C6C
:100D900021B905E008033FD4216C09B120468847FA
:100DA000E16D202000FA01F23A4241D02068036848
:100DB000DB063DD5B26094F835300268052B1BD1B7
:100DC00022F016020260426922F080024261226C27
:100DD0000AB9A26C1AB1026822F0080202603F2030
:100DE0008840B060012084F83500216D0020002982
:100DF00084F8340052D157E00168520310D4C90579
:100E000012D4016821F010010160012084F835003E
:100E1000002084F8340007E0A16C0029BED1BFE7B0
:100E2000080301D4616C00E0E16B09B120468847FA
:100E3000606DC8B3606DC0072ED0052084F8350002
:100E40002068A90A026822F001020260009A0132B9
:100E50008A4200921AD80268D20717D0009A01324B
:100E60008A42009212D80268D2070FD0009A01324B
:100E70008A4200920AD80268D20707D0009A01324B
:100E80008A42009202D80268D207DFD1012084F89A
:100E90003500002084F83400E16C29B1204601B00F
:100EA000BDE8F040084700BF01B0F0BD2DE9F041BA
:100EB000044600F0E1FA002C4ED00546022084F8EA
:100EC00035000020216884F83400086820F0010013
:100ED00008600868C00708D000F0CEFA401B05285B
:100EE0006CD821680868C007F6D1086848F23F024C
:100EF000CFF21002D4E90135024004F10C0E9EE855
:100F0000C1511A432A4310433043384340EA080092
:100F1000626A40EA0C00042A40EA0E0320D1D4E9B8
:100F20000A5E206B4EEA0302104308604869BEF176
:100F3000000F20F0030040EA050040F0040C15D03B
:100F4000B8F5005F42D0B8F1000F51D1022D52D058
:100F5000012D47D055B94EE00120BDE8F08100BF1A
:100F60000B60486920F0070040EA020C6FF00F00A8
:100F70004AF6AB2250FA81F0CAF6AA22A0FB02235D
:100F80001A0946F28A43C0F600039A5C40F2FF3326
:100F90005F284FF03F00C1F814C021EA030100FAB6
:100FA00002F088BF0431C4E91612886000230122D0
:100FB0000020636584F83520BDE8F08103222023FA
:100FC0000320636584F83520BDE8F081032DCDD87A
:100FD000012240230120DFE805F0030E030500BFD6
:100FE000E7E700BFAEF1C070B0FA80F0400904E05E
:100FF000032D04D3BAD1CEF300600028B6D001226D
:1010000040230120636584F83520BDE8F0810000AD
:1010100070B590F834C0BCF1010F46D04FF0010C10
:1010200080F834C0D0F858E090F835C0BCF1010F1A
:1010300038D14FF0020C80F835C04FF0000CC0F8EA
:1010400054C0D0F800C08468056CC06DDCF8006046
:10105000402C26F48026CCF80060CCF804300B46F7
:1010600004BF13460A463F2101FA00F0CCF80830CD
:10107000CCF80C20CEF80800DCF8000040F0160098
:10108000CCF800002DB1DCF8000040F00800CCF8EE
:101090000000DCF8000040F00100CCF80000002067
:1010A00070BD00BF002180F83410022070BD000028
:1010B000B0B5044600F0E0F9054640F20000C2F287
:1010C00000000078611C18BF044400BF00F0D4F990
:1010D000401BA042FAD3B0BD2DE9F04F82B000F121
:1010E0003E4241F6004702F1FF72C4F202070826B1
:1010F00043F6004B4FEAB223B84208BF0726C4F2BA
:10110000010B072B38BF4FEAB22600270422022426
:1011100001230196009126E00368032606FA04F5F0
:101120006FF00306AB4306EA57070360074402F07B
:101130001C0C3E6A0F2303FA0CF326EA03033B62FE
:10114000C368AB43C360436803EA0A034360836830
:10115000AB438360012309F101070832102F04F12A
:10116000040400F09B8003FA07F50D4259D0111FCB
:101170004FEA970C0F23ABF57E78DE4601F0080BA3
:1011800058F82CA003FA0BF9019B0AEA090603FAA6
:101190000BF3F3469E426FEA050A1FD1DBF80030DD
:1011A00043F60C4503EA0A03CBF80030DBF80430C1
:1011B000C4F2010503EA0A03CBF804302B6803EA02
:1011C0000A032B60DBF8083003EA0A03CBF8083087
:1011D00058F82C3023EA090348F82C30A31E06687F
:1011E000032505FA03F301F0180C6FF003019E4389
:1011F00001EA570506600544D5F820E00F2101FA01
:101200000CF62EEA06062E62C6689E43C660466845
:1012100006EA0A064660866826EA030383600099A8
:10122000012307F1010903FA09F60E4293D04FEAB0
:10123000970CABF57E7E5EF82C3002F00C054FF07B
:101240000F0808FA05F803EA080A019B03FA05F5F6
:10125000AA456FEA060A7FF45FAFDBF8003043F679
:101260000C4503EA0A03CBF80030DBF80430C4F283
:10127000010503EA0A03CBF804302B6803EA0A03EA
:101280002B60DBF8083003EA0A03CBF808305EF87D
:101290002C3023EA08034EF82C303DE702B0BDE8BD
:1012A000F08F00002DE9F04F82B000F13E4241F690
:1012B000004502F1FF77C4F2020508224FEAB72683
:1012C000A84208BF0722072E38BF4FEAB7224FF0C7
:1012D000010A002400274FF00008009208E000BF38
:1012E000023708F10108202F04F1040400F0B48053
:1012F0000E680AFA08F916EA090FF1D0D1F804A02D
:101300000AF0030BABF10106012E17D80322866801
:1013100002FA07FECA6826EA0E06BA403243826025
:101320004268CAF3001522EA090205FA08F54FEAF5
:10133000480C6FEA0E062A4342600BE00322BA40D3
:10134000D643BBF1030FBC4604D1BC464FF0030BA0
:1013500022E000BFC2688D68324005FA0CF52A43CE
:10136000BBF1020FC26017D16FF0030202EA58020C
:10137000024404F01C030F25D2F820E005FA03FA1A
:101380000D692EEA0A0E05FA03F343EA0E0313620F
:10139000D1F804A00AF0030B02680BFA0CF33240F8
:1013A0001A431AF4403F4FF0010A026098D000221D
:1013B00043F644030192C4F202031A6843F6004E56
:1013C00042F480421A601A68C4F2010E02F48042AC
:1013D0000192019A28F003024FF6084C7244CFF6AE
:1013E000FF7C52F80C3004F00C060F25B540AB43DF
:1013F000009D05FA06F6334342F80C30DEF808206B
:101400004B6842EA090643F60C4CDD0258BF22EA5B
:101410000906CEF80860C4F2010CDCF800209D0239
:1014200042EA090658BF22EA0906CCF80060DEF855
:1014300004209D0342EA090658BF22EA0906CEF8B5
:101440000460DEF80020DB0342EA090658BF22EA06
:101450000906CEF8006043E702B0BDE8F08F000057
:101460000069084018BF012070470000002A08BF2B
:10147000090481617047000044F23C60C2F2000040
:101480000068704740F2000044F23C61C2F2000084
:10149000C2F2000100780A6810440860704700003A
:1014A00080B543F60040C4F20200016841F40071C7
:1014B0000160016841F480610160016841F480715C
:1014C0000160032000F09EF80F2000F005F800F006
:1014D00027F8002080BD000070B540F20006C2F27F
:1014E000000640F208013278C2F200014FF47A732C
:1014F0000968B3FBF2F20446B1FBF2F1084600F0D2
:101500005BFB0F2C4FF0010508D838B94FF0FF30C6
:1015100021460022002500F049F87460284670BD7D
:1015200082B0002043F640010190C4F202014A68F3
:1015300042F480424A604A6802F480420192019A71
:1015400000900868002240F08050086008680F2171
:1015500000F08050009000986FF0010002B000F0A1
:1015600025B80000002848BF704700F01F01012285
:1015700002FA01F14EF280124009CEF2000242F866
:101580002010BFF34F8FBFF36F8F7047002848BF05
:10159000704700F01F01012202FA01F14EF2001221
:1015A0004009CEF2000242F82010704710B54EF606
:1015B0000C5CCEF2000CDCF80030C3F3022E8EF08F
:1015C0000704042C28BF0424BEF103034FF0FF3EA0
:1015D0000EFA04F438BF0023A14399400EFA03F336
:1015E0009A43114300F00F02043A624409010C329D
:1015F00000F16043B0F1FF3FC8BF03F564421170D2
:1016000010BD00004EF60C51CEF200010A684FF6F4
:10161000FF031A4060F30A2242F0806040F0FD7040
:10162000086070472DE9F041002800F08B8043F6F8
:101630000808C4F202080446D8F8F8030D4600F082
:101640000700884207D288F8F853D8F8F80300F06A
:101650000700A84276D12068810717D5410705D534
:10166000D8F8001041F4E051C8F80010010705D582
:10167000D8F8001041F46041C8F80010D8F8001004
:10168000A26821F0F0011143C8F80010C0073FD153
:10169000D8F8F80300F00700A84207D988F8F853F3
:1016A000D8F8F80300F00700A8424BD120684107A2
:1016B00007D5D8F80010E26821F4E0511143C8F8CA
:1016C0000010000708D5D8F80000216920F4604018
:1016D00040EAC100C8F8000000F07CF8D8F800101B
:1016E00046F27242C1F30311C0F60002515C40F2AF
:1016F000080220FA01F140F20400C2F20000006882
:10170000C2F200021160FFF7E7FE0020BDE8F081A1
:101710006068811E022907D258F8081C89015CBF45
:101720000120BDE8F08111E0012807D158F8081C1C
:1017300089035CBF0120BDE8F08107E058F8081C70
:10174000890703D40120BDE8F08100BFD8F800105C
:1017500021F003010843C8F80000FFF78DFE06469C
:1017600041F28837D8F80000616800F00C00B0EB57
:10177000810F8DD0FFF780FE801BB842F2D9032085
:10178000BDE8F08140F2080043F60801C2F2000013
:10179000C4F202010068096846F28242C1F3822164
:1017A000C0F60002515CC8407047000040F20800DB
:1017B00043F60801C2F20000C4F2020100680968A1
:1017C00046F28242C1F34231C0F60002515CC84089
:1017D0007047000010B543F60404C4F202046068C8
:1017E00000F00C0008280BD0042819BF42F200407A
:1017F000C0F2F40047F64000C0F27D1010BD00BFFB
:10180000206821682368490247F64001C0F27D1133
:1018100000F03F02C3F388105CBF42F20041C0F207
:10182000F401A1FB00010023FEF71EFD2168022246
:10183000C1F3014102EB4101B0FBF1F010BD00002A
:101840002DE9F04182B000286AD00446007843F6C2
:101850000006C007C4F202060BD0B06800F00C000E
:10186000042840F0A1803068800302D56068002819
:1018700056D0207880071AD5B06810F00C0F09D028
:10188000B06800F00C00082840F0A88070684002A2
:1018900000F1A4803068800702D5E06801283FD1BC
:1018A0003068216920F0F80040EAC10030602078FB
:1018B000000739D4207840074ED4A5695DB3B068DD
:1018C00000F00C00082840F0BD80012D28D0706881
:1018D000E16900F480028A4222D1216A00F03F02CD
:1018E0008A421DD147F6C071626A0140B1EB821F86
:1018F00016D1A26A0023CFF6FF7303EBC23200F4C5
:1019000040316FF30F0291420AD1E16A00F070603A
:10191000B0EB016F04D1002002B0BDE8F08100BF40
:10192000012002B0BDE8F0816069002840F20000AB
:10193000C4F2472076D00121C0F8801EFFF79CFD3D
:10194000054600BF706F8007B4D4FFF795FD401BBC
:101950000228F7D9DDE000BF306C10F080580AD1C2
:1019600000200190306C40F080503064306C00F00A
:1019700080500190019847F20007C4F200073868D0
:10198000C00541D4386840F480703860FFF774FDBA
:10199000054600BF3868C00536D4FFF76DFD401B13
:1019A0000228F7D9B5E000BFB06800F00C000828A5
:1019B00003D1706840023FF556AF6068B0F5803FD4
:1019C00007D0B0F5A02F40F08D80306840F4802023
:1019D0003060306840F4803030608DE0E06800288E
:1019E00052D00020C4F2472001210160FFF744FDDE
:1019F000054600BF306880073FF552AFFFF73CFD5A
:101A0000401B0228F6D984E0A068012805D00528EB
:101A10004ED1306F40F004003067306F40F001006D
:101A200030674FE00021C0F8801EFFF725FD054616
:101A3000706F80077FF53EAFFFF71EFD401B022849
:101A4000F6D966E00027C4F2472700203866FFF782
:101A500013FD022D05460BD1306880015ED5FFF7DE
:101A60000BFD401B02284FF00300F5D954E700BFDF
:101A7000306880017FF54FAFFFF7FEFC401B022866
:101A80004FF00300F4D947E70020C4F247200021BB
:101A90000160FFF7F1FC0546306880077FF507AF6E
:101AA000FFF7EAFC401B02284FF00300F4D933E7AC
:101AB000316F002821F001013167316F21F00401FD
:101AC00031674DD0FFF7D8FC054641F2883700BF9B
:101AD000306F800756D4FFF7CFFC401BB842F7D9D0
:101AE00017E000BF3168002821F48031316031688F
:101AF00021F4802131604FD0FFF7BEFC054600BFC6
:101B0000306880033FF5B5AEFFF7B6FC401B642894
:101B1000F6D9032002B0BDE8F08100BF04F11C0536
:101B20002FCD08430021CFF6FF7140EA821001EB70
:101B3000C3316FF30F0140EA056008437060012074
:101B40003866FFF799FC0446306880013FF5E3AE44
:101B5000FFF792FC001B02284FF00300F4D9DBE6EC
:101B6000FFF78AFC054641F2883700BF306F8007D7
:101B700008D5FFF781FC401BB8424FF00300F5D9B0
:101B8000CAE600BFB8F1000F7FF497AE306C20F0CA
:101B90008050306491E600BFFFF76EFC054600BF41
:101BA000306880037FF565AEFFF766FC401B642854
:101BB0004FF00300F4D9AFE6411E0020B0EB116FE7
:101BC0001CBF012070474EF21002CEF2000251609D
:101BD0004EF62351CEF20001F0230B7007219060E6
:101BE0001160704770470000002804BF0120704753
:101BF00010B50446242084F841002068C16821F40F
:101C00000051C160204600F0FDFA0020606484F8B5
:101C1000410084F842002063606384F8400010BDF6
:101C200070470000B0B582B0044600680168C36820
:101C3000426901F02F05202D03F0200506D12DB1BA
:101C4000204602B0BDE8B04002F09CBB5FEA017CD8
:101C50001EBF02F0010E03F4907212EB0E0255D17A
:101C6000226B012A05D111F0100218BF13F01002E7
:101C700036D10A0622D513F080021FD094F8411005
:101C8000212941D1A168B1F5805F03D121690029E3
:101C900000F08082216A4A1C226209784160E18C4E
:101CA00001390A04E1842FD1C16821F08001C160AB
:101CB000C16841F04001C16002B0B0BD490623D502
:101CC00013F0400120D0C16821F04001C160202103
:101CD000204684F8411002B0BDE8B04000F0D8BD05
:101CE00000210191016801914168019101994169C7
:101CF000490600F18D80A18DE28DE38D002B1CBF84
:101D0000891A5FEA01420CD102B0B0BDCA0718BF00
:101D100013F4807240F036814A0700F139813EE1C8
:101D2000206850E8030F226820F4907042E8030313
:101D3000DBB1206850E8030F226820F4907042E87D
:101D4000030393B1206850E8030F226820F49070D9
:101D500042E803034BB1206850E8030F226820F4E7
:101D6000907042E80303002BDAD1206850E8050F99
:101D7000226820F0010042E80503DBB1206850E84A
:101D8000050F226820F0010042E8050393B12068A6
:101D900050E8050F226820F0010042E805034BB12E
:101DA000206850E8050F226820F0010042E8050392
:101DB000002BDAD1202084F8420000202063206824
:101DC00050E8030F226820F0100042E80303DBB163
:101DD000206850E8030F226820F0100042E8030357
:101DE00093B1206850E8030F226820F0100042E809
:101DF00003034BB1206850E8030F226820F0100065
:101E000042E80303002BDAD1022289B2A3E100BF2A
:101E1000E26B11684B68A58D99B2002900F09281A0
:101E2000A94280F08F81E385D169B1F5807F00F010
:101E30009D8050E8030F216820F4807041E8030280
:101E4000E2B1206850E8030F216820F4807041E877
:101E500003029AB1206850E8030F216820F48070D3
:101E600041E8030252B1206850E8030F216820F4D2
:101E7000807041E803020AB12068DAE7206850E880
:101E8000050F216820F0010041E80502BAB320687F
:101E900050E8050F216820F0010041E8050272B307
:101EA000206850E8050F216820F0010041E8050294
:101EB0002AB3206850E8050F216820F0010041E8AE
:101EC0000502002ADAD11AE0206850E8050F2168DF
:101ED00020F0400041E80502DAB1206850E8050F23
:101EE000216820F0400041E8050292B1206850E8E6
:101EF000050F216820F0400041E805024AB1206842
:101F000050E8050F216820F0400041E80502002A52
:101F1000DAD1202084F8420000202063206850E8B5
:101F2000030F216820F0100041E80302DAB12068B5
:101F300050E8030F216820F0100041E8030292B13D
:101F4000206850E8030F216820F0100041E80302E8
:101F50004AB1206850E8030F216820F0100041E8E2
:101F60000302002ADAD1E06BFEF71EFE0220606356
:101F7000A08DE18D401A81B2204602B0BDE8B0408C
:101F8000FFF730BE626C42F0010262644A0706D578
:101F9000BEF1000F03D0626C42F0020262648A0755
:101FA00006D5BEF1000F03D0626C42F004026264F9
:101FB000BCF1000F06D555EA0E0203D0626C42F068
:101FC00008026264626C002A3FF49EAE11F02001A8
:101FD00018BF002D03D0204602F0D4F920684169D3
:101FE000626C01F0400102F00802891800F0A28042
:101FF00050E8030F216820F4907041E80302C2B357
:10200000206850E8030F216820F4907041E8030233
:102010007AB3206850E8030F216820F4907041E8FB
:10202000030232B3206850E8030F216820F4907057
:1020300041E80302EAB12068DAE700BF206850E80F
:10204000050F216820F0010041E80502DAB120689F
:1020500050E8050F216820F0010041E8050292B127
:10206000206850E8050F216820F0010041E80502D2
:102070004AB1206850E8050F216820F0010041E8CE
:102080000502002ADAD1206B012824D1206850E80B
:10209000030F216820F0100041E80302DAB1206844
:1020A00050E8030F216820F0100041E8030292B1CC
:1020B000206850E8030F216820F0100041E8030277
:1020C0004AB1206850E8030F216820F0100041E871
:1020D0000302002ADAD1202084F842000020206385
:1020E0002068416949064FD550E8050F216820F066
:1020F000400041E80502AAB3206850E8050F2168B6
:1021000020F0400041E8050262B3206850E8050F66
:10211000216820F0400041E805021AB3206850E829
:10212000050F216820F0400041E80502D2B1206887
:10213000DAE700BF2046FFF773FD0020606402B0BD
:10214000B0BD00BF8D427FF4DFADD069B0F5807FB8
:102150007FF4DAAD02222046626302B0BDE8B040EF
:10216000FFF740BDE06B78B144F24511C0F60001C5
:102170000165FEF763FD00283FF4C6ADE06B016D1D
:1021800002B0BDE8B0400847204602B0BDE8B0400C
:10219000FFF746BD216A31F8022B6FF35F224260E0
:1021A00021627CE5002804BF0120704710B5044679
:1021B00090F8410028B9002084F84000204600F043
:1021C00061F8242084F841002068C16821F400519E
:1021D000C160204602F056F92068016921F490415F
:1021E0000161416921F02A014161C16841F4005156
:1021F000C16000202021606484F8411084F84210FE
:10220000606310BD10B50446006841F20041C4F29D
:102210000101884220D041F20001C4F2010188424C
:1022200018BF10BD43F64400C4F20200016821F05B
:10223000100101600020C4F202004FF4C061FEF7FB
:102240004BFFA06BFEF70CFDE06BFEF709FD2520B0
:10225000BDE81040FFF786B943F64400C4F202001F
:10226000016821F0200101600020C4F2020000F5A5
:102270000060C021FEF730FF4720BDE81040FFF7A7
:1022800071B900002DE9F04387B00446216841F29E
:102290000042C4F2010200209142CDE90500CDE9DF
:1022A000030002906CD041F20000C4F201008142B0
:1022B00040F09880002643F630000196C4F20200F8
:1022C000416946F2404841F0100141614169C4F260
:1022D000020801F01001019101990196016841F095
:1022E00001010160006802A900F00100019001985D
:1022F0004FF4C06002900220CDE903060320059050
:10230000072006900020C4F20200FEF7CBFF40F247
:10231000FC3508F17800C2F200054FF0006740215B
:10232000C5E9000705F108004FF4806980E8420222
:102330002846C5E90566C5E907666E62FEF7B6FD83
:10234000002818BFFEF74EF9A563AC6340F29C3538
:10235000C2F200052846C5E90087C5E90266C5E95D
:102360000496C5E90666C5E90866FEF79FFD0028E4
:1023700018BFFEF737F9E563AC6325242AE000BFF8
:1023800043F630010190C4F202014A6942F0200292
:102390004A614A6902F020020192019A01900A689A
:1023A00042F004020A60096801F0040101910199F8
:1023B000C02102910221CDE90310032005900820DD
:1023C00006900020C4F2020000F5006002A9FEF7AA
:1023D00069FF4724204605210022FFF7E7F8204641
:1023E000FFF7D4F807B0BDE8F08300002DE9F04313
:1023F00081B0044690F84200202829D10E460029D9
:102400004FF0010000F0FA801746002A00F0F68035
:102410004FF0000822201D46C4F8448084F8420092
:10242000C4F83080FFF728F8A785E785A16807463C
:10243000B1F5805F05D12069002814BF3046B04651
:102440000646E08D00284FD005F1010910E000BFDD
:10245000022001B0BDE8F083406800266FF35F20E2
:1024600028F8020BE08D0138E085E08D00283BD094
:1024700020680168890617D4B9F1000F22D0002D19
:1024800000F0C080FEF7F8FFC01BA84200F2B28047
:102490002068C168490744BF01685FEA017125D41B
:1024A00001688906EED500BF002ED5D0A168B1F530
:1024B000805F15D009B9216991B1406800F07F00B3
:1024C0000FE000BF01688906EED4016889065CBF91
:1024D00001685FEA8161E7D401688906F2D5E3E724
:1024E000406806F8010BBDE7002084E00021009160
:1024F0000168009141680091009900BF50E8030F06
:10250000216820F4907041E80302C2B3206850E8CB
:10251000030F216820F4907041E803027AB3206829
:1025200050E8030F216820F4907041E8030232B3B1
:10253000206850E8030F216820F4907041E80302FE
:10254000EAB12068DAE700BF206850E8050F21688B
:1025500020F0010041E80502DAB1206850E8050FDB
:10256000216820F0010041E8050292B1206850E89E
:10257000050F216820F0010041E805024AB12068FA
:1025800050E8050F216820F0010041E80502002A0B
:10259000DAD1206B012824D1206850E8030F21688C
:1025A00020F0100041E80302DAB1206850E8030F80
:1025B000216820F0100041E8030292B1206850E841
:1025C000030F216820F0100041E803024AB120689F
:1025D00050E8030F216820F0100041E80302002AB0
:1025E000DAD1202084F842000020082120636164B1
:1025F00084F840000320202184F8421001B0BDE897
:10260000F08300BFFEF738FFF4E7000070470000DA
:102610002DE9F041044690F8410020281CBF02201B
:10262000BDE8F0810F4600294FF0010000F08280E4
:102630001646002A08BFBDE8F0814FF000082120AF
:102640001D46C4F8448084F84100FEF715FFA684B7
:10265000E684A1680646B1F5805F05D120690028AF
:1026600014BF3846B8460746E08CC8B1681C19D07C
:10267000002D61D1216807E017F8010B4860E08C5C
:102680000138E084E08C68B3086800064CD5002F60
:10269000F2D138F8020B00276FF35F20EEE700BF9E
:1026A00021681FE0216802E00868000609D4086874
:1026B000000606D4086800065CBF08685FEA006090
:1026C000F2D51FB117F8010B05E000BF38F8020B77
:1026D00000276FF35F204860E08C0138E084E08CD5
:1026E0000028E4D1086840061CD4EDB1681C0FD165
:1026F0000868400616D40868400613D408684006E7
:1027000010D4086840064FF00000F1D50FE000BF7C
:10271000FEF7B2FE801BA84208D82068C168006896
:102720004006F5D5002002E0FEF7A6FE032020219A
:1027300084F84110BDE8F081216800BF08680006F8
:1027400008D4FEF799FE801BA842EFD82168C8681C
:10275000F4E700BF17B117F8010B04E038F8020BDB
:1027600000276FF35F204860E08C0138E084E08C44
:102770000028E3D1B6E70000B0B5044690F8410068
:1027800020281CBF0220B0BD00294FF0010060D0FE
:10279000002A134608BFB0BD4FF0000C2120216273
:1027A000A384E384C4F844C084F84100A06B44F2DD
:1027B000CD2E44F27D352268C0F6000EC0F600052D
:1027C000C0E90FE544F25115C0F600050432C0E936
:1027D000135CFEF71DFC38B110206064202084F8E3
:1027E00041000120B0BD00BF20686FF0400140F8FB
:1027F000141B50E8000F216840F0800041E80502FA
:1028000042B300BF206850E8050F216840F0800007
:1028100041E80502F2B1206850E8050F216840F058
:10282000800041E80502AAB1206850E8050F216840
:1028300040F0800041E8050262B1206850E8050FD1
:10284000216840F0800041E80502002A4FF00000B6
:10285000D8D1B0BD0020B0BD034690F8410020287B
:102860001CBF0220704700294FF0010018BF002A4A
:1028700000D170471962002021219A84DA845864BB
:1028800083F841101968CA6842F08002CA60704734
:102890007047000070470000FEE7000010B584B0EC
:1028A00040F24C2001220021C2F2000042F2000C52
:1028B000C0F60072C4F2010C4FF480330124C0E969
:1028C0000A2102220391047680F82010C26180F868
:1028D0003040C0E900C3C0E90211C0E90441FDF77E
:1028E0002BFF002818BFFDF77DFE0620CDE9000470
:1028F0000420029040F24C20C2F200006946FDF72D
:1029000075FE002818BFFDF76DFE0720009002201D
:10291000019040F24C20C2F200006946FDF766FECD
:10292000002818BFFDF75EFE04B010BDB0B584B03E
:1029300040F2942001250021C2F2000042F2001270
:10294000C0F60075C4F201024FF480330124C0E9DF
:102950000A5104250391047680F82010C56180F89F
:102960003040C0E90023C0E90211C0E90441FDF78D
:10297000E3FE002818BFFDF735FE0C208DE831007E
:1029800040F29420C2F200006946FDF72FFE0028B5
:1029900018BFFDF727FE0D2000900220019040F2A5
:1029A0009420C2F200006946FDF720FE002818BFFF
:1029B000FDF718FE082000900320019040F29420BB
:1029C000C2F200006946FDF711FE002818BFFDF7AE
:1029D00009FE092000900420019040F29420C2F2E8
:1029E00000006946FDF702FE002818BFFDF7FAFD5A
:1029F00004B0B0BD80B582B00020019043F6300035
:102A0000C4F202000168002241F480010160006804
:102A1000052100F48000019001983A20FEF7C6FDE0
:102A20003A20FEF7B3FD3B2005210022FEF7BEFD54
:102A30003B20FEF7ABFD3C2005210022FEF7B6FD52
:102A40003C20FEF7A3FD462005210022FEF7AEFD47
:102A5000462002B0BDE88040FEF798BD10B544F2B4
:102A6000510046F2B842C0F60000C0F60002002154
:102A700001F0E8FD40F27004C2F20004206044F26C
:102A8000450046F29442C0F60000C0F60002002164
:102A900001F0D8FD606010BD2DE9F04387B000273C
:102AA00043F63000CDE905770197C4F202000168D2
:102AB00040F6004441F0100101600168C4F20204D4
:102AC00001F010010191019901970168A4F50065D9
:102AD00041F0800101600168002201F08001019154
:102AE0000199019701684FF0040941F00401016068
:102AF000016801F00401019101990197016841F019
:102B000001010160016801F0010101910199019742
:102B1000016841F002010160016801F002010191C8
:102B200001990197016841F00801016000680421E2
:102B300000F00800019001982846FEF797FC204617
:102B40004FF4404100224FF44048FEF78FFC1B2019
:102B500002AECDE9020704F5806031460497FEF726
:102B6000A1FB40F22310CDE90207A4F580603146B5
:102B70000497FEF797FB1720CDE90207A4F5406004
:102B800031460497FEF78EFBCDF808904FF001090F
:102B900028463146CDE903970597FEF783FB43F6B8
:102BA0006070CDE90207204631460497FEF77AFBB4
:102BB00020463146CDE90289CDE90477FEF772FB64
:102BC00007B0BDE8F083000080B540F25C4041F200
:102BD0000001C2F20000C4F2010100234FF00C0C0E
:102BE0004FF4E13280E80E00C0E90333C0E905C3C9
:102BF000C361FFF7D7FA002808BF80BDBDE8804059
:102C0000FDF7F0BC80B540F2A44041F20041C2F2B1
:102C10000000C4F2010100234FF00C0C4FF4E1322C
:102C200080E80E00C0E90333C0E905C3C361FFF7C4
:102C3000B9FA002808BF80BDBDE88040FDF7D2BCCE
:102C4000FEE7000040F25C40C2F2000090F8410054
:102C5000202818BF704740F2DE00C2F20000018851
:102C600000EE101A40F22821B8EE400AC2F200012C
:102C700081ED000A408800EE100AB8EE400A40F2EA
:102C8000F40081ED010AC2F20000828800EE102AF1
:102C9000B8EE400A81ED020AC28800EE102AB8EEB2
:102CA000400A81ED030A028800EE102AB8EE400ABD
:102CB00081ED040A408800EE100AB8EE400A40F2A6
:102CC000B40081ED050AC2F20000027A00EE102A7B
:102CD000B8EE400A81ED060A807B242200EE100A3D
:102CE0004FF0FF40086240F25C40B8EE400AC2F28A
:102CF000000081ED070AFFF73FBD000080B500F03E
:102D000039F8BDE8804000F0FDB90000FEE70000A2
:102D1000EFF30980BFF36F8F154B1A681EF0100F89
:102D200008BF20ED108A20E9F04F10602DE909005E
:102D30004FF0500080F31188BFF34F8FBFF36F8FB8
:102D400002F04EFD4FF0000080F31188BDE809004D
:102D500019680868B0E8F04F1EF0100F08BFB0EC1B
:102D6000108A80F30988BFF36F8F704700BF00BFE0
:102D7000200100202DE9F04740F60048C4F2020887
:102D800008F5806528461021FEF76AFBB0FA80F04E
:102D900040F2D00740F2B4094009C2F20007002413
:102DA000C2F200093876B8773C7089F808002846E6
:102DB0000821FEF755FBB0FA80F040097876F877E5
:102DC0007C7089F8090028460221FEF749FBB0FA19
:102DD00080F04009B87687F82000BC7089F80A00B6
:102DE000284601214FF0010AFEF73AFBB0FA80F0C5
:102DF0004009F87687F82100FC7089F80B004046FE
:102E00004021FEF72DFBB0FA80F04009387787F8B3
:102E100022003C7189F80C0040462021FEF720FB7F
:102E2000B0FA80F04009A8F54065787787F823006C
:102E30007C7189F80D0028460121FEF711FBB0FADC
:102E400080F04009A8F5806687F82C0087F83800E4
:102E500087F8444089F80E0030460221FEF700FB57
:102E6000B0FA80F0400987F82D0087F8390087F81C
:102E7000454089F80F0030460121FEF7F1FAB0FA1B
:102E800080F0400987F82E0087F83A0087F846401E
:102E900089F8100028460221FEF7E2FAB0FA80F025
:102EA000400987F82F0087F83B0087F8474089F8EA
:102EB000110028460421FEF7D3FAB0FA80F0400949
:102EC00087F8300087F83C0087F8484089F81200FE
:102ED00028461021FEF7C4FAB0FA80F0400987F8BE
:102EE000310087F83D0087F8494089F813004046D3
:102EF0004FF40051FEF7B4FAB0FA80F0400987F8B9
:102F0000320087F83E0087F84A4089F814004046AE
:102F10004FF48051FEF7A4FAB0FA80F0400987F828
:102F2000330087F83F0087F84B4089F8150040468A
:102F30004FF40061FEF794FAB0FA80F0400987F888
:102F4000340087F8400087F84C4089F81600404666
:102F50004FF48071FEF784FAB0FA80F0400987F8E8
:102F6000350087F8410087F84D4089F81700404642
:102F70004FF40071FEF774FAB0FA80F0400987F858
:102F8000360087F8420087F84E4089F8180040461E
:102F90004FF48061FEF764FAB0FA80F040F24C25FD
:102FA0004009C2F2000587F8370087F8430087F828
:102FB0004F4089F8190007F10E0128460222FC80D3
:102FC000FDF724FD00281CBF87F807A0BDE8F087A7
:102FD000A86B40F294250068C2F200050168042243
:102FE00021F01801016007F124012846FDF70EFDCC
:102FF00020B10220F871BDE8F08700BFA86BA8F5EA
:10300000006400680122016821F018010160204677
:103010000421FEF72BFA1E20FEF74AF82046042171
:103020000022FEF723FA6420FEF742F8204604212E
:103030000122FEF71BFA1E20FEF73AF82046042173
:103040000022FEF713FA6420FEF732F8204604212E
:103050000122FEF70BFA1E20FEF72AF82046042173
:103060000022FEF703FA6420BDE8F047FEF720B81F
:1030700070B540F60004C4F2020404F580652846E9
:103080004FF480410022FEF7F1F928464FF4004149
:103090000022FEF7EBF90A20FEF70AF8FEF7ECF93A
:1030A000054640F6B83604E0FEF7E6F9401BB042AC
:1030B00026D220464FF48071FEF7D2F90128F3D1D1
:1030C0000220FDF7F5FF20464FF48071FEF7C8F9A6
:1030D0000128E9D140F2A444C2F200042046FEF7E0
:1030E00083FD00281CBF002070BD4FF4E1306060FC
:1030F0002046FFF757F8B0FA80F0400970BD00BFD6
:10310000002070BD2DE9F04F85B040F6000A40F276
:103110007804C4F2020AC2F2000400202080A070E9
:10312000A060E06020616061A061E070207101201A
:103130000AF58065E07028464FF480410122FEF7D1
:1031400095F928464FF400410122FEF78FF940F22D
:10315000A445C2F200052846FEF746FD30B94FF4FB
:10316000165068602846FFF71DF848B10420E0704B
:10317000FFF77EFFFEF780F9E06105B0BDE8F08F54
:103180000A20FDF795FFFEF777F9064640F6B837B7
:1031900006E000BFFEF770F9801BB84280F0428164
:1031A00050464FF48071FEF75BF90128F2D10220FE
:1031B000FDF77EFF50464FF48071FEF751F901286C
:1031C000E8D14FF0000B6FF03E0640F6B8384FF0F4
:1031D000000911E0284604A903224FF49673FFF773
:1031E00017FA78B30520E0703220FDF761FFB9F1DE
:1031F000020F09F10109BBD2A0690130A0614CF2B4
:10320000C110CFF6FF708DF81260ADF81000CDF848
:1032100008B028680168029141680291029901682A
:10322000890642BF416801685FEA8161D2D5416881
:103230000168890642BF416801685FEA8161C9D5BA
:103240004168ECE728460DF1020106224FF496731F
:10325000FFF7CCF80028C5D19DF802609DF80370F7
:103260009DF804309DF8051084F8206084F82170E2
:1032700084F8223084F823109DF80620C02E84F8AC
:1032800024209DF807006FF03E0684F8250008BF53
:10329000002F2BD044F206400390C020C3F6064016
:1032A0000290CDF810B0286801680491416804913B
:1032B00004990168890642BF416801685FEA81613B
:1032C0000AD541680168890642BF416801685FEA22
:1032D000816101D54168ECE7284602A906224FF436
:1032E0009673FFF795F958B106207CE7062BD1D1EC
:1032F0003C29CFD1062ACDD14428CBD182E000BFD2
:103300001420FDF7D5FEFEF7B7F8074605E000BF2D
:10331000FEF7B2F8C01B4045E6D250464FF480712C
:10332000FEF79EF80128F3D10220FDF7C1FE5046BA
:103330004FF48071FEF794F80128E9D14CF2C110E6
:10334000CFF6FF708DF81260ADF81000CDF808B020
:103350002868016802914168029102990168890612
:1033600042BF416801685FEA81610BD5416801682D
:10337000890642BF416801685FEA816102D5416800
:10338000ECE700BF284604A903224FF49673FFF729
:103390003FF940B928460DF1020106224FF4967319
:1033A000FFF724F810B107201DE700BF9DF80200C9
:1033B0009DF803209DF804309DF8051084F8200046
:1033C00084F8212084F8223084F823109DF80670B8
:1033D000C02884F824709DF807C04FF0070084F8D7
:1033E00025C008BF002A7FF4FEAE062B7FF4FBAE9B
:1033F0003C297FF4F8AE062F7FF4F5AEBCF1440F04
:103400007FF4F1AEFFF734FE00280FBF0820012043
:1034100020710220E070FEF72FF8E06105B0BDE8F2
:10342000F08F00BF0320A2E62DE9F04381B0FEF744
:1034300023F840F27804C2F20004E169421A00F174
:103440003A813231421AB2F1FF3F2279C8BF00F10E
:103450003201012AE16140F0298140F60000C4F206
:1034600002004FF48071FDF7FBFF002804F110000B
:1034700000F01E8140F2A441C2F2000191F8411017
:10348000202940F01581A08F40F2262290424FF073
:1034900000014FEAD00088BF01214A284FF0000008
:1034A00088BF0120637894F802C0002B18BF08463B
:1034B0006070E38F002593424FEAD30288BF012555
:1034C0004A2A4FF0000288BF0122BCF1000F18BF4A
:1034D0002A46A27094F84AE094F8505094F844C0F8
:1034E00094F84B3094F851604EEA430345EA460E97
:1034F00094F8455094F84C604CEA450543EA860C34
:1035000094F8526094F846304EEA860645EA830EF7
:1035100094F84D5094F853304CEAC50546EAC30C74
:1035200094F84E6094F8543045EA06154CEA031CB2
:1035300094F8486094F84F30002845EA431394F813
:10354000555094F8497018BF4020002A18BF60F009
:103550007F0040EA030945F6A5204EEA061694F8D6
:103560004720C0F201104CEA451E46EA471C94F879
:10357000405094F8416094F8427094F84330C4F895
:103580002600062084F82A0094F9008002F0010049
:10359000002184F831000122072084F82B8084F870
:1035A0002C5084F82D6084F82E7084F82F3084F825
:1035B000309000BF53B280EA4205B3F1FF3FC8BF6D
:1035C00055006AB280EA4503B2F1FF3FC8BF6B0005
:1035D0005AB280EA4305B2F1FF3FC8BF5D006AB24C
:1035E00080EA4503B2F1FF3FC8BF6B005AB280EAE0
:1035F0004305B2F1FF3FC8BF5D006AB280EA4503F0
:10360000B2F1FF3FC8BF6B005AB280EA4305B2F186
:10361000FF3FC8BF5D006AB2B2F1FF3F04EB010299
:1036200080EA450392F82960C8BF6B0073405DB221
:1036300080EA4306B5F1FF3FC8BF5E0073B280EA7F
:103640004605B3F1FF3FC8BF75006BB280EA45067F
:10365000B3F1FF3FC8BF6E0073B280EA4605B3F115
:10366000FF3FC8BF75006BB280EA4506B3F1FF3F6C
:10367000C8BF6E0073B280EA4605B3F1FF3FC8BF12
:1036800075006BB280EA4506B3F1FF3FC8BF6E001C
:1036900073B280EA4605B3F1FF3FC8BF7500082941
:1036A0000CD092F82A2002316A4083E704F114001A
:1036B00001680131016001B0BDE8F08345F6A52045
:1036C000C0F20210C4F83300022084F837006FF013
:1036D000620084F8325084F8388084F839E084F845
:1036E0003AC0B8F1000F48BF6FF0650080EA4800AB
:1036F000072342B283EA4005B2F1FF3FC8BF45004D
:1037000068B283EA4502B0F1FF3FC8BF6A0050B219
:1037100083EA4205B0F1FF3FC8BF550068B283EAB3
:103720004502B0F1FF3FC8BF6A0050B283EA4205CC
:10373000B0F1FF3FC8BF550068B283EA4502B0F15F
:10374000FF3FC8BF6A0050B283EA4205B0F1FF3FB5
:10375000C8BF55008EEA050042B283EA4007B2F1C5
:10376000FF3FC8BF470078B283EA4702B0F1FF3F8E
:10377000C8BF7A0050B283EA4207B0F1FF3FC8BF2A
:10378000570078B283EA4702B0F1FF3FC8BF7A0022
:1037900050B283EA4207B0F1FF3FC8BF570078B28A
:1037A00083EA4702B0F1FF3FC8BF7A0050B283EA14
:1037B0004207B0F1FF3FC8BF570078B283EA470223
:1037C000B0F1FF3FC8BF7A008CEA020042B283EA40
:1037D0004007B2F1FF3FC8BF470078B283EA470213
:1037E000B0F1FF3FC8BF7A0050B283EA4207B0F1A0
:1037F000FF3FC8BF570078B283EA4702B0F1FF3FEE
:10380000C8BF7A0050B283EA4207B0F1FF3FC8BF99
:10381000570078B283EA4702B0F1FF3FC8BF7A0091
:1038200050B283EA4207B0F1FF3FC8BF570078B2F9
:1038300083EA4702B0F1FF3FC8BF7A0040F2A440DC
:1038400004F1260184F83B20C2F200001622FFF7A3
:1038500003F818B104F108002AE700BF207801300E
:1038600004F80C0B204623E72DE9F04F81B040F21D
:10387000D006C2F20006B07941F200080128C4F275
:1038800002080CD1FDF7F8FD7169401A07D4A8F5BC
:103890004060042100220024FDF7E8FDB471F079B6
:1038A00040F2B40B0028C2F2000B40F0E281307A03
:1038B000F18900284ED07089421A98BF0A1A92B234
:1038C0000B2A38BF01467181308AB289131A98BF1A
:1038D000831A9BB20B2B38BF1046B08140F2ED72B9
:1038E000914240D940F6170291427BD346F610230D
:1038F000CFF6E0734FF47A7201FB023346F247676A
:103900009B08C4F65777A3FB073740F68A639942B2
:1039100038BFFA0940F2ED718842ABF800203ED979
:1039200040F61701884265D346F61022CFF6E072C2
:103930004FF47A7100FB012246F247639208C4F605
:103940005773A2FB032340F68A62904238BFD9091D
:1039500042E000BF7181308A0122B081327240F2B0
:10396000ED729142BED8B1F5297F4FF47A7210D32F
:103970004BF24833CFF6F57301FB02314AF67F4331
:10398000C8F2ED23A1FB0337C91B07EB5101A2EBE2
:10399000912240F2ED718842ABF80020C0D8B0F51A
:1039A000297F4FF47A7117D34BF24832CFF6F57274
:1039B00000FB01204AF67F42C8F2ED22A0FB022361
:1039C000C01A03EB5000A1EB9021ABF80210F08C71
:1039D0000B2815D25EE000BFABF80210F08C0B286C
:1039E00058D30DE0002240F2ED718842ABF8002080
:1039F000D5D995E70021ABF80210F08C0B2849D3FC
:103A00000109FE2915D8B0F5F56F15D9C0EBC01026
:103A1000A0F57330A0F5157043F6C37100F5FE7084
:103A2000CFF24E71A0FB0101802000EBD120F428E1
:103A300017D9FF202FE000BF17D04FF60031CFF687
:103A4000FF7101EBC0104BF255324108C2F29B12DC
:103A500045F2CA339842A1FB02101BD3C009F428D7
:103A6000E7D8A0F17601152902D2802013E000BF2B
:103A7000752800F249820C280CD3742800F2A48225
:103A8000C0EBC010A0F2755080B249F691214843B6
:103A9000800D00E000208BF80400B08C0B2849D387
:103AA0000109FE2918D840F63701884216D94EF68A
:103AB000B741C0EBC010CFF6FB71084449F62701AF
:103AC000C0F63111A0FB0112801A02EB50008021D8
:103AD00001EB9020F42815D9FF202CE016D04FF6EA
:103AE0000031CFF6FF7101EBC01047F6ED21C7F6AC
:103AF0003F5145F6EF129042A0FB01101AD3800A05
:103B0000F428E9D8A0F17601152901D2802012E02D
:103B1000752800F20F820C280CD3742800F256820C
:103B2000C0EBC010A0F2755080B249F69121484315
:103B3000800D00E000208BF80500308D0B2847D366
:103B40000109FE2915D840F65E01884214D94DF6C8
:103B50005E11C0EBC010CFF6FB7108444EF29551D8
:103B6000C8F24371A0FB0101802000EB9120F428F2
:103B700016D9FF202DE000BF16D04FF60031CFF64A
:103B8000FF7101EBC0104EF2FD71CFF2E95145F625
:103B90009C329042A0FB01101AD3C00AF428E8D846
:103BA000A0F17601152901D2802012E0752800F2DB
:103BB000D7810C280CD3742800F20A82C0EBC01005
:103BC000A0F2755080B249F691214843800D00E083
:103BD00000208BF80600708D0B2847D30109FE29C1
:103BE00014D840F2AC71884212D9C0EBC010A0F5D5
:103BF00073304EF69D51A0F51570CFF2C571A0FB44
:103C00000101802000EBD120F42816D9FF202EE0FE
:103C100017D04FF60031CFF6FF7101EBC01041F223
:103C200089624108C2F28A1245F2F6339842A1FB3A
:103C300002101BD3C009F428E8D8A0F17601152999
:103C400002D2802013E000BF752800F29F810C286B
:103C50000CD3742800F2BE81C0EBC010A0F27550E6
:103C600080B249F691214843800D00E000208BF896
:103C7000070040461021FDF7F3FBB0FA80F0317EDB
:103C80004009814206D106F11E0200234FF0000ACE
:103C90001BE000BF324612F81E3F834212D132466B
:103CA00012F8183B092B07D85F1C324602F8187B24
:103CB000092B4FF0000A0AD14FF0010A00230146F8
:103CC00003E000BF4FF0000A0123107033708BF83F
:103CD000081040460821FDF7C3FBB0FA80F0717E62
:103CE0004009814204D106F11F02002315E000BF04
:103CF000324612F81F3F83420ED1737806F1190243
:103D0000092B03D85F1C092B777008D14FF0010AEB
:103D10000023014601E000BF0123107073708BF88F
:103D2000091040460221FDF79BFBB0FA80F0B17EFE
:103D30004009814204D106F12002002315E000BFB2
:103D4000324612F8203F83420ED1B37806F11A02B0
:103D5000092B03D85F1C092BB77008D14FF0010A5B
:103D60000023014601E000BF01231070B3708BF8FF
:103D70000A1040460121FDF773FBB0FA80F0F17E96
:103D80004009814204D106F12102002315E000BF61
:103D9000324612F8213F83420ED1F37806F11B021E
:103DA000092B03D85F1C092BF77008D14FF0010ACB
:103DB0000023014601E000BF01231070F370A8F555
:103DC00080658BF80B1028464021FDF749FBB0FABF
:103DD00080F0317F4009814204D106F122020023A4
:103DE00015E000BF324612F8223F83420ED13379EC
:103DF00006F11C02092B03D85F1C092B377108D16F
:103E00004FF0010A0023014601E000BF01231070BA
:103E100033718BF80C1028462021FDF721FBB0FAF6
:103E200080F0717F4009814204D106F12302002312
:103E300015E000BF324612F8233F83420ED173795A
:103E400006F11D02092B03D85F1C092B777108D1DD
:103E50004FF0010A0023014601E000BF012310706A
:103E600073714FF000095CA567A400208BF80D105A
:103E700007460AE0002381F8382081F844300BEB34
:103E8000070101370C2F88732CD055F8270034F820
:103E90001710FDF7E5FAF119B0FA80F291F82C004D
:103EA00052099042E6D091F8383093420AD191F805
:103EB0004430092B08D803F1010381F84430DED1E6
:103EC00002E000BF0123D6E70BEB070081F82C20AE
:103ED00081F844908273781C0B2F4FF0010AC7D1F0
:103EE00003E000BFBAF1000F0BD0A8F54060042139
:103EF00001220124FDF7BAFAFDF7BEFA1E30706107
:103F0000B47101B0BDE8F08F8C2855D3F3283FF68B
:103F100090AD4BF69631C0EB8010CFF6FF7101EB00
:103F2000400080B244F6056148436FF07E0101EB2A
:103F30005050B0E58C2841D3F3283FF6CDAD4BF679
:103F40009631C0EB8010CFF6FF7101EB400080B2DC
:103F500044F6056148436FF07E0101EB5050EAE5FD
:103F60008C282DD3F3283FF604AE4BF69631C0EBE8
:103F70008010CFF6FF7101EB400080B244F605617E
:103F800048436FF07E0101EB505022E68C2819D394
:103F9000F3283FF63BAE4BF69631C0EB8010CFF6E0
:103FA000FF7101EB400080B244F6056148436FF0B9
:103FB0007E0101EB50505AE681206CE58120BAE584
:103FC000812006E6812052E67F2064E57F20B2E56D
:103FD0007F20FEE57F204AE6000002400008024004
:103FE00000080240000002400000024000000240C1
:103FF000000C0240000C0240000C0240000C024089
:10400000000C0240000C024001000200010002000E
:10401000040010000020001000080001000200044D
:10402000074B19680868B0E8F04F80F30988BFF3C0
:104030006F8F4FF0000080F31188704700BF00BF02
:1040400020010020FEF7FEFD322000F0B9FAF9E76A
:10405000FFF70AFCFFF7E8F9012000F0B1FAF7E7F3
:1040600080B54EF21000CEF200000068FDF70AFAAB
:1040700002F008F8012808BF80BDBDE8804001F0CB
:10408000CFBC0000B0B592B0002443F64000CDE9AB
:104090000A44CDE908440594CDE90344CDE901443F
:1040A0000094C4F202000168022541F080510160D1
:1040B000006800F080500090009847F200000094E3
:1040C000C4F20000016841F480410160006800F41E
:1040D000804000900098012006904FF480300790B7
:1040E0004FF480000D9019200E904FF4A870CDE988
:1040F0000F050420119006A80C95FDF7A1FB18B13F
:1041000072B600BFFEE700BF0F20CDE901054FF4F6
:10411000A05004904FF48050059001A8052103940D
:10412000FDF780FA10B172B6FEE700BF12B0B0BD65
:104130004EF68850CEF20000016841F47001016033
:1041400070470000806B0021C185FDF769BD00004C
:10415000806B01684A6990F84130212B2ED112F012
:1041600080022BD00022C28451E8031F026821F094
:10417000C00142E80313EBB1016851E8031F026874
:1041800021F0C00142E80313A3B1016851E8031F05
:10419000026821F0C00142E803135BB1016851E8F5
:1041A000031F026821F0C00142E8031313B1016844
:1041B000DAE700BF202180F8411001684A6990F8D1
:1041C0004230222B7CD112F0400279D00022C285ED
:1041D00051E8031F026821F4907142E80313C3B34E
:1041E000016851E8031F026821F4907142E803134B
:1041F0007BB3016851E8031F026821F4907142E823
:10420000031333B3016851E8031F026821F490716E
:1042100042E80313EBB10168DAE700BF016851E837
:10422000051F026821F0010142E80513DBB10168B6
:1042300051E8051F026821F0010142E8051393B11E
:10424000016851E8051F026821F0010142E80513E9
:104250004BB1016851E8051F026821F0010142E8F5
:104260000513002BDAD1016B012924D1016851E833
:10427000031F026821F0100142E80313DBB101685B
:1042800051E8031F026821F0100142E8031393B1C3
:10429000016851E8031F026821F0100142E803138E
:1042A0004BB1016851E8031F026821F0100142E898
:1042B0000313002BDAD1202180F842100021016382
:1042C000416C41F010014164FDF7AABC0168806BAC
:1042D0000968C90548BFFEF7DBBA0021C18400BFE9
:1042E000016851E8051F026821F0800142E80513CA
:1042F00083B3016851E8051F026821F0800142E89C
:1043000005133BB3016851E8051F026821F08001E5
:1043100042E80513F3B1016851E8051F026821F076
:10432000800142E80513002BDAD113E0016851E85F
:10433000031F026841F0400142E80313002B08BF4D
:104340007047016851E8031F026841F0400142E8EC
:10435000031393B1016851E8031F026841F0400163
:1043600042E803134BB1016851E8031F026841F0B2
:10437000400142E80313002BD8D17047806BFEF751
:1043800089BA000081B090F84210222920D18368B8
:10439000B3F5805F08D10169002965D000F12801DB
:1043A0000A6803685B680AE0014651F8282F13B9D0
:1043B0000369002BF5D003685B6803F07F0313707B
:1043C0000A6801320A60C18D01390A04C18501D031
:1043D00001B070470168CA6822F02002CA60CA684A
:1043E00022F48072CA604A6922F001024A612022E6
:1043F00080F8422000224263036B012B3ED102630E
:1044000051E8031F026821F0100142E8031301681C
:10441000DBB151E8031F026821F0100142E80313E9
:10442000016893B151E8031F026821F0100142E8CE
:10443000031301684BB151E8031F026821F010011A
:1044400042E803130168002BDAD10A68D20606D5C8
:10445000002200920A680092496800910099818DBB
:1044600001B0FDF7BFBB00BF0168826A49686FF306
:104470005F2122F8021B8262A5E700BF01B0FEF7B0
:10448000C5B8000010B504460068D4E902C223692B
:10449000016921F4405111430161626943EA0C0151
:1044A000E3691143C268194349F20C639A4311430B
:1044B000C1604169A26921F4407141F20043114396
:1044C00040F48062C4F201039A42416102D1FDF7D7
:1044D0006DF901E0FDF756F9E16963681922B1F55C
:1044E000004FA0FB02011FD15A00DB0FFBF7BCFEFF
:1044F00048F21F51C5F2EB11A0FB01235A096FF0DE
:10450000630302FB0300322303EBC000A0FB0101A5
:104510004FF4F87000EA111000EB0210C1F34211E1
:1045200008442168886010BD9A009B0FFBF79CFE31
:1045300048F21F51C5F2EB11A0FB01235A096FF09D
:10454000630302FB0300322303EB0010A0FB010115
:10455000F02000EA511000EB0210C1F343110844AF
:104560002168886010BD000040F25C40C2F200008B
:10457000FDF758BB40F2A440C2F20000FDF752BB69
:10458000FEE70000FCF78CFFFFF77CFDFEF784FAE6
:10459000FEF730FAFEF782F9FEF7C8F9FEF714FBD2
:1045A000FEF730FB4FF47A70FCF782FDFEF7A6FBB6
:1045B00000F016F8FEF752FA00F026F8FEE70000C9
:1045C000EFF3058100291CBF6FF00500704700283C
:1045D00004BF0020704780B500F0B8FF002080BD08
:1045E000EFF3058000281CBF6FF00500704740F214
:1045F0002420C2F200000168002911BF4FF0FF30F3
:10460000012101600020704710B5EFF305800028FC
:104610001CBF6FF0050010BD40F22420C2F2000064
:10462000016801291CBF4FF0FF3010BD4EF61F512D
:10463000CEF2000100240C700221016001F050F85C
:10464000204610BDF0B585B08C4600230493EFF3EF
:10465000058140B139B94AB19469002C08BF1824CA
:10466000382C15D90023184605B0F0BD0021802351
:10467000182404AF9AB263460094019701F096FCA7
:1046800001280CBF049B0023184605B0F0BD00BFF5
:104690001179C90720D15669D2E902574FEA960E1F
:1046A0001168002E734608BF80238DB15C2F13D391
:1046B00012690023002A18BF002ED4D0CDE9004291
:1046C00072466346029501F0A1FC05B0F0BD00BF43
:1046D00017B91269002ACCD00023184605B0F0BDE6
:1046E0002DE9F041044600F0EFFD40F22016C2F241
:1046F0000006F06840F2DC550130F0603068C2F22C
:10470000000558B13069002840F007813068E16A3F
:10471000C06A884298BF3460FFE000BF3460F06830
:10472000012840F0FA80284600F074FD05F11400DD
:1047300000F070FD05F1280000F06CFD05F13C0073
:1047400000F068FD05F1500000F064FD05F1640023
:1047500000F060FD05F1780000F05CFD05F18C00D3
:1047600000F058FD05F1A00000F054FD05F1B40083
:1047700000F050FD05F1C80000F04CFD05F1DC0033
:1047800000F048FD05F1F00000F044FD05F58270F1
:1047900000F040FD05F58C7000F03CFD05F59670CD
:1047A00000F038FD05F5A07000F034FD05F5AA70A5
:1047B00000F030FD05F5B47000F02CFD05F5BE707D
:1047C00000F028FD05F5C87000F024FD05F5D27055
:1047D00000F020FD05F5DC7000F01CFD05F5E6702D
:1047E00000F018FD05F5F07000F014FD05F5FA7005
:1047F00000F010FD05F5027000F00CFD05F50770E6
:1048000000F008FD05F50C7000F004FD05F51170D1
:1048100000F000FD05F5167000F0FCFC05F51B70BE
:1048200000F0F8FC05F5207000F0F4FC05F52570AB
:1048300000F0F0FC05F52A7000F0ECFC05F52F7097
:1048400000F0E8FC05F5347000F0E4FC05F5397083
:1048500000F0E0FC05F53E7000F0DCFC05F543706F
:1048600000F0D8FC05F5487000F0D4FC05F54D705B
:1048700000F0D0FC05F5527000F0CCFC05F5577047
:1048800000F0C8FC05F55C7000F0C4FC05F5617033
:1048900000F0C0FC05F5667000F0BCFC05F56B701F
:1048A00000F0B8FC05F5707000F0B4FC05F575700B
:1048B00000F0B0FC05F57A7000F0ACFC05F57F70F7
:1048C00000F0A8FC05F5826000F0A4FC05F224408D
:1048D00000F0A0FC05F5876000F09CFC05F24C4060
:1048E00000F098FC40F2FC18C2F20008404600F0CC
:1048F00091FC08F11407384600F08CFC06F16400C6
:1049000000F088FC06F13C0000F084FC06F1500049
:1049100000F080FCC6F81C8037627068716A421C27
:10492000E06A72608842626488BF706200EB800057
:1049300005EB8000211D00F0AFFC00F0E9FC3069C0
:1049400088B13068E16AC06A884228BFBDE8F0815A
:104950004EF60450CEF200004FF080510160BFF3DC
:104960004F8FBFF36F8FBDE8F081000040F220153C
:1049700040F2DC564EF60458C2F20005C2F20006C0
:10498000CEF200084FF0805703E000BF204600F051
:10499000D7FCA868D0B100F097FCA86CC468201DB3
:1049A00000F00AFCE8680138E860A8680138A860EF
:1049B00000F0AEFC94F859000228EAD00128E5D0B6
:1049C00070B9206B00F0BCFCE0E700BF3068022843
:1049D000DFD3C8F80070BFF34F8FBFF36F8FD8E7F6
:1049E0004FF0500080F31188BFF36F8FBFF34F8FEC
:1049F000FEE700002DE9F0470A9C8246206B164630
:104A00000F46DDE908599100A5229846FBF7E9FC1D
:104A1000206B002F00EB8600A0F1040020F00706B9
:104A200056D0387884F83400387800284BD078781D
:104A300084F835007878002845D0B87884F83600B6
:104A4000B87800283FD0F87884F83700F878D0B3E9
:104A5000387984F838003879A8B3787984F839003F
:104A6000787980B3B87984F83A00B87958B3F8798E
:104A700084F83B00F87930B3387A84F83C00387A0F
:104A800008B3787A84F83D00787AE0B1B87A84F88F
:104A90003E00B87AB8B1F87A84F83F00F87A90B15D
:104AA000387B84F84000387B68B1787B84F841001B
:104AB000787B40B1B87B84F84200B87B00281CBFEB
:104AC000F87B84F84300002084F8430003E000BF33
:104AD000002084F834000027201D372D28BF3725FB
:104AE000E562C4E9135700F0A1FB04F1180000F0DF
:104AF0009DFBC5F13800A061304651464246246115
:104B00006462676584F8587000F042FBB9F1000FE9
:104B1000206018BFC9F80040BDE8F0870848006869
:104B2000006880F308884FF0000080F3148862B6B4
:104B300061B6BFF34F8FBFF36F8F00DF00BF000080
:104B400008ED00E081B00020009040F20C00C2F2BD
:104B5000000000684FF0500181F31188BFF36F8FA0
:104B6000BFF34F8F013007D0FEE700BF009830B988
:104B7000009820B9009810B900980028F6D001B02C
:104B80007047000088B040F2981AC2F2000A0DF196
:104B90001009EB46DAF8080005681DB1C068046822
:104BA00001E000BF002400F013FE01F07BFADAF808
:104BB00010100646884220D3002DCAF8106051D04C
:104BC000A6424FD301F076FBDAF80800C068C76848
:104BD0003D1D284600F0F0FA97F82800410745D41B
:104BE00000F0FE0087F8280084E000BF6860DAF873
:104BF000080039462D6100F01DFBDAF80800016855
:104C000031B3C068C56804682F1D384600F0D4FA77
:104C1000296A2846884795F828004007EDD5A869F5
:104C20002044A042E2D8DAF80000002800F04881D1
:104C3000002004A931C101F025FADAF80000494644
:104C40000022002300F074FF0028D6D138E100BF15
:104C5000DAF80C10CAF81060CAE9021001F02AFB59
:104C60001AE100BF65B1002210E000BFB8693F61E2
:104C70000119B14279601FD90AF1080021E000BF93
:104C8000DAF80C000068B0FA80F04209DAF80000A7
:104C9000A11B00F031FC01F00DFB002840F0FC806E
:104CA0004EF60450CEF200004FF080510160BFF389
:104CB0004F8FBFF36F8FEFE0311B814206D20AF1B5
:104CC0000C000068294600F0B5FA13E0DAF800009D
:104CD000002800F01381002004A991C101F0D2F94D
:104CE000DAF8000049460022002300F021FF0028E6
:104CF00000F00481396A38468847CDE00098B0F169
:104D0000FF3F07DCDDE90120039990470098002868
:104D100000F1C280029E706910B1301D00F04CFAA3
:104D200001F0C0F9DAF81010074688420DD3009858
:104D3000CAF8107009283FD9AEE000BF6860DAF801
:104D4000080021462D6100F075FADAF808000168C4
:104D500041B3C068C568D0F800802C1D204600F023
:104D60002BFA296A2846884795F828004007ECD591
:104D7000A86940444045E1D8DAF80000002800F076
:104D800095800020CDE90408069501F07BF9DAF85A
:104D9000000049460022002300F0CAFE0028D4D1BA
:104DA00084E000BFDAF80C10CAE902100098CAF8D3
:104DB0001070092800F27080DFE800F00606064453
:104DC00048620606444800BF96F82800019A40F061
:104DD0000101B06986F828108318314641F8043F74
:104DE000BB42366106D997420AF1080007D29342C6
:104DF0000AD204E0BA1A824206D20AF10C00006814
:104E000000F018FA48E000BF316A3046884796F84B
:104E10002800400740D5DAF8000000285AD0019851
:104E2000B169069608440021CDE9041001F02AF981
:104E3000DAF8000049460022002300F079FE58BB52
:104E400048E000BF96F8280022E000BF96F828004E
:104E500040F00101019886F828100028B06143D085
:104E6000384431460AF10C0241F8040F3661B84269
:104E700088BF0AF10802106800F0DCF90CE000BFFE
:104E800096F82800810703D4304600F059FA03E071
:104E900000F0FE0086F82800DAF8000059460022EB
:104EA00000F05CFF00287FF429AF73E64FF050005C
:104EB00080F31188BFF36F8FBFF34F8FFEE700BF02
:104EC0004FF0500080F31188BFF36F8FBFF34F8F07
:104ED000FEE700BF4FF0500080F31188BFF36F8FE3
:104EE000BFF34F8FFEE700BF4FF0500080F31188F3
:104EF000BFF36F8FBFF34F8FFEE700BF4FF050003F
:104F000080F31188BFF36F8FBFF34F8FFEE7000070
:104F1000F0B581B0044600F0D7F994F94560012E50
:104F20000FDB04F1240500BF286850B1284601F0CA
:104F300087F9002818BF00F053FBF0B2013E0128AA
:104F4000F2D8FF2684F8456000F0E2F900F0BCF9E1
:104F500094F94470012F0EDB04F11005286850B15C
:104F6000284601F06DF9002818BF00F039FBF8B2AF
:104F7000013F0128F2D884F8446001B0BDE8F04058
:104F800000F0C6B970B5044600F022FC40F2D41C13
:104F9000C2F2000CDCF8040050B19CF800000028BC
:104FA00018BF4FF000404FF000057CBB8DE000BF04
:104FB00040F63C20C2F20000C21D22F0070210F0B1
:104FC0000701A0EB020318BF104600224FF47055F2
:104FD000CCE90602002918BF03F5705541190839BC
:104FE00021F00701CCF80410C1E90022DCF804200C
:104FF000091AC0E9002101208CF800004FF00040A0
:10500000CCE90211002C4FF000055ED020405CD1AD
:1050100004F1100020F00702600708BF04F1080245
:10502000002A4FF0000550D0DCF8080082424CD82E
:10503000604650F818EFDEF8045095422BD2DEF8A7
:105040000010B9B174464D68954217D20B68ABB1E8
:105050005D68954216D21868A0B14568954215D290
:1050600004689CB16568954214D22168A64600295F
:10507000E9D110E00CF118000DE000BF8E4620468B
:1050800009E000BF9E46084605E000BF8646184678
:1050900001E000BFA646DCF804108E4514D001687C
:1050A000DEF80040AB1A112B04604DD30EEB020565
:1050B000680719D04FF0500080F31188BFF36F8F4D
:1050C000BFF34F8FFEE700BF002501F0F3F868073C
:1050D0005BD04FF0500080F31188BFF36F8FBFF3A8
:1050E0004F8F00BFFEE700BF0CF118006B60CEF8D9
:1050F000042000BF0368AB420AD21868A8420BD252
:105100000368AB4204D218681A46A842F2D304E0FE
:105110000246184601E000BF1A4653686C68D6186C
:10512000AE4202D11C44154654602B19834207D16C
:10513000DCF80430984203D0D0E9000323446B60CC
:10514000AA42286018BF156001F10805DEF80400C6
:10515000DCE90212091A9142CCF8081038BFCCF8E9
:105160000C109CF80010002918BF40F00040CEF849
:105170000400DCF8100000210130CEF80010CCF85B
:10518000100001F097F86807A3D1284670BD000011
:10519000034644F64530C0F600004FF0807C21F015
:1051A000010103E903106FF0020043F8240CA3F19E
:1051B000440043F8202C7047D0E9013201699A601D
:1051C000D1F804C082688445536008BF4A60002259
:1051D00002610868013808600868704744F64003B7
:1051E000C2F20003036044F24060C2F200000860B3
:1051F000802010607047000044F69C43C2F2000318
:10520000036044F69C00C2F2000008604FF4807016
:10521000106070474FF0FF31024642F8081F00212E
:105220004260C0E903220160704700000021016173
:105230007047000010B5D1F800E01EF1010213D054
:1052400000F1080462681368734511D853681C683C
:10525000744511D85A68146874450FD85468236887
:10526000A4467345EED90BE00269D2F804C007E00A
:105270009446224604E000BF9C4601E094461A464C
:10528000C1F804C0CCF808108A6051600861016858
:105290000131016010BD0000D0F800C04368086112
:1052A0009A684B608A609A68996051600CF10101BC
:1052B00001607047DFF80C00016841F47001016083
:1052C0007047000088ED00E04FF0500080F3118837
:1052D000BFF36F8FBFF34F8F40F20C00C2F200009C
:1052E00001684A1C026009B1704700BF4EF60450C5
:1052F000CEF200000068000608BF70474FF0500073
:1053000080F31188BFF36F8FBFF34F8FFEE700006C
:1053100040F20C00C2F20000016839B101390160AD
:1053200018BF7047002080F3118870474FF050007D
:1053300080F31188BFF36F8FBFF34F8FFEE700003C
:1053400070B5002808BF70BD40F2D415C2F2000548
:105350000446287854F8041C002818BF4FF0004079
:1053600008420DD0A4F1080632689AB14FF05000FF
:1053700080F31188BFF36F8FBFF34F8FFEE700BF3D
:105380004FF0500080F31188BFF36F8FBFF34F8F42
:10539000FEE700BF21EA000044F8040C00F018FA10
:1053A00054F8041CA8680844A86005F1180000BF60
:1053B0000368B3420AD21868B04225D20368B342E8
:1053C00004D218681A46B042F2D301E002461846E9
:1053D0005368D418B44202D1194416465160731868
:1053E000834206D16B68984203D0D0E90003194488
:1053F0007160B242306018BF166068690130686140
:10540000BDE8704000F056BF1A465368D418B44245
:10541000E5D1E1E74EF21000CEF20000002101607C
:10542000816040F20801C2F20001096844F6D352DB
:10543000C1F26202A1FB02124FF0FF3101EB9211A7
:10544000416007210160704744F6F84CC2F2000C3D
:10545000DCF8002022B3634653F8082F42B36346BA
:1054600053F8102F52B3634653F8182F62B36346B4
:1054700053F8202F72B3634653F8282F82B3634644
:1054800053F8302F92B3634653F8382F002A18BFD1
:105490007047072219600CEBC2014860704700BFDB
:1054A0000022634619600CEBC2014860704700BFE0
:1054B000012219600CEBC20148607047022219609A
:1054C0000CEBC20148607047032219600CEBC2016B
:1054D00048607047042219600CEBC20148607047B5
:1054E000052219600CEBC201486070470622196062
:1054F0000CEBC2014860704770B515460E46044675
:10550000FFF7E2FE94F84400FF2804BF002084F86F
:10551000440094F84500FF2804BF002084F84500AB
:10552000FFF7F6FEA06B28B12046BDE87040FFF7FC
:10553000EFBC00BF04F1240031462A4600F092F887
:105540002046BDE87040FFF7E3BC000070B588B3AB
:1055500040F22015C2F200050446686950B14FF0D0
:10556000500080F31188BFF36F8FBFF34F8F00BFE0
:10557000FEE700BF686901306861AE6928680430E1
:10558000FFF71AFE2868A419446005D3286A296821
:105590000431FFF74FFE08E0E86929680431FFF79E
:1055A00049FEE86A844238BFEC6200F083FE0028BE
:1055B00018BF70BD4EF60450CEF200004FF080517F
:1055C0000160BFF34F8FBFF36F8F70BD40F22011AA
:1055D000C2F200018A6B0260896941607047000075
:1055E00040F22010C2F20000012101637047000068
:1055F00070B5D8B140F22014C2F200040D46216803
:105600001831FFF717FEA66920680430FFF7D4FDB4
:10561000681C15D02068AD19456019D3206A21682F
:105620000431BDE87040FFF705BE00BF4FF05000E9
:1056300080F31188BFF36F8FBFF34F8FFEE700BF7A
:1056400054F8500B011D2046BDE87040FFF724BE02
:10565000E06921680431FFF7EDFDE06A854238BF5B
:10566000E56270BDF0B581B0C0B140F22014C2F265
:1056700000040D46216816461831FFF70DFEA76994
:1056800020680430FFF798FD96B154F8500B011DC7
:10569000204601B0BDE8F040FFF7FEBD4FF05000DE
:1056A00080F31188BFF36F8FBFF34F8FFEE700BF0A
:1056B0002068ED19456007D3206A2168043101B0E4
:1056C000BDE8F040FFF7B6BDE06921680431FFF79F
:1056D000B1FDE06A854238BFE56201B0F0BD00006F
:1056E00010B588B00020CDE9050006A805A904AAD8
:1056F000FFF774FD059800283ED0069C002C45D08D
:105700005C21049A079107995C2949D10799206384
:10571000022084F8590007A80021CDE9001044F6C2
:105720006D10C0F6000028A100230294FFF762F973
:105730002046FEF7D5FF079840F22014C2F200047D
:10574000A062B0B100F02EFE411C33D0012810D170
:105750004FF0500080F31188BFF36F8FBFF34F8F6E
:105760004FF0FF30E062012020610020A06100F0D6
:1057700095F808B010BD00BF4FF0500080F31188BD
:10578000BFF36F8FBFF34F8FFEE700BF4FF05000A6
:1057900080F31188BFF36F8FBFF34F8FFEE700BF19
:1057A0004FF0500080F31188BFF36F8FBFF34F8F1E
:1057B000FEE700BF4FF0500080F31188BFF36F8FFA
:1057C000BFF34F8FFEE700BF49444C450000000087
:1057D00040F22010C2F2000041690131416170477E
:1057E00080B540F2201EC2F2000EDEF8141019B18E
:1057F0000121CEF8301080BD0021CEF83010DEF847
:10580000241040F2DC5C01EB8103C2F2000C5CF876
:1058100023208AB101EB81020CEB820353F8042FA1
:105820005268181D82421A6020D0D068CEF800005D
:10583000CEF8241080BD00BF0CEB8302A2F1280338
:10584000E1B15A6922BB012918D01A6812BB02299A
:1058500014D053F8142CFAB903290FD053F8282C7C
:105860000439002AA3F15003EAD0D3E752681A6042
:10587000D068CEF80000CEF8241080BD4FF0500064
:1058800080F31188BFF36F8FBFF34F8FFEE700BF28
:105890000139BFE70239BDE70339BBE7B0B584B0D2
:1058A0004EF2004CCEF2000C4CF27021C4F20F11FB
:1058B000DCF800294B1C9A420AD14FF0500080F3CB
:1058C0001188BFF36F8FBFF34F8F00BFFEE700BF9C
:1058D000DCF800298A4209D14FF0500080F311888A
:1058E000BFF36F8FBFF34F8FFEE700BF9CF8001030
:1058F0000291FF218CF800109CF800108DF8071021
:105900009DF8071001F0500240F2F411C2F20001BC
:105910000A7007224A609DF90720B2F1FF3F69DC57
:10592000032200BFD31C4B609DF8070040008DF898
:1059300007009DF90700B0F1FF3F23DC931C4B608B
:105940009DF8070040008DF807009DF90700B0F1B1
:10595000FF3F17DC531C4B609DF8070040008DF89B
:1059600007009DF90700B0F1FF3F0BDC4A609DF88E
:105970000700043A40008DF807009DF90700002851
:10598000D0D4131D032B35D14FF4407048600298DA
:105990008CF80000DCF8200940F47000CCF82009F5
:1059A000DCF8200940F07040CCF82009FFF732FD08
:1059B00040F20C04C2F2000400252560FFF77AFCD7
:1059C0004EF63470CEF20000016841F040410160B3
:1059D000FFF7A4F8FFF704FF039520684FF050018C
:1059E00081F31188BFF36F8FBFF34F8F013011D058
:1059F000FEE700BF4FF0500080F31188BFF36F8FB8
:105A0000BFF34F8FFEE700BF039830B9039820B96A
:105A1000039810B903980028F6D0002004B0B0BD58
:105A200080B54FF0500080F31188BFF36F8FBFF344
:105A30004F8F00F03DFB30B14EF60450CEF2000027
:105A40004FF080510160002080F3118880BD00007C
:105A500070B582B070B11C46B3B1F9B9F2B14FF074
:105A6000500080F31188BFF36F8FBFF34F8F00BFDB
:105A7000FEE700BF4FF0500080F31188BFF36F8F37
:105A8000BFF34F8FFEE700BF4FF0500080F3118847
:105A9000BFF36F8FBFF34F8FFEE700BF51B14AB91D
:105AA0004FF0500080F31188BFF36F8FBFF34F8F1B
:105AB000FEE700BF50230193019B502B2ED1019B89
:105AC000069E0123002984F8463014BF226024601A
:105AD000C4E90F01FFF7F8FB2068D4E90F12002595
