:020000040800F2
:10000000B85001249903000899C10008019E000816
:1000100091C10008E10E0008292E0108000000002F
:1000200000000000000000000000000001F40008D3
:10003000F128000800000000A1D7000831FB0008EB
:10004000B7030008B7030008B7030008B7030008A8
:10005000B7030008B7030008B7030008B703000898
:10006000B7030008B7030008B70300089120000891
:10007000A1200008B1200008C1200008D1200008FC
:10008000E1200008F1200008B7030008D13800087B
:10009000E1380008B7030008B7030008B7030008F9
:1000A000B7030008B7030008B7030008B703000848
:1000B000B7030008B7030008B7030008B703000838
:1000C000B7030008B7030008B7030008B703000828
:1000D000B7030008691B0108B7030008B70300084D
:1000E000B7030008B703000800000000B7030008CA
:1000F000B7030008B7030008B70300080121000890
:10010000B7030008B7030008B7030008B7030008E7
:1001100071FE0008B7030008E9FC0008B7030008F7
:100120001121000821210008312100084121000887
:10013000B7030008B7030008B7030008B7030008B7
:1001400000000000000000000000000000000000AF
:10015000B7030008B7030008B7030008791B0108BC
:10016000B7030008B7030008B7030008B703000887
:10017000B7030008B7030008B70300080000000039
:10018000B7030008B703000881FE000891FE0008CD
:10019000B7030008B7030008B7030008B703000857
:1001A000B7030008B7030008B70300080000000009
:1001B000B7030008B7030008B7030008B703000837
:1001C000B7030008B70300080000000000000000AB
:1001D0000000000000000000B7030008000000005D
:1001E000000000000000000000000000000000000F
:1001F0000000000000000000B7030008B70300087B
:10020000B7030008B703000800000000B7030008A8
:10021000B7030008B7030008B7030008B7030008D6
:10022000B703000800000000B7030008000000004A
:10023000B7030008B703000800000000B703000878
:10024000B7030008B7030008B7030008B7030008A6
:10025000B7030008B7030008B7030008B703000896
:10026000B7030008B7030008B7030008B703000886
:10027000B7030008B7030008B70300080000000038
:10028000B7030008B7030008B7030008B703000866
:1002900000000000B7030008B703000800000000DA
:1002A00000000000B7030008B7030008A1FE000823
:1002B000B7030008B7030008B7030008F1380008C7
:1002C000B7030008B7030008B703000800F002F8FE
:1002D00000F052F814A696E8000CB244B344DA4594
:1002E00001D100F049F8BAE80F000FA696E83000F7
:1002F000A5EB040504EB0607AAEB0704A7F1010729
:100300004FEA15154FEA3414A4F10104AC4201D3AD
:1003100000F032F813F0010F18BFFB1A43F001038D
:1003200000F001F8DBE71847C4680100E468010049
:10033000103A24BF78C878C1FAD8520724BF30C811
:1003400030C144BF04680C60704700007047000073
:100350000023002400250026103A28BF78C1FBD8CE
:10036000520728BF30C148BF0B6070471FB516F059
:10037000D3FA1FBD10B510BD00F0C2F91146FFF74A
:10038000F5FF13F051FA00F0E0F903B4FFF7F2FFC4
:1003900003BC00F0E3F900000A4880470A488047A0
:1003A0000A480047FEE7FEE7FEE7FEE7FEE7FEE756
:1003B000FEE7FEE7FEE7FEE705480649064A074B6B
:1003C00070470000A138000811FC0008CD020008A9
:1003D000B83E0124B8500124B8400124B84001249B
:1003E00053EA020C00F069802DE9F04B4FF0000653
:1003F000002B1FBFB3FA83F503FA05F424FA05F6C0
:100400005E4012BF1643B2FA82F502FA05F4C5F156
:1004100020051EBF22FA05FC44EA0C04203556EAEA
:10042000044C4FEA144418BF641C4FF000084FF00E
:100430000009904271EB030C39D3002919BFB1FABE
:1004400081F701FA07F6B0FA80F700FA07F6C7F16C
:1004500020071EBF20FA07FC46EA0C062037B6FB31
:10046000F4FCA7EB0507103F07F01F0BCBF12006AC
:100470002CFA06F60CFA0BFB44BFB3460026202FDD
:10048000A4BF5E464FF0000B5BEA060C08BF4FF0BE
:10049000010B19EB0B0948EB0608ABFB027C06FBD2
:1004A00002CC0BFB03CCC01B71EB0C01C1E70B466C
:1004B000024641464846BDE8F08B13B5084318BFD5
:1004C0004FF0FF300146AFF30080BDE81C4070479D
:1004D00053EA020C23D010B54C1084EA530404D51F
:1004E0004042C1F1000138BF491E1B4204D55242AF
:1004F000C3F1000338BF5B1EFFF772FF14F0804F9B
:1005000004D04042C1F1000138BF491E14F0004F31
:1005100004D05242C3F1000338BF5B1E10BD13B5B7
:1005200040424FF0000070EB0104B8BF012001F021
:10053000004100281CBF6FF000414FF0FF30AFF3C7
:1005400000801CBD032A40F2308010F0030C00F044
:10055000158011F8013BBCF1020F624498BF11F8FD
:1005600001CB00F8013B38BF11F8013BA2F10402B6
:1005700098BF00F801CB38BF00F8013B11F003032E
:1005800000F02580083AC0F0088051F8043B083A92
:1005900051F804CBA0E80810F5E7121D5CBF51F834
:1005A000043B40F8043BAFF30080D20724BF11F8AE
:1005B000013B11F801CB48BF11F8012B24BF00F813
:1005C000013B00F801CB48BF00F8012B704710B584
:1005D000203AC0F00B80B1E81850A0E81850B1E8FC
:1005E0001850A0E81850203ABFF4F5AF5FEA027C3B
:1005F00024BFB1E81850A0E8185044BF18C918C06B
:10060000BDE810405FEA827C24BF51F8043B40F80B
:10061000043B08BF7047D20728BF31F8023B48BFF0
:1006200011F8012B28BF20F8023B48BF00F8012B2E
:10063000704702F0FF0343EA032242EA024200F05D
:1006400024B84FF000020429C0F0128010F0030C0F
:1006500000F01B80CCF1040CBCF1020F18BF00F8B5
:10066000012BA8BF20F8022BA1EB0C0100F00DB864
:100670005FEAC17C24BF00F8012B00F8012B48BFC2
:1006800000F8012B70474FF0000200B51346944666
:100690009646203922BFA0E80C50A0E80C50B1F1DA
:1006A0002001BFF4F7AF090728BFA0E80C5048BFEE
:1006B0000CC05DF804EB890028BF40F8042B08BF8C
:1006C000704748BF20F8022B11F0804F18BF00F888
:1006D000012B704770477047704710B500F008F85D
:1006E000006810BD10B5044600F002F8046010BDAB
:1006F00000487047700000240048704770000024D4
:100700007546FFF7F9FFAE4605006946534620F0EF
:100710000700854618B020B5FFF74EFEBDE8204023
:100720004FF000064FF000074FF000084FF0000BAD
:10073000AC46ACE8C009ACE8C009ACE8C009ACE81C
:10074000C00921F007018D46704710B50446AFF38C
:1007500000802046BDE81040FFF717BE0149182071
:10076000ABBEFEE72600020070470000000000005C
:10077000082801D90120704707D140F2A031C2F208
:100780000041CA7A82F00102CA7240F21001C2F23C
:10079000004108700020704770B584B011F0A4FBD0
:1007A00040F2A035C2F2004518B1297B11B90021F1
:1007B000E9812873687B08B306F016F9697B044663
:1007C0004A1E0A2A00F24A82DFE812F00C00F80002
:1007D000C200D000AC003C014A01E4006801BA004C
:1007E0005A0100BF11F094FB002800F0368200206F
:1007F000E8732870A5F80D0004B070BD40F2100435
:10080000EFF31080C2F2004472B600284FF0FF00F0
:100810002678207002D0FF2E04D1A1E262B6FF2E0E
:1008200000F09E82072E69D0022E0BD111F024FB1E
:10083000002869D09FEDB50A11F022FC287004B0A1
:1008400070BD00BF11F050FB00285DD0082E00F2F3
:100850008782DFE816F00B005D0109003F018F0180
:100860009F0175015300B901E4E700BFA87B01288F
:1008700040F05981E87B012840F05581287A012811
:1008800001D100202872002E00F03E8240F2EC11CF
:100890009FEDDF2AC2F200410020686191ED000A5D
:1008A00091ED011A30EE023A91ED024A85ED063AD9
:1008B0009FEDD83A30EE030A9FEDD73A71EE030A66
:1008C0009FEDD63A91ED037A31EE025A34EE031AD7
:1008D000A86277EE031A85ED075A34EE026A37EE06
:1008E000022A85ED086A85ED092A12F095F900289B
:1008F000287040F03582022035E200BF11F044F943
:10090000287004B070BD00BFEFF3108072B621787C
:10091000FF2908BF2670002840F0228262B604B08A
:1009200070BD00BF11F098FC002800F096810020F7
:1009300028704FF40070A5F80D0004B070BD00BF22
:1009400011F036F9002800F088810120ACE000BFEA
:1009500011F082FC002800F0808111F041FC002899
:10096000287040F086800420ABE000BF11F004FA4C
:10097000022800F07281002840F09C809FEDBE0AA2
:10098000F0EE400A12F0C8F90028287071D1052055
:1009900097E000BF11F0F0F9022800F05E81002816
:1009A00040F088809FEDB50AF0EE400A12F074F82E
:1009B000002828705DD1092083E000BF684611F04F
:1009C0005FF9002800F0498195ED050AB5EE400A6F
:1009D000F1EE10FA12D19DED001A95ED062AB4EE53
:1009E000421AF1EE10FA09DB9DED011A95ED072A86
:1009F000B4EE421AF1EE10FA80F2F6800020D5ED46
:100A00000A0AF5EE400AF1EE10FA40F0FB809DED87
:100A1000021A95ED082AB4EE421AF1EE10FAC0F26D
:100A2000F1809DED031A95ED092AB4EE421AF1EE1C
:100A300010FAC0F2E7800020F0EE080AC4F240008D
:100A4000A862E0E011F008FC002800F00681002018
:100A500028704FF48070A5F80D0004B070BD00BF81
:100A600011F0A6F8002800F0F88011F081FB287042
:100A700030B30020687304B0BDE8704012F0C8B90C
:100A800011F046FA002800F0E88040F21001287CBE
:100A9000C2F2004180F00100487006E011F088F8D1
:100AA000002800F0DA800220E873002028706873C4
:100AB00004B070BD28700020687312F0A9F9CCE072
:100AC0000820687305F090FF41F288310844E8621D
:100AD000C3E000BFA87B012840F0818040F2EC1009
:100AE0009FEDAB2AC2F2004090ED000A90ED011A92
:100AF00030EE020A9FEDA72A71EE020A12F00CF9FD
:100B00000028287040F02C8103202CE10000B44321
:100B1000E87BA97BC0B2084305D1E87A18B96078B0
:100B200000287FF4ABAE287A012858D1E87980F00C
:100B30000100E871002028720120287004B070BD07
:100B4000E87B02284BD140F2EC109FED8D1AC2F2E7
:100B5000004090ED020A90ED032A30EE010A72EE99
:100B6000010A11F099FF0028287040F0F9800A204E
:100B7000F9E000BFA87B022831D19FED830ADFEDA9
:100B8000830A12F0C9F80028287040F0E980062096
:100B9000E9E000BFE87B012821D140F2EC109FED95
:100BA000791AC2F2004090ED020A90ED032A30EE6D
:100BB000010A72EE010A11F06FFF0028287040F060
:100BC000CF800720CFE000BFE87BE97AAA7BC0B2E4
:100BD000104355D081F0010000F00100E8720120BF
:100BE000287004B070BD00BFB1EE000A4FF0814024
:100BF00068610120D5ED0A0AF5EE400AF1EE10FA1F
:100C00003FF405AF60B111F0C7FF48B101202CE0FF
:100C100000004C420000064300000443000005436E
:100C200011F076F9C8B1B1EE000A95ED051AB4EEEF
:100C3000401AF1EE10FA10D1B0EE080A95ED0A1A3A
:100C4000B4EE401AF1EE10FA07D10120E87300204B
:100C500028704FF48070A5F80D00697B002900F022
:100C60007F80E86A201A7BD40320287000206873F4
:100C700012F0CEF804B070BD0000B4420000E6C22D
:100C8000CA073AD040F2EC130020C2F2004393EDC1
:100C9000000AB0EEC01AB0EE080AB4EE401AF1EE47
:100CA00010FA99DCB8EE081A93ED012AB4EE412A45
:100CB000F1EE10FA90DBB4EE402AF1EE10FA3FF7B5
:100CC0008BAF93ED022AB4EE412AF1EE10FAFFF653
:100CD00083AFB4EE402AF1EE10FA3FF77DAF93ED0B
:100CE000032AB4EE412AF1EE10FAFFF675AFB4EE26
:100CF000402AF1EE10FA3FF76FAF297422B39FED4F
:100D00001F0A0020607021E040F2EC109FED223AB3
:100D1000C2F2004090ED000A90ED011A30EE030A95
:100D20009FED1E3A90ED022A71EE030A9FED1C3AE8
:100D300090ED034A32EE031A74EE031A11F06CFFC1
:100D4000287068B901200EE09FED0B0AF0EE400A12
:100D5000B0EE401AF0EE401A11F05EFF287008B1B4
:100D600004B070BD0B20687305F03EFE41F288317F
:100D70000844E86204B070BD000000000000344286
:100D8000000086C2000032C300003343000031433C
:100D90000000354300003743000006C3000004C3D1
:100DA000000005C300000000002818BF0120A9B101
:100DB00040F2A031C2F20041CA78BAB10A79824247
:100DC00008BF7047CA7A087182F00100C87240F209
:100DD00010000821C2F200400170704740F2A030BC
:100DE0000021C2F20040C170704700BF08710120AD
:100DF000C870704700000000002818BF0120B9B17A
:100E000040F2A031C2F200414A79CAB18A798242E5
:100E100008BF7047CA7988710120087220EA02026F
:100E200040F21000C2F20040CA710270704700BF69
:100E300040F2A0300021C2F200404171704700BF73
:100E4000887101204871704740F2A032002818BF15
:100E50000120C2F200420029507018BF0121917098
:100E60007047000000000000D1B140F2A031C2F292
:100E700000414A7A002A00F03F0219D0887A8A722B
:100E800022EA0000C30717D1810717D4410717D4FE
:100E9000010717D4C00658BF7047042013E000BFF5
:100EA00040F2A0300021C2F200404172704700BF02
:100EB0008A72012048727047002004E0012002E09D
:100EC000022000E0032004A1085C40F21001C2F2FD
:100ED00000410870704700BF0304020506FF0000D0
:100EE000FEE7000000000000F0B583B0002863D0EA
:100EF000044690F82F0001285ED194F82C100029A8
:100F000050D0D4F824C0201D01F0030E04294FF066
:100F100000034FF000055BD2BEF1000F42D005EB9D
:100F200005110CEB810191F82020A2F1090313F1C6
:100F3000080F0BD300EB820252F8042C32B10023CD
:100F40001377C2E90333938582F84230BEF1010F73
:100F500028D091F86420A2F1090313F1080F0BD3F4
:100F600000EB820252F8042C32B100231377C2E95D
:100F70000333938582F84230BEF1020F12D091F80C
:100F8000A810A1F1090212F1080F0BD300EB8100A8
:100F900050F8040C30B100210177C0E903118185BC
:100FA00080F8421094F82D0050B16068002863D09A
:100FB000808D010A62E000BF0125284603B0F0BD24
:100FC000002594F82E00012800F08E80C5E000BFB7
:100FD00001F0FC020CF1EC0105E000BF043501F565
:100FE0008871AA4298D011F8CC6CA6F1090717F1C4
:100FF000080F0AD300EB860656F8046C2EB1C6E93A
:1010000003333377B38586F8423011F8886CA6F144
:10101000090717F1080F0AD300EB860656F8046C8F
:101020002EB1C6E903333377B38586F8423011F821
:10103000446CA6F1090717F1080F0AD300EB8606E6
:1010400056F8046C2EB1C6E903333377B38586F8BE
:1010500042300E78A6F1090717F1080FBED300EB56
:10106000860656F8046C002EB8D0C6E903333377F1
:10107000B38586F84230B1E700200021A2688DF8E0
:1010800004108DF805001AB1908D010A02E000BF2E
:1010900000200021E2688DF806108DF807001AB1D3
:1010A000908D010A02E000BF0020002122698DF826
:1010B00008108DF809001AB1908D010A02E000BFF6
:1010C000002000218DF80A1001AA8DF80B0020687D
:1010D0004FF400710EF0E0FC0546002818BF012512
:1010E00094F82E00012838D1606918B1808D010A6A
:1010F00002E000BF00200021A2698DF804108DF8E5
:1011000005001AB1908D010A02E000BF0020002105
:10111000E2698DF806108DF807001AB1908D010A6A
:1011200002E000BF00200021226A8DF808108DF82F
:1011300009001AB1908D010A02E000BF00200021D1
:101140008DF80A1001AA8DF80B00206840F2FF11FB
:101150000EF0A2FC002818BF012505F045FCA06296
:10116000284603B0F0BD0000844600284FF0000080
:101170001FD0A1F1090313F1080F1AD3CAB15CF80B
:101180002110002908BF7047D1F82A008B6B13602B
:101190004B6B5360CB6BC2E90203B1F84000108285
:1011A00091F84200D074411EB1FA81F1480990745F
:1011B00001207047000000002DE9F04F83B0144675
:1011C0000122002818BF002904D1104603B0BDE851
:1011D000F08F00BFDDF83080A8F1090212F1080F8E
:1011E0004FF00102F1D3002BEFD0002C1CBF91F87F
:1011F00018725FEAC777E8D000F104090F462C2186
:10120000029048461D46FFF73EFA08EB08104FEAE9
:10121000800B20465946FFF736FA029948F2000E35
:101220004FF0000C01F12D0A0F600835C1E9094C9F
:1012300081F82C809FED4D0A9FED4D1AC4F23B5E64
:101240000021019715F8087C7A1ED3B2072B00F213
:10125000878015F8078CB8F1FF0F02D0B8F1010FA5
:101260007ED115ED012AB0EEC22AB4EE402AF1EE8D
:1012700010FA75DC95ED002AB0EEC23AB4EE403AB1
:10128000F1EE10FA6CDC95ED013AB0EEC34AB4EE23
:10129000404AF1EE10FA63DC95ED024A0122B0EE0D
:1012A000C45AB4EE405AF1EE10FA8EDCB5EE402A84
:1012B000F1EE10FAFFF689AFB5EE403AF1EE10FA12
:1012C000A4BFB5EE404AF1EE10FAFFF67EAFB4EEE1
:1012D000412AF1EE10FA3FF778AFB4EE413AF1EE61
:1012E00010FADCBFB4EE414AF1EE10FA3FF76DAFF1
:1012F00059F82320A2BB621882F8207082F821805E
:10130000D5E90076A8686750C2E9016055F8040C79
:101310001063980844318B4505F11405C2E905EEC8
:1013200082F842C049F823204FF001020AF8002059
:101330007FF488AF43F22161C0F60101DDE90102CB
:101340000EF0BAF9029900284FF001027FF43DAF88
:1013500081F82F200022104603B0BDE8F08F00BFB7
:101360000122104603B0BDE8F08F00BFFFFF7F7F72
:1013700000401C4600000000002800F0348190F876
:101380002F20012A40F02F81826A8A1A022A38BF50
:101390007047F0B583B090F82C208162002A00F0ED
:1013A000AB8002EB0212D0F824C0930000229FED24
:1013B0008E0A4FF0010E9FED8D1A00249FED8D2AAD
:1013C0009FED8B3A9FED8C4A0CEB0405B5F9286034
:1013D00095ED095AB8EEC55A06EE106A95F92160E6
:1013E00025EE017A05EE106AB8EEC66A95F84060FF
:1013F000B8EEC55A012E86EE006A87EE007A66EED8
:10140000050A27EE056AC5ED0D0A85ED0E6A23D1A2
:10141000EE6B00278E1B152E38BF0127142E85F882
:1014200041701BD895F84260012E17D195ED0C7ACA
:1014300037EE466AB0EEC67AB4EE427AF1EE10FAB2
:101440000CDB2E7F012E23D195ED047A36EE477A00
:1014500087EE047A20E000BF85F84120EA60B0EE14
:10146000435A2A612A7795ED066A4434B1EE467AEA
:10147000B4EE465AF1EE10FA85FE077A36FE075AA8
:10148000A342BDEEC55A15EE106AAE859CD133E07D
:10149000B0EE437A85F81CE0D5ED010A85ED046ACB
:1014A00066EE200AD5ED031AE0EE841AD5ED050AA2
:1014B000F1EE602AC1FEA22AF4EE601AD5ED001A00
:1014C000F1EE10FA70FEA20AC5ED030AE1EE860AFB
:1014D000D5ED021AE1EE870A95ED067AF1EE471A8C
:1014E000C0FEA11AF4EE470AF1EE10FA37FE217A97
:1014F00027EE055AB7E700BF90F82D10B9B3416841
:1015000011B1898D0A0A01E00021002283688DF85B
:1015100004208DF805101BB1998D0A0A02E000BF66
:1015200000210022C3688DF806208DF807101BB13A
:10153000998D0A0A02E000BF0021002203698DF89C
:1015400008208DF809101BB1998D0A0A02E000BF2E
:101550000021002203688DF80A208DF80B1001AAE3
:101560004FF40071044618460EF096FA204690F8A3
:101570002E10012934D1416911B1898D0A0A01E087
:101580000021002283698DF804208DF805101BB11D
:10159000998D0A0A02E000BF00210022C3698DF87C
:1015A00006208DF807101BB1998D0A0A02E000BFD2
:1015B00000210022036A8DF808208DF809101BB164
:1015C000998D0A0A02E000BF002100228DF80A204E
:1015D00000688DF80B1001AA40F2FF110EF05CFAC2
:1015E00003B0BDE8F0407047000010420000343DF9
:1015F00000000000CDCC4C3E6F12033B0000000009
:10160000024600284FF0010016D0A1F1090313F1A2
:10161000080F38BF704752F8211069B1B0EEC01AF8
:101620009FED062AB4EE421AF1EE10FADEBF81ED0C
:101630000C0A81F842000020704700BFFFFF7F7F47
:1016400000285CD090F82F10012958D190F82C1068
:10165000002908BF704770B5D0F824C0043001F0ED
:10166000030E04294FF000034FF0000248D2BEF1F0
:10167000000F42D002EB02110CEB810191F8202007
:10168000A2F1090313F1080F0BD300EB820252F809
:10169000042C32B100231377C2E90333938582F817
:1016A0004230BEF1010F28D091F86420A2F1090365
:1016B00013F1080F0BD300EB820252F8042C32B165
:1016C00000231377C2E90333938582F84230BEF1D9
:1016D000020F12D091F8A810A1F1090212F1080F1F
:1016E0000BD300EB810050F8040C30B100210177DE
:1016F000C0E90311818580F84210BDE87040704751
:1017000001F0FC010CF1EC0405E000BF043204F52B
:1017100088749142ABD014F8CC5CA5F1090616F19F
:10172000080F0AD300EB850555F8045C2DB1C5E917
:1017300003332B77AB8585F8423014F8885CA5F12C
:10174000090616F1080F0AD300EB850555F8045C6D
:101750002DB1C5E903332B77AB8585F8423014F8FA
:10176000445CA5F1090616F1080F0AD300EB8505C4
:1017700055F8045C2DB1C5E903332B77AB8585F8AB
:1017800042302578A5F1090616F1080FBED300EB0B
:10179000850555F8045C002DB8D0C5E903332B77D7
:1017A000AB8585F84230B1E72DE9F04F81B000EE0E
:1017B000102A9FED7D1A0F18401A1C46B8EEC00A79
:1017C00020EE010ABDEEC00A10EE102A17EB020946
:1017D00000EB02064D46A0EB020A3046A7EB020BD7
:1017E00048BFC9F10005002E48BF7042A84288BF1B
:1017F00005465046BAF1000F48BFCAF10000A842A2
:1018000088BF05465846BBF1000F48BFCBF100002A
:10181000A84288BF0546B5F57A6F49D900206F0800
:1018200000945C46B0EB550B4FF47A6260F100080F
:101830003846B9F1000F08EAE97148BF584600235D
:10184000C9FB02012A464FF47A69FEF741FE3A4687
:10185000002E48BF5A4608EAE6710023C6FB09215C
:1018600081464FF47A6610462A46FEF731FE3A4624
:10187000BAF1000F48BF5A4608EAEA710023CAFBD2
:10188000062106464FF47A6A10462A46FEF720FEE5
:10189000002C224648BF5F4608EAE2710023C2FBE3
:1018A0000A7182462A46009C3846FEF711FE83469E
:1018B000A0084A2858D84FEAE970A9FB041200FB97
:1018C000042296204FF09608002A4FEAE27348BFA0
:1018D0006FF09500401843EB02014FF4967200231D
:1018E000FEF7F6FDF117A6FB042301FB0431962356
:1018F000814600294FEAE17648BF6FF095039F18B3
:101900004FF49672714100233846FEF7E1FD4FEA2D
:10191000EA71AAFB042301FB043196230646002941
:101920004FEAE17548BF6FF095039F184FF4967228
:10193000694100233846FEF7CBFD4FEAEB71ABFB64
:10194000042301FB0431824600294FEAE17348BFBA
:101950006FF0950818EB02074FF496725941002377
:101960003846FEF7B5FD834640F230454946C2F29F
:101970000045284611F0ACFC58B905F12C00314661
:1019800011F0A6FC28B905F15800514611F0A0FC51
:1019900010B101B0BDE8F08F05F18400594601B0E7
:1019A000BDE8F04F11F094BC9A99D94000000000B6
:1019B00003280FD840F20C22C2F2004252784AB1FA
:1019C00040F230422C23C2F2004210FB032011F0FF
:1019D0008FBB00BF002070472DE9F04740F20C2676
:1019E000C2F20046707818B10020BDE8F08700BF51
:1019F00006F1240440F64851C2F20041204611F09D
:101A000017FA18B10120BDE8F08700BF40F2304559
:101A100046F6F817C2F20045C0F6010728462146EF
:101A20003A4611F081FBD0B905F12C0A07F11002FA
:101A30005046214611F078FB88B905F1580807F1A6
:101A400020024046214611F06FFB40B905F18409A0
:101A500007F130024846214611F066FB30B12046BE
:101A600011F032FB0120BDE8F08700BF002030708C
:101A700004F0BAFFF06001207070284611F0F8FB06
:101A8000504611F0F5FB404611F0F2FB484611F0CC
:101A9000EFFB0020BDE8F0872DE9F04F87B040F262
:101AA0000C2BC2F2004B9BF80100012840F006818C
:101AB00004F09AFF0BF124060446304611F034FA84
:101AC00040F230454FF00008C2F200450DF1110719
:101AD00005F12C0A05F1580905F18400039004E092
:101AE000B8F11F0F08F1010822D23046394611F033
:101AF000E7F902281CD00028F2D1284639462246B0
:101B000011F046FB0028EBD150463946224611F031
:101B10003FFB0028E4D148463946224611F038FB05
:101B20000028DDD103983946224611F031FBD7E772
:101B30002846214611F0F0FB5046214611F0ECFBFF
:101B40004846214611F0E8FB0398214611F0E4FBDA
:101B5000EFF3108072B6BBF90470BBF90660BBF9F5
:101B600008209BF8023000B962B647EA060010432D
:101B700080B2002818BF01209BF8001003B304298D
:101B800000F0898040F230460021C2F20046304623
:101B900011F09EFB80B906F12C00002111F098FB9A
:101BA00050B906F15800002111F092FB20B906F15E
:101BB0008400002111F08CFB04208BF800006FE002
:101BC00004295FD8DFE801F004341822120000BFB6
:101BD00070B900200021002208F016F9024600200A
:101BE00000214FF49673FFF7DFFD54E000284FD03B
:101BF000CBF8104001204CE090B33846314608F055
:101C000003F902464FF496730DE000BF002859D047
:101C100001208BF8000038463146CBF8104008F020
:101C2000F3F80246002338463146FFF7BDFD32E0A7
:101C3000B0B1DBF810003146A4EB0008384608F0DC
:101C4000E3F8B8F5967F024604D34FF49678022065
:101C50008BF80000384631464346FFF7A5FD1AE0F1
:101C6000CBF810406869CBF81400286CCBF818004A
:101C7000E86ECBF81C00D5F89800CBF820000320C4
:101C800007E000BF01208BF80200042001E000BF44
:101C900000208BF80000DBF80C00201A0A280DD376
:101CA0002846CBF80C4011F0E3FA504611F0E0FA68
:101CB000484611F0DDFA039811F0DAFA07B0BDE8F2
:101CC000F08F00BFDBF81010601AC82806D308F0A8
:101CD00003FA00278BF800700AE000BF8C4205D1A0
:101CE000DBE905800190DBE9076050E0C0F1C8073F
:101CF000DBF81420DBF81880DBF81C30019382FB42
:101D000007016420002300294FEAE17148BF6FF00A
:101D10006300C2FB0701DBF820200292C822FEF715
:101D2000D7FB88FB071264260023002A4FEAE271E2
:101D300048BF6FF06306C822C8FB07618046304683
:101D4000FEF7C6FB019B642683FB0712002A4FEABD
:101D5000E27148BF6FF063060190C822C3FB0761C0
:101D600000233046FEF7B4FB029E642386FB071275
:101D7000002A4FEAE27148BF6FF06303C822C6FB36
:101D8000073106461F4600233846FEF7A1FB40F206
:101D900030470290C2F200474146384611F098FAA7
:101DA00000287FF478AF07F12C00019911F090FA28
:101DB00000287FF470AF07F15800314611F088FA1F
:101DC00000287FF468AF07F18400029911F080FACF
:101DD00061E700000000000040F20C2CC2F2004C51
:101DE0009CF80130012B19D189B283B2EFF3108036
:101DF00092B272B6ACF804300B43ACF8061053EA5A
:101E00000201ACF808201CBF00218CF80210002849
:101E10001CBF0020704762B6002070470120704749
:101E200040F20C20C2F20040417801290ED1EFF3BC
:101E3000108172B600294FF0000282804FF001013C
:101E4000C2800281817018BF704762B6704700007F
:101E500040F2A421C2F20041CA681AB1904204BF04
:101E6000012088717047000060B1B0B540F2A42431
:101E7000C2F200442178012906D1E168081A18BF8E
:101E80000120B0BD01207047E0600022C4F81A2094
:101E9000FF21C4F81E20012584F82220A282E282BC
:101EA0002283A170611C2261E27022716271A271B1
:101EB000A4F8072062720122258007F0F9FD0028AE
:101EC0000CBF0020A571B0BD70B582B040F2A42552
:101ED000C2F20045E868002848D0A97901290FD14D
:101EE0000024AC7106F014FDE868A5F807406C7298
:101EF00020B1691C012207F0DBFD08B10120A871A7
:101F0000EFF3108172B6E87801280AD1AA8AADF8F9
:101F10000220EA8AADF804202A8BADF806200022C0
:101F2000EA702E79012E05D1AC7800222A7121B9F0
:101F300002E000BFFF2401B962B6C8B916B120465D
:101F4000FEF716FCE86808F0DBFCE86800F014FC1B
:101F500004F04AFD6979012908D12969401AB0F5D0
:101F6000FA7F03D900206871FFF75AFF02B070BDF5
:101F70000DF10200811C021D0BF09AF8BDF9020060
:101F8000BDF90620BDF90410FFF726FF002ED6D1BB
:101F9000D8E7000000000000F0B581B040F2A424B2
:101FA000C2F20044E368002B6ED098426CD1607A94
:101FB0006178022810D001284AD101F0FE005A2889
:101FC0004CD10322E17602205A29E07108BF092290
:101FD0006072227250E000BFE07994F808C02518C2
:101FE0000130C2B2E0716245A97645D3E07E5B283C
:101FF00038D05A283CD194F81CC094F82270627FE3
:1020000094F81EE0E07F82EA0C0181EA0E0594F864
:10201000201085EA000694F821504E406E40B742E9
:1020200026D14CEA0222A2824EEA0020E08241EA56
:102030000520208304F0D8FC20610120E070E368D3
:1020400060714FF00000A4F807006072A3B919E0B6
:10205000A52911D1A520A07601200CE0A52907D142
:102060000AE000BF207F082802D8A070012020715C
:102070000020A4F807006072611C0122184607F0D6
:1020800017FD08B10120A07101B0F0BD00000000F3
:1020900040F65840C2F2004002F066B9000000006D
:1020A00040F6D040C2F2004002F05EB900000000ED
:1020B00040F66830C2F2004002F056B9000000005D
:1020C00040F6E030C2F2004002F04EB900000000DD
:1020D00040F62000C2F2004002F046B900000000C5
:1020E00040F2A870C2F2004002F03EB900000000C9
:1020F00040F69800C2F2004002F036B9000000003D
:1021000040F61010C2F2004002F02EB900000000AC
:1021100040F67820C2F2004002F026B9000000002C
:1021200040F6F020C2F2004002F01EB900000000AC
:1021300040F68810C2F2004002F016B9000000001C
:1021400040F60020C2F2004002F00EB9000000008C
:1021500040F20F42D0F800C0C4F20202944511DCF4
:102160006F22C4F20202944522DC3F22C4F2020232
:10217000944539DC1022C4F2020294455AD0282238
:1021800054E000BF40F26F42C4F2020294451BDCEF
:1021900040F23F42C4F2020294452DDC40F210426C
:1021A000C4F20202944545D040F228423EE000BF0E
:1021B0009F22C4F20202944528DC7022C4F202027B
:1021C000944537D0882231E040F29F42C4F20202A7
:1021D000944523DC40F27042C4F20202944529D0B7
:1021E00040F2884222E000BF4022C4F2020294453D
:1021F00020D058221AE000BF40F24042C4F202024E
:10220000944517D040F2584210E000BFA022C4F21B
:10221000020294450ED0B82208E000BF40F2B84256
:10222000C4F20202944505D040F2A042C4F2020278
:10223000944517D10CF0F8024AF6AB23103ACAF6CF
:10224000AA23A2FB03310AA35F2AC1F302115B5C3C
:1022500040F2FF312CEA0101C36588BF043181657A
:10226000084670472CF0FF0181650846704700BFA3
:10227000000610160006101670B540F26F44D0F834
:1022800000C0C4F20204D0F858E0A4451ADC9F252F
:10229000C4F20205AC4533DC5725C4F20205AC4557
:1022A0005ADC1025C4F20205AC4500F098802825C0
:1022B000C4F20205AC4500F092804025C4F202054C
:1022C0008AE000BF45F22F45C5F60205AC452DDC7E
:1022D00040F2B745C4F20205AC454BDC40F2704514
:1022E000C4F20205AC457AD040F28845C4F202053A
:1022F000AC4574D040F2A045C4F202056CE000BFCA
:1023000040F22745C4F20205AC4543DCA025C4F2E7
:102310000205AC4563D0B825C4F20205AC455ED0D9
:1023200040F21045C4F2020556E000BF45F26B458D
:10233000C5F60205AC453FDC45F23045C5F6020561
:10234000AC454CD045F24445C5F60205AC4546D0F7
:1023500045F258453EE000BF5825C4F20205AC45A1
:102360003DD07025C4F20205AC4538D08825C4F2B2
:10237000020531E040F2B845C4F20205AC452ED06A
:1023800045F20845C5F60205AC4528D045F21C4586
:1023900020E000BF40F22845C4F20205AC451ED043
:1023A00040F24045C4F20205AC4518D040F2584511
:1023B000C4F2020510E000BF45F26C45C5F6020507
:1023C000AC450CD045F29445C5F60205AC4506D0A7
:1023D00045F28045C5F60205AC4540F0D080456E1B
:1023E000C66E002E866E6E601CBFD0E91C566E60F5
:1023F000A44515DC9F24C4F20204A4452CDC572418
:10240000C4F20204A44551DC1024C4F20204A44521
:102410007AD02824C4F20204A44575D040246FE089
:1024200045F22F44C5F60204A44529DC40F2B74426
:10243000C4F20204A44545DC40F27044C4F2020434
:10244000A44561D040F28844C4F20204A4455BD0A4
:1024500040F2A04454E000BF40F22744C4F202041A
:10246000A4453FDCA024C4F20204A4454CD0B82407
:10247000C4F20204A44547D040F2104440E000BF3B
:1024800045F26B44C5F60204A44555DC45F23044E0
:10249000C5F60204A44561D045F24444C5F60204E1
:1024A000A4455BD045F2584454E000BF5824C4F220
:1024B0000204A44528D07024C4F20204A44523D009
:1024C00088241DE040F2B844C4F20204A4451BD0A5
:1024D00045F20844C5F60204A4453FD045F21C4429
:1024E00038E000BF40F22844C4F20204A4450BD0F7
:1024F00040F24044C4F20204A44505D040F25844DE
:10250000C4F20204A4453AD18468C06D00F01F00F3
:102510003F2505FA00F0CEF80800DCF80000402C5A
:1025200020F48020CCF80000CCF8043023D1CCF883
:102530000820CCF80C1070BD45F26C44C5F60204BE
:10254000A4450BD045F28044C5F60204A44505D04D
:1025500045F29444C5F60204A44510D1C46D01258A
:1025600004F01F04806805FA04F4CEF80440402803
:10257000CCF80430DBD0CCF80810CCF80C2070BDBF
:1025800040F2C821C2F200414A681AB1904204BF29
:102590000120C8737047000060B1B0B540F2C82494
:1025A000C2F200442178012906D16168081A18BFD7
:1025B0000120B0BD0120704760600021E17301225D
:1025C000A1730125A1822161A175E17584F8241010
:1025D000216284F8251084F82610A183A161A177D7
:1025E000E17784F82C10A16284F82D1084F82E1065
:1025F00004F10801257007F05BFA18B10120E573BA
:10260000B0BD00BF0020B0BDB0B540F2C824C2F2DA
:1026100000446068002842D0E17B59B10021E17399
:10262000A17304F108010122012507F041FA0028F5
:1026300018BFE57304F0D8F9A17D31B12169411AC1
:10264000B1F5FA7F01D90021A17594F8251061B187
:10265000216A411AB1F5FA7F07D9002184F82510C3
:1026600084F82410012184F82610A17F31B1A169DA
:10267000411AB1F5FA7F01D90021A17794F82D1004
:1026800069B1A16A401AB0F5FA7F98BFB0BD0020C9
:1026900084F82D0084F82C00012084F82E00B0BDB1
:1026A000F0B581B040F2C824C2F200446368002B48
:1026B0005DD098425BD1A17B207A99B321444872C6
:1026C000A07B0130A073C1B2052947D3A67AA6F139
:1026D000420010F1020F3DD3607A277BE57A627BDE
:1026E00080EA0601694079408A4233D1AA2805D0A0
:1026F000AB282FD145EA072001282BD804F074F924
:10270000617AAA2918D1A6F1400145EA0722B1FA57
:1027100081F1490904EBC1018A82086101208875B1
:10272000C87517E000F0FE01AA2917D160720120D8
:102730006368A07393B918E0B6F1400118BF012196
:1027400004EBC10181F824500862012081F82500C2
:1027500081F8260000206368A07333B104F10801FA
:102760000122184607F0A4F908B10120E07301B076
:10277000F0BD000000000000002808BF704770B5E1
:102780008EB040F2C822EFF3108CC2F2004272B653
:102790000646002410690B90908ABCF1000FADF83A
:1027A0002800907D8DF82600D07D8DF82500116AD7
:1027B000059192F824108DF8101092F825108DF8DC
:1027C0000F1092F826108DF80E1092F827108DF841
:1027D0000910D47582F8264091690891938BADF861
:1027E0001C30917F8DF81A10D17F8DF81910956AE1
:1027F000CDF80A5092F82C508DF8085092F82D50D0
:102800008DF8075092F82E508DF8065092F82F5000
:102810008DF80550D47782F82E4000D162B6B9B158
:1028200044F2AA10ADF83300180A8DF8360083EA96
:1028300013208DF8353080F0EB008DF837000DF166
:10284000330105221423304607F09AF99DF825003C
:10285000B8B1BDF8280044F2AA01ADF83310052242
:102860008DF83500010A80EA10208DF8361080F0CE
:10287000EA008DF837000DF133011423304607F0DC
:102880007FF99DF80600A8B19DF8080044F2AB114D
:10289000ADF8331000218DF8350080F0EA008DF896
:1028A00036100DF133018DF8370005221423304620
:1028B00007F066F99DF80E00A8B19DF8100044F2EB
:1028C000AB01ADF8331000218DF8350080F0EB003E
:1028D0008DF836100DF133018DF8370005221423E1
:1028E000304607F04DF90EB0BDE87040704700006B
:1028F0007047000000000000F0B583B040B390F8CE
:10290000C532012B24D190F8C4320BB3013B002611
:102910008519AF888F421FD0D3B1B5F85C708F4254
:102920002CD0012B14D0B5F8B4708F4246D0022BB6
:102930000ED0B5F80C718F4246D0043B06F5B07648
:102940005F1C4FF00105E3D1284603B0F0BD00BF86
:102950000125284603B0F0BD2C1D9AB194F8520011
:1029600000284FF0010084F8510002D1002084F8C3
:10297000500000256564284603B0F0BD05F15C04F5
:10298000002AEBD16E460746002084F8510020460D
:10299000314600F039FD054650B9BDF800103868E1
:1029A000F21C0DF079F80546022818BF032588B1FE
:1029B00084F84150284603B0F0BD00BF05F1B404CF
:1029C000002ADFD0CAE700BF05F58674002AC5D10A
:1029D000D8E700BF002584F8415084F8505004F037
:1029E00003F864306064284603B0F0BD00000000C6
:1029F000F0B587B060B3002B4FF000041CBF90F817
:102A0000C5725FEAC77703D1204607B0F0BD00BFAB
:102A100090F8C462002EF7D0013E87888F421BD009
:102A2000B6B1B0F85C708F421AD0012E10D0B0F859
:102A3000B4708F4218D0022E0AD0B0F80C718F42B9
:102A400016D0043E00F5B070771CE6D1DCE700BF7D
:102A50000024204607B0F0BD1546041D0BE000BF62
:102A6000154600F15C0406E0154600F1B40402E0EE
:102A7000154600F5867401A9204600261F46C3E9C5
:102A80000066C3E90266C3E90466C3E9066600F0AE
:102A90003BFE3946787670B394F940009DED010A0B
:102AA0009FED1B1A9DED022A80EE010A04EE100A2A
:102AB0009FED181A9DED033A04AB20EE010AB8EE23
:102AC000C44A22EE011A9FED142A23EE022A20EEB8
:102AD000040A21EE041A81ED000A22EE040A81EDB7
:102AE000011A0DCBC860A81A81ED020A33280A61C9
:102AF00038BF01264B618E76B4F85100A1F81B0057
:102B000094F8410001240876204607B0F0BD00BFCC
:102B100035FA8E3CE4380E3F6666E63F0000000062
:102B200040B390F8C522012A24D190F8C4220AB3F8
:102B300010B5531E82888A4224D0EBB1B0F85C20D5
:102B40008A4235D0012B17D0B0F8B4208A4249D040
:102B5000022B11D0B0F80C218A424BD0043B00F577
:102B6000B0705A1C4FF00102E4D1BDE8104010468D
:102B7000704700BF012070470122BDE81040104699
:102B8000704700BF041D94F85300012816D103F0CC
:102B90002BFFE16C401AC82818D30322002084F8C8
:102BA000530084F84120BDE810401046704700BF34
:102BB00000F15C0494F853000128E8D094F8540024
:102BC00050B10022BDE81040104670470222BDE817
:102BD00010401046704700BF94F84120BDE81040F7
:102BE0001046704700F1B40494F853000128E5D171
:102BF000CDE700BF00F5867494F853000128C6D0D5
:102C0000DCE70000000000002DE9F04F81B0012456
:102C1000002818BF002903D1204601B0BDE8F08F7D
:102C2000A3F1090717F1080FF6D3002A1CBF91F88A
:102C300018725FEAC777EFD04FF0000C9FEDC00A23
:102C40004FF0000ECEEBCE0402EB840898F805405E
:102C5000FF2C01D0012C73D198ED021AB0EEC11AED
:102C6000B4EE401AF1EE10FA6ADC98ED031AB0EEF9
:102C7000C11AB4EE401AF1EE10FA61DC98ED041AB4
:102C8000B0EEC11AB4EE401AF1EE10FA58DC98ED2D
:102C9000051AB0EEC11AB4EE401AF1EE10FA4FDC8C
:102CA00098ED061AB0EEC11AB4EE401AF1EE10FA21
:102CB00046DCE1467646741C9C421DD202EB0905B7
:102CC000B8F80040AF8BBC423AD0B71C9F4213D239
:102CD0002F8FBC4234D0F71C9F420DD2B5F85470F0
:102CE000BC422DD004369E4206D2B5F8705009F190
:102CF0007009AC42DFD123E00EF1010E0CF11C0C87
:102D00009E459FD100F1040B0D464FF431710646EC
:102D1000584617461C46FDF7B6FC39883B797A8839
:102D20005846A8463560BA46B146254686F8C4429C
:102D300000F006FD50B10446204601B0BDE8F08F1A
:102D40000124204601B0BDE8F08F00BF0AF108075A
:102D500009F13003DAE9056486CF86C3C9E90F6457
:102D600048469AF80510012D89F8441010D143F215
:102D7000B9610246C0F6010140460CF09DFC0028F6
:102D800000F0D6800324204601B0BDE8F08F00BFDC
:102D9000BAF81C109AF82030BAF81E205C3000F007
:102DA000CFFC0028C7D10AF1240709F18803DAE92A
:102DB0000C6486CF86C3C9E9256448469AF8211079
:102DC000022D89F89C10D2D0BAF838109AF83C300D
:102DD000BAF83A20B43000F0B3FC0028ABD10AF1C5
:102DE000400709F1E003DAE9136486CF86C3C9E935
:102DF0003B6448469AF83D10032D89F8F410B6D08C
:102E0000BAF854109AF85830BAF8562000F586707F
:102E100000F096FC00288ED10AF15C0709F59C733E
:102E2000DAE91A6486CF86C3C9E9516448469AF83C
:102E30005910042D89F84C1199D0BAF870109AF8ED
:102E40007430BAF8722000F5B27000F079FC0028F6
:102E50007FF471AF0AF1780709F5C873DAE92164E4
:102E600086CF86C3C9E9676448469AF87510052D70
:102E700089F8A4113FF47BAFBAF88C109AF890301F
:102E8000BAF88E2000F5DE7000F05AFC00287FF4BE
:102E900052AF0AF1940709F5F473DAE9286486CF92
:102EA00086C3C9E97D6448469AF89110062D89F8D1
:102EB000FC113FF45CAFBAF8A8109AF8AC30BAF83D
:102EC000AA2000F5057000F03BFC00287FF433AF2A
:102ED0000AF1B00709F51073DAE92F6486CF86C3CB
:102EE000C9E9936448469AF8AD10072D89F8541241
:102EF0003FF43DAFBAF8C4109AF8C830BAF8C6200B
:102F000000F51B7000F01CFC00287FF414AF0AF1E0
:102F1000CC0709F5267CDAF8DC6048468ECF8CE8D1
:102F20008E00C9F8A8629AF8C91089F8AC121EE799
:102F30000024012089F8C502204601B0BDE8F08FC9
:102F4000FFFF7F7F00000000002808BF70472DE9C9
:102F5000F04F81B02DED068B8AB0044690F8C50283
:102F6000012840F0BD8094F8C402002800F0B88029
:102F700007AE0D46F71C4FF000099FED5D8A4FF03C
:102F8000000A9FED5C9A4FF000089FED5BAA01F1EB
:102F900064000190481C00900BE000BF8BF84500D6
:102FA00094F8C40208F101080AF1580A804580F03B
:102FB000978004EB0A0B9BF855009BF856100028ED
:102FC0000BF1040046D0DBF848200029A5EB0201F4
:102FD00062D00029E4D49BF858100129E0D19BF974
:102FE00044109BED0C1A9BED0D2A9BED0E3A00EE62
:102FF000101ADBE90F12CDE90512B8EEC00A02A9DA
:10300000324621EE001A22EE002A23EE000A21EEBB
:10301000081A22EE092A20EE0A0A8DED032A21EE73
:10302000091A8DED040A8DED021A00F02DFA002820
:10303000B4D1BDF81C1020683A460CF02DFD0146B5
:10304000022818BF03200029A8D100988BF84590CA
:1030500042E000BF19B99BF854100029A0D0DBF85A
:103060004810691A9CD4314600F0CEF9002895D159
:10307000BDF81C1020683A460CF00EFD01460228EF
:1030800018BF032000297FF489AF00208BF845008A
:103090004FF000091DE000BF00293FF581AF314628
:1030A00000F0D2F900287FF479AFBDF81C10206839
:1030B0003A460CF0F1FC0146022818BF0320002913
:1030C0007FF46CAF9BF854008BF84590FF2802D03A
:1030D00001308BF854000198CBF8480060E700BF3E
:1030E0000AB0BDEC068B01B0BDE8F04F704700BFE1
:1030F00035FA8E3C6666E63FE4380E3F000000007D
:10310000D0B14FF00103C2B1B0B588B090F8C5524C
:10311000ED070BD092ED000A9FED525AB0EEC01AA7
:10312000B4EE451AF1EE10FA0ADD012308B0BDE84D
:10313000B0401846704700BF01231846704700BFD3
:1031400092ED011AB0EEC12AB4EE452AF1EE10FA62
:103150003ADC92ED023AB0EEC32AB4EE452AF1EE23
:1031600010FA31DC92ED032AB0EEC24AB4EE454AC1
:10317000F1EE10FA28DC92ED044AB0EEC46AB4EE27
:10318000456AF1EE10FA1FDC90F8C432E3B15D1E1F
:1031900083888B421ED0BDB1B0F85C308B421DD00D
:1031A000012D11D0B0F8B4308B421BD0022D0BD0C2
:1031B000B0F80C318B4219D0043D00F5B0706B1C97
:1031C0004FF00103E4D1B1E7012308B0BDE8B040FE
:1031D000184670471546041D0BE000BF154600F168
:1031E0005C0406E0154600F1B40402E0154600F563
:1031F000867494F940009FED1C6A694605AA05EEA5
:10320000100A20468DED032A8DED044AB8EEC55A0A
:1032100020EE050A21EE051A23EE053A9FED145A19
:1032200020EE060A9FED116A21EE061A8DED011AB5
:1032300020EE060A8DED000A23EE050A8DED020A46
:1032400000F022F9034600287FF470AF04F12C0C43
:103250002FCD8CE82F000023636408B0BDE8B04098
:1032600018467047FFFF7F7F35FA8E3C6666E63F63
:10327000E4380E3F00000000F0B583B030B390F8A2
:10328000C522012A22D190F8C422FAB1013A0023C2
:103290000124C618B7888F421CD0BAB1B6F85C704A
:1032A0008F421DD0012A11D0B6F8B4708F421DD0C4
:1032B000022A0BD0B6F80C718F421DD0043A03F5E8
:1032C000B073571CE5D1204603B0F0BD0124204661
:1032D00003B0F0BD351D95F85210C1B911E000BF23
:1032E00006F15C0595F8521089B90AE006F1B405BB
:1032F00095F8521029B10AE006F5867595F8521036
:1033000029B995F8511011B995F8531021B102243B
:10331000204603B0F0BD00BF6E4607462846314642
:1033200000F0D2F90446A8B90024EC62A86AA864A7
:1033300003F05AFBE8640120A5F85300BDF8001023
:103340003868F21C0CF0A8FB0146022818BF0321C4
:1033500018B10C46002085F8530085F841402046FE
:1033600003B0F0BD00000000002849D090F8C4125E
:10337000002945D001F0030C04294FF000034FF061
:1033800000021FD310B589084FF4B07201FB02FE92
:1033900000210022441801F5B0718E4502F10402AB
:1033A00084F85530A36484F8AD30C4F8A03084F8B4
:1033B0000531C4F8F83084F85D31C4F85031E9D1F2
:1033C000BDE81040BCF1000F1AD05821043002FBB8
:1033D00001010023BCF1010F81F851304B640FD083
:1033E000BCF1020F81F8A930C1F89C3008BF7047CA
:1033F000582102FB0100002180F80111C0F8F410EF
:103400007047000000000000024600284FF0010055
:1034100018BF002900D1704713880020B0EBD32FCC
:1034200002D00120704700BF8860486008601288A1
:103430000A8008228A704FF0FF32C1F80320C1F8D9
:103440000620FD228A727047024600284FF00100D4
:1034500018BF002900D1704713880020B0EBD32F8C
:1034600002D00120704700BF886048600860128861
:103470000A8008228A704FF0FF32C1F80320C1F899
:103480000620FC228A727047034600284FF0010094
:1034900018BF002900D1704791ED000A9FED841AF2
:1034A000B0EEC02AB4EE412AF1EE10FAF3DC93ED4F
:1034B000022AB1EE423AB4EE430AF1EE10FAEADB28
:1034C000B4EE420AF1EE10FAE5DC91ED010AB0EE3D
:1034D000C02AB4EE412AF1EE10FADCDC93ED032AA7
:1034E000B1EE423AB4EE430AF1EE10FAD3DBB4EE99
:1034F000420AF1EE10FACEDC91ED020AB0EEC02ADB
:10350000B4EE412AF1EE10FAC5DC93ED042AB1EED7
:10351000423AB4EE430AF1EE10FABCDBB4EE420AD2
:10352000F1EE10FAB7DC91ED032AB0EEC20AB4EE68
:10353000410AF1EE10FAAEDCB5EE402AF1EE10FAD7
:10354000A9DB9FED5C0AB4EE402AF1EE10FAC8BF89
:103550007047002A9FD091ED042AB0EEC23AB4EE33
:10356000413AF1EE10FA96DCB5EE402AF1EE10FA8F
:1035700091DBB1EE041AB4EE412AF1EE10FA3FF7F6
:103580008AAFB3F800C00020B0EBDC2F02D00120DE
:10359000704700BFB0B590605060106093ED022A94
:1035A00091ED004AB1EE423A91ED016A84FE425A31
:1035B000D1ED020AB4EE443A93ED034AF1EE10FA6B
:1035C00086FE447A33FE053AB1EE445A32EE033AAF
:1035D000B4EE465A9FED386AF1EE10FA23EE063A41
:1035E00093ED046A35FE075A32EE022AB1EE467AAE
:1035F00034EE055A83EE022A9FED303A34EE044A47
:1036000025EE035AC0FEC61AB4EE607AD1ED040A64
:10361000F1EE10FA85EE044A37FE215A91ED037A55
:1036200087FE407ADFED261AC0FEC10A198836EE01
:10363000055A118087FE217A0821C0FEA10A9170E7
:1036400025EE035A27EE037A36EE066A20EE833A19
:1036500087EE000A85EE065A83EE011ABCEEC22AF6
:10366000BCEEC44ABCEEC00ABCEEC53A12EE101A5B
:10367000BCEEC11A14EE103A10EE10EA117113EEFE
:1036800010CA0D0A11EE104A19095171190141EAC7
:103690001E219171210911722101D57082F807E074
:1036A00041EA1C21517282F80AC0BDE8B04070475F
:1036B000FFFF7F7F0000FA4300FF7F4700F07F4558
:1036C0000000000000000000024600284FF001004A
:1036D00018BF002900D1704713880020B0EBD32F0A
:1036E00002D00120704700BF8860486008601288DF
:1036F0000A8008228A704FF0FF32C1F80320C1F817
:103700000620FE228A727047024600284FF0000011
:1037100018BF002900D17047B0B502F1140E906AAD
:10372000D2E908459EE8085081E80850C1E9034500
:103730000028486118BF0120BDE8B0407047000074
:10374000F0B581B00F2B154602464FF001001CD892
:10375000DAB10E4629431C460023B3EBD12F14D116
:10376000101D28211746FCF78EFF00200021C4F20F
:103770004810B8600020C4F2F011C4F220103E805E
:10378000C7E9031000207D803C7101B0F0BD00004E
:103790004FF0000C002818BF002A01D16046704786
:1037A000082BFBD143889942F8D192F800C00379E5
:1037B0000CF00F01994267D180B5B2F8011013796E
:1037C00092F803E090ED021A31EE012A90ED045ACE
:1037D00009BA9FED2E7A090C75EE050A00EE101A53
:1037E0004FEA0E1192F805E041EA131103F00F03BE
:1037F00003EE101AB8EE400A4EEA032106EE101A44
:10380000B8EE433A4FFA8CFE22EE000A5FFA8EF3CE
:1038100090ED032A32EE024A4FF00F0CB8EE466AE2
:10382000DCEB131180EE070A4FF0010C24EE033A93
:1038300020EE864A30EE410A9FED151A83EE013ADA
:1038400080ED050A84EE011A33EE420A80ED060A85
:1038500031EE450A80ED070A18BF19091B0980F8E7
:10386000223001EADE1180F82310917980F82010CF
:103870000299D279416280F82120826A511C8162CA
:10388000BDE88040604670470020704700FF7F47DA
:1038900000F07F450000000072B600BFFEE70000A8
:1038A00044F60400C5F60200816841F0020181601F
:1038B0000168890409D4016889045CBF01685FEA72
:1038C000814102D401688904F2D5704700000000EC
:1038D00040F64850C2F2004002F02EB9000000004D
:1038E00040F6E850C2F2004002F026B900000000A5
:1038F00040F68860C2F2004002F01EB900000000ED
:1039000010B540F29C24C2F200442078012815D161
:1039100042F68000C2F200400AF082FD10B10120A0
:1039200010BD00BF2078012808D142F69C70C2F279
:103930000040BDE810400BF00FBF00BF002010BDDD
:1039400040F29C20C2F20040017842F68000C2F2B0
:103950000040002908BF0846704700000000000032
:1039600040F29C20C2F20040017842F69C70C2F204
:103970000040002908BF0846704700000000000012
:1039800040F6E852C2F2004290420DD040F6886202
:10399000C2F20042904218BF704742F69C70C2F2D9
:1039A00000400BF0E1BE00BF42F68000C2F20040D2
:1039B0000AF03EBD0000000040F6E852C2F20042AC
:1039C00090420DD040F68862C2F20042904218BF89
:1039D000704742F69C70C2F200400BF0D5BE00BFAB
:1039E00042F68000C2F200400AF032BD0000000042
:1039F000B0B540F29C24C2F20044217811B10020FD
:103A0000B0BD00BF80B1416871B1017A61B10546B6
:103A1000027842F6800040F6E851C2F20040C2F25D
:103A200000410AF069FD08B10120B0BD2B7A42F6D1
:103A30009C7040F688616A68C2F20040C2F20041A0
:103A40000BF0F2FE40B142F68000C2F200400AF0F4
:103A500057FE0120B0BD00BF002060600121217031
:103A6000B0BD00000000000040F29C20C2F2004007
:103A70000078012806D142F68000C2F200400AF028
:103A8000CFBC00BF00207047B0B540F29C25C2F209
:103A900000452878012818BFB0BD02F0A5FF29789D
:103AA000012934D1044642F68000C2F200400AF0F7
:103AB000B7FC08B36868201A29D404F16400686070
:103AC00042F68000C2F200400AF0AAFC28B142F699
:103AD0008000C2F200400AF093FD42F69C70C2F2F0
:103AE00000400BF039FE90B142F69C70C2F20040EB
:103AF0000BF09AFF0BE000BF2878012807D142F6AF
:103B00009C70C2F200400BF027FE0028D2D142F692
:103B10008000C2F200400AF037FD42F69C70C2F20B
:103B20000040BDE8B0400BF02FBF000000000000D7
:103B300040F29C20C2F200400078012806D142F6F3
:103B40009C70C2F200400BF007BE00BF002070471F
:103B500010B540F29C24C2F200442078012818BF1E
:103B600010BD42F68000C2F200400AF0C9FD42F6E4
:103B70009C70C2F200400BF0C7FF0020207010BD07
:103B80002DE9F041044602F02FFF3CB3054694F8BE
:103B90003500022826D1276840F20F46C4F20206FB
:103BA00040F26F483868B74220F0010038606FF08B
:103BB0000E00C4F202081DDC6F21C4F202018F4224
:103BC0002ADC3F21C4F202018F4241DC1021C4F201
:103BD00002018F4263D028215CE000BF0120BDE8D4
:103BE000F08100BF802060650120002184F834103E
:103BF000BDE8F08147451BDC40F23F41C4F20201C1
:103C00008F422DDC40F21041C4F202018F4246D0B7
:103C100040F228413EE000BF9F21C4F202018F42E2
:103C200028DC7021C4F202018F4238D0882131E0B3
:103C300040F29F41C4F202018F4223DC40F2704106
:103C4000C4F202018F422AD040F2884122E000BF34
:103C50004021C4F202018F4221D058211AE000BF56
:103C600040F24041C4F202018F4218D040F2584164
:103C700010E000BFA021C4F202018F420FD0B82192
:103C800008E000BF40F2B841C4F202018F4206D002
:103C900040F2A041C4F202018F42394607D13946B1
:103CA000386820F01E0041F8140B6FF080000A689D
:103CB000474500EA020008601ADC9F20C4F20200B7
:103CC000874233DC5720C4F2020087425ADC1020BE
:103CD000C4F20200874200F097802820C4F202005C
:103CE000874200F091804020C4F202008AE000BFC9
:103CF00045F22F40C5F6020087422DDC40F2B74066
:103D0000C4F2020087424BDC40F27040C4F2020071
:103D1000874279D040F28840C4F20200874273D0D3
:103D200040F2A040C4F202006CE000BF40F2274025
:103D3000C4F20200874243DCA020C4F202008742A2
:103D400062D0B820C4F2020087425DD040F2104039
:103D5000C4F2020056E000BF45F26B40C5F6020017
:103D600087423FDC45F23040C5F6020087424BD027
:103D700045F24440C5F60200874245D045F258401E
:103D80003EE000BF5820C4F2020087423CD07020C1
:103D9000C4F20200874237D08820C4F2020031E02A
:103DA00040F2B840C4F2020087422DD045F20840EC
:103DB000C5F60200874227D045F21C4020E000BF34
:103DC00040F22840C4F2020087421DD040F2404039
:103DD000C4F20200874217D040F25840C4F20200F9
:103DE00010E000BF45F26C40C5F6020087420BD0E0
:103DF00045F29440C5F60200874205D045F2804066
:103E0000C5F60200874205D1206E016821F4807159
:103E1000016000BF3868C00710D002F0E5FD401B0C
:103E20000628F7D320206065032084F835000120A0
:103E3000002184F83410BDE8F08100BF206808211B
:103E4000B0424FF03F0211DC6F23C4F202039842EC
:103E50001EDC3F23C4F20203984235DC1023C4F277
:103E60000203984257D0282350E000BF40451BDC96
:103E700040F23F43C4F2020398422DDC40F210436B
:103E8000C4F20203984246D040F228433EE000BF0D
:103E90009F23C4F20203984228DC7023C4F2020379
:103EA000984238D0882331E040F29F43C4F20203A5
:103EB000984223DC40F27043C4F2020398422AD0B5
:103EC00040F2884322E000BF4023C4F2020398423C
:103ED00021D058231AE000BF40F24043C4F202034D
:103EE000984218D040F2584310E000BFA023C4F21B
:103EF000020398420FD0B82308E000BF40F2A0436D
:103F0000C4F20203984206D040F2B843C4F202035E
:103F1000984240F0C580D4E9163707F01F074045A6
:103F200002FA07F25A5019DC9F21C4F202018842BA
:103F300032DC5721C4F20201884259DC1021C4F25C
:103F40000201884200F096802821C4F202018842D2
:103F500000F090804021C4F2020189E045F22F4137
:103F6000C5F6020188422DDC40F2B741C4F20201DD
:103F700088424BDC40F27041C4F20201884279D0A1
:103F800040F28841C4F20201884273D040F2A0415D
:103F9000C4F202016CE000BF40F22741C4F202010A
:103FA000884243DCA021C4F20201884262D0B821D9
:103FB000C4F2020188425DD040F21041C4F2020115
:103FC00056E000BF45F26B41C5F6020188423FDC76
:103FD00045F23041C5F6020188424BD045F24441DA
:103FE000C5F60201884245D045F258413EE000BF87
:103FF0005821C4F2020188423CD07021C4F202016F
:10400000884237D08821C4F2020131E040F2B84141
:10401000C4F2020188422DD045F20841C5F60201E2
:10402000884227D045F21C4120E000BF40F22841E1
:10403000C4F2020188421DD040F24041C4F20201A4
:10404000884217D040F25841C4F2020110E000BF8C
:1040500045F26C41C5F6020188420BD045F294410D
:10406000C5F60201884205D045F28041C5F602013D
:1040700088420BD1616EA26EE06E4A6030B1016879
:1040800021F480710160D4E91C014160012084F8B1
:1040900035000020002184F83410BDE8F08100BF15
:1040A0000421012237E70000F0B190F83510022911
:1040B00018D180B540F20F420168C4F20202914269
:1040C00014DC6F23C4F20203994225DC3F23C4F2BF
:1040D000020399423CDC1023C4F2020399425DD0F2
:1040E000282357E0802141650120704740F26F434B
:1040F000C4F2020399421BDC40F23F43C4F20203C4
:1041000099422DDC40F21043C4F20203994245D09B
:1041100040F228433EE000BF9F23C4F202039942CD
:1041200028DC7023C4F20203994237D0882331E09F
:1041300040F29F43C4F20203994223DC40F27043F1
:10414000C4F20203994229D040F2884322E000BF22
:104150004023C4F20203994220D058231AE000BF42
:1041600040F24043C4F20203994217D040F2584350
:1041700010E000BFA023C4F2020399420ED0B8237E
:1041800008E000BF40F2B843C4F20203994205D0F0
:1041900040F2A043C4F20203994275D191424FF01C
:1041A000040280F8352011DC6F20C4F20200814245
:1041B00022DC3F20C4F20200814239DC1020C4F22C
:1041C0000200814259D0282054E000BF40F26F40E5
:1041D000C4F2020081421BDC40F23F40C4F2020004
:1041E00081422DDC40F21040C4F20200814244D0F2
:1041F00040F228403EE000BF9F20C4F2020081420E
:1042000028DC7020C4F20200814236D0882031E0E0
:1042100040F29F40C4F20200814223DC40F2704031
:10422000C4F20200814228D040F2884022E000BF60
:104230004020C4F2020081421FD058201AE000BF83
:1042400040F24040C4F20200814216D040F2584091
:1042500010E000BFA020C4F2020081420DD0B820BF
:1042600008E000BF40F2B840C4F20200814204D02E
:1042700040F2A040C4F202008142086820F0010030
:104280000860002080BD00BF0A6822F001020A60B9
:1042900045F25742C5F6020291420A6822F00E0228
:1042A0000A600FDC45F22F42C5F60202914219DC8A
:1042B00045F20842C5F60202914229D045F21C425D
:1042C00022E000BF45F27F42C5F60202914213DCB4
:1042D00045F25842C5F60202914219D045F26C42AD
:1042E00012E000BF45F23042C5F6020291420FD003
:1042F00045F2444208E000BF45F29442C5F602028E
:10430000914205D045F28042C5F6020291421AD18F
:10431000D0E9181CD0E916E30A6822F480720A601A
:1043200003F01F01012202FA01F1CEF80410816EA0
:10433000CCF80410C16E31B10A6822F480720A60B0
:10434000D0E91C124A60012180F83510016D00226D
:10435000002980F8342094D08847002080BD0000D8
:10436000406D7047000000002DE9F04782B0002149
:10437000019140F2080148F2B513C2F20041C1F6C2
:104380004E33856D40F26F490A680168C4F2020934
:104390002E68A2FB032849452A6815DC9F22C4F237
:1043A000020291422CDC5722C4F20202914251DCFB
:1043B0001022C4F2020291427BD02822C4F20202EF
:1043C000914276D040226FE045F22F43C5F60203BA
:1043D000994229DC40F2B743C4F20203994245DC1A
:1043E00040F27042C4F20202914262D040F288422E
:1043F000C4F2020291425CD040F2A04254E000BFFD
:1044000040F22742C4F2020291423FDCA022C4F2F1
:10441000020291424DD0B822C4F20202914248D029
:1044200040F2104240E000BF45F26B43C5F6020384
:10443000994275DC45F23043C5F60203994200F01B
:10444000828045F24443C5F6020399427BD045F28F
:10445000584373E05822C4F20202914229D07022DC
:10446000C4F20202914224D088221DE040F2B843F7
:10447000C4F2020399421CD045F20843C5F6020378
:10448000994260D045F21C4358E000BF40F22842F8
:10449000C4F2020291420CD040F24042C4F2020245
:1044A000914206D040F25842C4F20202914240F0DA
:1044B0005383C26D082302F01F0240F20F4A93405B
:1044C000C4F2020A334200F0DE8051454FF004048A
:1044D00012DC6F27C4F20207B9426DDC3F27C4F239
:1044E0000207B94200F39C801027C4F20207B942C8
:1044F00000F0BD802827B5E0494569DC40F23F4720
:10450000C4F20207B94200F3938040F21047C4F2AC
:104510000207B94200F0AB8040F22847A2E000BF9A
:1045200045F26C43C5F6020399420CD045F2804334
:10453000C5F60203994206D045F29443C5F602033C
:10454000994240F009830B68C76D07F01F070426E6
:10455000BE40164218BF13F0040423D10226BE4009
:10456000164218BF13F0020442D1FA40120740F17C
:10457000F38213F0080200F0EF820A6822F00E02C4
:104580000A60012101FA07F26A60416580F835107E
:10459000C16C00294FF0000280F8342040F0D8822E
:1045A000DAE200BF1A046E6034D49A0635D40A6881
:1045B00022F004020A6030E09F27C4F20207B942E9
:1045C00040DC7027C4F20207B94250D0882749E086
:1045D00040F29F47C4F20207B9423BDC40F2704709
:1045E000C4F20207B94242D040F288473AE000BF25
:1045F0001A046E6000F1B4829A0600F1B5820A686E
:1046000022F00A020A60012180F83510002180F8AA
:104610003410A9E2D90300F1A982016C97E200BF2E
:104620004027C4F20207B94221D058271AE000BF40
:1046300040F24047C4F20207B94218D040F258474E
:1046400010E000BFA027C4F20207B9420FD0B8277C
:1046500008E000BF40F2A047C4F20207B94206D00A
:1046600040F2B847C4F20207B94218BF08240F68E5
:10467000274208D00F6827F004070F60AB60436D36
:1046800043F0010343650123934033426FD051450A
:1046900010DC6F27C4F20207B9421DDC3F27C4F2C9
:1046A0000207B94234DC1027C4F20207B94256D0DF
:1046B00028274FE049451BDC40F23F47C4F2020780
:1046C000B9422DDC40F21047C4F20207B94246D08D
:1046D00040F228473EE000BF9F27C4F20207B942DC
:1046E00028DC7027C4F20207B94238D0882731E0AD
:1046F00040F29F47C4F20207B94223DC40F2704700
:10470000C4F20207B9422AD040F2884722E000BF33
:104710004027C4F20207B94221D058271AE000BF4F
:1047200040F24047C4F20207B94218D040F258475D
:1047300010E000BFA027C4F20207B9420FD0B8278B
:1047400008E000BF40F2A047C4F20207B94206D019
:1047500040F2B847C4F20207B94240F00D824F69F7
:104760003F0604D5AB60436D43F002034365042369
:10477000934033426FD0514510DC6F27C4F20207DB
:10478000B9421DDC3F27C4F20207B94234DC1027CE
:10479000C4F20207B94256D028274FE049451BDC36
:1047A00040F23F47C4F20207B9422DDC40F2104705
:1047B000C4F20207B94246D040F228473EE000BFAB
:1047C0009F27C4F20207B94228DC7027C4F202070F
:1047D000B94238D0882731E040F29F47C4F202073F
:1047E000B94223DC40F27047C4F20207B9422AD032
:1047F00040F2884722E000BF4027C4F20207B942D6
:1048000021D058271AE000BF40F24047C4F2020707
:10481000B94218D040F2584710E000BFA027C4F2B8
:104820000207B9420FD0B82708E000BF40F2A04706
:10483000C4F20207B94206D040F2B847C4F20207F8
:10484000B94240F0A1810F68BF0704D5AB60436D4A
:1048500043F004034365102303FA02F2324200F0EE
:10486000828051454FF0080310DC6F27C4F2020725
:10487000B9421DDC3F27C4F20207B94234DC1027DD
:10488000C4F20207B94256D028274FE049451BDC45
:1048900040F23F47C4F20207B9422DDC40F2104714
:1048A000C4F20207B94246D040F228473EE000BFBA
:1048B0009F27C4F20207B94228DC7027C4F202071E
:1048C000B94238D0882731E040F29F47C4F202074E
:1048D000B94223DC40F27047C4F20207B9422AD041
:1048E00040F2884722E000BF4027C4F20207B942E5
:1048F00021D058271AE000BF40F24047C4F2020717
:10490000B94218D040F2584710E000BFA027C4F2C7
:104910000207B9420FD0B82708E000BF40F2A04715
:10492000C4F20207B94206D040F2B847C4F2020707
:10493000B94218BF04230F681F4214D0AA600A6846
:1049400052030A6808D4D20508D40A6822F0080283
:104950000A60016C21B906E0110351D4016C11B158
:10496000044688472046C16D01F01F02202101FA4C
:1049700002F3334200F0AF8001681027514511DC8B
:104980006F26C4F20206B1421EDC3F26C4F20206C4
:10499000B14239DC1026C4F20206B1425BD02826AF
:1049A00054E000BF49451BDC40F23F46C4F202061A
:1049B000B14231DC40F21046C4F20206B1424AD0A4
:1049C00040F2284642E000BF9F26C4F20206B142F0
:1049D0002CDC7026C4F20206B1423CD0882635E0B9
:1049E00040F29F46C4F20206B14227DC40F2704614
:1049F000C4F20206B1422ED040F2884626E000BF43
:104A0000816C0029ACD1AEE74026C4F20206B14267
:104A100021D058261AE000BF40F24046C4F20206F8
:104A2000B14218D040F2584610E000BFA026C4F2B0
:104A30000206B1420FD0B82608E000BF40F2A046FF
:104A4000C4F20206B14206D040F2B846C4F20206F1
:104A5000B14218BF02270E683E423CD0AB6090F8CE
:104A60003530042B0B681DD123F016030B604B6906
:104A700023F080034B61036C0BB9836C1BB10B6893
:104A800023F008030B603F219140A960012180F8C9
:104A90003510016D00294FF0000280F8342057D105
:104AA0005AE000BF5A030A680ED4D2050ED40A6831
:104AB00022F010020A60012180F83510002180F8F0
:104AC0003410C16B21B906E0110351D4C16B11B18F
:104AD000044688472046416D00293DD0416DC907F5
:104AE00034D0042180F8351001684FEA98220B6811
:104AF00023F001030B60019B0133019393421AD809
:104B00000B68DB0717D0019B01330193934212D846
:104B10000B68DB070FD0019B0133019393420AD846
:104B20000B68DB0707D0019B01330193934202D846
:104B30000B68DB07DFD10968C9074FF0030108BF25
:104B4000012180F83510002180F83410C16C19B1B2
:104B500002B0BDE8F047084702B0BDE8F08700BFEB
:104B6000D90301D4416CF2E7C16BF0E7816CEEE749
:104B7000416C0029ACD1AEE70B680423934033426B
:104B80007FF4F9AD67E600BF0B6864E60000000043
:104B90002DE9F041044601F027FFFCB140F26F48D7
:104BA00005462068C4F2020840451BDC9F21C4F280
:104BB0000201884232DC5721C4F20201884259DCEA
:104BC0001021C4F20201884200F083802821C4F23F
:104BD0000201884200F07D80402175E00120BDE89F
:104BE000F08100BF45F22F41C5F60201884229DC61
:104BF00040F2B741C4F20201884247DC40F2704102
:104C0000C4F20201884264D040F28841C4F2020139
:104C100088425ED040F2A04156E000BF40F22741FA
:104C2000C4F20201884241DCA021C4F202018842A0
:104C30004FD0B821C4F2020188424AD040F210415C
:104C400042E000BF45F26B41C5F60201884200F325
:104C5000D18045F23041C5F60201884200F0DD8086
:104C600045F24441C5F60201884200F0D68045F283
:104C70005841CDE05821C4F20201884229D0702168
:104C8000C4F20201884224D088211DE040F2B841DC
:104C9000C4F2020188421CD045F20841C5F6020167
:104CA000884200F0BA8045F21C41B1E040F2284150
:104CB000C4F2020188420CD040F24041C4F2020129
:104CC000884206D040F25841C4F20201884240F0C6
:104CD0003981022184F83510002184F834100168EC
:104CE00021F00101016000BF20680168C9070DD0F3
:104CF00001F07AFE401B0628F6D3202060650320D1
:104D000084F835000120BDE8F08100BF48F23F0281
:104D100004F108060168CFF61062114065694CCEB7
:104D20001143A2691943E3693143266A0D43616A5D
:104D30002B43042943EA060343EA020303D1D4E9DF
:104D40000B652E4333436568A5F12906292E00F231
:104D50003182DFE816F02B002B002B002B002B00FC
:104D60002B002F022F022F022F022F022F022F02C1
:104D70002F022F022F022F022F022F022F022F02AB
:104D80002F022B002B002B002B002F022F022F02B3
:104D90002F022B002B002F022F022F022F022F0297
:104DA0002F022B002B002B002B0000BF43F480139D
:104DB00003600429436923F0070341EA030140F03B
:104DC000DD80D4E90A53002B41EA050100F0D680CA
:104DD000B2F5005F00F0B880002A40F0C180022DDB
:104DE00000F0C180012D00F0B580002D00F0BB80E7
:104DF000C4E000BF45F26C41C5F6020188420CD008
:104E000045F28041C5F60201884206D045F2944140
:104E1000C5F60201884240F0958004F1080E022197
:104E200084F83510002184F834100168A3699EE8E5
:104E30000450A2F18005E769B5FA85F566696D0948
:104E4000402A4FEA853543EA07026FF3101142EA20
:104E5000060208BF102541EADC0142EA0E02236A7D
:104E6000294341EAD20141EA131140F80819C0B2BE
:104E7000CD2148433C2101EA9020E0652046FDF722
:104E800067F9E16D012201F01F0102FA01F14160B1
:104E90002068404500F381809F21C4F202018842CE
:104EA00014DC5721C4F20201884227DC1021C4F22D
:104EB0000201884200F0C7802821C4F20201884222
:104EC00000F0C1804021C4F20201B9E040F2274164
:104ED000C4F20201884221DCA021C4F2020188420E
:104EE00000F0B180B821C4F20201884200F0AB802A
:104EF00040F21041C4F20201A2E000BF5821C4F206
:104F00000201884200F09F807021C4F202018842B1
:104F100000F099808821C4F2020191E040F228411A
:104F2000C4F20201884200F08E8040F24041C4F297
:104F30000201884200F0878040F25841C4F2020129
:104F40007EE000BF4020D9E6032D17D8DFE805F04A
:104F50000E0B0E02A3F1C072B2FA82F2520904E003
:104F6000032D03D30AD1C3F300623AB14020606538
:104F7000012084F83500BDE8F08100BF4161204682
:104F8000FDF7E6F8E16D3F2201F01F0102FA01F1A1
:104F90008160206840457FF77FAF45F22F41C5F61D
:104FA0000201884216DC40F2B741C4F20201884295
:104FB00026DC40F27041C4F20201884243D040F244
:104FC0008841C4F2020188423DD040F2A041C4F2BF
:104FD000020135E045F26B41C5F6020188421FDC53
:104FE00045F23041C5F6020188422CD045F24441D9
:104FF000C5F60201884226D045F258411EE000BFA6
:1050000040F2B841C4F2020188421CD045F2084186
:10501000C5F60201884216D045F21C410EE000BFE1
:1050200045F26C41C5F6020188420CD045F294412C
:10503000C5F60201884206D045F28041C5F602015C
:10504000884240F0E18045F2574C45F6FC0EC5F62B
:10505000020CC5F6020E60450EDC45F22F41C5F686
:105060000201884218DC45F20841C5F60201884277
:1050700028D045F21C4121E045F27F41C5F60201EE
:10508000884213DC45F25841C5F60201884219D026
:1050900045F26C4112E000BF45F23041C5F6020115
:1050A00088420FD045F2444108E000BF45F29441E8
:1050B000C5F60201884205D045F28041C5F60201DD
:1050C000884247D100F0FC014CF6CD420839CCF6BD
:1050D000CC42A1FB0212AEF1FC05AEF17C06130935
:1050E000A26803F01F01802A4FF0010205EB83053F
:1050F000256602FA01F26666A26605D100206060AC
:10510000286072601EE000BF6368D9B25F1E072F7F
:105110002960726016D84E1E082E19D260450EF115
:10512000440237DC45F22F41C5F60201884249DCD2
:1051300045F20841C5F60201884259D045F21C41AA
:1051400052E000BF00206067C4E91B005CE000BFC4
:10515000E06E54E000F0F8014AF6AB221039CAF6CE
:10516000AA22A1FB021240F20F43C4F20203082557
:105170001109984203F1AA060B4688BF05EB1213EA
:1051800040F60005B042C4F2020505F1800628BFD2
:105190000B46A5E745F27F41C5F6020188421BDCBC
:1051A00045F25841C5F60201884221D045F26C41D2
:1051B0001AE000BF25F00307742F08BF43F48013E3
:1051C000F6E500BF45F23041C5F6020188420FD036
:1051D00045F2444108E000BF45F28041C5F60201B6
:1051E000884205D045F29441C5F60201884213D1A8
:1051F0000EEB83000121E066B14022676167002168
:105200000160D4E91C01416000206065012184F83F
:105210003510BDE8F08100BF40F60000C4F2020086
:1052200000F1FC0E00F5A072E2E7000000000000B3
:1052300030B110B590F83440012C03D1022010BDDC
:1052400001207047012480F8344090F83540012C4B
:105250002CD1022480F8354000244465D0F800C0E9
:10526000DCF8004024F00104CCF800400446FDF7CF
:1052700003F840F20F4C2068C4F2020C40F26F4178
:105280006045C4F2020119DC6F23C4F202039842A4
:1052900026DC3F23C4F2020398423DDC1023C4F213
:1052A000020398425FD0282358E000BF4FF400610A
:1052B0004165002180F83410012010BD88421BDCBC
:1052C00040F23F43C4F2020398422DDC40F2104307
:1052D000C4F20203984246D040F228433EE000BFA9
:1052E0009F23C4F20203984228DC7023C4F2020315
:1052F000984238D0882331E040F29F43C4F2020341
:10530000984223DC40F27043C4F2020398422AD050
:1053100040F2884322E000BF4023C4F202039842D7
:1053200021D058231AE000BF40F24043C4F20203E8
:10533000984218D040F2584310E000BFA023C4F2B6
:10534000020398420FD0B82308E000BF40F2B843F0
:10535000C4F20203984206D040F2A043C4F2020312
:10536000984240F02F8103680B2262F344030360EC
:10537000226C1AB1082302681A430260884219DCC1
:105380009F22C4F20202904232DC5722C4F202028F
:10539000904259DC1022C4F20202904200F0968042
:1053A0002822C4F20202904200F090804022C4F20F
:1053B000020289E045F22F42C5F6020290422DDC3E
:1053C00040F2B742C4F2020290424BDC40F270421B
:1053D000C4F20202904279D040F28842C4F2020242
:1053E000904273D040F2A042C4F202026CE000BFCF
:1053F00040F22742C4F20202904243DCA022C4F2EF
:105400000202904262D0B822C4F2020290425DD001
:1054100040F21042C4F2020256E000BF45F26B4275
:10542000C5F6020290423FDC45F23042C5F6020268
:1054300090424BD045F24442C5F60202904245D01C
:1054400045F258423EE000BF5822C4F202029042A8
:105450003CD07022C4F20202904237D08822C4F2BB
:10546000020231E040F2B842C4F2020290422DD072
:1054700045F20842C5F60202904227D045F21C428E
:1054800020E000BF40F22842C4F2020290421DD048
:1054900040F24042C4F20202904217D040F2584219
:1054A000C4F2020210E000BF45F26C42C5F60202EF
:1054B00090420BD045F29442C5F60202904205D0CC
:1054C00045F28042C5F60202904274D1236E1A68FA
:1054D000D20303D51A6842F480721A60E36E1BB1DE
:1054E0001A6842F480721A60604511DC6F21C4F2C0
:1054F000020188421EDC3F21C4F20201884235DCF1
:105500001021C4F20201884255D0282150E000BF8A
:1055100088421BDC40F23F41C4F2020188422DDC8C
:1055200040F21041C4F20201884244D040F22841C6
:105530003EE000BF9F21C4F20201884228DC7021B6
:10554000C4F20201884236D0882131E040F29F4106
:10555000C4F20201884223DC40F27041C4F202012D
:10556000884228D040F2884122E000BF4021C4F2A6
:10557000020188421FD058211AE000BF40F240418A
:10558000C4F20201884216D040F2584110E000BF38
:10559000A021C4F2020188420DD0B82108E000BF6A
:1055A00040F2B841C4F20201884204D040F2A04166
:1055B000C4F202018842016841F00101016000204B
:1055C00010BD00BF0268052363F343020260226C32
:1055D000002A3FF4D3AE0423CDE600000000000013
:1055E000B0B5044601F000FA40F200010546C2F2EF
:1055F0000041621C097818BF0C4400BF01F0F4F9A7
:10560000401BA042FAD3B0BD90F89830013B012B6B
:105610000ED80068836D0B4212D0836D0B408B4215
:1056200032D1C36D43F00203C3658B050ED412E083
:1056300000F19C01012002220B681A430A607047A6
:10564000C36D43F00103C3658B0504D5D0F8E0308A
:105650001343C0F8E0304B0504D5D0F8E4301A43CA
:10566000C0F8E4204FF6FF72436DC3F6CF720A40D4
:105670001A4342658A0F4AF614010020C4F2000161
:105680000B681A430A6070470323C3658B05DDD49A
:10569000E1E700000000000090F89830022B1BD1D9
:1056A0002DE9F0430668D6F8C03013F07C5F1BD0BC
:1056B000D6F8C4309B0221D4D6F8C4300C69C3F3A9
:1056C000044CD1E90035002D8D6821D023432B43B4
:1056D00043F0804E20E000BFD0F89C1041F008015C
:1056E000C0F89C1001207047D0F89C1041F02001B8
:1056F000C0F89C100120BDE8F08300BFD0F89C10DA
:1057000041F40071C0F89C100120BDE8F08300BF97
:1057100044EA834343EA050E836ED0F88450D1E90E
:1057200007970CFB03F48B6949EA0767D1F81480EB
:10573000D1F80C901F4305EB840347EA080745F8AE
:1057400024E047EA09475F60CF6887B146F65C25E9
:10575000083303320024C0F6010500BF171957F8BB
:10576000037C1F51CF680434EF5DBC42F6D30121A6
:1057700001FA0CF1C6F8D010C0F894100020BDE872
:10578000F0830000000000007047000000000000EF
:1057900090F89820013A012A0CD880B50A68002AAE
:1057A000CA680FD00B69072A43EA427E18D18B6979
:1057B0001BE000BFD0F89C1041F00201C0F89C1023
:1057C00001207047072A19D10A69D1E906C31204DA
:1057D00042EA032242EA0C0242F0605218E000BFA3
:1057E000D1F808C04B6943EA8C73006F496800EB3D
:1057F000C10240F831E05360002080BD8B68D1E9E0
:1058000004CE9B0743EAC26242EA0C4242EA0E021D
:105810004968C06E40F82120002080BD00000000D3
:1058200090F898C0BCF1010F0ED19200006842EAD6
:105830000111DDF800C041EA430141EA0C01C0F862
:1058400080100020704700BFD0F89C1041F0040188
:10585000C0F89C100120704790F89830012B0DD1B2
:10586000402900684FEAC27110D1D0F8A02022F080
:1058700000421143C0F8A01000207047D0F89C10DF
:1058800041F00401C0F89C1001207047D0F8B0200E
:1058900022F000421143C0F8B01000207047000011
:1058A0007047000000000000FEF76AB8000000002A
:1058B0000068426C02F007000860C2F302204860F2
:1058C000C2F3803302F018008860C2F34010C86051
:1058D000C2F380100861C2F3C0104861C2F3C02057
:1058E0008861C2F30030C861C2F34030C1E90803E7
:1058F000C2F3064200208A627047000000000000E8
:10590000B422402908BFA4220068805800F07F001C
:1059100070470000000000002DE9F04390F89870F7
:10592000022F17D140291FD10468274657F8A06FCE
:1059300016F4FE0F3AD0D4F8A460760640D0D4F81E
:10594000A460D4F8A450ED01C6F3052E42D444253A
:10595000742656E0D0F89C1041F00801C0F89C1065
:105960000120BDE8F08300BF412915D10668374604
:1059700057F8B05F15F4FE0F18D0D6F8B4506D0686
:105980001ED0D6F8B450D6F8B460F601C5F3052E93
:105990002AD44C25782634E0076DB94206D24FF060
:1059A000000C54257C268E462CE000BFD0F89C10BD
:1059B00041F02001C0F89C100120BDE8F08300BF39
:1059C000D0F89C1041F48071C0F89C100120BDE813
:1059D000F08300BF3E684425B6F1FF3F4FF07406E8
:1059E000F4460FDC08E000BF3E684C25B6F1FF3FEF
:1059F0004FF07806F44605DC0EF101043F6804EA36
:105A0000174EF446445985590EFB04F405EB840EF9
:105A100055F8247017F08047576055F8247027F028
:105A2000604608BFC7F38A46166055F8247007F031
:105A30000057976055F8244004F000441461BEF804
:105A40000440D461BEF8064014F00F04D460DEF8C0
:105A5000044004F480145461DEF8044004F400149B
:105A600094619EF8074004F07F041462DEF804405D
:105A70004FEAD474546228D046F65C280026C0F65B
:105A800001080EEB0604751C277A9F55D76818F895
:105A90000770BD4219D29F19657A7D70D56818F8D4
:105AA0000590B51C4D453FBFA57ABD70D56818F867
:105AB00005903CBFF51C4D4507D2E47A0436FC70D6
:105AC000D46818F80440A642DBD3402906D1006808
:105AD000C0F8A8C00020BDE8F08300BF412905D16F
