:020000040800F2
:1000000048530020E902000831270008D1230008E6
:1000100021270008D507000805330008000000006C
:10002000000000000000000000000000290200089D
:10003000AD0800080000000085020008BB2E000883
:100040000303000803030008030300080303000878
:100050000303000803030008030300080303000868
:100060000303000803030008030300080303000858
:100070000303000803030008030300080303000848
:100080000303000803030008030300080303000838
:100090000303000803030008030300080303000828
:1000A0000303000803030008030300080303000818
:1000B0000303000803030008030300080303000808
:1000C00003030008030300080303000803030008F8
:1000D00003030008F93200080303000803030008C3
:1000E00003030008030300080303000803030008D8
:1000F00003030008030300080303000803030008C8
:1001000003030008030300080303000803030008B7
:1001100003030008030300087D2F00080303000801
:100120000303000803030008D9070008E5070008D7
:10013000F107000803030008030300080303000895
:100140000303000803030008030300080303000877
:100150000303000803030008FD0700080303000869
:100160000303000803030008030300080303000857
:100170000303000803030008030300080000000055
:10018000030300080303000800F002F800F03CF845
:100190000AA090E8000C82448344AAF10107DA45E2
:1001A00001D100F031F8AFF2090EBAE80F0013F0F8
:1001B000010F18BFFB1A43F001031847904B0000D2
:1001C000B04B0000103A24BF78C878C1FAD8520763
:1001D00024BF30C830C144BF04680C6070470000C1
:1001E0000023002400250026103A28BF78C1FBD840
:1001F000520728BF30C148BF0B6070471FB504F0DD
:1002000001FD1FBD10B510BD00F0D0F91146FFF77C
:10021000F5FF03F088F800F0EEF903B4FFF7F2FF02
:1002200003BC00F0F5F900002C4B19680868B0E831
:10023000F04F80F30988BFF36F8F4FF0000080F319
:10024000118870470000000008480068006880F3CB
:1002500008884FF0000080F3148862B661B6BFF3DF
:100260004F8FBFF36F8F00DF00BF00BF08ED00E0CE
:10027000DFF80C00016841F470010160704700BFB5
:1002800088ED00E0EFF30980BFF36F8F134B1A681E
:100290001EF0100F08BF20ED108A20E9F04F10600B
:1002A00009B44FF0500080F31188BFF34F8FBFF3B4
:1002B0006F8F03F071FF4FF0000080F3118809BCCD
:1002C00019680868B0E8F04F1EF0100F08BFB0ECD6
:1002D000108A80F30988BFF36F8F70476C0000208D
:1002E000EFF3058070470000094880470948004740
:1002F000FEE7FEE7FEE7FEE7FEE7FEE7FEE7FEE7D6
:10030000FEE7FEE704480549054A064B7047000032
:100310006D2F000889010008484D00204853002037
:10032000484F0020484F002053EA020C00F069803B
:100330002DE9F04B4FF00006002B1FBFB3FA83F5F9
:1003400003FA05F424FA05F65E4012BF1643B2FA2A
:1003500082F502FA05F4C5F120051EBF22FA05FC5C
:1003600044EA0C04203556EA044C4FEA144418BF02
:10037000641C4FF000084FF00009904271EB030C31
:1003800039D3002919BFB1FA81F701FA07F6B0FA9B
:1003900080F700FA07F6C7F120071EBF20FA07FC16
:1003A00046EA0C062037B6FBF4FCA7EB0507103F26
:1003B00007F01F0BCBF120060CFA0BFB2CFA06F60C
:1003C00044BFB3460026202FA4BF5E464FF0000B6B
:1003D0005BEA060C08BF4FF0010B19EB0B09ABFBF6
:1003E000027C48EB0608C01B06FB02CC0BFB03CCCF
:1003F00071EB0C01C1E70B46024641464846BDE899
:10040000F08B13B54FF000004FF00001AFF3008008
:10041000BDE81C407047032A40F2308010F0030C06
:1004200000F0158011F8013BBCF1020F624498BF47
:1004300011F801CB00F8013B38BF11F8013BA2F1E4
:10044000040298BF00F801CB38BF00F8013B11F05F
:10045000030300F05780083AC0F0088051F8043BCD
:10046000083A51F804CBA0E80810F5E7121D5CBF6C
:1004700051F8043B40F8043BAFF30080D20724BF9F
:1004800011F8013B11F801CB48BF11F8012B24BF33
:1004900000F8013B00F801CB48BF00F8012B704782
:1004A00002F0FF0343EA032242EA024200F05EB890
:1004B0004FF0000200B5134694469646203922BFFD
:1004C000A0E80C50A0E80C50B1F12001BFF4F7AF48
:1004D000090728BFA0E80C5048BF0CC05DF804EB2A
:1004E000890028BF40F8042B08BF704748BF20F898
:1004F000022B11F0804F18BF00F8012B7047704796
:100500007047704710B5203AC0F00B80B1E8185022
:10051000203AA0E81850B1E81850A0E81850BFF4ED
:10052000F5AF5FEA027C24BFB1E81850A0E818508C
:1005300044BF18C918C0BDE810405FEA827C24BFE0
:1005400051F8043B40F8043B08BF7047D20728BF6E
:1005500031F8023B48BF11F8012B28BF20F8023BBD
:1005600048BF00F8012B70474FF000020429C0F08B
:10057000128010F0030C3FF49DAFCCF1040CBCF1E1
:10058000020F18BF00F8012BA8BF20F8022BA1EB27
:100590000C01FFF78FBF5FEAC17C24BF00F8012B7D
:1005A00000F8012B48BF00F8012B7047754600F09A
:1005B0002BF8AE4605006946534620F007008546F5
:1005C00018B020B5FFF79EFEBDE820404FF00006B2
:1005D0004FF000074FF000084FF0000B21F007012B
:1005E000AC46ACE8C009ACE8C009ACE8C009ACE86E
:1005F000C0098D46704710B50446AFF30080204611
:10060000BDE81040FFF709BE00487047E84C0020E5
:1006100001491820ABBEFEE726000200704710B566
:100620000146806B026C12F0500F05D0026CD206AE
:1006300026D500F0E7F910BD016C41F400710164AA
:1006400001688A6812F0405F17D1027EAAB9CA6AAF
:1006500012F4700F02D08A6852050ED44A6822F054
:1006600020024A60016C21F480710164016CC904AC
:1006700003D4016C41F00101016400F0C1F910BD27
:10068000806BC26CBDE810400846104710B5806B07
:1006900040210164416C41F00401416400F0B2F971
:1006A00010BD10B5806B00F0ACF910BD464910B517
:1006B0004A6822F440324A604A6843681A434A60F2
:1006C00001684A6822F480724A6001684A680369D6
:1006D00042EA03224A6001684A6822F040724A6096
:1006E00001684A6883681A434A6001688A6822F48C
:1006F00000628A6001688A68C3681A438A60816AF6
:100700006FF07062D14201688A6822F070628A607C
:1007100001688A680CD0836A1A438A6001688A6813
:1007200022F040528A6001688A68C36A1A4301E075
:1007300022F040528A6001688A6822F002028A60D0
:1007400001688A68037E42EA43028A6090F82010BA
:10075000002901684A680FD042F400624A600168CB
:100760004A6822F460424A6001684A68174C436A4A
:1007700004EB43331A4301E022F400624A6001684B
:10078000CA6A22F47002CA620168CA6A838B104C7A
:1007900004EB03531A43CA6201688A6822F40072A8
:1007A0008A6001688A6890F8303042EA43228A60A1
:1007B00001688A6822F480628A6001688A684069F8
:1007C00042EA8020886010BD0023014000E0FFFF66
:1007D0000000F0FFFEE70000014800F009BB000048
:1007E0002C030020014800F003BB0000DC010020C6
:1007F000014800F0FDBA00007C010020014800F033
:10080000F7BA0000CC02002001681823CAB2103ADF
:10081000B2FBF3F2054B6FF30901032A9B5CC3653E
:1008200000D9091D8165084670470000084D000881
:1008300010B5014600208B698A6A4FF0C07453B12D
:10084000B3F5005F15D072B1012A0CD0022A0AD08C
:10085000032A09D104E01AB1012A06D0022A03D1E1
:10086000C96AC90100D5012010BDC96AA142FAD0E8
:1008700010BD002AF7D0012AF2D0022AF3D0032AB1
:10088000F3D010BD30B50468256825F480252560B7
:10089000046863608368402B036803D09960006834
:1008A000C26030BD9A600068C16030BD704772B6EA
:1008B000FEE7000078B50024009490F83C20012A5F
:1008C00019D0012280F83C200A6807230568092A0C
:1008D00013D9EE680A3A02EB420293409E43EE605F
:1008E0000B788A680A3B03EB43039A400368DD6890
:1008F0002A43DA6010E0022078BD2E6902EB420242
:1009000093409E432E610B788A6803EB43039A4021
:1009100003681D692A431A614A681F23072A13D2F4
:1009200005686E6B521E02EB820293409E436E631B
:100930000B790A885B1E92B203EB83039A4003682B
:100940005D6B2A435A6327E005680D2A12D22E6B8D
:10095000D21F02EB820293409E432E630B790A88DA
:10096000DB1F92B203EB83039A4003681D6B2A439B
:100970001A6311E0EE6A0D3A02EB820293409E4345
:10098000EE620B790A880D3B92B203EB83039A4027
:100990000368DD6A2A43DA62164B0568144A9D42F1
:1009A00006D10D68122D03D1556845F480055560B8
:1009B00005689D4218D10B68102B01D0112B13D163
:1009C000536843F400035360096810290CD10A49A5
:1009D0000A4A0968B1FBF2F101EB8101490000E02C
:1009E000491E00910029FBD180F83C40002078BDD1
:1009F00000230140002001406800002040420F0019
:100A000070477047704770B504004FF0000503D081
:100A1000206C002610B107E0012070BD204600F0D8
:100A20001DF8666484F83C60206CC00610D4206C0D
:100A300020F4885040F0020020642046FFF736FE84
:100A40006664206C20F0020040F00100206400E0A9
:100A5000012584F83C60284670BD00002DE9F04F68
:100A600087B0064614216846FFF722FD3D483D4900
:100A70003B4B326800251439032407154FF40068F6
:100A80004FF400594FF4807A4FF4003B9A4227D13B
:100A9000026842F480720260006800F48070059081
:100AA000086840F0010008600868694600F001002D
:100AB0000590C0208DE831002B4800F0D1FB2C4C74
:100AC0002A4804F10C02C4E90005A56082E8A00FE1
:100AD000204665623CE0B463A66307B0BDE8F08FD2
:100AE000244B9A42F9D1026842F400720260006815
:100AF00000F400700590086840F004000860086881
:100B000000F004000590086840F0020008600868E2
:100B1000694600F0020005900C208DE8310016486F
:100B200000F09EFB009469461448CDE9014500F0B1
:100B300097FB0F4C0D486034183820604FF0007060
:100B4000C4E9010504F10C02204682E8A00F6562A9
:100B500000F01EFA0028BED0FFF7A9FEBBE7000098
:100B6000002001404438024000000240706402400E
:100B70007C010020002101400008024000040240E6
:100B8000F8B50E4600210446009190F83C0013464B
:100B90000A46012807D0012084F83C0020688568B7
:100BA000ED0702D011E00220F8BD856845F001058F
:100BB00085604048404D0068B0FBF5F000EB400018
:100BC00000E0401E00900028FBD120688568ED05FC
:100BD00003D5856825F48075856020688568ED07F4
:100BE0005DD0226C40F20165AA4342F48072226417
:100BF0004068400505D5206C20F4005040F480503A
:100C00002064206CC00404D5606C20F00600606491
:100C100000E0616484F83C10A16B2948274DC8634B
:100C2000A16B28480864A16B2748C86421686FF04D
:100C3000220008602068416841F0806141602068BE
:100C4000816841F480718160216832464C31A06B2B
:100C500000F008FA024668681C49C006206806D001
:100C6000884224D1816811F0405F13D01FE0884290
:100C7000F8D0174B984203D1D1F80433DB06F1D0FA
:100C8000144B984213D1D1F8041301F01F0110291D
:100C9000E8D30CE0816841F08041816007E0206C7E
:100CA00040F010002064606C40F001006064104669
:100CB000F8BD00006800002040420F000023014002
:100CC0001F060008A30600088D060008002001404A
:100CD00000210140002201402DE9F0410446876DCA
:100CE00000F0C0FB064694F835000025022806D027
:100CF0008020606584F834500120BDE8F0812068D0
:100D0000016821F0160101602068416921F080012D
:100D10004161206C08B9A06C20B12068016821F005
:100D2000080101602068016821F0010101600CE008
:100D300000F098FB801B052807D920206065032060
:100D400084F8350084F83450D7E720680068C0077D
:100D5000EED194F85C103F208840B860012084F800
:100D6000350084F834500020C7E790F83510022988
:100D700003D08021416501207047052180F835109E
:100D80000068016821F0010101600020704770B522
:100D900004002BD094F83500022826D02068016882
:100DA00021F0010101602068002505602068456090
:100DB000206885602068C560206805612168212061
:100DC00048612046FFF720FDE56325646564A5645E
:100DD000E564256594F85C203F219140816065655C
:100DE00084F8355084F83450002070BD012070BD67
:100DF0002DE9F84304464FF00009CDF80090634810
:100E00004FF41651A56D0068B0FBF1F72E6894F809
:100E10005C10082000FA01F131420FD021680A6805
:100E200052070BD50A6822F004020A6094F85C109D
:100E30008840A860606D40F00100606594F85C1027
:100E40004FF0010808FA01F0304208D021684969E2
:100E5000090604D5A860606D40F00200606594F852
:100E60005C1004208840304208D021680968890756
:100E700004D5A860606D40F00400606594F85C10D3
:100E800010208840304218D021680968090714D51D
:100E9000A86020680168490304D50068000308D5EC
:100EA000A16C07E00168C90503D4016821F00801BD
:100EB0000160216C09B12046884794F85C1020201D
:100EC0008840304231D021680968C9062DD5A86014
:100ED00094F8350005282068016806D0490347D5F5
:100EE000006800031DD4616C1CE021F01601016054
:100EF0002068416921F080014161206C08B9A06C33
:100F000020B12068016821F00801016094F85C10AC
:100F10003F208840A86084F8358084F83490216DA3
:100F20001FE0E16B09B120468847606D00282BD097
:100F3000606DC00714D0052084F835002068016872
:100F400021F0010101600098401C0090B84203D8D4
:100F500020680068C007F6D184F8358084F83490A2
:100F6000E16C002910D001B02046BDE8F0430847ED
:100F70000168C905D5D4016821F01001016084F829
:100F8000358084F83490CCE7BDE8F8836800002011
:100F90002DE9F041044600F065FA06465CB10220F6
:100FA00084F83500002584F834502068016821F069
:100FB000010101600DE00120BDE8F08100F052FA6E
:100FC000801B052805D920206065032084F83500A2
:100FD000F2E720680068C007F0D122681168204855
:100FE0000140D4E901031843D4E9033633431843DD
:100FF00063691843A3691843E3691843236A1843D4
:101000000843616A042903D1D4E90B131943084347
:10101000106020684069666A20F0070130460E4380
:10102000012704280CD1A06A0643E06A40B120469B
:10103000FFF7FEFB20B14020606584F83570BAE709
:10104000206846612046FFF7DFFB94F85C203F21D3
:1010500091408160656584F835700020ACE7000040
:101060003F8010F02DE9F0410446866D90F8340081
:10107000002501280DD0012084F8340094F8357043
:101080000020012F07D084F8340002252846BDE84F
:10109000F0810220FBE7022784F835706065204666
:1010A000FFF7F0FB94F85C103F208840B0602068A8
:1010B000016841F016010160206C20B120680168D0
:1010C00041F0080101602068016841F00101016000
:1010D000DCE7000070B5044600F0C4F90546601C6A
:1010E00002D004480078044400F0BCF9401BA04240
:1010F000FAD370BD5C0000202DE9F04F0022DFF82C
:1011000038B101264FF00F0906FA02F401EA040390
:10111000A3427DD122F003075F44D7F808889507E2
:101120004FEA157C09FA0CFA0AEA0805DFF80C8187
:10113000404502D14FF0000832E0DFF8048140451D
:1011400002D14FF001082BE0DFF8F880404502D1D2
:101150004FF0020824E0DFF8F080404502D14FF064
:1011600003081DE0DFF8E480404502D14FF0040899
:1011700016E0DFF8DC80404502D14FF005080FE0B3
:10118000DFF8D080404502D14FF0060808E0DFF8D4
:10119000C880404502D14FF0070801E04FF0080831
:1011A00008FA0CF8A84522D12C4DD5F800C02CEA3D
:1011B000030CC5F800C005F1040CDCF800509D4399
:1011C000CCF80050254D0C35D5F800C02CEA030CA6
:1011D000C5F800C02D1FD5F800C02CEA030CC5F8D7
:1011E00000C0D7F8085825EA0A05C7F80858056866
:1011F00057000323BB409D430560D50800EB8505E0
:10120000D5F820C057074FEAD76809FA08F700E079
:101210000CE02CEA070CC5F820C0C5689D43C560EA
:101220004568A543456084689C438460521C102A2D
:10123000FFF46AAFBDE8F08F0030014000000240CB
:101240000004024000080240000C0240001002406E
:101250000014024000180240001C0240003C014003
:101260002DE9F84FDFF8BCA10022012503264FF03D
:101270000F090AF1040BAAF1040E00BF0B6805FA6E
:1012800002F42340A34270D10F7907F00307012F26
:1012900001D0022F16D187684FEA420806FA08FCEF
:1012A00027EA0C07D1F80CC00CFA08FC4CEA070C32
:1012B000C0F808C04768A7430C79C4F300149440F1
:1012C0003C4344600C79E443A4070AD0C4684FEA65
:1012D000420C06FA0CF7BC438F6807FA0CF7274359
:1012E000C7600C7904F00304022C12D1D40800EB7F
:1012F000840CDCF820405707FF0E09FA07F824EAAF
:101300000804D1F8108008FA07F848EA0408CCF875
:10131000208004684FEA420C06FA0CF7BC430F79B0
:1013200007F0030707FA0CF7274307604C6814F42B
:10133000403F70D03C4C276847F4804727602468C2
:1013400022F0030704F480440094384C07EB040CAB
:10135000DCF8084897074FEA177809FA08F7BC4302
:10136000334FB84202D1002724E054E0314FB84255
:1013700001D101271EE0304FB84201D1022719E008
:101380002E4FB84201D1032714E02D4FB84201D1AE
:1013900004270FE02B4FB84201D105270AE02A4F5E
:1013A000B84201D1062705E0284FB84201D10727EE
:1013B00000E0082707FA08F72743CCF80878DAF89E
:1013C00000405746D1F804C09C435FEACC2C00D5BE
:1013D0001C433C60DBF800405F46D1F804C09C43EE
:1013E0005FEA8C2C00D51C433C60DEF80040774659
:1013F000D1F804C09C435FEA8C3C00D51C433C60A0
:10140000084F083F3C68D1F804C09C435FEACC3CDD
:1014100000D51C433C60521C102AFFF42FAFBDE8DE
:10142000F88F0000083C0140443802400030014081
:10143000000002400004024000080240000C02408C
:10144000001002400014024000180240001C02403C
:101450000069084000D0012070470AB181617047DF
:101460000904FBE701488068704700005C00002029
:101470000248816802781144816070475C00002056
:101480000B4810B5016841F400710160016841F436
:1014900080610160016841F480710160032000F007
:1014A000AFF80F2000F006F800F050F8002010BD53
:1014B000003C024030B505461F4887B00024016853
:1014C00041F010010160006806A900F010000090D2
:1014D00001A800F041F90498A8B100F05DF94000BE
:1014E0001649174AB0FBF1F11648491E026040F256
:1014F000E732C0E90324C0E90114846100F056FB1F
:10150000040003D015E000F047F9E9E70D4800F0CA
:101510007BFB04000DD1362000F045F8102D07D2DA
:1015200000222946362000F04BF80748056000E00D
:10153000012407B0204630BD4038024040420F0031
:10154000001000408C030020600000200C4882B096
:10155000016841F480410160006800F4804000901F
:101560000748001F016841F08051016000680022B7
:1015700000F0805000900F21901E02B000F020B8C3
:101580004438024000280DDB00F01F020121914089
:101590004009800000F1E020C0F88011BFF34F8FB8
:1015A000BFF36F8F7047002809DB00F01F02012195
:1015B00091404009800000F1E020C0F80011704720
:1015C000F0B40E4B1B680C46C3F30223C3F10705AE
:1015D000042D00D90425191D072901D2002300E09C
:1015E000DB1E012606FA05F1491E214099409E4066
:1015F000761E16403143F0BC01F085BE0CED00E0D4
:10160000064900F0070208684FF6FF03184040EA59
:101610000220034A10430860704700000CED00E010
:101620000000FA052DE9F0470E46050065D0DFF809
:101630001481D8F80000F7B200F00700B04207D2DA
:1016400088F80070D8F8000000F00700B04254D1CC
:1016500028683D4C810712D5400703D5206840F427
:10166000E05020602878000703D5206840F46040EF
:1016700020602068A96820F0F000084320602878E6
:10168000C0072DD0304968680839012812D00228D7
:1016900013D0032811D00968890700292DDA2168A1
:1016A00021F0030101432160FFF7DCFE814641F296
:1016B000883A0EE009688903EFE709688901ECE7D9
:1016C000FFF7D0FEA0EB0901514502D90320BDE888
:1016D000F0872068696800F00C00B0EB810FEFD153
:1016E000D8F80010404601F00701B14207D9077051
:1016F000006800F00700B04201D00120E7E7287839
:10170000400705D52068E96820F4E05008432060D0
:101710002878000706D52068296920F4604040EA4F
:10172000C100206000F058F82168084AC1F3031195
:10173000515CC8400649086006480068FFF7BAFED9
:101740000020C4E7003C024008380240104D000869
:1017500068000020600000200F2202600C4A13681D
:1017600003F003034360136803F0F003836013681E
:1017700003F4E053C36012684FF4E05303EAD2026B
:1017800002610448006800F007000860704700002C
:1017900008380240003C02400448054900680968D6
:1017A000044AC1F38221515CC840704768000020A0
:1017B00008380240204D00080448054900680968BF
:1017C000044AC1F34231515CC840704768000020B0
:1017D00008380240204D0008154810B5006810F088
:1017E0000C02144813D01449042A0FD0082A0ED131
:1017F0000F4C241F2268236802F03F025B0207D5CA
:101800002068C0F38810A0FB010106E0084610BD67
:101810002168C1F38811A1FB00010023FEF784FDBC
:101820002168C1F30141491C4900B0FBF1F010BD32
:10183000083802400024F40040787D012DE9F84F7B
:1018400004006ED02078DFF84C93C007A9F104059E
:101850004AD009F104000168C1F38101012908D0CF
:101860000068C0F3810002280AD1D9F800004002C4
:1018700006D52868800337D560680028E1D033E0BA
:101880006068B0F5803F10D0B0F5A02F286810D068
:1018900020F480302860286820F480202860606868
:1018A000A8B1FFF7DFFD06460DE0286840F4803060
:1018B000F4E740F480202860F7E700BFFFF7D2FD8F
:1018C000801B642873D828688003F7D50CE0FFF7E5
:1018D000C9FD064605E000BFFFF7C4FD801B642874
:1018E000F0D828688003F7D42078DFF8AC8280072E
:1018F0004FF0000A3ED5A748001D016811F00C0FFB
:1019000008D00068C0F3810002280BD1D9F800008C
:10191000400207D42868800716D5E068012800D166
:1019200012E033E1E068B8B10120C8F80000FFF729
:1019300099FD064605E000BFFFF794FD801B0228D5
:10194000C0D828688007F7D52868216920F0F800FA
:1019500040EAC10028600DE0C8F800A0FFF782FD52
:10196000064604E0FFF77EFD801B02281FD828688A
:101970008007F7D42078000722D5864F8748616911
:10198000703771B101210160FFF76CFD064604E07C
:10199000FFF768FD801B022809D838688007F7D553
:1019A0000EE0C0F800A0FFF75DFD064605E082E00E
:1019B000FFF758FD801B02287DD838688007F7D4D0
:1019C0002078400768D5DFF8CCB100270BF13C0B3D
:1019D000DBF80000C0000BD4DBF8001041F08051B0
:1019E000CBF80010DBF80000012700F080500090D9
:1019F0006B4E3068C00510D4306840F480703060A1
:101A0000FFF730FD009005E0FFF72CFD0099401A2C
:101A1000022850D83068C005F6D55E4EA0686C36F6
:101A200001280FD00528306810D020F00100306068
:101A3000306820F004003060A068B8B1FFF712FDF4
:101A400000900FE0306840F00100F4E740F004003F
:101A50003060F7E7FFF706FD0099411A41F2883040
:101A6000814266D830688007F4D50EE0FFF7FAFCB3
:101A7000009007E0FFF7F6FC0099411A41F2883028
:101A8000814256D830688007F4D42FB1DBF80010BB
:101A900021F08051CBF80010A069C8B33D49091D61
:101AA0000968C1F3810102294AD00228504607D0B3
:101AB000C8F8600000E03CE0FFF7D4FC04463BE0DF
:101AC0004746C8F86000FFF7CDFC064605E000BFBA
:101AD000FFF7C8FC801B02282BD828688001F7D4A8
:101AE000D4E907010843A16A2E4A490802EB0141E3
:101AF000626A41EA8211084394F82C1040EA0161BD
:101B0000C9F8001001203866FFF7ACFC044606E077
:101B10003EE000BFFFF7A6FC001B022809D828689A
:101B20008001F7D534E000BFFFF79CFC001B0228C2
:101B300002D90320BDE8F88F28688001F4D427E09B
:101B40000128F7D0D9F80000E26900F48001914241
:101B50001CD1226A00F03F01914217D147F6C071B3
:101B6000626A0140B1EB821F10D1A26A4FF0FF33CD
:101B700000F4403103EB5202B1EB024F06D194F86E
:101B80002C1000F07060B0EB016F01D00120D1E7A4
:101B90000020CFE70438024000004742800E474251
:101BA000007000400000FFFF7047704710B5040050
:101BB00003D094F83D0010B107E0012010BD0020D3
:101BC00084F83C00204600F01EF8022084F83D0016
:101BD000211D206801F0D8F9012084F8460084F81E
:101BE0003E0084F83F0084F8400084F8410084F807
:101BF000420084F8430084F8440084F8450084F8E7
:101C00003D00002010BD704790F83D10012901D023
:101C100001207047022180F83D100168CA6842F037
:101C20000102CA6000681149884214D0B0F1804FA7
:101C300011D00F4988420ED00E4988420BD00E4970
:101C4000884208D00D49884205D00D49884202D00B
:101C50000C49884204D1816801F00701062903D0AC
:101C6000016841F00101016000207047000001405F
:101C70000004004000080040000C00400004014047
:101C8000004001400018004070472DE9F041044633
:101C90000068C66805694FF00007A90713D5B107AA
:101CA00011D5F91E01610120207720688069800725
:101CB000204602D0FFF7E8FF04E000F07EF820465F
:101CC00000F07CF82777680716D5700714D52168CF
:101CD0006FF004000861022020772068806910F40A
:101CE000407F204602D0FFF7CFFF04E000F065F808
:101CF000204600F063F82777280715D5300713D55D
:101D000021686FF008000861042020772068C0690E
:101D10008007204602D0FFF7B7FF04E000F04DF83F
:101D2000204600F04BF82777E80616D5F00614D5C4
:101D300021686FF010000861082020772068C069D2
:101D400010F4407F204602D0FFF79EFF04E000F031
:101D500034F8204600F032F82777E80708D0F0077B
:101D600006D021686FF001000861204600F028F8D5
:101D7000280608D5300606D521686FF08000086176
:101D80002046FFF711FF680608D5700606D52168C2
:101D90006FF040000861204600F01CF8A8060AD544
:101DA000B00608D521686FF0200008612046BDE824
:101DB000F041FFF7FABEBDE8F081704770470000C0
:101DC00000680349884201D1FFF752BB7047000009
:101DD000001000407047704710B5040015D0242053
:101DE00084F841002068C16821F40051C160204698
:101DF00000F080F90020606484F8410084F842001B
:101E000044F8300F6060207410BD012010BD704791
:101E1000F8B5016804460868CA684B6910F00F0FEE
:101E20004FF0000559D003F0010602F490773743D4
:101E300065D0C10705D0D10503D5616C41F0010122
:101E40006164410705D5D90703D0616C41F00201F7
:101E50006164810705D5D90703D0616C41F00401A5
:101E60006164010707D502F02001314303D0616CA2
:101E700041F008016164616C00293AD0800604D504
:101E8000900602D5204601F015F920684069616C82
:101E9000C0F38010090700D460B3204601F0E3F8D6
:101EA00020684069400621D52068143050E8001FA2
:101EB00021F0400140E80012002AF5D1E06BA8B102
:101EC00072490165E06BFEF750FF002811D0E06B0E
:101ED000016D01B0BDE8F040084783060FD59306B9
:101EE0000DD52046BDE8F84001F0E4B82046FFF7E4
:101EF0008EFFF8BD2046FFF78AFF6564F8BD266BAC
:101F00002023012E7ED1C6067CD5D6067AD5086858
:101F10004868009048694FF0020640064DD5E26BD4
:101F2000106840684FF480770004000C3AD0A18D0F
:101F3000814237D9E085D069B8422DD020680C3075
:101F400050E8001F21F4807140E80012002AF5D10A
:101F50002068143050E8001F21F0010140E8001211
:101F6000002AF5D12068143050E8001F21F040010C
:101F700040E80012002AF5D184F842302563206839
:101F80000C3050E8001F21F0100140E80012002A38
:101F9000F5D1E06BFEF7A0FE6663A08DE18D401ADF
:101FA00081B206E0A18D8142A8D1D069B842A5D105
:101FB00066632046FFF70FFFF8BDA08DE18D401A44
:101FC00081B2E08D0028F7D00029F5D020680C30D0
:101FD00050E8002F22F4907240E80027002FF5D13E
:101FE0002068143050E8002F22F0010240E800275A
:101FF000002FF5D184F84230256320680C3050E87A
:10200000002F00E006E022F0100240E80023002B41
:10201000F3D1CDE705062BD5150629D594F8410057
:102020002128C9D1A068B0F5805F01D12069B0B185
:10203000206A411C2162216800784860E08C401EC3
:102040000004000CE084B7D12068C16821F0800151
:10205000C1602068C16841F04001C160F8BD206ADC
:102060000088C0F308004860206A801C2062E5E711
:102070004006F3D55006F1D5CA68204622F040024A
:10208000CA6084F8413000F0A2F9F8BD5930000868
:1020900070B5040004D094F84100002510B106E0AA
:1020A000012070BD84F84050204600F057F82420ED
:1020B00084F841002068C16821F40051C1602046C5
:1020C00001F05AF82068016921F49041016120680B
:1020D000416921F02A0141612068C16841F4005141
:1020E000C1606564202084F8410084F84200656383
:1020F000002070BD10B50446134A01681348914290
:1021000013D1016821F0100101604FF4C061104843
:10211000FEF7F2FFA06BFEF73AFEE06BFEF737FE2C
:10212000BDE810402520FFF72DBA0A4A914209D197
:10213000016821F020010160BDE81040C02106487F
:10214000FEF7DABF10BD0000001001404438024025
:102150000000024000140140000802402DE9F04157
:1021600086B0064614216846FEF7A2F93D483C4F6A
:1021700035683C491438022203230024BD4251D162
:102180000D6845F010050D60096801F0100105911A
:10219000016841F0010101600068694600F001003A
:1021A000059058028DE815000720CDE903302E4830
:1021B000FFF756F82E4D2D484FF00068E5E802086D
:1021C0004020070191C52A4845F81449AC61EC61EB
:1021D0002C626C62FEF7DCFE08B1FEF768FBB563AB
:1021E000AE63234D2148603578382860C5E9018405
:1021F000C5E903476C61AC61EC612C6228466C62F6
:10220000FEF7C6FE08B1FEF752FBF563002205217A
:102210002520AE63FFF7D4F92520FFF7C4F906B0F7
:10222000BDE8F081134EB542F9D10D6845F02005A7
:102230000D60096801F020010591016841F0040179
:1022400001600068694600F004000590C0208DE838
:1022500015000820CDE903300748FFF701F8DEE755
:10226000001001404438024000000240B8640240BF
:10227000CC02002000140140000802402DE9F84F74
:10228000044690F842009A4616460D46202802D091
:102290000220BDE8F88FB5B1AEB100206064222104
:1022A00084F842102063FFF7DDF8A6858146E685B5
:1022B000A0684FF480582027404501D1206920B103
:1022C0002E46002529E00120E3E7002625E04B46C5
:1022D000002220212046CDF800A000F0D3FF18B145
:1022E00084F842700320D4E726B1A06840451AD094
:1022F00038B108E020684068C0F3080025F8020BF8
:1023000008E0206978B12068406800F07F0000BFD5
:1023100006F8010BE08D401EE085E08D0028D6D147
:1023200084F84270B5E720684068F1E770472DE90E
:10233000F843044690F84100984616460D4620287A
:1023400002D00220BDE8F88385B17EB10020606430
:10235000212084F84100FFF785F8A6848146E684B1
:10236000A0682027B0F5805F02D003E00120E9E7F4
:10237000206910B12E4600250EE000260CE08021D9
:10238000204600F07FFFA8B9C6B116F8010B2168FE
:102390004860E08C401EE084E08C4B464FF0000229
:1023A000CDF800800028EAD14FF04001204600F02F
:1023B00069FF40B184F841700320C3E735F8020B90
:1023C000C0F30800E3E784F841700020BAE77047E3
:1023D000FEE700001FB500211B480091019102910A
:1023E000184A0391026001244FF480320461C0E96D
:1023F0000121047680F82010144AC0E90A21C46142
:10240000C16080F830404161FEF7FDFA08B1FEF787
:102410004EFA0620CDE900040420029069460A48DD
:10242000FEF748FA08B1FEF742FA072000900220B2
:10243000019069460448FEF73DFA002801D0FEF7F6
:1024400036FA1FBD00200140EC0000200100000F03
:102450001FB500212648009101910291234A039162
:10246000026001244FF480320461C0E90121047646
:1024700080F820101F4AC0E90A21C461C16080F8B9
:1024800030404161FEF7BFFA08B1FEF710FA0C20A8
:10249000CDE900040424694615480294FEF70AFABF
:1024A00008B1FEF704FA0D20009002200190694661
:1024B0000F48FEF7FFF908B1FEF7F9F90820009080
:1024C0000320019069460A48FEF7F4F908B1FEF7C7
:1024D000EEF90920CDE9000469460548FEF7EAF95E
:1024E000002801D0FEF7E3F91FBD000000210140E4
:1024F000340100200100000F154808B5016841F4BF
:10250000800101600068002200F480000090052135
:102510003A20FFF755F83A20FFF745F80022052149
:102520003B20FFF74DF83B20FFF73DF80022052147
:102530003C20FFF745F83C20FFF735F80022052145
:102540004620FFF73DF8BDE808404620FFF72BB8CE
:102550003038024010B50B4A00210B4800F05AFFFA
:102560000A4C084A002160602432094800F052FFFA
:10257000044AA060243A0021064800F04BFF206086
:1025800010BD0000344C0008AF2E000800000020F1
:102590008F2E0008992E00082DE9F04186B01421F5
:1025A0006846FDF785FF3C480024016841F01001B2
:1025B0000160016801F010010591016841F080019E
:1025C0000160016801F080010591016841F004019A
:1025D0000160016801F004010591016841F0010109
:1025E0000160016801F001010591016841F00201FB
:1025F0000160016801F002010591016841F00801E4
:1026000001600068254F00F00800059000220421B9
:102610003846FEF722FFDFF888804FF4404600225C
:1026200031464046FEF719FF1B20CDE900046946FC
:102630001C480294FEF714FE40F22310CDE900047A
:10264000694619480294FEF70BFE1720CDE90004F5
:10265000694616480294FEF703FE04200090012507
:10266000CDE90154694638460394FEF7F9FD43F677
:102670006070CDE90004694640460294FEF7F0FD23
:102680000096CDE90154694640460394FEF7E8FD03
:1026900006B0BDE8F081000030380240000402407E
:1026A000000C0240001002400008024000000240FE
:1026B0000C4810B50A4901604FF4E1314160002136
:1026C00081600C22C160C0E904128161C161FFF721
:1026D000DFFC002803D0BDE81040FEF7E8B810BDCD
:1026E000001001403C0200200C4810B50A4901606E
:1026F0004FF4E1314160002181600C22C160C0E9EA
:1027000004128161C161FFF7C3FC002803D0BDE85A
:102710001040FEF7CCB810BD001401408402002028
:10272000FEE710B500F07EF8BDE8104000F0A6B955
:10273000FEE70000F8B50C461B4900EB400001EB3A
:1027400040000688A64213D28288A24214D941884A
:10275000FF25A14205D380200A4600233146009080
:1027600001E080230095204600F0F2F90A2801D804
:102770000020F8BDF52801D3FF20F8BDA0F17601B7
:10278000142901D88020F8BD762805D27F210023A6
:10279000752200910B2103E08123F4228B21009507
:1027A00000F0D6F9C0B2F8BD844C0008002836D03D
:1027B000EFF3108272B61A490B8803804B8843806E
:1027C0000B7903714B7943718B798371CB79C37129
:1027D0000B7A03724B7A43728B7A8372CB7AC37211
:1027E0000B7B03734B7B43738B7B8373CB7BC373F9
:1027F0000B7C03744B7C43748B7C8374CB7CC374E1
:102800000B7D03754B7D43758B7D8375CB7DC375C8
:102810000B7E0376497E4176002A00D162B670476E
:10282000D40300202DE9F05F324FDFF8C48000248C
:10283000314EA8F1180907F1060A07F10C0B2546DD
:1028400038F8141059F8240000F094F938550AF8B3
:10285000040031190BF804500872641CE4B2062C11
:10286000EED3DFF88C80254F08F13C080024A8F156
:10287000300907F10C0B07F1180A00BF38F81410E3
:1028800059F8240000F076F938550BF80400311996
:102890000AF804508873641CE4B20C2CEED3154C77
:1028A0000222103C211D25701548FEF769F908B178
:1028B00001200EE01248806B0068016821F01801C9
:1028C00001600C49042212310E48FEF759F918B183
:1028D00002202070BDE8F09F0A48806B0068016804
:1028E00021F018010160BDE8F05F3C2000F04AB91A
:1028F000B44C000840000020D4030020EE03002068
:10290000EC0000203401002010B5074A0021435C90
:10291000545CA34201D0002010BD491CC9B2062955
:10292000F5D3012010BD00007C4C00082DE9FF41CB
:10293000354C00200126A0702670344D3246B1037C
:102940002846FEF78AFD0122D1032846FEF785FDC1
:102950004FF4165000F0CAF808B1042016E00A201F
:10296000FEF7B8FB40F6B837384600F0CFF860B154
:102970000025A069401CA061684600F08DF838B1C0
:102980006846FFF7C1FF38BB04E00320207036E043
:1029900005202CE01E49002002AA0B5C1354401CA9
:1029A000C0B20628F9D300F059F84FF49673062206
:1029B00002A91848FFF7BBFCB0B91420FEF78AFB48
:1029C000384600F0A3F878B1684600F065F868B1C1
:1029D0006846FFF799FF48B100F01EF890B1A67065
:1029E00002202070BDE8FF81062000E00720207053
:1029F0003220FEF76FFB6D1CEDB2032DB9D300F052
:102A00000BF8EFE70820ECE70C000020000C024078
:102A10007C4C00088402002010B50F4C00224FF4BB
:102A200080412046FEF719FD00224FF40041204668
:102A3000FEF713FD0A20FEF74DFB40F6B83000F01C
:102A400065F8002805D04FF4E13000F04FF808B1E8
:102A5000002010BD012010BD000C0240064808B542
:102A6000006801684168009100E041680168C9435D
:102A70008906FAD508BD000084020020054800211F
:102A8000417041608160C16001614161816101709B
:102A9000FFF74CBF0C00002038B5044610A00068BA
:102AA0000090FFF7DBFF4FF496752B460322694633
:102AB0000C48FFF73CFC30B92B460622214609485A
:102AC000FFF7DCFB08B1002038BD07480022A15CFD
:102AD0008154521CD2B2062AF9D3012038BD00001D
:102AE000C1C1C100840200202800002010B50446A6
:102AF0000548FFF771F908B1012010BD0248446094
:102B0000BDE81040FFF7C4BA840200202DE9F0416F
:102B10000746FEF7A7FC0D4D04464FF4807631467C
:102B20002846FEF795FC012808D10220FEF7D2FACC
:102B300031462846FEF78CFC012805D0FEF792FCB2
:102B4000001BB842EBD30020BDE8F0810008024032
:102B500010B58842029C01D8184610BD904201D39E
:102B6000204610BD401AE41A6043511AB0FBF1F040
:102B7000184410BD10B5FEF76BFC08B1002010BD65
:102B8000012010BD10B50446012204210548FEF7BE
:102B900064FCFEF767FC01190348C16001218170E4
:102BA00010BD00000004024030000020F0B54C4C85
:102BB000002691B0A0683546401CA060A07800288F
:102BC00068D04FF480714748FEF742FC002866D079
:102BD00001A8FFF7EBFD002001A90A18127A02F004
:102BE00001028240D2B2401C1643C0B20628F4D380
:102BF00000200A18927B02F00102824092B2401C2F
:102C00001543C0B20C28F4D3A5208DF820005A201B
:102C10008DF8210001208DF8220060788DF82300C6
:102C2000BDF804008DF82400000A8DF82500BDF8D9
:102C300006008DF82600000A8DF827009DF8080090
:102C40008DF828009DF809008DF829009DF80A00EC
:102C50008DF82A009DF80B008DF82B008DF82C6064
:102C600021498DF82D50C5F303208DF82E000978E9
:102C700019B140F080008DF82E0000200F2308AD20
:102C800002460726A95C4840002107060BD586EAC4
:102C9000400009E06069401C606111B0F0BDE0686F
:102CA000401CE060F9E74000491CC9B2C0B20829E5
:102CB000EBD3521C9A42E5D38DF82F000A23102241
:102CC00029460A48FFF733FB18B12069401C2061F0
:102CD000E3E76078401C60706068401C6060DCE77F
:102CE0000C00002000080240300000208402002078
:102CF0002DE9F05F524C0026A07858B1FEF7B2FBE8
:102D0000E168401A06D4002204214E48FEF7A5FBD4
:102D10000020A07020784C4DF0BB494F60783F1DDB
:102D20003A1D48B15FF0000137F8113032F8110058
:102D300083420CD31C1A0BE037F8101022F8101045
:102D4000401CC0B20228F7D3012060700AE0C41A08
:102D5000A4B20A2C00D9184622F81100491CC9B2A5
:102D60000229E1D31088288050886880344C2234AE
:102D700021880020FFF7DEFCA87161880120FFF7A1
:102D8000D9FCE871A1880220FFF7D4FC2871E18802
:102D90000320FFF7CFFC00E000E06871DFF8A0A09F
:102DA000DFF8A8800AF11C0A0024A8F11809AAF18A
:102DB000060BAAF10C0700BF38F8141059F82400CC
:102DC000FFF7D8FE0AEB04030BEB0402391900F0FD
:102DD00041F800B101262919385D0872641CE4B27B
:102DE000062CE9D3DFF864B0DFF864900BF13C0BFC
:102DF0000024ABF13008A9F10C0AA9F1180700BFB3
:102E00003BF8141058F82400FFF7B4FE09EB040354
:102E10000AEB0402391900F01DF800B10126291946
:102E2000385D8873641CE4B20C2CE9D3002E04D006
:102E3000BDE8F05F1E20FFF7A5BEBDE8F09F0000D3
:102E40003000002000040240D4030020B44C0008ED
:102E50000604002030B50D780024854202D11070A0
:102E60001C7012E01578854203D010700120187094
:102E70000BE01A78042A04D2521CD2B21A70042A27
:102E800003D308701C70012030BD002030BD3220FB
:102E900000F066FAFBE7000000F086FA4FEA000453
:102EA000FFF784FE3234204600F067FAF8E7FFF7B8
:102EB0001FFF052000F054FAF9E710B54FF0E020AD
:102EC000006901F0E1FC012803D0BDE8104001F0E9
:102ED0000FBA10BD30B593B030216846FDF7E8FA5F
:102EE00014210CA8FDF7E4FA1E480025016841F002
:102EF00080510160006800F0805011901A4801680C
:102F000041F4804101600068022400F48040119087
:102F100001200090000401908001CDE906401920B5
:102F200008904FF4A870CDE9090404200B9068467E
:102F3000FEF784FC08B172B6FEE70CA90F2081E809
:102F400031004FF4A0500F904FF4805010900521A5
:102F50000CA8FEF767FB002801D072B6FEE713B09D
:102F600030BD000040380240007000400248016857
:102F700041F470010160704788ED00E00148FEF700
:102F800084BE00008C030020F0B50268274B284D5A
:102F9000284E294F294C4FF0804C984209D060456B
:102FA00007D0A84205D0B04203D0B84201D0A04219
:102FB00004D122F0700E4A6842EA0E0298421BD0F9
:102FC000604519D0A84217D0B04215D0B84213D0EE
:102FD000A04211D01A4DA8420ED01A4DA8420BD0D3
:102FE000194DA84208D0194DA84205D0184DA84245
:102FF00002D0184DA84203D122F44075CA682A4372
:103000004D6922F080022A438D68C5620D68856291
:10301000984201D0A04201D109690163016841F0E1
:1030200004010160012141610260F0BD0000014026
:103030000004004000080040000C00400004014073
:103040000040014000440140004801400018004099
:10305000001C00400020004010B5806B0021C1859D
:10306000FEF7D5FE10BD01680C3151E8002F22F4A7
:10307000907241E80023002BF5D10168143151E82A
:10308000002F22F0010241E80023002BF5D1016B53
:10309000012909D101680C3151E8002F22F01002FA
:1030A00041E80023002BF5D1202180F842100021B7
:1030B0000163704708B590F84210222901D0022020
:1030C00008BD82684FF480539A4201D1016921B151
:1030D000816A9A421BD04AB10AE00268816A52684A
:1030E000C2F308020A80816A891C08E0026972B191
:1030F0000268526802F07F020A70816A491C81628C
:10310000C18D491E0904090CC18503D01BE002686A
:103110005268F1E70168CA6822F02002CA600168BB
:10312000CA6822F48072CA6001684A6922F001020A
:103130004A61202180F8421000214163026B012A7C
:1031400003D0FFF7F3F8002008BD016301680C31DC
:1031500051E8002F22F0100241E80023002BF5D1A6
:1031600001680A68D20602D50A6849680091818D13
:10317000FEF731FEE7E7000070B50446006801691C
:10318000E26821F44051114301612169A068E269BC
:1031900008436169114308432168CA6849F20C6316
:1031A0009A430243CA6020684169A26921F44071D0
:1031B0001143416131492068884202D03049884238
:1031C00002D1FEF7F9FA01E0FEF7E6FAE269002320
:1031D000192164253226B2F5004F626828D0A0FB81
:1031E0000101930F9200FDF79FF80146B0FBF5F047
:1031F0006FF01802504301EB800006EB0010B0FBAB
:10320000F5F000F0F002B1FBF5F002EB0012B1FBBB
:10321000F5F06FF01803584301EB800006EB001047
:10322000B0FBF5F000F00F0021681044886070BD1D
:10323000A0FB010192185B41FDF776F80146B0FB57
:10324000F5F00201B1FBF5F06FF01803584301EB04
:10325000800006EBC000B0FBF5F000F0F80002EBD8
:103260004002B1FBF5F0584301EB800006EBC000D3
:10327000B0FBF5F000F00700D6E7000000100140B9
:10328000001401402DE9F843984617460D460446C0
:10329000089E24E0701C22D0FEF7E4F8A0EB0800A2
:1032A000B0421AD8CEB12068C168490717D5802D21
:1032B00015D0402D13D00168C94309070FD4016808
:1032C0000025406800902046FFF7CDFE082060648E
:1032D00084F840500120BDE8F8830320FBE7206814
:1032E000006835EA000004D00020B842D2D00020A7
:1032F000F1E70120F9E700000148FEF789BD000071
:103300003C020020FEE70907090E002804DB00F15B
:10331000E02080F80014704700F00F0000F1E0207A
:1033200080F8141D7047FEF7ABF8FFF7D3FDFFF7E9
:1033300033F9FFF7E1F8FFF74DF8FFF789F8FFF7EA
:10334000B7F9FFF7D1F94FF47A70FDF7C3FEFFF735
:10335000E8F900F031F8FFF7FDF800F03FF8FEE77C
:1033600010B5EFF3058111B16FF0050403E00024FF
:1033700008B100F017FE204610BD38B50546EFF342
:10338000058010B16FF005040CE0002401F08AFA0A
:10339000291A0090002903DD684600F029FE01E0AB
:1033A0006FF00304204638BDEFF3058008B101F04B
:1033B0007FBA01F077BA0000EFF3058010B16FF02B
:1033C000050070470448016811B14FF0FF307047A5
:1033D0000121016000207047BC00002010B5EFF310
:1033E000058010B16FF0050010BD08480168012983
:1033F00002D04FF0FF3010BD054A002182F8141DA5
:103400000221016000F07CFE002010BDBC00002005
:103410000BE000E02DE9FF414FEA01034FF000050A
:10342000EFF30581039549BB40B3802718210024A1
:103430004AB3166806B1344696691EB13146761E07
:10344000382E02D21679F60703D0002004B0BDE86A
:10345000F081566906B1B708D2F808C0BCF1000F78
:103460000DD0D5685C2D18D312693AB136B18DE80C
:1034700006103A46214601F0DCF903900DE0D668CB
:103480005EB912694AB903AACDE90012BAB221465F
:1034900001F0A2F9012800D003950398D6E70000B7
:1034A0002DE9F041134C0F460546E6682068001DE3
:1034B00000F044FC681C07D137B12168BDE8F04139
:1034C0000D48091D00F08ABC20683544B5424560AE
:1034D000216805D2A06BBDE8F041091D00F066BC73
:1034E000606B091D00F062FCA06A854200D2A562F3
:1034F000BDE8F0816C000020040900202DE9F041B6
:10350000054600F077FC2D4CA068401CA0602068A8
:103510002B4F10B1606930B32BE02560A068012803
:1035200027D1002606EB860007EB800000F030FC78
:10353000761C382EF6D3234800F02AFC214814309C
:1035400000F026FC1F48283000F022FC1D483C30CB
:1035500000F01EFC1B48503000F01AFC1948606354
:103560001430A06305E02068E96AC06A884200D888
:103570002560606A401C60626864E86A216988426C
:1035800000D9206100EB800007EB8000291D00F0CE
:1035900025FC00F04FFC606900280CD02068E96A27
:1035A000C06A884207D208494FF080500860BFF3D4
:1035B0004F8FBFF36F8FBDE8F08100006C000020DB
:1035C00054040020B408002004ED00E038B500F0F9
:1035D00011FC104C2068C8B90F4800F0D9FB0E4808
:1035E000143000F0D5FB0C48E060143020610A4B29
:1035F0000020F03B009003F1500210210A2000F05F
:103600008DFE206010B105A100F096FCBDE83840A9
:1036100000F010BCA8000020080A0020546D725170
:103620000000000030B4026C0B46002A0BD0C168C9
:103630001144C1608468A14201D30168C16030BCFB
:103640001846FCF7E8BE30BC70472DE9F041856BA9
:10365000174604460026026C82B1C7B1E068FCF749
:10366000DAFEE168206C091AE1602268914202D218
:10367000A168081AE060022F16D017E02068A8B9E8
:10368000A06801F081F906460020A0600EE06068A5
:10369000FCF7C1FE216C606808446060A168884244
:1036A00004D32068606001E005B16D1E6D1CA56348
:1036B0003046BDE8F08110B5044690F8590058B185
:1036C00001280CD002280FD0502080F31188BFF3BE
:1036D0004F8FBFF36F8FFEE7206B00F0BFFB2046DC
:1036E000BDE8104000F0BABB10BD000010484FF418
:1036F0007051420706D0C01D0D4920F00700411A45
:10370000C1F570510B4A00230144C2E90003083996
:10371000183A21F0070111604B600B600B1AC0E9E9
:10372000001393604FF000405360506170470000F9
:10373000E8100020D8000020144E154CA6F29C473B
:103740004FF08058DFF84C9012E000BF00F052FBC1
:10375000F068C568281D00F0F1FAA068401EA0605E
:103760006068401E606000F065FB2846FFF7A3FF1D
:1037700060680028EAD138680128F9D9C9F80080C2
:10378000BFF34F8FBFF36F8FF2E70000F008002008
:103790006C00002004ED00E070B51D46049C51B1A2
:1037A000C4F80020C4E90F010121204600F0EAFD21
:1037B00084F84C5070BD2460F4E700002DE9F05F00
:1037C0008846DDE90B941546834691009A460A9E89
:1037D000A522206BFCF764FE6FF00301206B01EB68
:1037E0008501084420F00707780707D0502080F3B0
:1037F0001188BFF34F8FBFF36F8FFEE70025B8F13D
:10380000000F0FD05FF00000221818F8001082F8A7
:10381000341018F8001011B1401C1028F4D384F8AB
:10382000435001E084F83450382E00D33726E66246
:10383000C4E91365201D00F0B6FA04F1180000F089
:10384000B2FA2461C6F138006462A061656584F84B
:10385000585052465946384600F05AFA2060B9F19D
:10386000000F01D0C9F80040BDE8F09F30B5114904
:1038700000E011460A688242FBD34B685C18844220
:1038800003D1406818444860084643681C189442B5
:1038900009D1084C183C2468A24209D052681A4445
:1038A00042600A6812680260814200D0086030BD40
:1038B0000460F9E7D800002070B5002441600B4D8A
:1038C0000061914206D8D11A8269914206D2011D47
:1038D000286907E09A4203D2994201D3012403E008
:1038E000011DE86800F062FA204670BDA8000020C3
:1038F00010B5044600F07EFAA06B28B15FF000041A
:1039000000F098FA204610BD0124F9E730B589B0DF
:103910003C4D6EE00498002806DADDE90601059AC0
:1039200090470498002864DB069C606910B1201D54
:1039300000F004FA03A800F0D7F8024604980A2819
:1039400057D2DFE800F00505052D334A05052D3374
:1039500094F8280040F0010084F828000599A06937
:10396000059B01442046FFF7A7FF68B3216A204664
:10397000884794F8280040073BD500200090059820
:10398000A169002342181946204601F007F9D8B969
:10399000502080F31188BFF34F8FBFF36F8FFEE786
:1039A00014F8280F20F00100207022E094F828007D
:1039B00040F0010084F828000598A06128B1811822
:1039C00013462046FFF778FF13E0502080F311885C
:1039D000BFF34F8FBFF36F8FFEE794F82800810786
:1039E00003D4204600F03AFA03E020F0010084F806
:1039F0002800002204A9286800F018FE002889D1B8
:103A000009B030BDA80000202DE9FC410F46054655
:103A100000F0BAFB01A800F067F80446019818B15D
:103A200001F02AF8BDE8FC81254EAFB1306900688D
:103A3000D0B30027291B3A46306800F091FA01F014
:103A40001BF80028EED11F494FF080500860BFF3EB
:103A50004F8FBFF36F8FE5E7A542EBD801F00CF86D
:103A6000F0682746C068C468201D00F067F994F824
:103A70002800410719D5A0692B4641193A4620462E
:103A8000FFF71AFFA8B100200346014600902A461E
:103A9000204601F083F860B9502080F31188BFF30D
:103AA0004F8FBFF36F8FFEE707E020F0010084F82F
:103AB0002800216A20468847B4E70127BAE70000BA
:103AC000A800002004ED00E00648416B096829B118
:103AD000416BC968C9684968816270474FF0FF311E
:103AE000FAE700006C00002070B5054600F0DAFE31
:103AF000064E0446B068844203D200F009F8012063
:103B000000E0002028602046B46070BDA8000020BE
:103B1000F8B5194D20E0C068C4680668201D00F0A3
:103B20000DF9216A2046884794F82800400713D5EC
:103B3000A0693044B04206D924616060211DE86864
:103B400000F034F908E000200346014600903246B8
:103B5000204601F023F838B1E86801680029DAD17D
:103B60002969C5E90310F8BD502080F31188BFF31F
:103B70004F8FBFF36F8FFEE7A80000200848406812
:103B8000401C4FF0500080F3118804D0BFF34F8FDA
:103B9000BFF36F8FFEE7BFF34F8FBFF36F8FFEE76B
:103BA000E0000020074CE068016841B1C0680021D6
:103BB000D0F80000FFF728FFFFF7A8FEF3E7012188
:103BC0000020F7E7A80000202DE9F041044600F0AE
:103BD00011F994F9455004F1240609E0606A48B1EE
:103BE000304600F011FF08B100F050FA6D1E6DB2C2
:103BF000002DF3DC4FF0FF3684F8456000F01AF931
:103C000000F0F8F894F9445004F1100709E0206935
:103C100048B1384600F0F8FE08B100F037FA6D1EE2
:103C20006DB2002DF3DC84F84460BDE8F04100F093
:103C300001B900002DE9F0410546002700F0A4FA83
:103C4000324E306808B9FFF751FD706905424ED118
:103C5000C5B3083568070ED005F00700C0F10800AD
:103C60000544680707D0502080F31188BFF34F8FB9
:103C7000BFF36F8FFEE72DB37068854237D82348B6
:103C8000183001460C6801E020460C466168A942E4
:103C900002D221680029F7D131688C4227D0076809
:103CA0002168016060680837411B10290FD960192D
:103CB000420708D0502080F31188BFF34F8FBFF325
:103CC0006F8FFEE713E041606560FFF7CFFD61682D
:103CD0007068401A7060B268904200D2B06070693B
:103CE00001430020C4E90001F068401CF06000F0CE
:103CF000C3FE780707D0502080F31188BFF34F8FA1
:103D0000BFF36F8FFEE73846BDE8F081C0000020AA
:103D100010B5031F4FF080741C601B1F21F00101C0
:103D20001960191F044B0B6014390A60091F6FF0EA
:103D3000020244380A6010BD7D3B0008D0E9013220
:103D400001699A60D0E901235A604A68824201D130
:103D500082684A60002202610868401E08600868A4
:103D600070470000034B036003F15C000860802093
:103D700010607047300A0020044B036003F15C00C0
:103D800008604FF480701060704700008C0C0020B9
:103D900000F108014FF0FF32C0E90112C16001617A
:103DA00000210160704700210161704730B50B6848
:103DB0005A1C02D000F1080202E0026904E0224627
:103DC000546825689D42FAD953684B6099608A60AF
:103DD000516008610168491C016030BD42684A6059
:103DE00093688B6093685960916008610168491C11
:103DF00001607047502080F31188BFF34F8FBFF3ED
:103E00006F8F0A494868401C486001280CD1084857
:103E1000006810F0FF0F07D0502080F31188BFF327
:103E20004F8FBFF36F8FFEE770470000E000002068
:103E300004ED00E00849486828B1401E486001D1FF
:103E400080F311887047502080F31188BFF34F8FA3
:103E5000BFF36F8FFEE70000E000002070B5002880
:103E60002AD0164DA0F1080460686969084207D19C
:103E7000502080F31188BFF34F8FBFF36F8FFEE7A1
:103E800022683AB1502080F31188BFF34F8FBFF3FF
:103E90006F8FFEE78843606000F076F960686968BC
:103EA000084468602046FFF7E1FC2869401C28614F
:103EB000BDE8704000F0E0BD70BD0000C000002013
:103EC0004FF0E02000210161816105494FF47A72D1
:103ED0000968B1FBF2F1491E416107210161704798
:103EE0006800002010B5FCF7FBF9114910280ED32B
:103EF00000F1E02090F8F0030A78904207D25020B9
:103F000080F31188BFF34F8FBFF36F8FFEE709482F
:103F10000068896800F4E060884207D9502080F387
:103F20001188BFF34F8FBFF36F8FFEE710BD000006
:103F3000E00000200CED00E010B5084B002200BFAF
:103F400053F832401CB1521C082AF9D310BD43F873
:103F5000321003EBC201486010BD000014040020C1
:103F600070B515460E460446FFF744FF94F9441019
:103F70000020491C01D184F8440094F94510491CE3
:103F800001D184F84500FFF755FFA06B28B92A46F8
:103F9000314604F1240000F097F82046BDE8704057
:103FA000FFF712BE10B5020014D00F48006B38B1F5
:103FB000502080F31188BFF34F8FBFF36F8FFEE760
:103FC00000F0E2F800211046FFF76AFA00F054FD15
:103FD000002807D105494FF080500860BFF34F8F8C
:103FE000BFF36F8F10BD00006C00002004ED00E0F7
:103FF00070B50D4604000BD095B11E4A106BB8B1D8
:10400000502080F31188BFF34F8FBFF36F8FFEE70F
:10401000502080F31188BFF34F8FBFF36F8FFEE7FF
:10402000502080F31188BFF34F8FBFF36F8FFEE7EF
:1040300000F0AAF8D26823685919934204D98B4238
:104040000AD9914202D807E08B42FAD9881A216036
:104050000021FFF725FA00E0216000F00DFD0028A7
:1040600007D105494FF080500860BFF34F8FBFF371
:104070006F8F70BD6C00002004ED00E002490A6AF9
:104080000260C968416070476C000020014901204E
:10409000C86170476C00002010B50C4650B109494A
:1040A00009681831FFF782FE2046BDE81040012163
:1040B000FFF7F6B9502080F31188BFF34F8FBFF39D
:1040C0006F8FFEE76C00002070B514460D4668B196
:1040D0000A4909681831FFF781FE0CB14FF0FF352E
:1040E00021462846BDE87040FFF7DAB9502080F33A
:1040F0001188BFF34F8FBFF36F8FFEE76C00002076
:1041000030B587B00024039405AA04A903A8049439
:10411000FFF728FEDDE903010094CDE9011000233B
:1041200015A11748059A00F084FB164D0028E86297
:104130001FD000F003FD012809D0401C19D15020E8
:1041400080F31188BFF34F8FBFF36F8FFEE75020CE
:1041500080F31188BFF34F8FBFF36F8F4FF0FF30A5
:10416000A86201206861EC6007B0BDE8304000F053
:1041700045B807B030BD000049444C450000000080
:10418000393700086C0000200248016B491C0163AC
:10419000704700006C000020164810B5016B11B18B
:1041A0000121C16110BD0021C1610169124A01E014
:1041B000B9B1491E01EB810352F82330002BF7D02F
:1041C00001EB810302EB830202F1080453685B6890
:1041D0005360A34201D15B685360DA6802600161F9
:1041E00010BD502080F31188BFF34F8FBFF36F8F46
:1041F000FEE700006C000020540400201CB5374886
:104200000168374A914207D1502080F31188BFF3EB
:104210004F8FBFF36F8FFEE700683149491E884218
:1042200007D1502080F31188BFF34F8FBFF36F8FFA
:10423000FEE72C4908780190FF20087008788DF877
:1042400000009DF800009DF8002000F0F000904272
:1042500007D0502080F31188BFF34F8FBFF36F8FCB
:10426000FEE79DF80000204C00F050002070072071
:10427000A06005E09DF8002052008DF80020401E4F
:104280009DF800201206F5D4A060032807D0502026
:1042900080F31188BFF34F8FBFF36F8FFEE74FF4AA
:1042A0004070A060019808700C482030016841F40B
:1042B00070010160016841F070410160FFF700FE8C
:1042C00000206060FBF7D4FF0848016841F04041DE
:1042D0000160FBF7B9FF00201CBD000000ED00E00D
:1042E00071C20F4100E400E0E000002034EF00E084
:1042F00010B5502080F31188BFF34F8FBFF36F8F3D
:1043000000F0DEFA18B104494FF080500860002038
:1043100080F3118810BD000004ED00E038B5049D65
:1043200018B153B1CAB181B120E0502080F3118897
:10433000BFF34F8FBFF36F8FFEE7502080F31188DC
:10434000BFF34F8FBFF36F8FFEE7502080F31188CC
:10435000BFF34F8FBFF36F8FFEE739B1502080F36B
:104360001188BFF34F8FBFF36F8FFEE750241C46B9
:10437000012384F846302B460094FFF70DFA2046BF
:1043800038BD000070B50D46040025D0FFF732FDA2
:10439000D4E90F20216802FB0011A1600021A16374
:1043A000216861600A46D4E90F01401E00FB01212B
:1043B000E16021464FF0FF3001F8440F487004F1EE
:1043C00010008DB1FFF7E4FC04F12400FFF7E0FCDE
:1043D000FFF730FD012070BD502080F31188BFF33E
:1043E0004F8FBFF36F8FFEE721690029F0D000F0F7
:1043F0000BFB0028ECD004494FF080500860BFF35D
:104400004F8FBFF36F8FE3E704ED00E02DE9FF4727
:1044100082B01D468A464FF00008040003D0BAF16E
:10442000000F08D011E0502080F31188BFF34F8FA8
:10443000BFF36F8FFEE7206C38B1502080F31188F6
:10444000BFF34F8FBFF36F8FFEE7022D0AD1E06BF2
:10445000012807D0502080F31188BFF34F8FBFF39E
:104460006F8FFEE700F010FA3F4F4FF000094FF05A
:10447000805648B9049838B1502080F31188BFF3B2
:104480004F8FBFF36F8FFEE7FFF7B4FCA06BE16BBC
:10449000884207D3022D05D00498D0B1B8F1000F9F
:1044A0001AD01EE02A4651462046FFF7CEF8616A30
:1044B00019B104F1240000F0A7FA20B13E60BFF367
:1044C0004F8FBFF36F8FFFF7B5FC012006B0BDE83B
:1044D000F087FFF7AFFC22E06846FFF7CFFD4FF013
:1044E0000108FFF7A7FCFFF74FFEFFF783FC94F9E5
:1044F0004400401C01D184F8449094F94500401CCC
:1045000001D184F84590FFF795FC04A9684600F0B6
:1045100029F930B12046FFF757FB00F0ADFA002033
:10452000D4E7FFF767FCA06BE16B884213D1FFF77C
:1045300081FC04F110000499FFF7AEFD2046FFF75F
:1045400043FB00F099FA00289ED13E60BFF34F8FE5
:10455000BFF36F8F98E7FFF76DFC2046FFF734FB42
:1045600000F08AFA90E7000004ED00E02DE9F04742
:104570001F4690468946040003D0B9F1000F08D0C9
:1045800011E0502080F31188BFF34F8FBFF36F8F7E
:10459000FEE7206C38B1502080F31188BFF34F8FB5
:1045A000BFF36F8FFEE7022F0AD1E06B012807D01F
:1045B000502080F31188BFF34F8FBFF36F8FFEE75A
:1045C000FFF790FC5020EFF3118680F31188BFF3C2
:1045D0004F8FBFF36F8FA06BE16B884206D3022F22
:1045E00004D0002086F31188BDE8F08794F9455087
:1045F000A06B3A4649462046FFF727F8681C04D0CE
:104600006D1C84F845500120ECE7606A0028FAD060
:1046100004F1240000F0F8F90028F4D0B8F1000FFC
:10462000F1D00121C8F80010EDE700002DE9F747AF
:10463000002683B08A46040003D0BAF1000F08D0E8
:1046400011E0502080F31188BFF34F8FBFF36F8FBD
:10465000FEE7206C38B1502080F31188BFF34F8FF4
:10466000BFF36F8FFEE700F00FF9DFF8F4804FF033
:1046700000094FF0805748B9059838B1502080F3B1
:104680001188BFF34F8FBFF36F8FFEE7FFF7B2FBC9
:10469000A56BC5B151462046FEF7C4FF6D1EA5634C
:1046A000206950B104F1100000F0AEF928B1C8F84B
:1046B0000070BFF34F8FBFF36F8FFFF7BBFB01207D
:1046C00006B0BDE8F087059808B11EB106E0FFF717
:1046D000B1FB27E06846FFF7D1FC0126FFF7AAFBF4
:1046E000FFF752FDFFF786FB94F94400401C01D10F
:1046F00084F8449094F94500401C01D184F8459019
:10470000FFF798FB05A9684600F02CF80028204622
:104710000AD0FFF759FA00F0AFF92046FFF7E8F8A2
:104720000028B3D00020CBE7FFF7E2F890B104F106
:1047300024000599FFF7B0FC2046FFF745FA00F08A
:104740009BF90028A2D1C8F80070BFF34F8FBFF3C8
:104750006F8F9BE72046FFF737FA00F08DF995E75A
:1047600004ED00E02DE9F0410C46050011D0C4B184
:10477000FFF740FB174BDA686E682068911B471CF7
:1047800017D02F681B6A9F4219D0964217D8012470
:1047900010E0502080F31188BFF34F8FBFF36F8F6D
:1047A000FEE7502080F31188BFF34F8FBFF36F8F68
:1047B000FEE70024FFF73EFB2046BDE8F08188427B
:1047C00005D9401A20602846FFF758FCF1E7002081
:1047D0002060DCE76C0000202DE9FF5F8346DDE907
:1047E0000E87994616468A469000FFF723FA050081
:1047F0001CD05C20FFF71EFA040014D000202563B3
:1048000084F85900CDE90240CDE900874B46324695
:1048100051465846FEF7D2FF2046FEF76FFE0120B4
:1048200004B0BDE8F09F2846FFF718FB4FF0FF30BB
:10483000F6E7F0B585B0DDE90B640A9DA6B1DCB101
:104840005C2700972663022684F85960002604AF8F
:10485000CDE90246CDE90057FEF7B0FF2046FEF74E
:104860004DFE049805B0F0BD502080F31188BFF3D1
:104870004F8FBFF36F8FFEE7502080F31188BFF397
:104880004F8FBFF36F8FFEE70548416919B1006B89
:1048900018B10020704701207047022070470000C7
:1048A0006C0000200148C068704700006C000020C8
:1048B00010B5FFF717FB0148C06810BD6C00002061
:1048C0002DE9F0412E4C0027206B28B1A069401C37
:1048D000A0613846BDE8F081E668761CE66013D139
:1048E000606B006838B1502080F31188BFF34F8FA0
:1048F000BFF36F8FFEE7606BA16B6163A063206AFB
:10490000401C2062FFF7E0F8A06ADFF8788086425A
:1049100009D3606B0068A0B1606BC068C568686847
:10492000864211D2A0622068C06A00EB800158F86C
:104930002100012800D90127E0690028C9D00127FA
:10494000C7E74FF0FF30EDE7281DFFF7F7F9A86A3A
:1049500018B105F11800FFF7F1F9E86A21698842FA
:1049600000D9206100EB800108EB8100291DFFF7D1
:1049700035FAE86A2168C96A8842CAD30127C8E7BC
:104980006C0000205404002070B504004FF00001BA
:1049900033D01B4D2868844207D0502080F3118803
:1049A000BFF34F8FBFF36F8FFEE7206D38B1401E0E
:1049B0002065E36CE26A9A421FD040B11DE05020AE
:1049C00080F31188BFF34F8FBFF36F8FFEE7201D79
:1049D000FFF7B4F9E06CE062C0F13800A061E06A72
:1049E0002969884200D92861064900EB800001EB63
:1049F0008000211DFFF7F2F90121084670BD00007B
:104A00006C0000205404002070B5C068C46854B124
:104A100004F118000646FFF791F9144D286B50B1C8
:104A20003146134815E0502080F31188BFF34F8FB3
:104A3000BFF36F8FFEE7201DFFF780F9E06A296959
:104A4000884200D928610B4900EB800001EB80000F
:104A5000211DFFF7C3F9E06A2968C96A884202D9B3
:104A60000120E86170BD002070BD00006C000020D6
:104A7000DC080020540400202DE9F0472C4D0024D0
:104A80002746286B38B1FFF7B5F9286B401E28631D
:104A9000286B40B146E0502080F31188BFF34F8F60
:104AA000BFF36F8FFEE7A968224E0120D1B3A6F5B0
:104AB000916980463068E0B1F068C46804F118007C
:104AC000FFF73CF9201DFFF739F9E06A29698842B0
:104AD00000D9286100EB800109EB8100211DFFF75F
:104AE0007DF9E06A2968C96A8842E3D3C5F81C8069
:104AF000E0E70CB1FEF7E8FFAC694CB14FEA0806FD
:104B0000FFF7DEFE00B1EE61641EF9D10020A8615E
:104B1000E86938B10849012738070860BFF34F8FAB
:104B2000BFF36F8FFFF786F93846BDE8F0870000C6
:104B30006C000020DC08002004ED00E010B586B019
:104B4000FEF744FD114C2068B8B10020039004909A
:104B500005AA04A903A8FFF70FF9DDE90321022044
:104B60008DE8070000230AA10B48059AFFF761FEB4
:104B7000606010B106B0012010BD502080F3118894
:104B8000BFF34F8FBFF36F8FFEE70000A800002038
:104B9000546D722053766300A53B00082DE9FF4158
:104BA0001E46134602000A9D4FF0000016D0144C1A
:104BB0002768002F0FD0CDE900130292062917DADB
:104BC000FFF762FE02284FF000030FD00022694673
:104BD0002068FFF71BFC04B0BDE8F081502080F393
:104BE0001188BFF34F8FBFF36F8FFEE72A46EEE7C2
:104BF0000023324669463846FFF7B8FCEBE7000071
:104C0000A80000204FF04070E1EE100A704700004D
:104C1000284D000800000000000000000000000017
:104C20000000000000040000180000000000000068
:104C300000000000344D00080000000000000000EB
:104C40000000000000000000000400002000000040
:104C50000000000000000000404D000800000000BF
:104C60000000000000000000000000000004000040
:104C7000100000000000000000000000C000063C22
:104C8000064400000A003708F00F0A00A807F00FDA
:104C90000A005E08F00F0A00AC07F00F0010024097
:104CA000001002400010024000100240000C0240C0
:104CB000000C02401000080002000100400020002B
:104CC00000000240000802400008024000000240CC
:104CD0000000024000000240000C0240000C0240B4
:104CE000000C0240000C0240000C0240000C02408C
:104CF000010002000100020004001000002000106A
:104D0000000800010002000400061016000610163C
:104D1000000000000000000001020304060708096B
:104D200000000000010203046C6F72615461736B38
:104D30000000000072656D6F74655461736B000054
:104D400064656275675461736B0000006C4D000808
:104D500000000020EC000000C4010008584E0008CC
:104D6000EC0000205C520000E001000800000000A0
:104D70000000000000000000000000000000000033
:104D80000000000000000000000000000000000023
:104D90000000000000000000000000000000000013
:104DA0000000000000000000000000000000000003
:104DB00000000000000000000000000000000000F3
:104DC00000000000000000000100000010000000D2
:104DD000000000000024F4000000000000000000BB
:104DE00000000000000000000000000000000000C3
:104DF00000000000000000000000000000000000B3
:104E000000000000000000000000000000000000A2
:104E10000000000000000000000000000000000092
:104E20000000000000000000000000000000000082
:104E30000000000000000000000000000000000072
:104E40000000000000000000000000000000000062
:084E5000AAAAAAAA00000000B2
:040000050800018965
:00000001FF
