:020000040800F2
:100000001853002055020008AD26000835220008CC
:10001000E1250008D9050008153900080000000096
:10002000000000000000000000000000B1330008E4
:100030000D06000800000000B1260008F13300089A
:100040006F0200086F0200086F0200086F020008CC
:100050006F0200086F0200086F0200086F020008BC
:100060006F0200086F0200086F0200086F020008AC
:100070006F0200086F0200086F0200086F0200089C
:100080006F0200086F0200086F0200086F0200088C
:100090006F0200086F0200086F0200086F0200087C
:1000A0006F0200086F0200086F0200086F0200086C
:1000B0006F0200086F0200086F0200086F0200085C
:1000C0006F0200086F0200086F0200086F0200084C
:1000D0006F020008FD3800086F0200086F02000878
:1000E0006F0200086F0200086F0200086F0200082C
:1000F0006F0200086F0200086F0200086F0200081C
:100100006F0200086F0200086F0200086F0200080B
:100110006F0200086F0200086F0200086F020008FB
:100120006F0200086F020008DD050008E9050008FD
:10013000F50500086F0200086F0200086F02000852
:100140006F0200086F0200086F0200086F020008CB
:100150006F0200086F020008010600080939000854
:100160006F0200086F0200086F0200086F020008AB
:100170006F0200086F0200086F0200080000000014
:100180006F0200086F02000800F002F800F052F859
:1001900014A696E8000CB244B344DA4501D100F04D
:1001A00049F8BAE80F000FA696E83000A5EB040561
:1001B00004EB0607AAEB0704A7F101074FEA1515A0
:1001C0004FEA3414A4F10104AC4201D300F032F838
:1001D00013F0010F18BFFB1A43F0010300F001F800
:1001E000DBE718472C5700004C570000103A24BF9B
:1001F00078C878C1FAD8520724BF30C830C144BF8C
:1002000004680C6070470000704700000023002461
:1002100000250026103A28BF78C1FBD8520728BF16
:1002200030C148BF0B6070471FB505F021FB1FBDF3
:1002300010B510BD00F04FF91146FFF7F5FF03F0C0
:100240006BFB00F06DF903B4FFF7F2FF03BC00F0A5
:1002500075F900000948804709480047FEE7FEE7B6
:10026000FEE7FEE7FEE7FEE7FEE7FEE7FEE7FEE766
:1002700004480549054A064B70470000C134000890
:1002800089010008184D002018530020184F002045
:10029000184F002053EA020C00F069802DE9F04B62
:1002A0004FF00006002B1FBFB3FA83F503FA05F4E5
:1002B00024FA05F65E4012BF1643B2FA82F502FA3E
:1002C00005F4C5F120051EBF22FA05FC44EA0C0422
:1002D000203556EA044C4FEA144418BF641C4FF012
:1002E00000084FF00009904271EB030C39D300294C
:1002F00019BFB1FA81F701FA07F6B0FA80F700FAF0
:1003000007F6C7F120071EBF20FA07FC46EA0C06D5
:100310002037B6FBF4FCA7EB0507103F07F01F0BD7
:10032000CBF120062CFA06F60CFA0BFB44BFB346C1
:100330000026202FA4BF5E464FF0000B5BEA060CA0
:1003400008BF4FF0010B19EB0B0948EB0608ABFB9C
:10035000027C06FB02CC0BFB03CCC01B71EB0C0137
:10036000C1E70B46024641464846BDE8F08B13B54F
:10037000084318BF4FF0FF300146AFF30080BDE8DF
:100380001C407047032A40F2308010F0030C00F04C
:10039000158011F8013BBCF1020F624498BF11F8BF
:1003A00001CB00F8013B38BF11F8013BA2F1040278
:1003B00098BF00F801CB38BF00F8013B11F00303F0
:1003C00000F05780083AC0F0088051F8043B083A22
:1003D00051F804CBA0E80810F5E7121D5CBF51F8F6
:1003E000043B40F8043BAFF30080D20724BF11F870
:1003F000013B11F801CB48BF11F8012B24BF00F8D5
:10040000013B00F801CB48BF00F8012B704702F018
:10041000FF0343EA032242EA024200F002B84FF02F
:10042000000200B5134694469646203922BFA0E844
:100430000C50A0E80C50B1F12001BFF4F7AF090750
:1004400028BFA0E80C5048BF0CC05DF804EB890041
:1004500028BF40F8042B08BF704748BF20F8022B84
:1004600011F0804F18BF00F8012B7047704770479C
:10047000704710B5203AC0F00B80B1E81850A0E8E2
:100480001850B1E81850A0E81850203ABFF4F5AF62
:100490005FEA027C24BFB1E81850A0E8185044BFBE
:1004A00018C918C0BDE810405FEA827C24BF51F82B
:1004B000043B40F8043B08BF7047D20728BF31F81F
:1004C000023B48BF11F8012B28BF20F8023B48BF70
:1004D00000F8012B7047754600F02CF8AE46050079
:1004E0006946534620F00700854618B020B5FFF74F
:1004F000BFFEBDE820404FF000064FF000074FF070
:1005000000084FF0000BAC46ACE8C009ACE8C009ED
:10051000ACE8C009ACE8C00921F007018D4670477E
:1005200010B50446AFF300802046BDE81040FFF749
:100530008ABE0000004870471000002001491820C2
:10054000ABBEFEE726000200704700000146806B4C
:10055000036C026C13F0500F08D0D20648BF00F0B5
:10056000FDB8806BC26C0846104700BF42F40071B2
:10057000016401688A6812F0405F01D000F0EAB8B7
:10058000027E002AFAD1CA6A12F4700F02D08A6879
:100590005205F3D44A6822F020024A60016C21F42B
:1005A00080710164016CC90448BF00F0D3B8016CCC
:1005B00041F00101016400F0CDB80000806B4021E2
:1005C0000164416C41F00401416400F0C7B80000CF
:1005D000806B00F0C1B80000FEE7000040F27C3004
:1005E000C2F2000000F04CBB40F21C30C2F200002E
:1005F00000F046BB40F2BC20C2F2000000F040BB5D
:1006000040F2DC30C2F2000000F03ABB704700005C
:1006100072B600BFFEE7000070B581B00022009204
:1006200090F83C20012A03D1022001B070BD00BF28
:10063000D1F800E001221FFA8EFC4FEA4C0380F84B
:100640003C200EEB4E0213FA8EF31024BEF1090F7C
:1006500088BFA3F11E0288BF0C24036807251E591A
:10066000954026EA05051D518D681E5905FA02F2CE
:1006700032431A514968062906D801EB81014A1F05
:10068000194651F8345F0EE00C2901EB810105D8C1
:10069000A1F12302194651F8305F04E0A1F14102B3
:1006A000194651F82C5F1F24944025EA04040C607D
:1006B0000CFA02F20C6842F2043CC4F2010C224330
:1006C000ACF54174A3420A603ED1BEF1120F07D1CE
:1006D000DCF8001041F48001CCF8001034E000BFD9
:1006E0002EF0010110292FD1DCF80010BEF1100FFF
:1006F00041F40001CCF8001026D140F20801C2F20A
:10070000000109684DF68362C4F21B32A1FB02129C
:10071000910C01EB8101490000910099A1B1009970
:1007200001390091009979B100990139009100993E
:1007300051B1009901390091009929B1009901390D
:10074000009100990029EAD1002180F83C10002096
:1007500001B070BD70470000704700007047000096
:10076000002804BF0120704710B5016C00293DD05E
:10077000016CC90645D4016C41F202129143023169
:1007800042F204320164C4F20102116821F44031E2
:100790001160136890E812102343D0F810E0136042
:1007A0004A68012422F480724A604A68C0F60074E4
:1007B00042EA0E224A604A6822F040724A604A6861
:1007C00042EA0C024A608A6822F400628A60C268C7
:1007D0008B681A438A60826A8B68A24223F0706336
:1007E0008B608B6810D123F0405216E0044600F075
:1007F00065F820460021616484F83C10016CC9064C
:10080000B9D5012153E000BF1A438A608A6822F0FB
:1008100040528A60C26A8B681A438A608A6822F0F2
:1008200002028A608A68037E90F8204042EA43020E
:100830008A604A6884B142F400624A604A684EF2B3
:10084000000322F460424A60426ACFF6FF734C68AC
:1008500003EB4232224301E022F400624A60CA6A9A
:1008600040F2000C22F47002CA62C3694269CFF6FA
:10087000F07CCC6A0CEB03532343CB628B6823F4EC
:1008800000738B6090F830308C6844EA43238B60AF
:100890008B6823F480638B608B6843EA82228A60D2
:1008A00000214164026C012363F30102026400220F
:1008B00080F83C20BDE81040084670472DE9F04123
:1008C00086B00446006842F20011C4F2010100261D
:1008D0008842CDE90466CDE90266019642D042F233
:1008E0000001C4F20101884240F09C8043F63000D0
:1008F0000096C4F20200416941F48071416141698E
:1009000001F48071009100990096016841F00101A5
:100910000160006801A900F0010000900098C0206B
:1009200001900320CDE902060020C4F2020000F08D
:10093000A1FB46F25840C4F2020040F2BC25183038
:10094000C2F200054FF48061C5E9000605F1100010
:100950004FF400624FF400534FF4807CC5E9026607
:100960000EC050E043F630000096C4F20200416928
:1009700040F2000841F4007141614169C4F202088B
:1009800001F40071009100990096016801AD41F0F9
:10099000040101600168032701F00401009100993E
:1009A0000096016841F0020101600068294600F0EC
:1009B0000200009000980C20019008F50060CDE93D
:1009C000027600F057FB08F580602946CDE90177F3
:1009D000039600F04FFB40F21C3546F25840C2F23D
:1009E0000005C4F202004FF480624FF400634FF43C
:1009F00000574FF4807C4FF0007185E84300C5E953
:100A00000362C5E905374FF40030C5E908062846FA
:100A1000C5F81CC000F016FA002818BFFFF7F8FD53
:100A2000A563AC6306B0BDE8F0810000B0B582B04C
:100A30000023019390F83C30012B03D1022002B037
:100A4000B0BD00BF8E460123016880F83C308B6842
:100A50009446DB0729D18B684DF6836443F001038C
:100A60008B6040F20803C2F200031B68C4F21B341F
:100A7000A3FB0434A30C03EB43030193019BA3B139
:100A8000019B013B0193019B7BB1019B013B0193C6
:100A9000019B53B1019B013B0193019B2BB1019B36
:100AA000013B0193019B002BEAD18B68DB0503D549
:100AB0008B6823F480738B608C68036CE4070BD124
:100AC00043F01001016400F14401002001220B6891
:100AD0001A430A6002B0B0BD40F20174A34303F5AB
:100AE000807303644B685B0504D5036C012464F3D5
:100AF0000D330364046C0023E4044FF0000444BF8E
:100B0000446C24F00604446480F83C30836B40F26B
:100B10004D5440F2D152C0F60004C0F60002C3E9C1
:100B20000F4240F2BD52C0F60002DA646FF02202BA
:100B30000A604A6842F2043442F080624A608A687D
:100B4000054642F480728A604C311846724663460C
:100B5000C4F2010400F028FA22682968D20605D000
:100B6000A4F54172914225D002B0B0BD42F200021C
:100B7000C4F20102914215D042F20022C4F20102F5
:100B800091420CD042F20012C4F201029142EBD128
:100B90002268D20606D0A4F582729142E4D122687E
:100BA000D206E1D451F8082F12F0405FDCD14FF0AB
:100BB00080428CE74FF60452CFF6FF72A25812F033
:100BC000405FD1D108314FF0804280E770B5866D2B
:100BD000044600F02BFB94F83510022928D1054675
:100BE0002068216C026822F016020260426922F03D
:100BF0008002426109B9A16C19B1016821F00801B4
:100C00000160016821F00101016000BF20680068F7
:100C1000C00715D000F00AFB401B0628F6D32020A1
:100C20006065032084F83500002184F8341070BD1D
:100C3000802060650120002184F8341070BD00BF61
:100C4000E06D3F2101FA00F0B060012084F835002A
:100C50000020002184F8341070BD000090F8351099
:100C6000022909D1052180F835100068016821F0BA
:100C7000010101600020704780214165012070471B
:100C8000F0B581B00021009140F20801C2F20001EC
:100C90000B68D0E9166148F2B51537680822C1F62D
:100CA0004E358A403A42A3FB05350CD003681C68D8
:100CB000640708D51C6824F004041C60B260426D0F
:100CC00042F00102426501228A403A4208D003689C
:100CD0005B691B0604D5B260426D42F002024265B8
:100CE00004228A403A4208D003681B689B0704D557
:100CF000B260426D42F00402426510228A403A42DC
:100D000019D001680B681B0715D5B2600B680A681B
:100D10005B0309D4D20509D40A6822F008020A60EC
:100D2000016C29B907E000BF110341D4016C11B176
:100D3000044688472046C26D202101FA02F33B4257
:100D400043D001680F68FF063FD5B36090F8357057
:100D50000B68052F1CD123F016030B604B6923F0A1
:100D600080034B61036C0BB9836C1BB10B6823F0E0
:100D700008030B603F219140B160012180F83510DC
:100D8000016D0022002980F8342054D158E000BFC2
:100D90000A685B0310D4D20512D40A6822F010024C
:100DA0000A60012180F83510002180F8341007E036
:100DB000816C0029BCD1BEE7110301D4416C00E075
:100DC000C16B11B1044688472046416DC1B3416DE6
:100DD000C9072ED0052180F835100168AA0A0B68D2
:100DE00023F001030B60009B0133934200931AD858
:100DF0000B68DB0717D0009B01339342009312D896
:100E00000B68DB070FD0009B0133934200930AD895
:100E10000B68DB0707D0009B01339342009302D895
:100E20000B68DB07DFD1012180F83510002180F845
:100E30003410C16C21B101B0BDE8F040084700BFDB
:100E400001B0F0BD2DE9F041044600F0EFF9ECB13E
:100E50000546022084F835000020216884F834001B
:100E6000086820F00100086021680868C00711D0F8
:100E700000F0DCF9401B0528F6D9032520230320C8
:100E8000636584F83550BDE8F08100BF0120BDE8FE
:100E9000F08100BF086848F23F02CFF21002D4E9A7
:100EA000013500EA020C04F10C0898E8C10143EA9C
:100EB0000C032B431843D4E9072E30433843104327
:100EC000626A40EA0E00042A40EA08031CD1206B43
:100ED000D4E90A2E40EA0E00184308604869BEF1C2
:100EE000000F20F0030040EA020040F0040C11D093
:100EF000B8F5005F36D0B8F1000F45D1022A46D0D0
:100F0000012A3BD032B942E00B60486920F007006B
:100F100040EA020C01F0F8004AF6AB221038CAF69B
:100F2000AA22A0FB02231A0945F6A203C1F814C0A5
:100F3000C0F600039A5C40F2FF335F284FF03F0099
:100F400021EA030100FA02F088BF0431C4E9161255
:100F50008860002301250020636584F83550BDE8D2
:100F6000F08100BF032AD5D8012540230120DFE806
:100F700002F0030E030500BF82E700BFAEF1C070B0
:100F8000B0FA80F0400904E0032A04D3C2D1CEF3C2
:100F900000600028BED0012540230120636584F84D
:100FA0003550BDE8F081000090F834C0BCF1010F6D
:100FB00004BF0220704770B54FF0010C80F834C0B8
:100FC000D0F858E090F835C0BCF1010F38D14FF09F
:100FD000020C80F835C04FF0000CC0F854C0D0F8B7
:100FE00000C08468056CC06DDCF80060402C26F4FD
:100FF0008026CCF80060CCF804300B4604BF1346C2
:101000000A463F2101FA00F0CCF80830CCF80C2059
:10101000CEF80800DCF8000040F01600CCF8000024
:101020002DB1DCF8000040F00800CCF80000DCF83E
:10103000000040F00100CCF80000002070BD00BFAF
:10104000002180F83410022070BD0000B0B50446C5
:1010500000F0ECF8054640F20000C2F20000007813
:10106000611C18BF044400BF00F0E0F8401BA04220
:10107000FAD3B0BD2DE9F04F83B000F1200200F1AA
:101080003E4741F60045009207F1FF77C4F20205A2
:1010900008224FEAB726A84208BF072200254FF0D2
:1010A00000084FF00009072E38BF4FEAB72201921F
:1010B0000AE000BF09F1010908F10208B9F1100FB7
:1010C00005F1040500F0A2800F68012202FA09FE72
:1010D00017EA0E0AEED0D1F804C003220CF0030781
:1010E0007E1E02FA08F4012E6FEA040B12D88468FF
:1010F000CE6804EA0B0406FA08F6344384604468B8
:1011000024EA0E06CCF3001404FA09F426434660E0
:1011100004E000BF032F01D103271EE0C6688C68DE
:1011200006EA0B0604FA08F42643022FC66014D11F
:101130006FF00302009E02EA590756F807C005F057
:101140001C040F220B69A2402CEA0202A3401A439E
:10115000F251D1F804C00CF00307026807FA08F353
:1011600002EA0B021A431CF4403F0260A2D00022A4
:1011700043F644030292C4F202031A6843F60044A1
:1011800042F480421A601A68C4F2010402F48042F8
:101190000292029A29F003024FF6084C2244CFF63D
:1011A000FF7C52F80C3005F00C070F26BE40B3430D
:1011B000019E06FA07F73B4342F80C30A2684B68E1
:1011C00042EA0A0743F60C4CDE0258BF22EA0A073D
:1011D000A760C4F2010CDCF800209E0242EA0A0774
:1011E00058BF22EA0A07CCF8007062689E0342EA00
:1011F0000A0758BF22EA0A0767602268DB0342EA4F
:101200000A0758BF22EA0A07276053E703B0BDE880
:10121000F08F00000069084018BF012070470000EF
:10122000002A08BF090481617047000044F21C6075
:10123000C2F200000068704740F2000044F21C61F6
:10124000C2F20000C2F2000100780A68104408608F
:101250007047000080B543F60040C4F20200016808
:1012600041F400710160016841F48061016001682E
:1012700041F480710160032000F08CF80F2000F031
:1012800005F800F027F8002080BD000070B540F29E
:101290000006C2F2000640F208013278C2F20001F4
:1012A0004FF47A730968B3FBF2F20446B1FBF2F132
:1012B000084600F067FB0F2C4FF0010508D838B93D
:1012C0004FF0FF3021460022002500F037F874600F
:1012D000284670BD82B0002043F640010190C4F260
:1012E00002014A6842F480424A604A6802F480423D
:1012F0000192019A00900868002240F08050086036
:1013000008680F2100F08050009000986FF00100F5
:1013100002B000F013B80000002848BF704700F08A
:101320001F01012202FA01F11C2202EAD0004EF252
:101330000012CEF2000281507047000010B54EF648
:101340000C5CCEF2000CDCF80030C3F3022E8EF001
:101350000704042C28BF0424BEF103034FF0FF3E12
:101360000EFA04F438BF0023A14399400EFA03F3A8
:101370009A43114300F00F0200F160430901043A5F
:1013800003F564436244002848BF02F10C0319705E
:1013900010BD00004EF60C51CEF200010A684FF667
:1013A000FF031A4060F30A2242F0806040F0FD70B3
:1013B00008607047002804BF012070472DE9F04104
:1013C00043F60808C4F202080446D8F8F8030D46AC
:1013D00000F00700814207D988F8F853D8F8F803DD
:1013E00000F00700A84277D12068810717D5410790
:1013F00005D5D8F8001041F4E051C8F800100107F5
:1014000005D5D8F8001041F46041C8F80010D8F8AC
:101410000010A26821F0F0011143C8F80010C007C5
:1014200040D1D8F8F80300F00700854207D288F8C9
:10143000F853D8F8F80300F00700A8424CD1206810
:10144000410707D5D8F80010E26821F4E0511143B4
:10145000C8F80010000708D5D8F80000216920F46A
:10146000604040EAC100C8F8000000F07DF8D8F8FC
:10147000001045F68A02C1F30311C0F60002515C68
:1014800040F2080220FA01F140F20400C2F200002A
:101490000068C2F200021160FFF7F8FE0020BDE80C
:1014A000F08100BF6068811E022907D258F8081C2D
:1014B00089015CBF0120BDE8F08111E0012807D15E
:1014C00058F8081C89035CBF0120BDE8F08107E0E3
:1014D00058F8081C890703D40120BDE8F08100BF3B
:1014E000D8F8001021F003010843C8F80000FFF706
:1014F0009DFE064641F28837D8F80000616800F08A
:101500000C00B0EB810F8CD0FFF790FE801BB8422F
:10151000F2D90320BDE8F08140F2080043F608014B
:10152000C2F20000C4F202010068096845F69A029E
:10153000C1F38221C0F60002515CC8407047000030
:1015400040F2080043F60801C2F20000C4F20201B2
:101550000068096845F69A02C1F34231C0F60002FC
:10156000515CC8407047000010B543F60404C4F253
:1015700002046168C1F3810142F20040C0F2F4004C
:10158000DFE801F002040A0210BD00BF47F6400088
:10159000C0F27D1010BD00BF206821682368490299
:1015A00047F64001C0F27D1100F03F02C3F38810FE
:1015B0005CBF42F20041C0F2F401A1FB0001002334
:1015C000FEF768FE21680222C1F3014102EB4101EE
:1015D000B0FBF1F010BD0000002804BF01207047EF
:1015E0002DE9F04182B00446007843F60006C007BA
:1015F000C4F202060CD0B06800F00C00042840F0E1
:1016000081803068800303D56068002800F068811D
:10161000207880071BD5B06810F00C0F09D0B06897
:1016200000F00C00082840F087807068400200F14C
:1016300083803068800703D5E068012840F050813E
:101640003068216920F0F80040EAC100306020785D
:10165000000713D4207840072AD4A569002D00F094
:101660003A81B06800F00C00082840F0A580012DF8
:1016700040F00E81012002B0BDE8F08160690028D1
:1016800000F082800020C4F247200121C0F8801EB3
:10169000FFF7CCFD054600BF706F8007DAD4FFF777
:1016A000C5FD401B0228F7D9032002B0BDE8F08138
:1016B000306C5FEAC0080AD400200190306C40F022
:1016C00080503064306C00F080500190019847F2F7
:1016D0000007C4F200073868C00547D4386840F4F2
:1016E00080703860FFF7A2FD054600BF3868C0056E
:1016F0003CD4FFF79BFD401B0228F7D9032002B022
:10170000BDE8F081B06800F00C00082803D17068D3
:1017100040023FF576AF61683068B1F5803F07D091
:10172000B1F5A02F40F09A8040F4802030603068FE
:1017300040F4803030609AE0E068002840F2000019
:10174000C4F247205CD001210160FFF76FFD054620
:10175000306880073FF574AFFFF768FD401B022833
:10176000F6D9032002B0BDE8F08100BFA168306F58
:10177000012905D0052955D140F004003067306FAC
:1017800040F00100306756E00020C4F247200021FD
:10179000C0F8801EFFF74AFD054600BF706F800746
:1017A0007FF558AFFFF742FD401B0228F6D9032012
:1017B00002B0BDE8F08100BF0027C4F24727002037
:1017C0003866FFF733FD022D05460DD130688001E4
:1017D00040F18A80FFF72AFD401B02284FF00300EA
:1017E000F4D902B0BDE8F0813068800173D5FFF70D
:1017F0001DFD401B02284FF00300F5D9F1E700BFA3
:1018000000210160FFF712FD054600BF3068800728
:101810007FF51DAFFFF70AFD401B02284FF00300C4
:10182000F4D9DEE720F001003067306F002920F0A6
:10183000040030677AD0FFF7F9FC054641F288379B
:10184000306F800700F18480FFF7F0FC401BB84246
:10185000F6D9032002B0BDE8F08100BF20F480304B
:1018600030603068002920F4802030607AD0FFF7A3
:10187000DDFC0546306880033FF5CAAEFFF7D6FCB5
:10188000401B6428F6D9032002B0BDE8F08100BFF8
:101890007068E16900F480028A4221D1216A00F077
:1018A0003F028A421CD147F6C071626A0140B1EB27
:1018B000821F15D1A16A4FF6FF73C903994300F443
:1018C0004032A1F580318A420AD1E16A00F07060AD
:1018D000B0EB016F04D1002002B0BDE8F08100BF81
:1018E000012002B0BDE8F08104F11C052FCD0843B2
:1018F00040EA8210D9034FF6FF729143A1F580317F
:1019000040EA05600843706001203866FFF78EFCEE
:10191000044600BF30688001DDD4FFF787FC001B60
:1019200002284FF00300F5D95BE700BFFFF77EFC0C
:10193000054641F2883700BF306F800708D5FFF7B2
:1019400075FC401BB8424FF00300F5D949E700BFD2
:10195000B8F1000F3FF581AE306C20F0805030645C
:101960007BE600BFFFF762FC054600BF30688003DE
:101970007FF54EAEFFF75AFC401B64284FF0030082
:10198000F4D92EE7411E0020B0EB116F1CBF0120DF
:1019900070474EF21002CEF2000251604EF6235113
:1019A000CEF20001F0230B700721906011607047A8
:1019B0007047000070470000B0B582B001680A6847
:1019C000CC684B6902F02F05202D04F0200505D1CD
:1019D00025B102B0BDE8B04001F09CBE5FEA027CD8
:1019E0001EBF03F0010E04F4907313EB0E0341D1FC
:1019F000036BD50618D5012B16D114F0100313D0A4
:101A0000002201920A6801924A680192019A49698A
:101A100049064BD4818DC28DC38D002B18BF9142D6
:101A200040F0068202B0B0BD13062DD514F080033D
:101A30002AD090F84120212AF4D18268B2F5805F43
:101A400003D10269002A00F07982026A531C036202
:101A500012784A60C28C013A1304C284E2D1C86889
:101A600020F08000C860C86840F04000C86002B044
:101A7000B0BD00BFD30718BF14F4807340F0E280FC
:101A8000530700F1E580EAE05206CBD514F040029E
:101A9000C8D0CA6822F04002CA60202180F84110F4
:101AA00002B0BDE8B04000F0C1BB00BFC26B11681E
:101AB0004B68858D99B2002900F0B480A94280F06E
:101AC000B180C385D169B1F5807F00F0A080016845
:101AD00051E8031F026821F4807142E80313DBB16F
:101AE000016851E8031F026821F4807142E8031382
:101AF00093B1016851E8031F026821F4807142E844
:101B000003134BB1016851E8031F026821F480718F
:101B100042E80313002BDAD1016851E8051F02687F
:101B200021F0010142E80513BBB3016851E8051F2C
:101B3000026821F0010142E8051373B3016851E81E
:101B4000051F026821F0010142E805132BB301686B
:101B500051E8051F026821F0010142E80513002B3E
:101B6000DAD11AE0016851E8051F026821F040014E
:101B700042E80513DBB1016851E8051F026821F056
:101B8000400142E8051393B1016851E8051F02685E
:101B900021F0400142E805134BB1016851E8051FEF
:101BA000026821F0400142E80513002BDAD1202120
:101BB00080F8421000210163016851E8031F0268A8
:101BC00021F0100142E80313DBB1016851E8031F63
:101BD000026821F0100142E8031393B1016851E853
:101BE000031F026821F0100142E803134BB10168A2
:101BF00051E8031F026821F0100142E80313002B93
:101C0000DAD1C16B04460846FEF7E0FF2046022108
:101C10004163818DC28D891A89B202B0BDE8B0409E
:101C2000FFF7C6BE8D427FF4FDAED269B2F5807F6C
:101C30007FF4F8AE0222426302B0BDE8B040FFF785
:101C4000B7BE00BF436C43F001034364530706D59E
:101C5000BEF1000F03D0436C43F0020343649307CB
:101C600006D5BEF1000F03D0436C43F00403436478
:101C7000BCF1000F06D55EEA050303D0436C43F0C8
:101C800008034364436C002B3FF4CCAE920605D5A9
:101C900025B1044601F03EFD216820464969426CA9
:101CA00001F0400102F00802891800F0B98000BF7D
:101CB000016851E8031F026821F4907142E80313A0
:101CC000BBB3016851E8031F026821F4907142E838
:101CD000031373B3016851E8031F026821F4907184
:101CE00042E803132BB3016851E8031F026821F493
:101CF000907142E80313002BDAD11AE0016851E831
:101D0000051F026821F0010142E80513DBB10168FB
:101D100051E8051F026821F0010142E8051393B163
:101D2000016851E8051F026821F0010142E805132E
:101D30004BB1016851E8051F026821F0010142E83A
:101D40000513002BDAD1016B012924D1016851E878
:101D5000031F026821F0100142E80313DBB10168A0
:101D600051E8031F026821F0100142E8031393B108
:101D7000016851E8031F026821F0100142E80313D3
:101D80004BB1016851E8031F026821F0100142E8DD
:101D90000313002BDAD1202180F8421000210163C7
:101DA00001684969490640F1C380016851E8051F8F
:101DB000026821F0400142E80513DBB1016851E8F7
:101DC000051F026821F0400142E8051393B1016844
:101DD00051E8051F026821F0400142E805134BB1AC
:101DE000016851E8051F026821F0400142E805132F
:101DF000002BDAD1C16B002900F09A8043F2D54262
:101E0000C0F60002044608460A65FEF727FF0028D0
:101E10003FF408AEE06B016D02B0BDE8B04008478A
:101E20000446FFF7C7FD0020606402B0B0BD00BFEC
:101E3000891A00BF026852E8032F036822F49072E7
:101E400043E80325BDB3026852E8032F036822F478
:101E5000907243E8032575B3026852E8032F0368C4
:101E600022F4907243E803252DB3026852E8032F51
:101E7000036822F4907243E80325002DDAD11AE0BA
:101E8000026852E8052F036822F0010243E80525A5
:101E9000DDB1026852E8052F036822F0010243E831
:101EA000052595B1026852E8052F036822F001026A
:101EB00043E805254DB1026852E8052F036822F07A
:101EC000010243E80525002DDAD1202280F84220C6
:101ED00000220263026852E8032F036822F0100216
:101EE00043E80325DDB1026852E8032F036822F0BE
:101EF000100243E8032595B1026852E8032F0368F6
:101F000022F0100243E803254DB1026852E8032F86
:101F1000036822F0100243E80325002DDAD10222E3
:101F200089B2426302B0BDE8B040FFF741BD00BFD7
:101F300002B0BDE8B040FFF73DBD00BF026A32F815
:101F4000023B6FF35F234B60026283E5002804BF0E
:101F50000120704710B5044690F8410028B90020D0
:101F600084F84000204600F021F8242084F8410045
:101F70002068C16821F40051C160204601F04AFC8C
:101F80002068016921F490410161416921F02A0131
:101F90004161C16841F40051C160002020216064AA
:101FA00084F8411084F84210606310BD2DE9F043BD
:101FB00087B00446216841F20042C4F201020020C9
:101FC0009142CDE90500CDE9030002906CD041F2C9
:101FD0000000C4F20100814240F09880002643F6E0
:101FE00030000196C4F20200416946F2404841F0D7
:101FF000100141614169C4F2020801F01001019130
:1020000001990196016841F001010160006802A98F
:1020100000F00100019001984FF4C060029002208E
:10202000CDE9030603200590072006900020C4F2A6
:102030000200FFF71FF840F2DC3508F17800C2F229
:1020400000054FF000674021C5E9000705F10800D1
:102050004FF4806980E842022846C5E90566C5E973
:1020600007666E62FEF7EEFE002818BFFEF7D0FA94
:10207000A563AC6340F27C35C2F200052846C5E991
:102080000087C5E90266C5E90496C5E90666C5E9A3
:102090000866FEF7D7FE002818BFFEF7B9FAE56319
:1020A000AC6325242AE000BF43F630010190C4F25E
:1020B00002014A6942F020024A614A6902F02002A4
:1020C0000192019A01900A6842F004020A600968CC
:1020D00001F0040101910199C02102910221CDE991
:1020E000031003200590082006900020C4F202008F
:1020F00000F5006002A9FEF7BDFF47242046052138
:102100000022FFF71BF92046FFF706F907B0BDE8EC
:10211000F083000070470000B0B590F84140202CDB
:102120001CBF0220B0BD1346024600294FF001003B
:1021300018BF002B00D1B0BD4FF0000C2120116260
:102140009384D384C2F844C082F8410014681546D1
:10215000906B43F25D6E43F20D72C0F6000EC0F656
:102160000002C0E90FE243F2E142C0F60002C0E91A
:10217000132C221DFEF718FF30B1102068642020B8
:1021800085F841000120B0BD286829466FF0400263
:10219000026000BF086850E8050F0A6840F0800040
:1021A00042E8050303B3086850E8050F0A6840F0E9
:1021B000800042E80503BBB1086850E8050F0A68D3
:1021C00040F0800042E8050373B1086850E8050F4D
:1021D0000A6840F0800042E80503002B4FF0000041
:1021E00008BFB0BDD6E700BF0020B0BD90F84130B9
:1021F000202B07D100294FF0010318BF002A05D179
:102200001846704702231846704700BF016200233A
:1022100021218284C284436480F841100068C1682F
:1022200041F08001C160184670470000704700000F
:1022300070470000FEE7000010B584B040F22C208B
:1022400001220021C2F2000042F2000CC0F600722E
:10225000C4F2010C4FF480330124C0E90A210222A8
:102260000391047680F82010C26180F83040C0E904
:1022700000C3C0E90211C0E90441FEF771FA002869
:1022800018BFFEF7C5F90620CDE90004042002902E
:1022900040F22C20C2F200006946FEF7BDF900288A
:1022A00018BFFEF7B5F9072000900220019040F218
:1022B0002C20C2F200006946FEF7AEF9002818BFD4
:1022C000FEF7A6F904B010BDB0B584B040F274209A
:1022D00001250021C2F2000042F20012C0F6007592
:1022E000C4F201024FF480330124C0E90A510425ED
:1022F0000391047680F82010C56180F83040C0E971
:102300000023C0E90211C0E90441FEF729FA0028C0
:1023100018BFFEF77DF90C208DE8310040F27420E3
:10232000C2F200006946FEF777F9002818BFFEF7F1
:102330006FF90D2000900220019040F27420C2F24B
:1023400000006946FEF768F9002818BFFEF760F93B
:10235000082000900320019040F27420C2F2000097
:102360006946FEF759F9002818BFFEF751F9092010
:1023700000900420019040F27420C2F200006946EF
:10238000FEF74AF9002818BFFEF742F904B0B0BDC5
:1023900080B582B00020019043F63000C4F2020004
:1023A0000168002241F4800101600068052100F409
:1023B0008000019001983A20FEF7C0FF3A20FEF716
:1023C000ABFF3B2005210022FEF7B8FF3B20FEF7C4
:1023D000A3FF3C2005210022FEF7B0FF3C20FEF7C2
:1023E0009BFF462005210022FEF7A8FF462002B0F1
:1023F000BDE88040FEF790BF10B543F2E13045F6EE
:10240000D002C0F60000C0F60002002101F0E4FA9C
:1024100040F27004C2F20004206043F2D53045F669
:10242000AC02C0F60000C0F60002002101F0D4FAB0
:10243000606010BD2DE9F04387B0002743F63000FF
:102440000697CDE90477CDE902770197C4F202003F
:10245000016840F6004441F0100101600168C4F2D7
:10246000020401F010010191019901970168A4F59E
:10247000006541F0800101600168002201F08001E7
:1024800001910199019701684FF0040941F004019D
:102490000160016801F0040101910199019701684F
:1024A00041F001010160016801F001010191019910
:1024B0000197016841F002010160016801F0020129
:1024C000019101990197016841F0080101600068DC
:1024D000042100F00800019001982846FEF7A0FEB4
:1024E00020464FF4404100224FF44048FEF798FE4A
:1024F0001B2002AECDE9020704F580603146049747
:10250000FEF7B8FD40F22310CDE90207A4F5806084
:1025100031460497FEF7AEFD1720CDE90207A4F57A
:10252000406031460497FEF7A5FDCDF808904FF0C6
:10253000010928463146CDE903970597FEF79AFD34
:1025400043F66070CDE90207204631460497FEF756
:1025500091FD20463146CDE90289CDE90477FEF7A9
:1025600089FD07B0BDE8F08380B540F23C4041F200
:102570000001C2F20000C4F2010100234FF00C0C74
:102580004FF4E13280E80E00C0E90333C0E905C32F
:10259000C361FFF7DBFC002808BF80BDBDE88040B9
:1025A000FEF736B880B540F2844041F20041C2F2F5
:1025B0000000C4F2010100234FF00C0C4FF4E13293
:1025C00080E80E00C0E90333C0E905C3C361FFF72B
:1025D000BDFC002808BF80BDBDE88040FEF718B8EC
:1025E000FEE7000040F23C40C2F2000090F84100DB
:1025F000202818BF704740F2BE00C2F200000188D8
:1026000000EE101A40F20821B8EE400AC2F20001B2
:1026100081ED000A408800EE100AB8EE400A40F250
:10262000D40081ED010AC2F20000828800EE102A77
:10263000B8EE400A81ED020AC28800EE102AB8EE18
:10264000400A81ED030A028800EE102AB8EE400A23
:1026500081ED040A408800EE100AB8EE400A40F20C
:10266000960081ED050AC2F20000027A00EE102AFF
:10267000B8EE400A81ED060A807B242200EE100AA3
:102680004FF0FF40086240F23C40B8EE400AC2F210
:10269000000081ED070AFFF73FBD000080B500F0A4
:1026A00039F8BDE8804000F069BA0000FEE700009C
:1026B000EFF30980BFF36F8F154B1A681EF0100FF0
:1026C00008BF20ED108A20E9F04F10602DE90900C5
:1026D0004FF0500080F31188BFF34F8FBFF36F8F1F
:1026E00002F0F0F94FF0000080F31188BDE8090016
:1026F00019680868B0E8F04F1EF0100F08BFB0EC82
:10270000108A80F30988BFF36F8F704700BF00BF46
:10271000000100202DE9F04740F60048C4F202080D
:1027200008F5806528461021FEF774FDB0FA80F0A8
:1027300040F2B00740F296094009C2F200070024B7
:10274000C2F200093876B8773C7089F8080028464C
:102750000821FEF75FFD0138B0FA80F04009787675
:10276000F8777C7089F8090028460221FEF752FDAF
:102770000138B0FA80F04009B87687F82000BC70C4
:1027800089F80A00284601214FF0010AFEF742FDB0
:102790000138B0FA80F04009F87687F82100FC7023
:1027A00089F80B0040464021FEF734FD0138B0FAAD
:1027B00080F04009387787F822003C7189F80C00D6
:1027C00040462021FEF726FD0138B0FA80F040098E
:1027D000A8F54065787787F823007C7189F80D00AB
:1027E00028460121FEF716FDB0FA80F04009A8F551
:1027F000806687F82C0087F8380087F8444089F80D
:102800000E0030460221FEF705FDB0FA80F04009C7
:1028100087F82D0087F8390087F8454089F80F00C0
:1028200030460121FEF7F6FCB0FA80F0400987F847
:102830002E0087F83A0087F8464089F810002846AD
:102840000221FEF7E7FCB0FA80F0400987F82F007C
:1028500087F83B0087F8474089F811002846042193
:10286000FEF7D8FCB0FA80F0400987F8300087F80E
:102870003C0087F8484089F8120028461021FEF7EE
:10288000C9FCB0FA80F0400987F8310087F83D00B4
:1028900087F8494089F8130040464FF40051FEF78D
:1028A000B9FCB0FA80F0400987F8320087F83E00A2
:1028B00087F84A4089F8140040464FF48051FEF7EB
:1028C000A9FCB0FA80F0400987F8330087F83F0090
:1028D00087F84B4089F8150040464FF40061FEF739
:1028E00099FCB0FA80F0400987F8340087F840007E
:1028F00087F84C4089F8160040464FF48071FEF787
:1029000089FCB0FA80F0400987F8350087F841006B
:1029100087F84D4089F8170040464FF40071FEF7E4
:1029200079FCB0FA80F0400987F8360087F8420059
:1029300087F84E4089F8180040464FF48061FEF752
:1029400069FCB0FA80F040F22C254009C2F2000583
:1029500087F8370087F8430087F84F4089F8190057
:1029600007F10E0128460222FC80FEF75FF80028DE
:102970001CBF87F807A0BDE8F087A86B40F274255C
:102980000068C2F200050168042221F0180101600C
:1029900007F124012846FEF749F818B10220F87122
:1029A000BDE8F087A86BA8F5006400680122016803
:1029B00021F01801016020460421FEF731FC1E20A1
:1029C000FEF744FB204604210022FEF729FC642088
:1029D000FEF73CFB204604210122FEF721FC1E20CD
:1029E000FEF734FB204604210022FEF719FC642088
:1029F000FEF72CFB204604210122FEF711FC1E20CD
:102A0000FEF724FB204604210022FEF709FC642087
:102A1000BDE8F047FEF71ABBF0B581B0FEF706FC43
:102A200040F27805C2F200052969421A00F1A4803B
:102A30003231421A58BF00F1320140F600002961DC
:102A4000C4F202004FF48071FEF7E4FB002805F1A8
:102A50000C0100F08E8040F28440C2F2000090F839
:102A60004100202840F08580E88B297840F2262418
:102A700000294FF0000C6A7808BF40F25724A042AA
:102A800088BF4FF0010C85F800C02C8C40F2262343
:102A90000021002A08BF40F257239C4288BF012131
:102AA000697095F82C2095F8323095F8264095F805
:102AB0002D00C90142EA400E95F8332095F8270011
:102AC00043EA420244EA400695F82E3095F8344035
:102AD0004EEA830E42EA840295F8284095F82F00CA
:102AE00095F835304EEAC00042EAC30295F830301E
:102AF00046EA840440EA031095F8363095F82A60D7
:102B000042EA031244EA061395F8316095F837401B
:102B100045F6A52E42EA44172C4640EA461095F8A1
:102B20002B6024F814EFA27B41EA8C11A270E27BA7
:102B30000843E270227C43EA46132271627CA07152
:102B40006271607D95F82A1000F0010061F3410088
:102B5000E07140F28440C2F2000021460A2227724E
:102B60006372FFF743FBA4F11001002808BFA4F132
:102B70000C0108680130086001B0F0BDB0B540F24A
:102B8000780540F60044C2F200050020C4F20204B9
:102B900028806860A860E86020464FF480410022E9
:102BA000FEF73EFB20464FF400410022FEF738FBC3
:102BB000FEF73CFB2861B0BD2DE9F04740F2B00ABA
:102BC000C2F2000A9AF8060041F200080128C4F295
:102BD00002080ED1FEF72AFBDAF81410401A08D4C6
:102BE000A8F54060042100220024FEF719FB8AF8B2
:102BF00006409AF8070040F296090028C2F2000940
:102C000040F083819AF80800BAF80E10B0B1BAF813
:102C10000A000A1A48BF52420B2A38BF0146AAF8D6
:102C20000A10BAF81000BAF80C20831A48BF5B42A9
:102C30000B2B38BF1046AAF80C0008E0AAF80A10BF
:102C4000BAF810000122AAF80C008AF8082040F215
:102C5000ED734BF2483299424AF67F43CFF6F57254
:102C6000C8F2ED232AD84FF47A7701FB07268908AA
:102C7000A6FB0354361B04EB5606A82988BFA7EB16
:102C8000962740F2ED718842A9F800703DD84FF4C4
:102C90007A7100FB01228008A2FB0337D21B07EBED
:102CA0005202A82888BFA1EB9221A9F80210BAF815
:102CB00026000B28C0F080804DE000BF40F61707CB
:102CC000B9421BD346F61026CFF6E0764FF47A775A
:102CD00001FB076646F24765B608C4F65775A6FBC2
:102CE000056540F68A66B14238BFEF0940F2ED71E2
:102CF0008842A9F80070CAD907E000BF002740F257
:102D0000ED718842A9F80070C1D940F617018842D8
:102D10001AD346F61022CFF6E0724FF47A7100FB18
:102D2000012246F247639208C4F65773A2FB0323BD
:102D300040F68A62904238BFD909A9F80210BAF861
:102D400026000B2807D237E00021A9F80210BAF8B4
:102D500026000B2830D30109FE2916D8B0F5F56FEF
:102D600016D9C0EBC010A0F57330A0F5157043F66E
:102D7000C37100F5FE70CFF24E71A0FB01018020FF
:102D800000EBD120F42840F21782FF2015E000BFAD
:102D900000F016824FF60031CFF6FF7101EBC01044
:102DA0004BF255324108C2F29B1245F2CA339842A7
:102DB000A1FB021080F0FC81002089F80400BAF821
:102DC00024000B2831D30109FE2919D840F6370118
:102DD000884217D94EF6B741C0EBC010CFF6FB7151
:102DE000084449F62701C0F63111A0FB0112801AF0
:102DF00002EB5000802101EB9020F42840F2F0819A
:102E0000FF2013E000F0F0814FF60031CFF6FF71A4
:102E100001EBC01047F6ED21C7F63F5145F6EF1222
:102E20009042A0FB011080F0D781002089F80500B6
:102E3000BAF828000B282ED30109FE2916D840F62F
:102E40005E01884214D94DF65E11C0EBC010CFF67A
:102E5000FB7108444EF29551C8F24371A0FB010189
:102E6000802000EB9120F42840F2CE81FF2013E077
:102E700000F0CE814FF60031CFF6FF7101EBC010AC
:102E80004EF2FD71CFF2E95145F69C329042A0FB23
:102E9000011080F0B581002089F80600BAF82A00F8
:102EA0000B282FD30109FE2915D840F2AC718842B6
:102EB00014D9C0EBC010A0F573304EF69D51A0F5AB
:102EC0001570CFF2C571A0FB0101802000EBD1206D
:102ED000F42840F2AD81FF2015E000BF00F0AC8186
:102EE0004FF60031CFF6FF7101EBC01041F289625D
:102EF0004108C2F28A1245F2F6339842A1FB021051
:102F000080F09281002089F8070040461021FEF7EA
:102F100081F9B0FA80F09AF818104009814205D181
:102F20000AF11E020023002418E000BF524612F8E6
:102F30001E3F834210D1524612F8183B092B07D886
:102F40005F1C524602F8187B092B4FF0000408D191
:102F500001240023014601E00024012310708AF8B7
:102F6000003089F8081040460821FEF753F901386F
:102F7000B0FA80F09AF819104009814204D10AF1A0
:102F80001F02002315E000BF524612F81F3F834284
:102F90000ED19AF801300AF11902092B04D85F1CEE
:102FA000092B8AF8017007D101240023014600E0B3
:102FB000012310708AF8013089F809104046022177
:102FC000FEF728F90138B0FA80F09AF81A10400993
:102FD000814203D10AF12002002314E0524612F884
:102FE000203F83420ED19AF802300AF11A02092BCF
:102FF00004D85F1C092B8AF8027007D10124002332
:10300000014600E0012310708AF8023089F80A10A6
:1030100040460121FEF7FEF80138B0FA80F09AF838
:103020001B104009814203D10AF12102002314E060
:10303000524612F8213F83420ED19AF803300AF12A
:103040001B02092B04D85F1C092B8AF8037007D1D7
:1030500001240023014600E0012310708AF80330A8
:10306000A8F5806589F80B1028464021FEF7D2F8B4
:103070000138B0FA80F09AF81C104009814203D15F
:103080000AF12202002314E0524612F8223F834242
:103090000ED19AF804300AF11C02092B04D85F1CE7
:1030A000092B8AF8047007D101240023014600E0AF
:1030B000012310708AF8043089F80C10284620216A
:1030C000FEF7A8F80138B0FA80F09AF81D10400910
:1030D000814203D10AF12302002314E0524612F880
:1030E000233F83420ED19AF805300AF11D02092BC5
:1030F00004D85F1C092B8AF8057007D1012400232E
:10310000014600E0012310708AF8053084F00104C4
:10311000002693A59EA789F80D100AE0002381F8E8
:10312000382081F8443009EB060101360C2E8873F3
:103130002AD055F8260037F81610FEF76BF80AEB80
:103140000601B0FA80F291F82C0052099042E5D0C5
:1031500091F83830934215D191F84430092B04D8B6
:1031600003F1010381F84430DDD1002409EB0600AE
:103170000B2E06F1010681F82C2081F84440827361
:10318000D7D105E00123CAE7E00718BFBDE8F08703
:10319000A8F54060042101220124FEF741F8FEF762
:1031A00045F81E30CAF814008AF80640BDE8F087DA
:1031B000C009F4283FF6E9ADA0F17601152901D246
:1031C0008020FAE5752843D80B283FF4F5AD752823
:1031D00040F09E807F20F0E5800AF4283FF610AE94
:1031E000A0F17601152901D280201FE6752845D867
:1031F0000B283FF41AAE752840F094807F2015E626
:10320000C00AF4283FF632AEA0F17601152901D2AA
:10321000802041E6752847D80B283FF43CAE75283E
:1032200040F08A807F2037E6C009F4283FF653AE8D
:10323000A0F17601152901D2802064E6752849D8CD
:103240000B283FF45FAE752840F080807F205AE65F
:103250008C2855D3F4283FF498AD4BF69631C0EB4B
:103260008010CFF6FF7101EB400080B244F605619B
:1032700048436FF07E0101EB50509EE58C2841D30E
:10328000F4283FF4BDAD4BF69631C0EB8010CFF67D
:10329000FF7101EB400080B244F6056148436FF0D6
:1032A0007E0101EB5050C1E58C282DD3F4283FF46A
:1032B000DDAD4BF69631C0EB8010CFF6FF7101EB20
:1032C000400080B244F6056148436FF07E0101EB97
:1032D0005050E1E58C2819D3F4283FF4FCAD4BF6AF
:1032E0009631C0EB8010CFF6FF7101EB400080B249
:1032F00044F6056148436FF07E0101EB505002E651
:1033000081205AE5812091E58120C5E58120FAE5FB
:10331000C0EBC010A0F2755080B249F6912148432D
:10332000800D4AE5C0EBC010A0F2755080B249F69E
:1033300091214843800D79E5C0EBC010A0F2755093
:1033400080B249F691214843800DA5E5C0EBC0103D
:10335000A0F2755080B249F691214843800DD2E524
:103360000000024000080240000802400000024045
:103370000000024000000240000C0240000C02402D
:10338000000C0240000C0240000C0240000C024005
:1033900001000200010002000400100000200010E3
:1033A000000800010002000400000000000000000E
:1033B000074B19680868B0E8F04F80F30988BFF33D
:1033C0006F8F4FF0000080F31188704700BF00BF7F
:1033D00000010020FFF706F9322000F0BBFAF9E700
:1033E000FFF7EAFBFFF718FB012000F0B3FAF7E75D
:1033F00080B54EF21000CEF200000068FDF71CFF11
:1034000002F04AF8012808BF80BDBDE8804001F005
:1034100083BC000070B592B006AC20463021FCF7AA
:10342000FEFF002543F640000595CDE90355CDE9A3
:1034300001550095C4F202000168022641F0805156
:103440000160006800F080500090009847F2000092
:103450000095C4F20000016841F4804101600068F9
:1034600000F4804000900098012006904FF48030D6
:1034700007904FF480000D9019200E904FF4A87023
:10348000CDE90F060420119020460C96FEF7A4F813
:1034900010B172B6FEE700BF0F20CDE901064FF470
:1034A000A05004904FF48050059001A80521039589
:1034B000FDF780FF10B172B6FEE700BF12B070BD1D
:1034C0004EF68850CEF20000016841F470010160B0
:1034D00070470000806B0021C185FEF76BBA0000C9
:1034E000806B01684A6990F84130212B2DD112F090
:1034F00080022AD00021C184016851E8031F0268BC
:1035000021F0C00142E80313DBB1016851E8031F59
:10351000026821F0C00142E8031393B1016851E849
:10352000031F026821F0C00142E803134BB1016898
:1035300051E8031F026821F0C00142E80313002B89
:10354000DAD1202180F841100168496990F84220C1
:10355000222A40F07D8011F0400179D00021C18500
:10356000016851E8031F026821F4907142E80313D7
:10357000BBB3016851E8031F026821F4907142E86F
:10358000031373B3016851E8031F026821F49071BB
:1035900042E803132BB3016851E8031F026821F4CA
:1035A000907142E80313002BDAD11AE0016851E868
:1035B000051F026821F0010142E80513DBB1016833
:1035C00051E8051F026821F0010142E8051393B19B
:1035D000016851E8051F026821F0010142E8051366
:1035E0004BB1016851E8051F026821F0010142E872
:1035F0000513002BDAD1016B012924D1016851E8B0
:10360000031F026821F0100142E80313DBB10168D7
:1036100051E8031F026821F0100142E8031393B13F
:10362000016851E8031F026821F0100142E803130A
:103630004BB1016851E8031F026821F0100142E814
:103640000313002BDAD1202180F8421000210163FE
:10365000416C41F010014164FEF7ACB90168806B28
:103660000968C90548BFFEF7E1BD0021C18400BF5C
:10367000016851E8051F026821F0800142E8051346
:1036800083B3016851E8051F026821F0800142E818
:1036900005133BB3016851E8051F026821F0800162
:1036A00042E80513F3B1016851E8051F026821F0F3
:1036B000800142E80513002BDAD113E0016851E8DC
:1036C000031F026841F0400142E80313002B08BFCA
:1036D0007047016851E8031F026841F0400142E869
:1036E000031393B1016851E8031F026841F04001E0
:1036F00042E803134BB1016851E8031F026841F02F
:10370000400142E80313002BD8D17047806BFEF7CD
:103710008FBD000081B090F84210222921D183682A
:103720000246B3F5805F09D152F8281F52F8183CC1
:10373000002B63D003685B680AE000BF52F8281FC3
:1037400013B90369002BF5D003685B6803F07F03AE
:103750000B70116801311160C18D01390A04C185F6
:1037600002D001B0704700BF0168CA6822F0200291
:10377000CA60CA6822F48072CA604A6922F00102F3
:103780004A61202180F8421000214163026B012A26
:103790003CD10163016851E8031F026821F0100168
:1037A00042E80313DBB1016851E8031F026821F00E
:1037B000100142E8031393B1016851E8031F026846
:1037C00021F0100142E803134BB1016851E8031FD7
:1037D000026821F0100142E80313002BDAD10168DE
:1037E0000A68D20606D5002200920A68009249684B
:1037F00000910099818D01B0FEF7DAB80268526835
:103800006FF35F2221F8022B8162A5E701B0FEF77A
:1038100081BC0000B0B50446006804F108030ECB7B
:103820000569194325F440552A4302616269E36939
:103830001143C268194349F20C639A431143C160B2
:103840004169A26921F4407141F20043114340F4FF
:103850008062C4F201039A42416103D1FDF770FE18
:1038600002E000BFFDF758FEE1694FF69C75636802
:103870001922C0F6FF75B1F5004FA0FB02011FD160
:103880005A00DB0FFCF706FD48F21F51C5F2EB11A1
:10389000A0FB01235A0905F1805302FB03003223E8
:1038A00003EBC000A0FB01014FF4F87000EA111017
:1038B00000EB0210C1F34211084421688860B0BDDA
:1038C0009A009B0FFCF7E6FC48F21F51C5F2EB1182
:1038D000A0FB01235A0902FB0500322303EB001071
:1038E000A0FB0101F02000EA511000EB0210C1F32F
:1038F0004311084421688860B0BD000040F23C409C
:10390000C2F20000FEF758B840F28440C2F2000054
:10391000FEF752B8FEE70000FDF79CFCFFF77AFDCA
:10392000FEF788FDFEF734FDFEF786FCFEF7CCFCC3
:10393000FEF71AFEFEF736FE4FF47A70FDF786FBAF
:10394000FEF7ACFE00F016F8FEF756FD00F026F884
:10395000FEE70000EFF3058100291CBF6FF00500B2
:103960007047002804BF0020704780B500F060FF5A
:10397000002080BDEFF3058000281CBF6FF005001C
:10398000704740F20420C2F200000168002911BF14
:103990004FF0FF300121016000207047EFF30580F8
:1039A00000281CBF6FF00500704740F20420C2F2EF
:1039B0000000016801291CBF4FF0FF30704780B53F
:1039C0004EF61F51CEF2000100220A700221016062
:1039D00000F0F8FF002080BDF0B585B08C460023D4
:1039E0000493EFF30581B0B3A9BB2AB39469002C0B
:1039F00008BF1824382C2ED81179C9072BD1566945
:103A0000D2E902574FEA960E1168002E734608BF9E
:103A100080231DB35C2F25D312690023002A18BF11
:103A2000002E18D0CDE9004272466346029501F09F
:103A3000F7FC05B0F0BD00BF80231824002104AFBF
:103A40009AB26346CDE9004701F0BAFC002304991D
:103A5000012808BF0B46184605B0F0BD17B912691A
:103A6000002AECD00023184605B0F0BD2DE9F04146
:103A7000044600F0C1FD40F20016C2F20006F068F4
:103A800040F2BC550130F0603068C2F2000558B118
:103A90003069002840F007813068E16AC06A8842D6
:103AA00098BF3460FFE000BF3460F068012840F048
:103AB000FA80284600F046FD05F1140000F042FDB2
:103AC00005F1280000F03EFD05F13C0000F03AFD54
:103AD00005F1500000F036FD05F1640000F032FD04
:103AE00005F1780000F02EFD05F18C0000F02AFDB4
:103AF00005F1A00000F026FD05F1B40000F022FD64
:103B000005F1C80000F01EFD05F1DC0000F01AFD13
:103B100005F1F00000F016FD05F5827000F012FDD1
:103B200005F58C7000F00EFD05F5967000F00AFDAD
:103B300005F5A07000F006FD05F5AA7000F002FD85
:103B400005F5B47000F0FEFC05F5BE7000F0FAFC5F
:103B500005F5C87000F0F6FC05F5D27000F0F2FC37
:103B600005F5DC7000F0EEFC05F5E67000F0EAFC0F
:103B700005F5F07000F0E6FC05F5FA7000F0E2FCE7
:103B800005F5027000F0DEFC05F5077000F0DAFCC8
:103B900005F50C7000F0D6FC05F5117000F0D2FCB4
:103BA00005F5167000F0CEFC05F51B7000F0CAFCA0
:103BB00005F5207000F0C6FC05F5257000F0C2FC8C
:103BC00005F52A7000F0BEFC05F52F7000F0BAFC78
:103BD00005F5347000F0B6FC05F5397000F0B2FC64
:103BE00005F53E7000F0AEFC05F5437000F0AAFC50
:103BF00005F5487000F0A6FC05F54D7000F0A2FC3C
:103C000005F5527000F09EFC05F5577000F09AFC27
:103C100005F55C7000F096FC05F5617000F092FC13
:103C200005F5667000F08EFC05F56B7000F08AFCFF
:103C300005F5707000F086FC05F5757000F082FCEB
:103C400005F57A7000F07EFC05F57F7000F07AFCD7
:103C500005F5826000F076FC05F2244000F072FC6D
:103C600005F5876000F06EFC05F24C4000F06AFC40
:103C700040F2DC18C2F20008404600F063FC08F194
:103C80001407384600F05EFC06F1640000F05AFCB0
:103C900006F13C0000F056FC06F1500000F052FC2A
:103CA000C6F81C8037627068716A421CE06A7260F4
:103CB0008842626488BF706200EB800005EB800080
:103CC000211D00F081FC00F0BBFC306988B1306838
:103CD000E16AC06A884228BFBDE8F0814EF6045010
:103CE000CEF200004FF080510160BFF34F8FBFF361
:103CF0006F8FBDE8F081000040F2001540F2BC5625
:103D00004EF60458C2F20005C2F20006CEF20008D8
:103D10004FF0805703E000BF204600F0A9FCA868E0
:103D2000D0B100F069FCA86CC468201D00F0DCFB79
:103D3000E8680138E860A8680138A86000F080FCF5
:103D400094F859000228EAD00128E5D070B9206B18
:103D500000F08EFCE0E700BF30680228DFD3C8F82F
:103D60000070BFF34F8FBFF36F8FD8E74FF0500055
:103D700080F31188BFF36F8FBFF34F8FFEE7000012
:103D80002DE9F0470A9C8246206B16460F46DDE976
:103D900008599100A5229846FCF739FB206B002FAB
:103DA00000EB8600A0F1040020F0070644D038782C
:103DB00084F83400D8B3787884F83500B8B3B8788C
:103DC00084F8360098B3F87884F8370078B33879F7
:103DD00084F8380058B3787984F8390038B3B87962
:103DE00084F83A0018B3F87984F83B00F8B1387ACF
:103DF00084F83C00D8B1787A84F83D00B8B1B87A3C
:103E000084F83E0098B1F87A84F83F0078B1387BA6
:103E100084F8400058B1787B84F8410038B1B87B11
:103E200084F8420000281CBFF87B84F8430000207F
:103E300084F8430003E000BF002084F8340000272A
:103E4000201D372D28BF3725E562C4E9135700F040
:103E500085FB04F1180000F081FBC5F13800A0617A
:103E600030465146424624616462676584F8587062
:103E700000F028FBB9F1000F206018BFC9F800401E
:103E8000BDE8F08708480068006880F308884FF0B4
:103E9000000080F3148862B661B6BFF34F8FBFF3A2
:103EA0006F8F00DF00BF000008ED00E081B0002050
:103EB000009040F20C00C2F2000000684FF0500188
:103EC00081F31188BFF36F8FBFF34F8F013007D09D
:103ED000FEE700BF009830B9009820B9009810B9EB
:103EE00000980028F6D001B07047000088B040F27A
:103EF000781AC2F2000A0DF11009EB46DAF8080050
:103F000005681DB1C068046801E000BF002400F02E
:103F1000D1FD01F0D1FADAF810100646884220D31C
:103F2000002DCAF8106051D0B4424FD801F0CEFB3A
:103F3000DAF80800C068C7683D1D284600F0D4FACA
:103F400097F82800410745D400F0FA0087F82800C8
:103F500082E000BF7860DAF8080029463F6100F08F
:103F600001FBDAF80800016831B3C068C76804686B
:103F70003D1D284600F0B8FA396A3846884797F858
:103F800028004007EDD5B8692044A042E2D8DAF80D
:103F90000000002800F04081002004A991C101F038
:103FA0007BFADAF8000049460022002300F03AFFCD
:103FB0000028D6D130E100BFDAF80C10CAF8106042
:103FC000CAE9021001F082FB4FE000BF65B1002298
:103FD00010E000BFB8693F610119B14279601DD995
:103FE0000AF108001FE000BFDAF80C000068B0FA20
:103FF00080F04209DAF80000A11B00F0EFFB01F0AD
:1040000065FB90BB4EF60450CEF200004FF080519D
:104010000160BFF34F8FBFF36F8F26E0311B8142EA
:1040200006D20AF10C000068294600F09BFA13E062
:10403000DAF80000002800F00D81002004A991C1E9
:1040400001F02AFADAF8000049460022002300F0C5
:10405000E9FE002800F0FE80396A3846884704E00F
:104060000AF10C02106800F07DFADAF800005946F7
:10407000002201F037F800283FF440AF0098B0F17B
:10408000FF3F06DCDDE901200399904700980028F6
:10409000EBD4029E706910B1301D00F025FA01F0DA
:1040A0000BFADAF81010074688420CD30098CAF8C9
:1040B000107009283DD9D8E76860DAF80800214671
:1040C0002D6100F04FFADAF80800016841B3C068CA
:1040D000C568D0F800802C1D204600F005FA296A3A
:1040E0002846884795F828004007ECD5A869404441
:1040F0004045E1D8DAF80000002800F08380002075
:10410000CDE90408069501F0C7F9DAF80000494640
:104110000022002300F086FE0028D4D172E000BF08
:10412000DAF80C10CAE902100098CAF810700928D1
:104130009BD8DFE800F005050557415F05055741AD
:1041400096F82800B26940F00101019886F828101D
:104150001318314641F8043FBB42366108D9874203
:104160000AF10802BFF47EAF834205D27AE700BFAE
:10417000381A9042FFF474AF316A3046884796F897
:10418000280040077FF571AFDAF8000000284DD015
:104190000198B169069608440021CDE9041001F0A8
:1041A0007BF9DAF8000049460022002300F03AFECD
:1041B00000287FF45AAF39E096F8280040F001015A
:1041C000019886F828100028B06139D0384431466B
:1041D0000AF10C0241F8040F3661B84288BF0AF1B7
:1041E00008023FE796F8280000F0FE0086F8280055
:1041F0003BE700BF96F828008107F5D4304600F071
:1042000037FA32E74FF0500080F31188BFF36F8F19
:10421000BFF34F8FFEE700BF4FF0500080F31188CF
:10422000BFF36F8FBFF34F8FFEE700BF4FF050001B
:1042300080F31188BFF36F8FBFF34F8FFEE700BF8E
:104240004FF0500080F31188BFF36F8FBFF34F8F93
:10425000FEE700BF4FF0500080F31188BFF36F8F6F
:10426000BFF34F8FFEE70000F0B581B0044600F0C9
:10427000C3F994F94560012E0FDB04F1240500BF5A
:10428000286850B1284601F0E7F9002818BF00F06F
:1042900019FBF0B2013E0128F2D8FF2684F84560F0
:1042A00000F0CEF900F0A8F994F94470012F0EDB6C
:1042B00004F11005286850B1284601F0CDF9002816
:1042C00018BF00F0FFFAF8B2013F0128F2D884F8D5
:1042D000446001B0BDE8F04000F0B2B970B50446EA
:1042E00000F0E8FB40F2B41CC2F2000CDCF8042041
:1042F00012B19CF8000020E040F61C20C2F2000041
:10430000420700F5705200F1070122F0070218BFC2
:1043100021F007000021A2F10803CCE90601CCF846
:10432000043042E90211DCF80420191AC0E9002126
:104330000120CCE902118CF800000025002C4FF080
:10434000000148BF01215AD0084058D124F007008D
:1043500000F11003600708BF04F10803DCF808004F
:10436000591E81424BD2604650F818EFDEF80450D7
:104370009D422CD2DEF80010C1B174464D689D42BA
:1043800018D20E68B6B175689D4217D23068A8B1D0
:1043900045689D4216D20468A4B165689D4215D255
:1043A0002168A6460029E9D111E000BF0CF11800F0
:1043B0000DE000BF8E46204609E000BFB646084625
:1043C00005E000BF8646304601E000BFA6469645A0
:1043D00014D00268DEF80040E91A112904604FD3B6
:1043E0000EEB0305680719D04FF0500080F31188D9
:1043F000BFF36F8FBFF34F8FFEE700BF002501F0C3
:1044000065F968075CD04FF0500080F31188BFF366
:104410006F8FBFF34F8F00BFFEE700BF0CF1180096
:104420006960CEF8043000BF0168A9420AD208686A
:10443000A8420BD20168A94204D208680B46A842E0
:10444000F2D304E00346084601E000BF0B465C6877
:1044500069681E19AE4202D121441D4659606C188C
:10446000844201D0044607E0DCF80440A04203D0B7
:10447000D0E9004008446860AB422C6018BF1D6062
:10448000DEF80400DCE9021302F10805091A99427A
:10449000CCF8081038BFCCF80C109CF8001000299C
:1044A0004FF0000118BF40F00040CEE90010DCF8EA
:1044B00010000130CCF8100001F008F96807A2D113
:1044C000284670BD034643F6AD6021F00101C0F6F9
:1044D00000004FF0807C03E903106FF00201A3F1AC
:1044E000440043E9091270470169D0E90132D1F86B
:1044F00004C09A608445536008BF4A60002202618C
:1045000008680138086008687047000044F6200316
:10451000C2F20003036044F22060C2F200000860AF
:10452000802010607047000044F67C43C2F2000314
:10453000036044F67C00C2F2000008604FF4807013
:10454000106070474FF0FF31024642F8081F00210B
:104550004260C0E903220160704700000021016150
:104560007047000010B5D1F800C01CF1010213D053
:1045700000F1080462681368634511D853681C6829
:10458000644511D85A68146864450FD85468236884
:10459000A6466345EED90BE00269D2F804E007E0D5
:1045A0009646224604E000BF9E4601E096461A4623
:1045B000C1F804E0CEF808108A6051600861016813
:1045C0000131016010BD0000D0F800C043680861EF
:1045D0009A68C1E90132516099600CF101010160F2
:1045E00070470000DFF80C00016841F470010160C1
:1045F0007047000088ED00E04FF0500080F3118814
:10460000BFF36F8FBFF34F8F40F20C00C2F2000078
:1046100001684A1C026009B1704700BF4EF60450A1
:10462000CEF200000068000608BF70474FF050004F
:1046300080F31188BFF36F8FBFF34F8FFEE7000049
:1046400040F20C00C2F20000016839B1013901608A
:1046500018BF7047002080F3118870474FF050005A
:1046600080F31188BFF36F8FBFF34F8FFEE7000019
:1046700070B5002808BF70BD40F2B414C2F2000447
:10468000217850F8042C002918BF4FF00041114246
:104690000ED0A0F108052B68A3B14FF0500080F3B5
:1046A0001188BFF36F8FBFF34F8F00BFFEE700BFCE
:1046B0004FF0500080F31188BFF36F8FBFF34F8F1F
:1046C000FEE700BF22EA010140F8041C064600F0A4
:1046D000F1F956F8040CA1680144A16004F1180135
:1046E0000B68AB420AD21968A94213D20B68AB42DD
:1046F00004D219681A46A942F2D301E00A461946C3
:104700005368D618AE420AD02B188B420DD00B46F8
:1047100012E000BF1A465368D618AE42F4D11844CE
:10472000154650602B188B42F1D16368994203D033
:10473000D1E9003108446860AA422B6018BF1560B7
:10474000606901306061BDE8704000F0BFBF0000EB
:104750004EF21000CEF2000000210160816040F2B4
:104760000801C2F20001096844F6D352C1F26202A4
:10477000A1FB02124FF0FF3101EB921141600721C2
:104780000160704744F6D84CC2F2000CDCF80030EF
:1047900003B3634653F8082FEAB1634653F8102F6A
:1047A000CAB1634653F8182FAAB1634653F8202FB5
:1047B0008AB1634653F8282F6AB1634653F8302F05
:1047C0004AB15CF8382F002A634608BFC3E90010DD
:1047D000704700BF6346C3E90010704770B51546C7
:1047E0000E460446FFF708FF94F84400FF2804BF74
:1047F000002084F8440094F84500FF2804BF0020FE
:1048000084F84500FFF71CFFA06B28B12046BDE8E7
:104810007040FFF729BD00BF04F1240031462A464D
:1048200000F092F82046BDE87040FFF71DBD000083
:1048300070B588B340F20014C2F20004616949B156
:104840004FF0500080F31188BFF36F8FBFF34F8F8D
:10485000FEE700BF6169064601316161A569216813
:1048600004310846FFF740FE2068AD19456005D3C6
:10487000206A21680431FFF775FE08E0E0692168CD
:104880000431FFF76FFEE06A854238BFE56200F051
:104890001DFF002818BF70BD4EF60450CEF2000078
:1048A0004FF080510160BFF34F8FBFF36F8F70BD2A
:1048B00040F20011C2F200018A6B02608969416016
:1048C0007047000040F20010C2F2000001210163B5
:1048D0007047000070B5D8B140F20014C2F2000475
:1048E0000D4621681831FFF73DFEA66920680430A7
:1048F000FFF7FAFD681C15D02068AD19456019D383
:10490000206A21680431BDE87040FFF72BBE00BF6C
:104910004FF0500080F31188BFF36F8FBFF34F8FBC
:10492000FEE700BF54F8500B011D2046BDE8704063
:10493000FFF74ABEE06921680431FFF713FEE06A21
:10494000854238BFE56270BDF0B581B0C0B140F2BC
:104950000014C2F200040D46216816461831FFF714
:1049600033FEA76920680430FFF7BEFD96B154F806
:10497000500B011D204601B0BDE8F040FFF724BEFA
:104980004FF0500080F31188BFF36F8FBFF34F8F4C
:10499000FEE700BF2068ED19456007D3206A216853
:1049A000043101B0BDE8F040FFF7DCBDE0692168EB
:1049B0000431FFF7D7FDE06A854238BFE56201B0F8
:1049C000F0BD000010B588B00020CDE9050006A8B4
:1049D00005A904AAFFF79AFD059800283ED0069C79
:1049E000002C45D05C21049A079107995C2949D194
:1049F00007992063022084F8590007A80021CDE917
:104A0000001043F6F940C0F6000028A100230294EC
:104A1000FFF7B6F92046FFF729F8079840F200148F
:104A2000C2F20004A062B0B100F0C8FE411C33D055
:104A3000012810D14FF0500080F31188BFF36F8F21
:104A4000BFF34F8F4FF0FF30E06201202061002064
:104A5000A06100F09DF808B010BD00BF4FF05000FD
:104A600080F31188BFF36F8FBFF34F8FFEE700BF56
:104A70004FF0500080F31188BFF36F8FBFF34F8F5B
:104A8000FEE700BF4FF0500080F31188BFF36F8F37
:104A9000BFF34F8FFEE700BF4FF0500080F3118847
:104AA000BFF36F8FBFF34F8FFEE700BF49444C4504
:104AB0000000000040F20010C2F200004169013124
:104AC0004161704780B540F2001EC2F2000EDEF870
:104AD000141019B10121CEF8301080BD0021CEF89C
:104AE0003010DEF8241040F2BC5C01EB8102C2F20F
:104AF000000C5CF82230002B0CEB82030CD05868C1
:104B0000426803F1080082425A6023D0D068CEF890
:104B10000000CEF8241080BD283B19B35A6901EB80
:104B20008100002A0CEB800226D101291AD01868D6
:104B300030BB022916D053F8140C28BB032911D01E
:104B400053F8280C04390028A3F15003E5D028338A
:104B5000D5E700BF52685A60D068CEF80000CEF8A2
:104B6000241080BD4FF0500080F31188BFF36F8F89
:104B7000BFF34F8FFEE700BFA2F114030139BEE778
:104B8000A2F128030239BAE7A2F13C030339B6E7E0
:104B9000B0B584B04EF2004CCEF2000C4CF2702155
:104BA000C4F20F11DCF800294B1C9A420AD14FF0D5
:104BB000500080F31188BFF36F8FBFF34F8F00BF9A
:104BC000FEE700BFDCF800298A4209D14FF050000F
:104BD00080F31188BFF36F8FBFF34F8FFEE700BFE5
:104BE0009CF800100291FF218CF800109CF8001036
:104BF0008DF807109DF8071001F0500240F2D41113
:104C0000C2F200010A7007224A609DF90720B2F142
:104C1000FF3F6BDC032200BFD31C4B609DF80700F5
:104C200040008DF807009DF90700B0F1FF3F24DC3C
:104C3000931C4B609DF8070040008DF807009DF91C
:104C40000700B0F1FF3F18DC531C4B609DF80700D4
:104C500040008DF807009DF90700B0F1FF3F0CDC24
:104C60004A609DF80700043A40008DF807009DF95E
:104C70000700B0F1FF3FCFDD131D032B36D14FF4FA
:104C80004070486002988CF80000DCF8200940F47D
:104C90007000CCF82009DCF8200940F07040CCF816
:104CA0002009FFF755FD40F20C04C2F20004002574
:104CB0002560FFF797FC4EF63470CEF200000168D5
:104CC00041F040410160FFF7DDF8FFF7FBFE03957F
:104CD00020684FF0500181F31188BFF36F8FBFF34D
:104CE0004F8F013012D000BFFEE700BF4FF05000E1
:104CF00080F31188BFF36F8FBFF34F8FFEE700BFC4
:104D0000039830B9039820B9039810B90398002884
:104D1000F6D0002004B0B0BD80B54FF0500080F355
:104D20001188BFF36F8FBFF34F8F00F0CBFB30B113
:104D30004EF60450CEF200004FF08051016000208A
:104D400080F3118880BD000070B582B060B1ABB156
:104D5000F1B9EAB14FF0500080F31188BFF36F8FC3
:104D6000BFF34F8FFEE700BF4FF0500080F3118874
:104D7000BFF36F8FBFF34F8FFEE700BF4FF05000C0
:104D800080F31188BFF36F8FBFF34F8FFEE700BF33
:104D900051B14AB94FF0500080F31188BFF36F8FC3
:104DA000BFF34F8FFEE700BF50250195019D502DA9
:104DB0002ED1019C069E012483F84640002908BF9D
:104DC0001A461A60C3E90F011C46FFF715FC20685C
:104DD000D4E90F12002502FB0103013901FB020196
:104DE000A563C4E90103FF20E16084F8440084F86E
:104DF000450004F11000FFF7A5FB04F12400FFF7C4
:104E0000A1FBFFF71DFC204684F84C6002B070BD8A
:104E10004FF0500080F31188BFF36F8FBFF34F8FB7
:104E2000FEE700002DE9F04F83B00292C0B11D46AD
:104E30000446F9B1022D02D1E06B01285CD116467F
:104E40000F4600F029FB18BB16B34FF0500080F35B
:104E50001188BFF36F8FBFF34F8F00BFFEE700BF16
:104E60004FF0500080F31188BFF36F8FBFF34F8F67
:104E7000FEE700BF206C0028DCD04FF0500080F32C
:104E80001188BFF36F8FBFF34F8F00BFFEE700BFE6
:104E9000FFF7B2FBA06B022D65D0E16B884262D3B5
:104EA0000298002800F018816846FFF701FDFFF71F
:104EB000C7FBFFF7FFFDFFF79FFB94F84400FF28B7
:104EC00004BF002084F8440094F84500FF2804BF84
:104ED000002084F84500FFF7B3FB684602A900F004
:104EE00021FA98B12046FFF7BFF900F0EFFB002050
:104EF00003B0BDE8F08F00BF4FF0500080F3118881
:104F0000BFF36F8FBFF34F8FFEE700BF04F11008B0
:104F1000FFF772FBD4F83890E66BFFF791FBB145D1
:104F200016D102994046FFF7D5FC2046FFF79CF9C1
:104F300000F0CCFB88B94EF60450CEF200004FF0E2
:104F400080510160BFF34F8FBFF36F8F05E000BF4B
:104F50002046FFF789F900F0B9FBFFF74DFBA06B86
:104F6000E16B884266D2A66B226CDAB139462DB36A
:104F7000E068FBF707FAE168206C2268091A9142A1
:104F8000E16003D2A16840420844E060A81EB0FA84
:104F900080F040093146002E18BF01210840361A22
:104FA00018E000BF2068A8B9A06800F00DFB002140
:104FB000B0FA80F0A16040090DE000BF6068FBF727
:104FC000E1F9D4E90101226C10448842606001D308
:104FD000206860600120711CA16354F8241FA9B1EE
:104FE000204600F039FB50B14EF60450CEF20000DE
:104FF0004FF080510160BFF34F8FBFF36F8FFFF70A
:105000001FFB012003B0BDE8F08F00BF0028F6D1E0
:105010004EF60450CEF200004FF080510160BFF315
:105020004F8FBFF36F8FFFF70BFB012003B0BDE87D
:10503000F08F00BFE94602AE0CE000BF2046FFF74C
:1050400013F900F043FBFFF7D7FAA06BE16B88423E
:10505000FFF489AF029800283ED0FFF7F1FAFFF77E
:1050600029FDFFF7C9FA94F84400FF2804BF002087
:1050700084F8440094F84500FF2804BF002084F819
:105080004500FFF7DDFA4846314600F04BF90028AD
:105090007FF428AFFFF7B0FAD4F838A0D4F83CB0CA
:1050A000FFF7CEFADA45C9D102994046FFF712FC64
:1050B0002046FFF7D9F800F009FB0028C3D14EF6CF
:1050C0000450CEF200004FF080510160BFF34F8FCB
:1050D000BFF36F8FB7E700BFFFF7B2FA002003B04E
:1050E000BDE8F08F2DE9F04F83B0029290B11546E4
:1050F0000446002948D00E4600F0CEF9A0B99DB173
:105100004FF0500080F31188BFF36F8FBFF34F8FC4
:10511000FEE700BF4FF0500080F31188BFF36F8FA0
:10512000BFF34F8FFEE700BFFFF766FAD4F838A051
:10513000BAF1000F36D0226C52B1D4E902313046B8
:105140001144E160994224BF2168E160FBF71AF93C
:10515000AAF10100A06354F8100F70B1204600F0CE
:105160007BFA50B14EF60450CEF200004FF0805161
:105170000160BFF34F8FBFF36F8F0124FFF760FA19
:10518000204603B0BDE8F08F206C0028B3D04FF06C
:10519000500080F31188BFF36F8FBFF34F8F00BFB4
:1051A000FEE700BF0298002800F0B4806846FFF7D1
:1051B0007FFBFFF745FAFFF77DFCFFF71DFA94F838
:1051C000440004F12408FF2804BF002084F84400B0
:1051D00094F84500FF2804BF002084F84500FFF73D
:1051E0002FFA684602A900F09DF878B12046FFF733
:1051F0003BF800F06BFAFFF7FFF9A56BFFF720FA19
:105200002DBB0024204603B0BDE8F08FFFF7F4F972
:10521000A56BFFF715FA2DB12046FFF725F800F032
:1052200055FA14E002994046FFF754FB2046FFF779
:105230001BF800F04BFA50B94EF60450CEF20000C5
:105240004FF080510160BFF34F8FBFF36F8FFFF7B7
:10525000D3F9D4F838A0BAF1000F7FF46CAF4FF057
:105260000009EB4602AF13E02046FEF7FDFF00F019
:105270002DFAFFF7C1F9A56BFFF7E2F9002DC0D0B9
:10528000FFF7BAF9D4F838A0BAF1000F7FF453AFA2
:10529000029800283ED0FFF7D3F9FFF70BFCFFF789
:1052A000ABF994F84400FF2808BF84F8449094F8C0
:1052B0004500FF2808BF84F84590FFF7C1F958461C
:1052C000394600F02FF80028CED1FFF795F9A56BED
:1052D000FFF7B6F935B12046FEF7C6FF00F0F6F944
:1052E000CEE700BF02994046FFF7F4FA2046FEF7EA
:1052F000BBFF00F0EBF90028C2D14EF60450CEF20D
:1053000000004FF080510160BFF34F8FBFF36F8FEC
:10531000B6E700BF0024FFF793F9204603B0BDE8CD
:10532000F08F0000B0B548B30C4689B30546FFF7CF
:1053300063F940F2001CC2F2000CDCF8183022685D
:10534000501C2FD0AE46D5E90050DCF83810A942E9
:1053500001D083422ED2181A824229D9101A206015
:10536000DCF838000024CEF80000DCF81800CEF895
:105370000400FFF765F92046B0BD00BF4FF05000B4
:1053800080F31188BFF36F8FBFF34F8FFEE700BF2D
:105390004FF0500080F31188BFF36F8FBFF34F8F32
:1053A000FEE700BF0024FFF74BF92046B0BD00BF69
:1053B000002020600124FFF743F92046B0BD000023
:1053C0002DE9F04184B007469000984615460E46F8
:1053D000FEF784FFF8B104465C20FEF77FFFB8B10A
:1053E000DDE90A210023046380F85930CDE900216A
:1053F0000446384631462A4643460294FEF7C0FC2E
:105400002046FEF733FB012004B0BDE8F08100BF69
:105410002046FFF72DF94FF0FF3004B0BDE8F081D2
:1054200070B586B00B9CCCB10C9E0EB35C25049578
:10543000049D5C2D26D1049DDDF828C0022586F848
:10544000595005AD3463CDE900C50296FEF798FCCE
:105450003046FEF70BFB059806B070BD4FF05000CC
:1054600080F31188BFF36F8FBFF34F8FFEE700BF4C
:105470004FF0500080F31188BFF36F8FBFF34F8F51
:10548000FEE700BF4FF0500080F31188BFF36F8F2D
:10549000BFF34F8FFEE7000040F20010C2F20000A1
:1054A000016900290FBF01204069B0FA80F040096E
:1054B00018BF40007047000040F20010C2F2000028
:1054C000806970472DE9F04381B040F20016C2F2C6
:1054D0000006706940B1706B002401307063204693
:1054E00001B0BDE8F08300BFB06910F10109C6F852
:1054F000189020D3F069006850B14FF0500080F34D
:105500001188BFF36F8FBFF34F8F00BFFEE700BF5F
:10551000F069316AF1613062B06B0130B063F069FB
:10552000006828B1F069C068C068406802E000BF48
:105530004FF0FF30F062F06A40F2BC588145C2F291
:10554000000801D200242EE0F0690024006813E076
:10555000F86A716A884288BF706200EB800008EBCD
:1055600080002946FFF730F8F86A3168C96AF269A5
:10557000884228BF0124106890B1F069C068C768EC
:105580003D4655F8040F81450CD32846FEF7ACFF85
:10559000B86A0028DCD007F11800FEF7A5FFD7E7AE
:1055A0004FF0FF30F0623068C06A00EB800058F8BE
:1055B0002000012888BF0124306B002818BF012477
:1055C000204601B0BDE8F08370B588B140F2001507
:1055D000C2F20005296888420CD04FF0500080F3D9
:1055E0001188BFF36F8FBFF34F8F00BFFEE700BF7F
:1055F000002070BD016D29B3013901654FF0000134
:105600001DD1C26AC36C9A4219D0041D06462046B9
:10561000FEF76AFFF06CC0F13801F062B161696AAF
:10562000884240F2BC5188BF686200EB8000C2F241
:10563000000101EB80002146FEF7C6FF012108466C
:1056400070BD00BF4FF0500080F31188BFF36F8F23
:10565000BFF34F8FFEE7000070B5C068C5686DB13D
:1056600005F118042046FEF73FFF40F20016C2F293
:105670000006706960B106F164001AE04FF0500056
:1056800080F31188BFF36F8FBFF34F8FFEE700BF2A
:105690002C1D2046FEF728FFE86A716A884240F216
:1056A000BC5188BF706200EB8000C2F2000101EBC8
:1056B00080002146FEF788FFE86A3168C96A88429F
:1056C00092BF00200120306370BD00002DE9F04141
:1056D00040F20015C2F20005686968B1FEF78CFF60
:1056E000686901386861686980B10024FEF7A8FF25
:1056F0002046BDE8F08100BF4FF0500080F31188D4
:10570000BFF36F8FBFF34F8FFEE700BFE86800283D
:10571000EBD0686E88B340F2BC56C2F200064FF080
:10572000010800BF286FC76807F11800FEF7DCFE0C
:105730003C1D2046FEF7D8FEF86A696A884288BF99
:10574000686200EB800006EB80002146FEF73CFF1C
:10575000F86A2968C96A884228BFC5F83080686E2F
:105760000028DFD1E869006820B1E869C068C06836
:10577000406801E04FF0FF30E8626C6B4CB10126ED
:10578000FFF7A0FE002818BF2E63013CF8D10020CF
:105790006863286B0028A8D04EF60450CEF20000B3
:1057A0004FF080510160BFF34F8F0124BFF36F8F23
:1057B000FEF746FF2046BDE8F081000070B586B0D8
:1057C000FEF71AFF40F27816C2F20006306808BBF6
:1057D00006F114042046FEF7B5FE06F1280528461A
:1057E000FEF7B0FE40F2CC4240F26C53C6E90245EF
:1057F0000025C2F20002C2F200030A201021009527
:10580000FFF7A2FA306028B145F60911C0F6000191
:10581000FEF7B8FFFEF714FF3068D8B10020CDE9DD
:10582000040005A804A903AAFEF77EFEDDE9032013
:105830000221059DCDE9001043F6ED60C0F60000A1
:1058400009A100230295FFF7EBFD706010B1012064
:1058500006B070BD4FF0500080F31188BFF36F8F1A
:10586000BFF34F8FFEE700BF546D72205376630085
:10587000F1EE100A4FF6FF71C0F2C03120EA0100CC
:1058800040F04070E1EE100A704700000000000098
:1058900000000102030406070809000000000102DD
:1058A000030400061016000610160000FF5800083A
:1058B00000000000000000000000000000000000E8
:1058C00000040000100000000000000000000000C4
:1058D000F458000800000000000000000000000074
:1058E0000000000000040000200000000000000094
:1058F0000000000072656D6F74655461736B006425
:10590000656275675461736B00546D7251000000DD
:10591000305900080000002010000000EC010008D1
:105920004059000810000020085300000C02000835
:1059300001000000100000000024F400AAAAAAAA96
:040000050800018965
:00000001FF
