:020000040800F2
:1000000070070020890100081D1F00083D18000826
:100010007D1E00088F020008E31F0008000000009A
:100020000000000000000000000000007D1F00082C
:1000300019040008000000001F1F00087F1F0008AF
:10004000A3010008A3010008A3010008A301000800
:10005000A3010008A3010008A3010008A3010008F0
:10006000A3010008A3010008A3010008A3010008E0
:10007000A3010008A3010008910200089D020008E6
:10008000A3010008A3010008A3010008A3010008C0
:10009000A3010008A3010008A3010008A3010008B0
:1000A000A3010008A3010008A3010008A3010008A0
:1000B000A3010008A3010008A3010008A301000890
:1000C000A3010008A3010008A3010008A301000880
:1000D000A3010008A3010008A3010008A301000870
:1000E000A3010008A3010008A301000800F002F822
:1000F00000F03AF80AA090E8000C82448344AAF188
:100100000107DA4501D100F02FF8AFF2090EBAE885
:100110000F0013F0010F18BFFB1A43F0010318473B
:100120002024000040240000103A24BF78C878C181
:10013000FAD8520724BF30C830C144BF04680C60ED
:10014000704700000023002400250026103A28BF35
:1001500078C1FBD8520728BF30C148BF0B60704739
:100160001FB51FBD10B510BD00F058F81146FFF7C0
:10017000F7FF01F047FF00F076F803B4FFF7F2FF56
:1001800003BC00F07DF8000009488047094800479B
:10019000FEE7FEE7FEE7FEE7FEE7FEE7FEE7FEE737
:1001A000FEE7FEE704480549054A064B7047000094
:1001B000E11F0008ED00000870010020700700201A
:1001C00070030020700300204FF0000200B51346BA
:1001D00094469646203922BFA0E80C50A0E80C5067
:1001E000B1F12001BFF4F7AF090728BFA0E80C5018
:1001F00048BF0CC05DF804EB890028BF40F8042B11
:1002000008BF704748BF20F8022B11F0804F18BF7D
:1002100000F8012B7047704770477047754600F033
:100220002BF8AE4605006946534620F00700854688
:1002300018B020B5FFF7B6FFBDE820404FF000062C
:100240004FF000074FF000084FF0000B21F00701BE
:10025000AC46ACE8C009ACE8C009ACE8C009ACE801
:10026000C0098D46704710B50446AFF300802046A4
:10027000BDE81040FFF781BF004870470C01002027
:1002800001491820ABBEFEE7260002007047FEE7DA
:10029000014800F011B9000084000020014800F07E
:1002A0000BB90000C800002030B590F84050012480
:1002B000AC40C56B6C60046863604368102B0368D6
:1002C00003D099600068C26030BD9A600068C16068
:1002D00030BD00002DE9F041040009D018484178F4
:1002E00041B100214170817831B18078BDE8F08161
:1002F0000120FBE70220F9E71148124DC01C0088DD
:1003000041BA01EB8100801CC0F38F002180608026
:1003100098B142F21071884201D30B4D0DE00B4EA3
:100320000B4F01F0A3FF394601F0B4FF314601F055
:10033000DBFE294601F076FE054600206560D5E724
:10034000000000200000A0400000A04100401C462A
:100350000000704138B568B31D49002288600A70FA
:100360004A7001228A7014230222822100F090FB3D
:10037000002820D14FF4004101F0EAFD00281AD1F5
:10038000022000F0A9F96946FE2001F0C9FD88B9F4
:10039000BDF80000A0F5A84149390BD16946FF20FE
:1003A00001F0BEFD30B9BDF8000040F22621B1EBEE
:1003B000101F01D0012038BD44F22651002001F069
:1003C000C7FD040002D1142000F086F9204638BD94
:1003D000000000201CB50F4CA06810B1217821B995
:1003E00001E001201CBD617809B102201CBD012182
:1003F00021700222A27007490123C91CCDE9001215
:10040000822100F03BFD0028F0D000212170A07077
:100410001CBD000000000020704772B6FEE700001F
:1004200010B590F821100024022903D00421816323
:1004300001243DE001680A6822F00E020A600168AA
:100440000A6822F001020A601A4A0168914201D149
:10045000012121E0174A1432914201D110211BE001
:10046000144A2832914201D1891515E0114A3C32D3
:10047000914201D189140FE00E4A5032914202D1CB
:100480004FF4803108E00B4A6432914202D14FF4BC
:10049000801101E04FF08071064A083A5160012155
:1004A00080F82110002180F82010416B01B18847AD
:1004B000204610BD080002402DE9F05FC16B0C68BA
:1004C00001680B68D0F840C0042202FA0CF2494DD2
:1004D000DFF824A1494E4A4FDFF828B1DFF828E1C0
:1004E00022422CD05A072AD50A68920603D40A68F9
:1004F00022F004020A600168A94201D1042219E035
:10050000514501D1402215E0B14202D14FF4806241
:1005100010E0B94202D14FF480420BE0594502D1BC
:100520004FF4802206E0714502D14FF4800201E0D1
:100530004FF080622F4908394A60C16A3BE04FF0B2
:10054000020808FA0CF818EA040F4FF000094FF0FF
:10055000010235D05FEA837832D50B689B0605D45B
:100560000B6823F00A030B6080F821200168A94280
:1005700001D1022219E0514501D1202215E0B142FA
:1005800002D14FF4007210E0B94202D14FF4005290
:100590000BE0594502D14FF4003206E0714502D11B
:1005A0004FF4001201E04FF00072124908394A601E
:1005B00080F82090816A00291AD0BDE8F05F0847D2
:1005C000082505FA0CF5254212D01B0710D50B683B
:1005D00023F00E030B6090F84010C36B02FA01F198
:1005E0005960826380F8212080F82090016BE2E757
:1005F000BDE8F09F080002401C00024030000240AD
:1006000044000240580002406C00024030B528B35C
:1006100008C8134914221944B1FBF2F18900C163DF
:1006200010498163022141771A6843F6F0718A43C9
:10063000D0E900142143D0E902452C432143046949
:1006400021434469214384692143114319600021F6
:100650004163012242770177084630BD012030BD59
:10066000F8FFFDBF0000024070B5044690F820007E
:10067000002501280CD0012084F8200094F8216086
:100680000020012E06D084F820000225284670BDE7
:10069000022070BD022684F82160A06320680668ED
:1006A00026F0010606602046FFF7FEFDE06A0028FE
:1006B0002068016802D041F00E0106E021F004013B
:1006C00001602068016841F00A010160206801684A
:1006D00041F001010160D9E770B5044600F0FEF871
:1006E0000546601C02D004480078044400F0F6F887
:1006F000401BA042FAD370BD200000202DE9F84F26
:10070000DFF8B8910024A9F1040B23460F2709F163
:10071000040AABF1040EC9E00125A5402A40AA4213
:100720007DD1674ED1F804C0ACEB0608B44532D099
:1007300014DCBCF1030F3AD009DCBCF1000F2AD065
:10074000BCF1010F1CD0BCF1020F31D11DE0BCF196
:10075000110F17D0BCF1120F2AD119E0B8F5881F7C
:1007600019D006DCB8F5803F15D0B8F5801F1FD131
:1007700011E0B8F5001F0ED0B8F5041F18D10AE03B
:10078000CB6815E0CB681B1D12E0CB6808330FE087
:10079000CB680C330CE08B682BB1012B4FF00803B6
:1007A00003D0456104E0042302E0056100E000237A
:1007B000FF2A01D8064601E000F104064FEA84054D
:1007C00001D9A5F12005D6F8008007FA05FC28EA32
:1007D0000C0803FA05F548EA0508C6F800804D68DC
:1007E000ED0062D5374DAE6946F00106AE61AD69E8
:1007F00024F0030605F001050095334D06EB050CCA
:10080000DCF80850A607360F07FA06F825EA0805AF
:10081000DFF8B880404503D14FF0000817E044E00E
:10082000DFF8AC80404502D14FF001080FE0DFF85F
:10083000A480404502D14FF0020808E0DFF898801C
:10084000404502D14FF0030801E04FF0040808FAD8
:1008500006F848EA0508CCF808804D68D9F8006029
:10086000ED024D4601D5164300E096432E604D68DB
:10087000DAF80060AD02554601D5164300E0964314
:100880002E604D68DBF80060AD035D4601D5164370
:1008900000E096432E604D68DEF80060ED0375467B
:1008A00001D5164300E096432E60641C0D682A466D
:1008B000E5407FF431AFBDE8F88F00000804014047
:1008C000000011100010024000000140000801402B
:1008D000000C0140001001400014014001488068F4
:1008E000704700002000002006498A68904207D126
:1008F0000878002804D00120887000220A7048700F
:10090000704700000000002070B5040025D094F866
:100910003D00002520B984F83C50204600F028FC1A
:10092000242084F83D002068016821F00101016065
:100930002068016841F4004101602068016821F4E9
:100940000041016000F0A0FD4D4A6168914201D86C
:100950004C4900E04C49884201D2012070BD4B490E
:100960002368B0FBF1F15E6826F03F060E435E603F
:100970006368934206D94FF4967359434FF47A73E0
:10098000B1FBF3F12368491C1E6A26F03F06314390
:1009900019626168914210D84900401EB0FBF1F223
:1009A000521CC2F30B02042A01D2042022E0B0FB45
:1009B000F1F0401CC0F30B001CE0A268F2B301EBA5
:1009C000C10303EB0116431EB3FBF6F35B1C43F4B8
:1009D00080431B0549D092B301EBC10202EB011128
:1009E000401EB0FBF1F0401CC0F30B0040F480400F
:1009F00040F400402168CA694CF6FF739A431043E3
:100A0000C861D4E9071001432068026822F0C002DF
:100A100011430160D4E9030101432068826848F270
:100A2000FF339A4311438160D4E9050108432168EB
:100A3000CA6822F0FF021043C86001E00EE016E031
:100A40002068016841F0010101602564202084F8DC
:100A50003D00256384F83E50002070BD01EB410647
:100A6000431EB3FBF6F35B1CB3E70120C2E701EBC7
:100A70004101401EB0FBF1F0401CC0F30B00B7E792
:100A8000A086010080841E0000093D0040420F0046
:100A90002DE9FF4F81B089460446FFF71FFF054649
:100AA00094F83D004FF0000820287DD11923012241
:100AB00050492046009501F07BF8002874D194F845
:100AC0003C00012870D0012084F83C0020680168B7
:100AD000C90703D1016841F0010101602068016884
:100AE00021F400610160242084F83D000026266482
:100AF0004148E0624FF0011B20272068016841F463
:100B0000807101600095002259462046049B01F047
:100B10004FF850B120680068C00502D54FF400704E
:100B20002064032005B0BDE8F08F216809F0FE00C5
:100B30000861FFF7D3FE2168054648694969C0F39B
:100B40004000C1F380214FF0A00A0FE0FFF7C6FE7E
:100B5000411B0498814200D808B984F83DA021685F
:100B600048694969C0F34000C1F3802194F83D20F1
:100B7000A02A02D008B90029E8D084F83D70206886
:100B80004169C943890716D4016841F400710160C5
:100B90002068416980691923012216492046009581
:100BA00001F006F8B8B900E021E084F83D7084F85F
:100BB0003C600020B6E7016841F4007101602168E3
:100BC0006FF480604861192301220A49204600958C
:100BD00000F0EEFF08B10120A4E7039808F1010836
:100BE00080458AD384F83D7084F83C60F3E70220A6
:100BF00098E70000020010000000FFFF70470000AF
:100C000006498A68904207D10878002804D000205D
:100C100088700870012048707047000000000020B4
:100C20002DE9FF4F83B00025DDE910799A46934600
:100C30000446DDF848800095FFF750FE064694F81C
:100C40003D0020287CD119230122884920460096A6
:100C500000F0AEFF0028F5D194F83C0001286FD0D9
:100C6000012084F83C0020680168C90703D10168AD
:100C700041F0010101602068016821F40061016018
:100C8000222084F83D00402084F83E0025646762FD
:100C9000A4F82A90608D20857548E062CDE9008631
:100CA00053465A462046049900F084FE00287CD121
:100CB000208DDFF8C091202768B1012814D00228C8
:100CC000206801681ED041F480610160206841699C
:100CD00080690090BCE020684169816900910168E9
:100CE00041F400710160B3E02068016821F4806183
:100CF000016072B62068416981690091016841F420
:100D000000710AE041F40061016072B62068416937
:100D100081690091016821F48061016062B697E009
:100D2000032865D801280CD0022843464FF0000262
:100D30004946204600960BD000F03AFFA8BB0CE0D5
:100D400091E032464146204600F0D8FF68BB72E091
:100D500000F02EFF48BB72B633E02068016821F432
:100D60008061016072B620680069616A0870606A1B
:100D7000401C6062208D401E2085608D401E608575
:100D80003D4846F2A8110068B0FBF1F0C0EBC0008E
:100D900000EB80000090401E009007D02068406962
:100DA000C04340070DD50098F5E727E044F8305FD1
:100DB0006773A573206940F02000206162B6257337
:100DC0001CE02068016841F400710160206800693E
:100DD000616A0870606A401C6062218D491E21852D
:100DE000618D491E618562B621680969017026E03E
:100DF00032464146204600F081FF18B1012007B07D
:100E0000BDE8F08F20680069616A0870606A401C64
:100E10006062208D401E81B22185608D401E6085FC
:100E200020684269D243520712D4032903D10168D2
:100E300021F48061016020680069616A0870606A5D
:100E4000401C6062208D401E2085608D401E6085A4
:100E5000208D00287FF464AF84F83D7084F83E5004
:100E600084F83C50CBE70220C9E7000002001000E4
:100E70000000FFFF040001002C0000202DE9FC5FB2
:100E8000994692468B460446DDF83080FFF726FDF2
:100E900000250646009594F83D00202828D1644896
:100EA00046F2A81120270068B0FBF1F000EBC0016A
:100EB00001EB001000900098401E009010D02068B8
:100EC0008069C0438007F6D594F83C0001280FD014
:100ED000012084F83C0020680168C9070BD00EE0AF
:100EE00044F8305F6773A573206940F020002061EB
:100EF0000220BDE8FC9F016841F00101016020680B
:100F0000016821F400610160222084F83D00402046
:100F100084F83E002564C4F824800D986085608DB7
:100F200020854448E062C4F844B0C4F848A0C4F83E
:100F30004C902565208D4FF0230800285FD0A06BD2
:100F4000E0B13D498162A16B3C480863A06BC5627A
:100F5000A06B45632168238D1031626AA06BFFF797
:100F600083FBA0B184F83D7084F83E5054F8400FE4
:100F700040F0100044F80409257049E084F83D7001
:100F800084F83E5054F8400F40F08000F2E7CDE97D
:100F900000864B4652465946204600F00BFD88B16C
:100FA000A06BFFF73DFAA06B85622068016821F411
:100FB00080610160258565852068016821F0010157
:100FC000016025E0208D0128206813D0416841F49C
:100FD00080514160206841698169009184F83C50EA
:100FE000416841F4807141602068416841F40061CA
:100FF00041601BE0016821F480610160EAE7CDE90E
:1010000000864B4652465946204600F0D3FC08B1B4
:1010100001206EE72068416981690091016841F40F
:101020000071016084F83D7084F83C50002060E756
:101030002C0000200000FFFF751800083F18000872
:101040002DE9FF4F83B09A46DDE911979346044698
:10105000DDF84080FFF742FC054694F83D0020286B
:101060007FD11923012240492046009500F0A0FDC0
:10107000002876D194F83C00012872D0012084F831
:101080003C0020680168C90703D1016841F00101F3
:1010900001602068016821F400610160212084F86A
:1010A0003D00402084F83E0000262664C4F82480D9
:1010B000A4F82A90608D20852C48E062CDE9007567
:1010C00053465A462046049900F0F2FC70B930E0CD
:1010D0002A463946204600F049FE58B1206C0428C3
:1010E00004D12068016841F400710160012007B05B
:1010F000BDE8F08F606A216800780861606A401C72
:101100006062218D491E89B22185628D521E6285E1
:1011100022685369DB435B070BD469B10078106127
:10112000606A401C6062208D401E2085608D401EDC
:101130006085208D0028CBD12A463946204600F014
:101140000BFD0028CAD154F83D0B016841F4007131
:101150000160202004F81E09E67766770020C6E7C4
:10116000FFE70220C3E70000020010000000FFFFBD
:10117000F0B585B0002406460094019402940394CF
:1011800000682449884242D1234DA86940F00800F4
:10119000A861A869694600F0080004904FF4406017
:1011A000009012200190032003901C48FFF7A6FA3C
:1011B000E86940F48000E861E8691A4D00F48000B5
:1011C00004901748802701C5102091C5154845F89F
:1011D00010496C61AC61EC61FFF718FA08B1FFF7D8
:1011E0001CF975636E620F4D0D4844351430C5E926
:1011F0000004C5E902472C616C61AC612846EC61D2
:10120000FFF704FA08B1FFF708F9B5636E6205B09D
:10121000F0BD00000058004000100240000C0140EA
:1012200044000240840000207047704702488168F3
:10123000027811448160704720000020074810B5F3
:10124000016841F010010160032000F075F80F20E3
:1012500000F006F800F024F8002010BD0020024045
:1012600070B50D4D04464FF47A712878B1FBF0F05B
:101270000A490968B1FBF0F000F0CCFA48B9102C2B
:1012800007D200222146501E00F036F800206C6084
:1012900070BD012070BD0000200000202C00002047
:1012A0000C4808B5816941F001018161816901F053
:1012B00001010091C16941F08051C161C06900F034
:1012C000805000900448416821F0E06141F00071D5
:1012D000416008BD0010024000000140002809DB09
:1012E00000F01F02012191404009800000F1E02040
:1012F000C0F8001170470000F0B40E4B1B680C469C
:10130000C3F30223C3F10705042D00D90425191DD9
:10131000072901D2002300E0DB1E012606FA05F1B1
:10132000491E214099409E40761E16403143F0BC34
:1013300000F058BE0CED00E0064900F00702086816
:101340004FF6FF03184040EA0220034A10430860AA
:10135000704700000CED00E00000FA052DE9F047B1
:101360000F46050061D0434E306800F00700B842D8
:1013700009D2306820F0070038433060306800F050
:101380000700B84251D128683B4C810712D540076D
:1013900003D5606840F4E06060602878000703D5FA
:1013A000606840F4605060606068A96820F0F000F8
:1013B000084360602878C00728D06868012810D0EA
:1013C0002168022810D0890700292EDA616821F0EF
:1013D000030101436160FFF781FA804641F28839D9
:1013E0000DE021688903EFE78901EDE7FFF776FA61
:1013F000A0EB0801494502D90320BDE8F0876068E9
:10140000696800F00C00B0EB810FEFD1306800F09C
:101410000700B8420BD9306820F00700384330602D
:10142000306800F00700B84201D00120E5E72878D5
:10143000400705D56068E96820F4E0600843606013
:101440002878000706D56068296920F4605040EAD2
:10145000C100606000F028F86168084AC1F3031118
:10146000515CC8400649086006480068FFF7F8FE6E
:101470000020C2E70020024000100240282500089A
:101480002C00002024000020044805490068496819
:10149000044AC1F30221515CC84070472C0000206F
:1014A00000100240382500080E4A51680E4801F02D
:1014B0000C03042B11D0082B0FD10C48C1F383432C
:1014C000C903C05C0AD55168084AC1F34041921E65
:1014D000515C054A5043B0FBF1F070470449484362
:1014E000704700000010024000127A001825000822
:1014F00000093D002DE9F84F040070D02078C04D60
:10150000C00749D06868C0F38100012807D0686827
:10151000C0F38100022809D16868C00306D5286895
:10152000800339D560680028E7D035E06068B0F501
:10153000803F0BD010B1B0F5A02F11D0286820F457
:1015400080302860286820F4802002E0286840F479
:1015500080302860606890B1FFF7C0F906460AE065
:10156000286840F480202860F0E700BFFFF7B6F954
:10157000801B642873D828688003F7D50CE0FFF738
:10158000ADF9064605E000BFFFF7A8F9801B642807
:10159000F0D828688003F7D420789A4E80074FF05F
:1015A00001094FF0000839D5686810F00C0F07D01A
:1015B0006868C0F38100022809D16868C00306D4B6
:1015C0002868800714D52069012808D110E0206917
:1015D000B0B1C6F80090FFF781F9074605E00AE1CF
:1015E000FFF77CF9C01B0228C4D828688007F7D50C
:1015F0002868616920F0F80040EAC10028600DE029
:10160000C6F80080FFF76AF9074604E0FFF766F9BD
:10161000C01B022823D828688007F7D42078000749
:101620002CD57948A169D9B1C0F80090FFF756F9D7
:10163000074604E0FFF752F9C01B02280FD8686A7A
:101640008007F7D571484FF4FA510068B0FBF1F00C
:10165000009000BF0098411E0091FAD20EE080E099
:10166000C0F80080FFF73AF9074604E0FFF736F9C3
:10167000C01B022875D8686A8007F7D42078400715
:1016800060D5E8690027C00008D4E86940F08050C0
:10169000E861E869012700F0805000905C4801682B
:1016A000C90513D40168834641F480710160FFF7D6
:1016B00015F9824606E000BFFFF710F9A0EB0A001B
:1016C00064284ED8DBF80000C005F5D5E068012895
:1016D0000AD008B1052813D0286A20F0010028623A
:1016E000286A20F0040002E0286A40F00100286225
:1016F000E06841F2883B98B1FFF7F0F882460BE0D2
:10170000286A40F004002862EEE700BFFFF7E6F821
:10171000A0EB0A0159455AD8286A8007F6D50CE093
:10172000FFF7DCF8824605E0FFF7D8F8A0EB0A01E6
:1017300059454CD8286A8007F6D41FB1E86920F0D3
:101740008050E861E06988B36968C1F381010229CA
:1017500044D00228C6F8608004D0FFF7BFF80446E2
:1017600038E034E0FFF7BAF8074604E0FFF7B6F8D0
:10177000C01B02282BD828688001F7D4206AB0F556
:10178000803F05D16868A16820F400300843686094
:10179000D4E908010843696821F4741108436860BA
:1017A000C6F86090FFF79AF8044606E025E000BF0F
:1017B000FFF794F8001B022809D828688001F7D5A4
:1017C0001BE000BFFFF78AF8001B022802D90320A4
:1017D000BDE8F88F28688001F4D40EE00128F7D026
:1017E0006868226A00F48031914204D1616A00F491
:1017F0007010884201D00120EAE70020E8E70000ED
:101800000010024000004242800442422C000020AE
:101810000070004010B5401EB0F1807F01D3012060
:1018200010BD4FF0E02460610F21601700F0DAFB7B
:101830000020A06107202061002010BDFEE710B548
:10184000406A0021426B02B19162826B02B19162E7
:101850000268136823F4806313604185202280F8B6
:101860003D2080F83E10016C41F010010164FFF74B
:101870003BF810BD2DE9F041446A94F83D2094F8FE
:101880003E50E16A2068436823F440734360636B11
:10189000002003B19862A36B03B19862212333EA5D
:1018A00002074FF022060CD036EA020701D1202DA4
:1018B00007D094F83E20002A21D0628D012A20D042
:1018C00024E021684D6825F400654D60608528207E
:1018D000292A02D02A2A07D00CE0236384F83D008D
:1018E0002046FFF7A2FC05E0266384F83D00204671
:1018F000FFF79AFC2068416841F440714160BDE8FF
:10190000F0812268136823F48063136022685368AF
:1019100023F44073536011F5803F06D0082904D0AA
:10192000B1F12A4F01D0202904D12268136843F471
:10193000007313602268536823F480535360226855
:10194000536823F4006353606085226C1AB120460B
:10195000FEF7CAFFD3E7202284F83D2094F83E200A
:1019600084F83E00402A09D0082902D0202900D05E
:10197000122020632046FFF741F9C0E7206320468C
:10198000FFF73EF9BBE701684A69D24352050FD41D
:101990006FF480624A61002140F8301F20224273B8
:1019A0008173026942F004020261017301207047F1
:1019B000002070472DE9F84F0446006889460B9DCA
:1019C00001689846174641F480610160206801680B
:1019D00041F48071016000954FF0011B00225946CF
:1019E00020460A9B00F0E4F84FF4007A40B12068EA
:1019F0000068C00501D5C4F840A00320BDE8F88FF9
:101A0000216809F0FE0008612B46284920460A9A01
:101A100000F016F9F0BB20684169806900902A4601
:101A200020460A9900F0A2F940B1206C04283AD16E
:101A30002068016841F40071016034E0FEB2B8F141
:101A4000010F09D02168380A08612A4620460A9900
:101A500000F08CF90028E8D1206806612A4620466B
:101A60000A9900F083F90028DFD12068016841F469
:101A70008071016000950022594620460A9B00F0C3
:101A800097F80028B3D1216809F0FF0040F0010069
:101A9000086100E007E02B46044920460A9A00F05E
:101AA000CFF80028AAD00120A8E70000020001001A
:101AB0002DE9F843044600680D46DDE90897016802
:101AC0009846164641F4807101604B4600224FF063
:101AD00001112046009700F06BF848B120680068BB
:101AE000C00502D54FF4007020640320BDE8F883E0
:101AF000216805F0FE0008613B464A46154920462C
:101B000000F09EF888B920684169806900903A46E3
:101B10004946204600F02AF948B1206C042804D137
:101B20002068016841F4007101600120DEE7F5B230
:101B3000B8F1010F09D02168300A08613A464946D8
:101B4000204600F013F90028E7D120680561002045
:101B5000CCE700000200010070B516460D460446B1
:101B60001EE02046FFF70FFF08B1012070BD681C82
:101B700016D0FEF7B3FE801BA84200D885B92068B6
:101B80004069C04340070BD5002044F8300F2021A6
:101B90006173A073216941F0200121612073E4E7A2
:101BA00020684069C0434007DBD4002070BD0000BE
:101BB0002DE9F047984617460D460446C1F30746FF
:101BC000DDF820902AE000BFB8F1FF3F26D0FEF7F5
:101BD00085FEA0EB0901414502D8B8F1000F1DD1E7
:101BE0002068012E16D0806925EA00000004000C50
:101BF00012D00020B84211D1002044F8300F20212B
:101C00006173A073216941F02001216120730120DB
:101C1000BDE8F0874069E7E70120EBE72068012E87
:101C20000AD0806925EA00000004000C06D00020DC
:101C3000B842C9D00020EBE74069F3E70120F7E79D
:101C40002DE9F047984616460D4604464FF0000928
:101C50004FF0200AC1F3074723E020684069C043E2
:101C6000400515D42068016841F4007101602168C5
:101C70006FF480604861C4F8309084F83DA084F827
:101C80003E90216C41F00401216484F83C9021E0F5
:101C9000701C06D0FEF722FEA0EB0800B04203D86D
:101CA00016B1012F1FD021E02068012F15D08069C7
:101CB00025EA00000004000C18D000BF44F8309F53
:101CC00084F80DA084F80E90216941F02001216173
:101CD00084F80C900120BDE8F087406925EA0000F7
:101CE0000004000CEAD12068406901E020688069A6
:101CF00025EA00000004000CAFD1ECE72DE9F0412B
:101D0000002590460E460446202728E04069C0433F
:101D1000C0060CD454F8301B6FF01000486144F832
:101D200010596777A577206A2062257714E0FEF7BF
:101D3000D5FDA0EB0800B04200D886B92068406904
:101D4000C04340060BD544F8305F6773A573206924
:101D500040F02000206125730120BDE8F08120685B
:101D60004169C9434906D1D40020F6E770B516464B
:101D70000D4604461EE02046FFF705FE08B101208F
:101D800070BD681C16D0FEF7A9FD801BA84200D8C4
:101D900085B920684069C04300060BD5002044F88F
:101DA000300F20216173A073216941F0200121616E
:101DB0002073E4E720684069C0430006DBD40020BC
:101DC00070BD00000D4808B5416941F00101416155
:101DD0004069002200F00100009011460E20FFF73C
:101DE0008BFA0E20FFF77AFA002211460F20FFF738
:101DF00083FABDE808400F20FFF770BA00100240D8
:101E00000D4808B5816941F020018161816901F0C7
:101E100020010091816941F008018161816901F02F
:101E200008010091816941F004018161806900F03D
:101E30000400009008BD0000001002400D4810B5DD
:101E40000B4901600C49416000214FF480428160E0
:101E5000C0E9031241618161C1610162FEF754FD75
:101E6000002803D0BDE81040FEF7D7BA10BD00002F
:101E70000058004030000020A0860100FEE700006E
:101E800010B50648FEF766FA054C2070FEF726FDF1
:101E90006060A0600020607010BD00003000002075
:101EA0000C0000207CB5FEF719FD1A4C05460026F3
:101EB000607878B16846FEF70DFA2070022802D0EB
:101EC000667010B120E026707CBDDDE90001C4E938
:101ED00003017CBD207870B1A068281AB0F57A7F24
:101EE000F7D30D48A560FEF735FA2070FEF7F6FC33
:101EF000606066707CBD6068281A3228FAD365601D
:101F0000FEF768FA207008B1A5607CBD0120607002
:101F10007CBD00000C00002030000020FEE7704770
:101F20001FB50C461423022203A98DE80E000246B9
:101F30000648012382218068FEF772FE002803D143
:101F4000BDF80C1049BA218004B010BD000000207B
:101F50001FB50A0A8DF80C208DF80D1014230222EB
:101F600003A98DE80E000246034801238221806800
:101F7000FFF766F804B010BD000000207047FFF7BF
:101F800055B930B58FB028216846FEF71DF91421E8
:101F90000AA8FEF719F901210804CDE90010002470
:101FA000029402250491CDE907504FF4E010099006
:101FB0006846FFF79FFA08B172B6FEE70F20CDE939
:101FC0000A054FF48060CDE90C4002210AA80E9466
:101FD000FFF7C4F9002801D072B6FEE70FB030BD9C
:101FE0007047FEE70907090E002804DB00F1E02036
:101FF00080F80014704700F00F0000F1E02080F836
:10200000141D7047FFF71AF9FFF7BBFFFFF7F8FE43
:10201000FFF7D8FEFFF712FFFFF732FFFFF742FF8F
:10202000FCE7000090EA010F48BF81F0004100F199
:102030000482421A3CBF801A89184FEAD0524FF0EE
:102040007F4C1CEA410FA2EBD15318BF9CEA026FF0
:1020500000F03B804FF0004C4CEA00204CEA01219C
:1020600021FA03FC10EB0C0C1ED202F1FF325FEAE6
:102070001C2040EBC25038BF70471CF07F0F4FEA66
:10208000400C18BFBCF17F4F38BF7047C3F120032D
:10209000994008BF20F00100BCF17F4F38BF704766
:1020A000A0F1C04000F0BDB94FEA3C00000A40EB8F
:1020B000C25028BF1CF0FF0F4FEA400CE6D018BFFB
:1020C000BCF17F4F38BF7047EAE79CEA026F05D04A
:1020D00010EA5C0F08BF00F00040704710B500F038
:1020E0005AF900BF64FBBE3E4FF47F0C1CEAD012CD
:1020F0001EBF1CEAD11392EA0C0F93EA0C0F00F0FA
:10210000858090EA010F48BF42F4807240F4000CD1
:1021100041F400002CF07F4120F07F4000B5814267
:10212000A2EB03020FF2081CACEB504EC0F1000012
:102130009EF800E04FEA4E0E00FB0EFC38BF49004F
:102140004FEA2C1C02F5FA020CFB0EF34FEACE1EEE
:102150004FEA112C4FEAC1210EEB635E42EB2242A3
:102160000EFB0CFC4FEA1C5300FB03114FEA112C31
:102170004FEA01310EFB0CFC4FEADC4C00FB0C116A
:10218000C14228BF09184CEB03335DF804EB10EB98
:10219000410143EBC250B2F57C0F38BF704729D5DF
:1021A00012F0F00F1CBF00F1C04000F0004070477B
:1021B000008182838485868788898B8C8D8E8F9120
:1021C0009293959697999A9C9D9FA0A2A3A5A7A844
:1021D000AAACAEB0B2B3B5B7B9BCBEC0C2C5C7C970
:1021E000CCCED1D4D7D9DCDFE2E6E9ECF0F3F7FAD4
:1021F000FE0000004FEA400C0CF1807CBCF17E4FE9
:1022000028BF7047B0F1C04000F00BB990EA010F51
:102210000CEAD11348BF42F48072624538BF63456F
:1022200007D213F47F0F16D080EA010000F00040BF
:10223000704710B500F0AFF8097EFC3E00F005B81D
:1022400080EA010000F00040704780EA010000F0E1
:10225000004000F0E6B812F47F0F04BF0248704758
:1022600080EA010000F0DDB80000C07FB0FA80F322
:1022700010FA03F2C3F19D030AD0D90501EB122035
:10228000530638BF704700F1010008BF20F001007D
:10229000704700004FF47F0C1CEAD0121EBF1CEAEE
:1022A000D11392EA0C0F93EA0C0F00F0478090EAEA
:1022B000010F48BF42F480724FF0004C4CEA0020FE
:1022C0004CEA012102EB0302A0FB0113A2F500027C
:1022D000002918BF43F001035B0028BF4FEA330316
:1022E00042EB22425FEA132C4CEBC2502EBFBCEBF8
:1022F000436FB2F57C0F70474FEA036CBCF1004F9F
:1023000008BF20F00100B2F57C0F38BF70470BD535
:1023100082F0FF0212F5803FC8BF704700F1C04055
:10232000D8BF00F00040704700F5000C5FEA4C0C8D
:1023300048BF7047B0F1C04000F073B890EA010F99
:102340000CEAD11348BF42F48072624538BF63453E
:1023500004D280EA010000F00040704710B500F0A0
:102360001AF800BF8900013E00F007B800F009B874
:102370005FEA410C5FEA1C6C08D080EA010000F0C3
:1023800050B85FEA400C5FEA1C6CF6D14FF0004099
:10239000A0F5800070470EF1020E2EF0030E5EF8DD
:1023A000044B244204D44FEA4102B2F17F4F11D8CA
:1023B0004FEA4003B3F17F4F0CD80ED14FEAD07CE7
:1023C000B2F17F4F0CEB4C0C0CF1020C08BF4CEB44
:1023D000D17C04E04FF0080C01E04FEAD17C0CEB1B
:1023E0004C0324FA03F404F00704B4F1040C06D2FD
:1023F0000EEB840CBDE810404CF0010C6047DFE8A8
:102400000CF0070802024FF00040A0F5800010BD5C
:102410000846420018BFD2F1807288BF00F0004029
:1024200010BDFF2141EAD050C005704790EA010F6E
:1024300048BF81F000413FF5FCAD421A04D882F05C
:102440000042A0EB020011444FEAD0524FF07F4C03
:102450001CEA410FA2EBD15318BF9CEA026F4AD08D
:102460004FF0004C4CEA00204CEA012121FA03FC19
:10247000B0EB0C0C0FD412F0FE0F36D05FEA4C001C
:102480001DD5001240EBC25038BF70471CF03F0F03
:1024900018BF70470BE0A2F101025FEA1C2040EB7D
:1024A000C25038BF70471CF07F0F18BF7047C3F190
:1024B0002003994014BF401E20F00100704780089F
:1024C0004FEA122308BF7047B0FA80FCA2EB0C025F
:1024D000CCF1280C60FA0CF093EA122F04BF00EB49
:1024E000C25070474FEAC3707047130A5FEADC10AE
:1024F00008BF7047F6E79CEA026F04D010EA5C0F51
:1025000008BF0020704710B5FFF745FF40DFF63EDB
:1025100081F0004070470102020304050607080924
:102520000A0B0C0D0E0F1010000000000000000040
:102530000102030406070809000000000102030469
:10254000602500080000002030000000280100087D
:1025500090250008300000204007000044010008DA
:10256000000000000000000000000000010000006A
:10257000000000000000000000000000000000005B
:1025800001000000100000000000000000127A00AE
:04000005080000ED02
:00000001FF
